:020000040800F2
:10000000406B00207D6F00084FFB0008696F0008FF
:10001000696F0008696F0008696F00080000000040
:10002000000000000000000000000000C570000893
:10003000696F0008000000009170000891980008A6
:100040006972000869720008697200086972000824
:100050006972000869720008697200086972000814
:100060006972000869720008697200086972000804
:1000700069720008697200086972000869720008F4
:1000800069720008697200086972000869720008E4
:1000900069720008697200086972000869720008D4
:1000A00069720008697200086972000869720008C4
:1000B00069720008697200086972000869720008B4
:1000C00069720008697200086972000869720008A4
:1000D0006972000869720008697200086972000894
:1000E0006972000869720008697200086972000884
:1000F0006972000869720008697200086972000874
:100100006972000869720008697200086972000863
:100110006972000869720008697200086972000853
:100120006972000869720008697200086972000843
:08013000697200086972000801
:1001380081F0004102E000BF83F0004330B54FEA90
:1001480041044FEA430594EA050F08BF90EA020FFD
:100158001FBF54EA000C55EA020C7FEA645C7FEA90
:10016800655C00F0E2804FEA5454D4EB5555B8BFB3
:100178006D420CDD2C4480EA020281EA030382EA24
:10018800000083EA010180EA020281EA0303362DB6
:1001980088BF30BD11F0004F4FEA01314FF4801C89
:1001A8004CEA113102D0404261EB410113F0004F9B
:1001B8004FEA03334CEA133302D0524263EB430352
:1001C80094EA050F00F0A780A4F10104D5F1200EF0
:1001D8000DDB02FA0EFC22FA05F2801841F100014B
:1001E80003FA0EF2801843FA05F359410EE0A5F11F
:1001F80020050EF1200E012A03FA0EFC28BF4CF050
:10020800020C43FA05F3C01851EBE37101F0004505
:1002180007D54FF0000EDCF1000C7EEB00006EEB12
:100228000101B1F5801F1BD3B1F5001F0CD349089C
:100238005FEA30004FEA3C0C04F101044FEA4452F3
:1002480012F5800F80F09A80BCF1004F08BF5FEA7A
:10025800500C50F1000041EB045141EA050130BD5A
:100268005FEA4C0C404141EB0101013C28BFB1F56C
:10027800801FE9D291F0000F04BF01460020B1FAB7
:1002880081F308BF2033A3F10B03B3F120020CDA8A
:100298000C3208DD02F1140CC2F10C0201FA0CF068
:1002A80021FA02F10CE002F11402D8BFC2F1200CCD
:1002B80001FA02F120FA0CFCDCBF41EA0C01904083
:1002C800E41AA2BF01EB0451294330BD6FEA0404CC
:1002D8001F3C1CDA0C340EDC04F11404C4F12002B7
:1002E80020FA04F001FA02F340EA030021FA04F3C9
:1002F80045EA030130BDC4F10C04C4F1200220FA20
:1003080002F001FA04F340EA0300294630BD21FA5D
:1003180004F0294630BD94F0000F83F4801306BF23
:1003280081F480110134013D4EE77FEA645C18BF17
:100338007FEA655C29D094EA050F08BF90EA020FAE
:1003480005D054EA000C04BF1946104630BD91EAA6
:10035800030F1EBF0021002030BD5FEA545C05D1A9
:100368004000494128BF41F0004130BD14F58004E8
:100378003CBF01F5801130BD01F0004545F0FE415C
:1003880041F470014FF0000030BD7FEA645C1ABF91
:10039800194610467FEA655C1CBF0B46024650EAC8
:1003A800013406BF52EA033591EA030F41F40021F4
:1003B80030BD00BF90F0000F04BF0021704730B57A
:1003C8004FF4806404F132044FF000054FF000014F
:1003D80050E700BF90F0000F04BF0021704730B510
:1003E8004FF4806404F1320410F0004548BF4042E5
:1003F8004FF000013EE700BF42004FEAE2014FEA3A
:1004080031014FEA02701FBF12F07F4393F07F4F14
:1004180081F06051704732F07F4208BF704793F017
:100428007F4F04BF41F40021704730B54FF460742A
:1004380001F0004521F000411CE700BF50EA01022D
:1004480008BF704730B54FF000050AE050EA0102D6
:1004580008BF704730B511F0004502D5404261EB46
:1004680041014FF4806404F132045FEA915C3FF487
:10047800D8AE4FF003025FEADC0C18BF03325FEA24
:10048800DC0C18BF033202EBDC02C2F1200300FAD5
:1004980003FC20FA02F001FA03FE40EA0E0021FAFA
:1004A80002F11444BDE600BF70B54FF0FF0C4CF4E8
:1004B800E06C1CEA11541DBF1CEA135594EA0C0F9A
:1004C80095EA0C0F00F0DEF82C4481EA030621EAD5
:1004D8004C5123EA4C5350EA013518BF52EA033510
:1004E80041F4801143F4801338D0A0FB02CE4FF0C2
:1004F8000005E1FB02E506F00042E0FB03E54FF0F2
:100508000006E1FB03569CF0000F18BF4EF0010EE9
:10051800A4F1FF04B6F5007F64F5407404D25FEAE5
:100528004E0E6D4146EB060642EAC62141EA555198
:100538004FEAC52040EA5E504FEACE2EB4F1FD0CDA
:1005480088BFBCF5E06F1ED8BEF1004F08BF5FEA58
:10055800500E50F1000041EB045170BD06F000460A
:1005680046EA010140EA020081EA0301B4EB5C04B7
:10057800C2BFD4EB0C0541EA045170BD41F48011AF
:100588004FF0000E013C00F3AB8014F1360FDEBFD4
:10059800002001F0004170BDC4F10004203C35DAB0
:1005A8000C341BDC04F11404C4F1200500FA05F333
:1005B80020FA04F001FA05F240EA020001F00042D4
:1005C80021F0004110EBD37021FA04F642EB06014A
:1005D8005EEA430E08BF20EAD37070BDC4F10C0474
:1005E800C4F1200500FA04F320FA05F001FA04F238
:1005F80040EA020001F0004110EBD37041F1000124
:100608005EEA430E08BF20EAD37070BDC4F120052E
:1006180000FA05F24EEA020E20FA04F301FA05F296
:1006280043EA020321FA04F001F0004121FA04F23E
:1006380020EA020000EBD3705EEA430E08BF20EA0E
:10064800D37070BD94F0000F0FD101F00046400048
:1006580041EB010111F4801F08BF013CF7D041EACA
:10066800060195F0000F18BF704703F000465200CE
:1006780043EB030313F4801F08BF013DF7D043EA9F
:100688000603704794EA0C0F0CEA135518BF95EA55
:100698000C0F0CD050EA410618BF52EA4306D1D1DC
:1006A80081EA030101F000414FF0000070BD50EAFB
:1006B800410606BF1046194652EA430619D094EA85
:1006C8000C0F02D150EA013613D195EA0C0F05D16F
:1006D80052EA03361CBF104619460AD181EA0301C3
:1006E80001F0004141F0FE4141F470014FF000007B
:1006F80070BD41F0FE4141F4780170BD70B54FF016
:10070800FF0C4CF4E06C1CEA11541DBF1CEA135595
:1007180094EA0C0F95EA0C0F00F0A7F8A4EB050477
:1007280081EA030E52EA03354FEA013100F088806E
:100738004FEA03334FF0805545EA131343EA126337
:100748004FEA022245EA111545EA10654FEA0026EC
:100758000EF000419D4208BF964244F1FD0404F5A5
:10076800407402D25B084FEA3202B61A65EB030501
:100778005B084FEA32024FF480104FF4002CB6EBBE
:10078800020E75EB030E22BFB61A754640EA0C003E
:100798005B084FEA3202B6EB020E75EB030E22BF7E
:1007A800B61A754640EA5C005B084FEA3202B6EBBF
:1007B800020E75EB030E22BFB61A754640EA9C007E
:1007C8005B084FEA3202B6EB020E75EB030E22BF4E
:1007D800B61A754640EADC0055EA060E18D04FEA0C
:1007E800051545EA16754FEA06164FEAC30343EAAC
:1007F80052734FEAC2025FEA1C1CC0D111F4801F79
:100808000BD141EA00014FF000004FF0004CB6E771
:1008180011F4801F04BF01430020B4F1FD0C88BF10
:10082800BCF5E06F3FF6AFAEB5EB030C04BFB6EB1B
:10083800020C5FEA500C50F1000041EB045170BD0E
:100848000EF0004E4EEA113114EB5C04C2BFD4EB3B
:100858000C0541EA045170BD41F480114FF0000EBF
:10086800013C90E645EA060E8DE60CEA135594EA3B
:100878000C0F08BF95EA0C0F3FF43BAF94EA0C0F3E
:100888000AD150EA01347FF434AF95EA0C0F7FF4B3
:1008980025AF104619462CE795EA0C0F06D152EA07
:1008A80003353FF4FDAE1046194622E750EA4106EB
:1008B80018BF52EA43067FF4C5AE50EA41047FF4FC
:1008C8000DAF52EA43057FF4EBAE12E74FEA41025F
:1008D800B2F1E04324BFB3F5001CDCF1FE5C0DD996
:1008E80001F0004C4FEAC0024CEA5070B2F1004FE0
:1008F80040EB830008BF20F00100704711F0804FE3
:1009080021D113F13872BCBF01F00040704741F4A7
:1009180080114FEA5252C2F11802C2F1200C10FAAB
:100928000CF320FA02F018BF40F001004FEAC1238F
:100938004FEAD32303FA0CFC40EA0C0023FA02F333
:100948004FEA4303CCE77FEA625307D150EA013309
:100958001EBF4FF0FE4040F44000704701F00040D9
:1009680040F0FE4040F40000704700BF7BB972B908
:100978000029BEBF00204FF0004106E008BF002854
:100988001CBF6FF000414FF0FF3000F057B8ADF1D9
:10099800080C6DE904CE002909DB002B1ADB00F0F6
:1009A8004FF8DDF804E0DDE9022304B07047404267
:1009B80061EB4101002B1BDB00F042F8DDF804E09D
:1009C800DDE9022304B0404261EB4101524263EB8E
:1009D80043037047524263EB430300F031F8DDF8FC
:1009E80004E0DDE9022304B0404261EB41017047B5
:1009F800524263EB430300F023F8DDF804E0DDE93D
:100A0800022304B0524263EB4303704753B94AB917
:100A1800002908BF00281CBF4FF0FF314FF0FF30FE
:100A280000F00CB8ADF1080C6DE904CE00F008F840
:100A3800DDF804E0DDE9022304B07047704700BF29
:100A48002DE9F04786468C460846089E15467446AA
:100A58001946002B40F0C2808542B2FA82F245D98D
:100A68004AB1C2F1200300FA02FC2EFA03F39540C2
:100A780043EA0C0C94404FEA154EA8B2BCFBFEF8B2
:100A8800230C0EFB18CC08FB00F943EA0C439945EC
:100A980028D9EB1808F1FF3704D2994502D9A8F1F3
:100AA80002072B44A3EB0903A4B2B3FBFEFC0EFB25
:100AB8001C330CFB00F044EA0344A04214D92C195F
:100AC8000CF1FF3304D2A04202D9ACF102032C444A
:100AD800241A43EA07401EB1D440002334607360EF
:100AE800BDE8F0874746DDE76346F1E792BB431B65
:100AF80001214FEA154EAFB2B3FBFEFC200C0EFBF2
:100B08001C330CFB07F840EA0343984562D9EB18FD
:100B18000CF1FF3004D2984502D9ACF102002B4405
:100B2800A3EB0803A4B2B3FBFEFC0EFB1C330CFBC7
:100B380007F744EA0344A7424ED92C190CF1FF33B6
:100B480004D2A74202D9ACF102032C44E41B43EAC5
:100B58000040C0E7C2F1200320FA03F1954090401D
:100B68002EFA03F303434FEA154EAFB2B1FBFEFC76
:100B78000EFB1C10190C0CFB07F841EA00418845D4
:100B880004FA02F422D969180CF1FF3004D288451E
:100B980002D9ACF102002944A1EB08019BB2B1FBD8
:100BA800FEFC0EFB1C110CFB07F743EA01439F42B6
:100BB8000ED9EB180CF1FF3104D29F4202D9ACF1E7
:100BC80002012B44DB1B41EA004192E76046E3E760
:100BD8006146F7E76046A3E76346B7E7834206D96D
:100BE80016B9002108467BE7C6E900E0F9E7B3FA41
:100BF80083F78FB9834201D3724508D8BEEB02044C
:100C080060EB030301209C461EB9002168E73846C3
:100C1800FAE7C6E9004CF8E7C7F1200CBB4022FA16
:100C28000CF41C432EFA0CF120FA0CF3B8400143E3
:100C38004FEA14490EFA07F5B3FBF9F81FFA84FED8
:100C480009FB18300B0C08FB0EFA43EA00439A45DF
:100C580002FA07F240D9E31808F1FF3004D29A45A6
:100C680002D9A8F102002344A3EB0A0389B2B3FB1B
:100C7800F9F809FB183308FB0EFE41EA03418E45DB
:100C88002CD9611808F1FF3304D28E4502D9A8F196
:100C98000203214443EA0040A0FB0298A1EB0E01A5
:100CA8004145CE46434602D306D14D4504D2B9EB61
:100CB800020E68EB04030138002EA6D0B5EB0E0235
:100CC80061EB030101FA0CFC22FA07F34CEA030377
:100CD800F940C6E9003198E74046C5E74346D9E7F9
:100CE80010F8012B11F8013B012A28BF9A42F7D0CE
:100CF800D01A7047034611F8012B03F8012B002A7C
:100D0800F9D17047034613F8012B002AFBD1181AB2
:100D180001387047000000002DE9F04786B000AFA9
:100D280006460D46BA4810F022FC002872D0B84892
:100D38008368DB683B2198470446002878D1B4488B
:100D480083681B6907F110020D21984704460028A3
:100D58007FD13869FFF73EFB804689467869FFF7FF
:100D680039FBA9A3D3E90023FFF7C8FC42464B4649
:100D7800FFF7E4F980468946A64B1B6813F0040F79
:100D880000F0958000220023FFF7D8F96C461C225A
:100D98000C2312F0070F68D103F1080EF4461F3335
:100DA80023F00703ADEB030D6A46BEF1000F68D0D0
:100DB80002F1100ABEF1030F61D9BAF1000F09D090
:100DC800BEF1040F01DD944B5361BEF1080F01DD44
:100DD800924B93611C234FF00C0C13F0070F47D173
:100DE8006346BAF1000F04D0E64502DDD444CCE9ED
:100DF800000108339E453FDB9C46BAF1000F40D006
:100E0800C3F387033B7100237B71BB71FB71786867
:100E1800106136E07F4B1B6813F0070F02D16FF0AB
:100E280012040AE07E4A01217A480DF0F5F9F6E746
:100E3800784B1B6813F0070F04D120461837BD46BE
:100E4800BDE8F0870346774A012172480DF0EEF9B4
:100E5800F3E7704B1B6813F0070FEED00346724A96
:100E680001216C480DF0E2F9E7E70433043290E71A
:100E78000CF1040C0433B0E76FF01B0CBDE76FF006
:100E88001B0C00216FF300016FF341016FF3820126
:100E98006FF3C501042363F388116CF353216FF3D7
:100EA8001F51103200235B4802F094F8A54626B182
:100EB80040464946FFF70AFD3060554883681B697C
:100EC80007F10802102198470446002861D1B86844
:100ED800FFF780FA80468946F868FFF77BFA4AA34D
:100EE800D3E90023FFF70AFC02460B464046494671
:100EF800FFF724F980468946464B1B6813F0040F18
:100F080076D000220023FFF719F96E461C220C2325
:100F180012F0070F4AD103F1080EF4461F3323F0ED
:100F28000703ADEB030D6A46BEF1000F4AD002F18C
:100F3800100ABEF1030F43D9BAF1000F09D0BEF170
:100F4800040F01DD394B5361BEF1080F01DD334B4E
:100F580093611C234FF00C0C13F0070F29D1634643
:100F6800BAF1000F04D0F44502DAD444CCE9000108
:100F780008339E4521DB9C46BAF1000F22D0C3F30B
:100F880087033B7100237B71BB71FB71786810612B
:100F980018E0204B1B6813F0070F3FF44EAF0346D1
:100FA800214A01211B480DF041F946E70433043278
:100FB800AEE70CF1040C0433CEE76FF01B0CDBE753
:100FC8006FF01B0C00216FF300016FF341016FF309
:100FD80082016FF3C501042363F388116CF3532175
:100FE8006FF31F51103200230A4801F0F3FFB54692
:100FF800002D3FF422AF40464946FFF767FC2860C2
:101008001BE700BFAFF300800000000080842E4182
:10101800D4290108300D00202C3201085C32010867
:10102800C8310108DC3101080432010844320108E2
:101038002DE9F04F8FB00B900C46154610F00DFFC0
:101048000022431880F0858013444F4FA7FB032CE0
:101058002CF0030202EB9C029B1AC01A61F10002F9
:101068004FF0CC3100FB01F107FB0211A0FB070395
:101078001944400840EAC1704F088046012C6AD0E4
:101088006C6821464148FFF72BFE28B121464048AD
:10109800FFF726FE002867D139A3D3E9002340468D
:1010A8003946FFF763FC0C900E4635A3D3E90023BD
:1010B80040463946FFF75AFC15461C46354A002378
:1010C80028462146FFF752FC07460D91314A002376
:1010D80028462146FFF74AFC15461C464EF6602274
:1010E800002328462146FFF741FC814688464EF6F4
:1010F8006022002328462146FFF738FC15461C4687
:101108004FF47A72002328462146FFF72FFC8346C6
:101118008A464FF47A72002328462146FFF726FCB8
:10112800CDE90823CDF818B0CDF81CA0CDF8109063
:10113800CDF8148002970D9B03930C9B00930196A6
:10114800154A08210B980DF0A5FE00200FB0BDE848
:10115800F08F012278E700900197104A08210B9838
:101168000DF098FE0020F1E723460D4A01210B9867
:101178000DF090FE6FF00400E8E700BFAFF30080C9
:10118800005C260500000000CDCCCCCCE838010876
:10119800EC38010880EE360010390108D43801080F
:1011A800F838010808B5034604220249024898475E
:1011B800002008BD581B00206830010838B50546D6
:1011C800012912D0022941D154682046FFF79AFD1F
:1011D8000A2812D10023984220D9E25C1E498A5C71
:1011E80012F0040F11D00133F5E71C4B1B681C4AA1
:1011F80008210DF04FFE00240EE01A4A012128466E
:101208000DF048FE6FF0150406E0164A0121284645
:101218000DF040FE6FF01504204638BD0A2200216B
:1012280020460AF0B5FC0D4B18600DF086FA04460E
:101238000028F1D00C4B1B6813F0070FECD00346C5
:101248000A4A012108480CF0F1FFE5E70DF078FEA5
:101258006FF01504E0E700BFAD610108581B0020DE
:1012680080300108883001082C0D002098300108D2
:10127800244B1B6813F0040F41D0B0B582B000AF07
:101288006C4688B06B4613F1100232D00C2142B183
:101298000846042901DD1C4D5D61082801DD1B4855
:1012A80098610B2928DD4FF00C0C3AB103213971F4
:1012B80000217971B971F9717868186100216FF3AB
:1012C80000016FF341016FF382016FF3C50104233D
:1012D80063F38811CCF30A0C6CF353216FF31F519D
:1012E8000023084801F076FEA54600200837BD46D1
:1012F800B0BD6FF00041CAE76FF01B0CD5E70020C6
:10130800704700BF2C0D0020B8300108703101086B
:1013180010B502F0B1FE70B10446184B1B6813F00B
:10132800070F01D1204610BD0346154A0121134875
:101338000CF07CFFF6E7134802F01EFD044658B196
:101348000E4B1B6813F0070FECD003460E4A012121
:101358000A480CF06BFFE5E70C4802F077FC0446FE
:101368000028DFD0054B1B6813F0070FDAD00346BF
:10137800074A012101480CF059FFD3E72C0D002042
:10138800D4300108600B0020FC300108203101082E
:101398002C31010870B582B00C4615461E4601AACC
:1013A80013490DF0CFF9C8B1019BD3B9042C1BD157
:1013B800224610493046A847041E03DB0024204675
:1013C80002B070BD0C4B1B6813F0070FF7D0234613
:1013D8000A4A012108480CF029FFF0E76FF00104E0
:1013E800EDE76FF00104EAE76FF01504E7E700BFE7
:1013F80074300108581B00202C0D002054310108BE
:1014080030B585B0754B1B6803F00703022B2ED847
:10141800734810F0ACF880B3714810F0A8F860B3C6
:101428006F4810F0A4F840B34FF4B0116D480BF0BA
:1014380054FD034660BB4FF4B0116B480BF04DFDF3
:101448000346002830D14FF4B01168480BF045FD31
:101458000346002833D0614A126812F0070F00F0E3
:10146800A680634A01215D480CF0E0FE9FE0614AD6
:1014780003215A480CF0D0FECAE7584B1B6813F0FA
:10148800070F70D05C4A012154480CF0C5FE6AE091
:10149800524A126812F0070F00F08980544A01215D
:1014A8004E480CF0C3FE82E04C4A126812F0070F57
:1014B8007DD04F4A012149480CF0B8FE77E042F24E
:1014C8001070002109F0A2FE2BE0454C01220621F4
:1014D80020460BF01DFD4FF4FA70002109F096FE2E
:1014E8000022062120460BF013FD03A902A8FFF7EE
:1014F80013FC002821DB0298FEF77EFF04460D4608
:101508000398FEF779FFCDE9000122462B463B49B7
:1015180009683B480BF04FFE42F21070002109F0B9
:1015280075FE2E4B1B6803F00703022BCDD9354AF5
:1015380003212A480CF070FEC7E7284B1B6813F0FC
:10154800070F10D00346304A012124480CF06EFEE4
:1015580009E024480BF0E9FC041E0FDB4FF4FA7095
:10156800002109F053FE1D4B1B6813F0070FF0D044
:10157800264A012119480CF04FFEEAE7174B1B6871
:1015880013F0070F02D1204605B030BD2346204A8C
:10159800012112480CF04AFEF5E712480BF0C5FC91
:1015A800041E0FDB47F6F460002109F02FFE0B4BF9
:1015B8001B6813F0070FF0D0144A012107480CF0FC
:1015C8002BFEEAE7054B1B6813F0070FDBD0234619
:1015D8000F4A012101480CF029FED4E7680D0020CC
:1015E800742901089C330108943301088C330108DD
:1015F800C4320108A0320108C8310108581B002074
:1016080018330108EC320108F43201085833010894
:10161800643301084FF0000C944515D210B511F849
:101628000C3058400309094CE35C83EA00135FFA65
:1016380083FEC3F30313E05C80EA0E10C0B20CF122
:10164800010C9445EBD310BD704700BFAC330108C3
:101658002DE9F04106460F46154600F0ABF8044662
:10166800C3681BB943691A78002A54D10023E36080
:10167800616857F821306361B14231DA5A1C6261FE
:101688001A782D2A2CD19A1C62615A78A2602D2AC8
:101698002ED04AB9394B63612D21284610F05FFEE0
:1016A800002832D02D23A360D4F80880414628466C
:1016B80010F055FEB8F13A0F32D0002830D04378F8
:1016C8003A2B38D00023236163691B7813B9636808
:1016D80001336360204600F053F8A068BDE8F0814C
:1016E800264B6361204600F04BF84FF0FF30F5E7DA
:1016F8009B78002BCDD101316160204B636120467E
:1017080000F03EF84FF0FF30E8E7204600F038F8E8
:101718004FF0FF30E2E75A1C42611B788360C3E751
:1017280063691B7813B9636801336360204600F06E
:1017380027F83F20D2E763691A7832B123610F4B4B
:101748006361636801336360C4E76368013363609E
:10175800B34203DA57F823302361F0E7074B63619C
:101768002B783A2B04D0204600F00AF83F20B5E742
:10177800204600F005F83A20B0E700BF0C3A01080F
:101788000268074B1A604268064B1A608268064B6B
:101798001A60C268054B1A600269054B1A607047E7
:1017A800940B0020900B0020641B0020601B00207D
:1017B8005C1B002000487047780B00202DE9F04F93
:1017C80091B005920293134602F004020092C3F30B
:1017D800C20210F00303019340F02D8280468A462E
:1017E8000132041D00284FD0B8F1000F05D0A4EB3A
:1017F80008030433534500F22182029B5D1E019BBE
:1018080004930693039300264FF0FF3B0427B94641
:10181800B8F1000F01D0029B2360531E0793002AE2
:1018280040F35F81059B13F0020228D00120A4EB4E
:1018380008018B081AB1B1F5007F80F00582039981
:101848000F2900F20482B8F1000F00F06281DBB2C8
:1018580001F140026A4402F8103C02F820BC00285A
:1018680000F0538163F07F0301F140026A4402F8FB
:10187800103C049B01330493039B0133039304340A
:101888000022CC4640463DE001F0070A5444CAF124
:10189800080AA9E7002634E0002632E0002630E0F6
:1018A8000827BC462DE025292BD10BF1010B012679
:1018B8000427BC4625E04729EED82A2914D32A391B
:1018C800C9B24FF0010E0EFA01F14FF6DA7E11EAB5
:1018D8000E0F16D111F0625F40F0C18011F0010FB8
:1018E80040F08C8000260CE0252903D10BF1FF3B4A
:1018F800002606E001D9002603E0202901D023298B
:10190800CCD11D466B1C6978002900F01B81002E84
:10191800C9D07A29BED84C29CDD34C392E2961D8C3
:101928000FF2040E5EF821F00B190008ED190008FB
:10193800ED190008ED190008ED190008ED19000867
:10194800ED190008ED190008ED190008ED19000857
:10195800ED190008ED190008FD190008ED19000837
:10196800ED190008ED190008ED190008ED19000837
:10197800ED190008ED190008ED190008671A0008AC
:10198800ED190008FD190008FD190008671A00087C
:10199800671A0008671A00080B190008FD190008E3
:1019A800A9180008ED1900080B190008ED1900081E
:1019B800C31A0008FD190008C31A0008ED19000829
:1019C800ED190008CB1A0008F7190008FD190008DE
:1019D800ED190008ED190008FD190008ED190008B7
:1019E800F119000800268CE70427BC4689E704277C
:1019F800BC4686E729786C2925D000263C44013C62
:101A0800B4FBF7F407FB04F4254620B1211A61441E
:101A1800514500F21681002A58D1BCF1040F00F09C
:101A28008980BCF1080F40F015811A99073121F01F
:101A3800070101F108051A95D1E9008908B1C4E93F
:101A4800008908345DE713F8021C6C2903D00026CE
:101A58000427BC46D2E700260827BC46CEE72978EB
:101A68004C291AD01A99073121F0070101F108060B
:101A78001A96D1E90067073424F0070440B1211A07
:101A88000831514513D829784C2913D0C4E9006787
:101A9800083400260827BC4633E71A99073121F095
:101AA800070101F108061A96D1E90067E3E76FF02C
:101AB8001B00BDE0C4E90067EAE700260427BC462E
:101AC8009CE7324600260427BC4697E72C46E146A9
:101AD80080461A9A111D1A9112680292079A1D4699
:101AE80096E6624B029A9A4204D3614B9A420AD311
:101AF800002300E00023002B7FF494AE059B03F045
:101B08000202002093E60123F5E7069B01330693C2
:101B1800B2E610B10AF1010AAEE6009B13B10AF170
:101B2800020AA9E60298FFF7EDF800EB0A0303F1B1
:101B3800020AA1E61A990D1D1A95096800B12160DB
:101B48000434DEE68046231AB3F5806F80F0858082
:101B580090B1002202609B080370009B83B1069B32
:101B6800C370049B88F802301BBB019DDDF80C9004
:101B7800DDF810B0029F3DE05344A3F1080057E0A0
:101B8800069B4370EDE701339842EED903F140021A
:101B98006A4412F8101C12F9102C002AF3DA01F02A
:101BA8007F01A4EB08020132524559D804F8011B01
:101BB800E9E7019B0398E7E7009B43B305F140037E
:101BC8006B4413F8203C04F8013B019EA4EB080386
:101BD80033440133534546D805F140036B4413F8A9
:101BE800103C04F8013B32463946204610F025FDEA
:101BF80034440135A94519D9BBF1000FDCD005F1F2
:101C080040036B4413F9103C002BD5DAF1E705F1DA
:101C180040036B4413F8103C58F82370002248F82E
:101C280023203846FFF76EF8461CCFE7A4EB0800E0
:101C380011B0BDE8F08F6FF00D00F9E76FF01B00F1
:101C4800F6E76FF01B00F3E76FF01500F0E76FF0B1
:101C58001500EDE76FF01500EAE76FF01500E7E70C
:101C68006FF01B00E4E76FF01B00E1E74428010870
:101C7800BC6201082DE9F04F97B000AF8346BA6106
:101C88003B61D7F88030C3F3C0033B62F96011B9F8
:101C98000BF009FAF8609BF80260B14636B1D7F844
:101CA800803013F0010F0DD1002300E000239BF8D2
:101CB80003207A6242B1D7F8802012F0020F22D1B5
:101CC800002202E00123F2E7002202B9EBB19BF8FF
:101CD8000050AA00BA60DBF804207A610BEB850596
:101CE800BA69F2B1002B40F00581B9F1000F00F09C
:101CF8001081D7F8803013F0040F40F00E810020D7
:101D0800F8610646FAE00122DFE7BB691BB13A69D0
:101D1800F96858469847FC6820465C37BD46BDE8D8
:101D2800F08FFC6853BB4D444FF00008D7F8803063
:101D380003F00503FB604FF0000AC7F81080A046C7
:101D4800C7F81CB0D7F804B0BEE00444013501362A
:101D58004E45EBD22A7800235BF822201946B86951
:101D68000BF0B6F9BAF1000FEFD0D7F888309845E4
:101D7800EBD22AF8180008F10108E6E70026B04679
:101D8800D7F884A0E4E700253B6A7BB9002D7DD015
:101D9800D7F8803013F0010F7DD1FB68002B73D189
:101DA8000223A8EB03088CE00125EDE74946786992
:101DB8000BF0D4F90028E9D0BB4B1B6813F0060FD1
:101DC80040D06C46002387F82C30022387F82D304A
:101DD8008AB0694611F1100237D012251AB1042DC4
:101DE80001DDB24B4B61002387F82830022387F8C6
:101DF80029306ABB112D44DD122362B1042087F813
:101E08002C00002087F82D0087F82E00012087F885
:101E18002F00F86A08616FF3000B6FF3410B6FF343
:101E2800820B6FF3C50B022161F3881BC3F30A030E
:101E380063F3532B6FF31F5B002359469A4801F055
:101E4800C9F8A546A8F102083BE06FF00045C5E7D0
:101E58002B46082D01DD786988610C2B01DDC1F85E
:101E68001C9001F1200300200128C3D800F1300C98
:101E780007F1280EF4441CF830CC03F801CB0130EC
:101E8800F2E76FF01B03B8E701238AE7D7F8803041
:101E980013F0020F15D0002322461946B8690BF03B
:101EA80017F9D7F8843053B13B69D7F888209342A3
:101EB80005D2D7F8842022F8130001333B6101389A
:101EC80080440AF1010A35467B6A9A4510D22E46AB
:101ED80016F8029B6B78FA6952F82340744B9C42BF
:101EE800FFF451AF734B9C42FFF45EAF00254BE704
:101EF800444611E707F144000023FB6118B14A4644
:101F0800294610F09AFB4D444FF00008C7F804909A
:101F18001EE00020F8610646F0E7FE6107F1340094
:101F28000026EBE700253B6A33BB002D3BD0D7F8F2
:101F3800803013F0010F26D0731C06F1300207F130
:101F48002801561806F8149CDEB208F10108254647
:101F58007B6A98454AD22C4614F802AB95F8019052
:101F68005BF82930524A9342DCD3524A934201D358
:101F78000025D8E70125D6E7514678690BF0EEF839
:101F88000028D2D0E1E7D7F8803013F0040FDCD076
:101F9800FA69531C303207F128010A4402F8249CDC
:101FA800DBB2FB61D1E7D7F8803013F0020F09D01C
:101FB800731C06F1300207F12801561806F8149C24
:101FC800DEB2C2E7F869431C00F1300107F12802CC
:101FD8008A1802F824AC02460232D2B2FA6107F13A
:101FE800580252FA83F303F8249CAEE7D7F804901A
:101FF8009BF8003087F854309BF80130334487F859
:102008005530D7F8803013F0020F0ED1FB69C3F3B7
:10201800470387F85730D7F8803013F0010F06D1FF
:1020280013F0040F48D1002302E00023F1E7002356
:1020380087F85630DBF800003863786DCBF800007D
:10204800D7F810804246B9685846D7F818A0D04744
:10205800041EFFF661AE386BCBF80000C7F810809D
:102068004246F96907F13400D047002857DB04EBF2
:102078000008B96849447B6A01EB4301D7F810901E
:102088004A46FB68591A2846D047041EFFF644AE54
:1020980008EB04054FF000087E62C7F820B05646EA
:1020A800D7F884B01FE000BF380D0020C433010802
:1020B80044280108BC620108FB69B9E74FF0000A2F
:1020C8004A46012107F12C00B047002829DB0544C6
:1020D80053462246494630460AF0FAFF002822DBDA
:1020E800054408F101087B6A984511D208F13003CC
:1020F80007F12802134413F8143C87F82C303A6A85
:1021080052F82340BBF1000FD8D03BF818A0D7E70E
:102118003A6900210846BB6998472C46FCE5044605
:10212800FAE50446F8E50446F6E500BF014B1860F9
:10213800704700BF980B002080B505460E4617462D
:10214800984609F09BF8034610F06EFB0446DFF84A
:10215800189049F80030424639463046A84754F8A6
:10216800090004F035FF00BF0800000008B5044668
:10217800EFF31183102383F31288BFF36F8F0FF0EF
:102188006BF920460DF00CFD02480BF014F80DF029
:1021980022FDFCE77C34010882B04FF0B0439A6C12
:1021A80042F001029A649B6C03F001030193019BC6
:1021B800034A536843F002035360002002B070479B
:1021C800002004E0064B1A6842F400721A601A688C
:1021D80042F480621A60034B034A1A600020704779
:1021E80000400058B80C002000093D002DE9F043DC
:1021F80087B0044600230393C36A1F7900F11409CA
:102208004FF0FF324FF0FF33484608F0A9F9E36A70
:102218001B68DAB2012A08D9134607325B4203EA7F
:1022280002064FF00008454603E00826F9E70135A5
:10223800ADB2E389AB421CD9A189891B89B201EBF4
:102248000541039108233A4620460BF064FB002819
:10225800EDD008F101081FFA88F803A920460BF011
:10226800B4FB08233A46039920460BF054FB002898
:10227800DDD1E389434500F00481AB420DD003A9C9
:1022880020460BF0D9FB0546002840F0DF80039B71
:1022980063601B0C1B04A36010E008233A460399F3
:1022A800891B20460BF037FB0028E8D103A92046FC
:1022B8000BF08BFBE3E763689B1B63606168A368B3
:1022C80099422ED304AA20460BF020FB054600288D
:1022D80040F0B580394604A80BF06BFB08B304A99D
:1022E80020460BF08DFB0028E5D0BDF80E30190410
:1022F800A160BDF81230BDF814000344E26A126808
:10230800D5B2012D03D92B44013B6A4213400B443B
:10231800A36062689342CED10028CCD06FF01C0530
:1023280094E0E3881B04039303A920460BF04DFBBC
:10233800A3893A46039920460BF0EDFA051EC0F230
:102348008580002D68D063683344039302E0039BC3
:102358003344039303998AB2A3899B1B9A4218D2E8
:1023680001AA20460BF0D2FA0546002867D101A938
:1023780020460BF045FB0028E9D0BDF804204FF6B5
:10238800FF739A42E3D1BDF80830002BDFD1012357
:1023980000E00023E3B93C4B1B6803F00703022B62
:1023A8002FD8616820460BF0E7FA054600284DD182
:1023B800E3881B046360A289A2EB460213446360AE
:1023C8001B0C1B04A36020460BF09EFC054636E060
:1023D8002D4B1B6803F00703022B0CD8E3881B0462
:1023E800039303A920460BF0F0FA039920460BF05B
:1023F800C3FA054623E0254A032123480BF00CFFC6
:10240800ECE7234A032120480BF006FFC9E7A3683D
:10241800E26A12681344A3606368A1688B4208D912
:102428005B1A3A4620460BF076FA051E07DB002DAC
:10243800EDD1616801EB4602A3899A420DD02DB90E
:10244800A288A389A3EB46039A4215D0484608F010
:1024580007F9284607B0BDE8F083A2680B0C1B04F7
:102468009A42ECD020460BF087FA05460028EDD1B9
:10247800E3881B04A360E2E720460BF02DFC054629
:10248800E4E76FF02C05E1E7440D0020AC340108C7
:10249800C434010830B587B0044614300FF0C9F8C9
:1024A800A06A8368DB689847E062002837D0A06A92
:1024B8008368DB6898470368013B1F2B3DD8A06AF7
:1024C800216803AA0DF015FD002844D1A389002B2B
:1024D8004FD0049AB3FBF2F102FB1133002B48D121
:1024E800E389012B53D92046FFF780FE054698B9AA
:1024F800012323743B4B1B6803F00703022B54D8BA
:10250800384B1B6803F00703022B57D8354B1B6861
:1025180003F00703022B5BD8284607B030BD314BC8
:102528001B6813F0070F02D16FF01505F4E72E4A68
:1025380001212C480BF070FEF6E72A4B1B6813F0BC
:10254800070F02D16FF01505E6E7284A0121254853
:102558000BF062FEF6E7234B1B6813F0070F02D15E
:102568006FF01505D8E7224A01211E480BF054FEEA
:10257800F6E71C4B1B6813F0070F02D16FF0150527
:10258800CAE71C4A012117480BF046FEF6E7154B2F
:102598001B6813F0070F02D16FF01505BCE7164A48
:1025A800012110480BF038FEF6E7E389A289009272
:1025B800124A03210B480BF044FEA1E76268130C92
:1025C80092B200920E4A032106480BF03AFE9DE7AC
:1025D800A268130C92B200920A4A032101480BF038
:1025E80030FE99E7440D0020003501082435010824
:1025F800443501085C350108703501089435010837
:10260800AC350108C03501082DE9F04F87B00192BB
:1026180090F810B0BBF1000F26D004460E4699463C
:10262800C36A1B68D9B201292CD901F1070A4A42A9
:102638000AEA020A012928D9DBB209EB030808F1E2
:10264800FF385B4208EA0308A389A3EB8A034B45DA
:10265800C0F09080B9F1000F03D0019B002B00F06F
:102668008C806368039316E0454B1B6813F0070FD3
:1026780002D16FF00C0575E0424A012140480BF089
:10268800CBFDF6E74FF0080AD4E7C846DCE76268F6
:10269800039B9A4213D0039F04AA03A920460BF078
:1026A8002BFA054600285DD1BDF81030B342EED1B3
:1026B80004A920460BF0A4F90028E8D001E04FF067
:1026C800000BBBF1000F18D03F0C3F04BDF81210EF
:1026D8003944B9F1000F03D1BDF8143083B941E092
:1026E800BDF814304B450BD14B46019A20460BF0F0
:1026F800FDFB002804DC054634E0B9F1000F31D0B9
:10270800B8F1000F1DD01AFA88F7BFB204F1140807
:102718004FF0FF324FF0FF33404607F021FFE389C7
:102728009D421AD06268A3683B449A420BD2204665
:102738000BF0A9FBD0B920460BF0E6FAC0B9013579
:10274800EDE70027E2E74B46019A314620460BF0B9
:102758007BFB054618B94D4601E06FF01B05404666
:1027680007F07EFF284607B0BDE8F08F0546F6E77C
:102778000546F4E76FF01505F4E76FF01505F1E786
:10278800440D0020EC3401082DE9F04784B0994647
:10279800BDF83080037CA3B104460F469246C36A55
:1027A8001B68DAB2012A1AD9134607325B421A406B
:1027B800A389A3EB42034B4552D3666803960025D1
:1027C80013E02C4B1B6813F0070F02D16FF00C03BA
:1027D8003BE0294A012127480BF01EFDF6E70822B5
:1027E800E6E76268039B9A4216D0454514D8039ED3
:1027F80001AA03A920460BF07FF9034628BBBDF8C0
:102808000430BB42EDD101A920460BF0F9F80028AD
:10281800E7D00135ADB2E4E76268039B9A4218D06D
:10282800BDF80830FBB1454520D3360C3604BDF859
:1028380006104B4528BF4B465246314420460BF004
:1028480056F8034608B9BDF80830184604B0BDE884
:10285800F087BDF80430BB42E2D06FF00103F4E723
:102868006FF01503F1E76FF00103EEE76FF0010376
:10287800EBE700BF440D0020EC34010870B50646B4
:102888000D46084C04E02A46314620469847103445
:10289800054B9C4204D223689B69002BF3D1F6E7D1
:1028A80070BD00BFAC2C0108BC2C010808B50FF0A6
:1028B800D4FA0022431819D213440D4AA2FB03CEBE
:1028C8002EF0030C0CEB9E0CA3EB0C03C01A61F169
:1028D80000014FF0CC3300FB03F302FB0133A0FBF4
:1028E80002021344400840EAC37008BD0122E3E72E
:1028F800CDCCCCCC2DE9F041074605460AE007EAE5
:102908000807144B03EB06135B680422196820467A
:1029180000F030FBD5B195FAA5F6B6FA86F60D4C5F
:1029280004EB06140123B3406FEA030825EA030504
:10293800237B002BEED03301064AD3581B69002BAA
:10294800DDD0204698470028E4D1D8E73846BDE8CE
:10295800F08100BFAC2C01082DE9F04180460F46FC
:10296800204BBFF35B8F53E8005F6A1C43E80021EC
:102978000029F8D1BFF35B8F002D2FD11A4C002608
:1029880007E0636804221968204600F0F3FA01366C
:102998001034164B9C4213D2237B002BF7D02368AC
:1029A800DB680BB12046984723681B69002BE8D0E9
:1029B800204698470028E4D00123B3401D43E6E7AA
:1029C800B8F1000F0BD055B12846FFF793FF054625
:1029D800002FF8D00A200BF0D5FAF4E70025284696
:1029E800BDE8F0817C1B0020AC2C0108BC2C010840
:1029F80008B5064B186018B1054B1B68002B00DCA6
:102A080008BD044807F06AFEFAE700BF701B002003
:102A1800781B0020C80D002008B5024807F05EFEAC
:102A280008BD00BFC80D002038B505460B4C00E0B6
:102A380010340B4B9C420FD263685B79002BF7D0A4
:102A4800294620460BF0AEFA0028F1D023681B680F
:102A5800294620469847EBE738BD00BFAC2C010853
:102A6800BC2C010830B589B000220F490F480FF07F
:102A780003FA0F4D00220023CDE906230024049415
:102A88000E2303930294019400940A4B4FF40062BE
:102A9800094928460EF03FFF0849284607F0BEFFBF
:102AA800204609B030BD00BF212A0008B01600201A
:102AB800E00D0020F52D0008402A0020DC35010833
:102AC800014B53F820007047F835010848B108B5A4
:102AD800054A1060054B1960084600F009FD002002
:102AE80008BD6FF0150070479C0B00206C1B002080
:102AF80008B5054B1B781BB1034B01221A7008BDA2
:102B0800024807F0EBFDF7E7142A0020C80D002063
:102B18000D4BBFF35B8F53E8001F013143E80012F0
:102B2800002AF8D1BFF35B8F00B97047074BBFF39A
:102B38005B8F53E8001F013943E80012002AF8D1DF
:102B4800BFF35B8FF1E700BF741B0020781B0020E8
:102B5800064B00200146BFF35B8F53E8000F43E8A4
:102B68000012002AF9D1BFF35B8F7047741B002055
:102B780038B5FFF7EDFF0546094C00E01034094B66
:102B88009C420BD263685B79002BF7D023685B68A3
:102B9800002BF3D0294620469847EFE738BD00BF01
:102BA800AC2C0108BC2C0108034B18680028D4BFC2
:102BB80000200120704700BF741B002010B5044C92
:102BC800044920460AF05CFC034B1C6010BD00BFA2
:102BD800E00C0020E4350108681B002008B500233C
:102BE800074A1370074A1360074A13604FF47A7153
:102BF8000648FFF76BFFFFF7E1FF00F061F908BD3A
:102C0800152A0020741B0020781B0020B528000816
:102C180008B5014601480BF0E7F908BDE00C0020B3
:102C280008B502480AF00DFD08BD00BFE00C002001
:102C380008B50146024B18680BF0DCF908BD00BF67
:102C4800681B002008B502480BF0D8F908BD00BF82
:102C5800E00C002010B582B000220023CDE900234B
:102C68002C4B187808B902B010BD68460BF0DEF995
:102C7800044688B1284BBFF35B8F53E8001F013926
:102C880043E80012002AF8D1BFF35B8F2046FFF714
:102C9800CBFE2046FFF7CCFFFFF786FF58B91F4A47
:102CA8001368516813F57A7341F10001136051609C
:102CB800FFF7C8FFD7E70FF0D0F80022431827D254
:102CC8001344174AA2FB034C2CF0030404EB9C04A6
:102CD8001B1BC01A61F100014FF0CC3300FB03F35A
:102CE80002FB0133A0FB02021344400840EAC37010
:102CF8005B080A490A684968801A63EB010340F2D5
:102D0800E932904273F10003C9D3FFF731FFC6E7F8
:102D18000122D5E7142A0020781B0020A8160020DD
:102D2800CDCCCCCC0F4B1B7803B1704710B500212C
:102D38000120FFF711FE0C4C00E010340B4B9C42B5
:102D480008D263685B79002BF7D023689B6820461C
:102D58009847F2E7FFF77EFF0028FBD1014B0122DD
:102D68001A7010BD152A0020AC2C0108BC2C0108D3
:102D780010B5124BBFF35B8F53E8002F511C43E88B
:102D880000100028F8D1BFF35B8F0D4B1B783BB9BF
:102D98000C4B1B688BB182B90B4807F09FFC0CE009
:102DA800EFF31184102383F31288BFF36F8FFFF7BB
:102DB80051FF84F31188BFF36F8F10BD781B00207B
:102DC800152A0020701B0020C80D002010B50446ED
:102DD800044B1B689847A060214603480BF02AF96A
:102DE80010BD00BF9C0B0020E00C00202DE9F04135
:102DF80000210846FFF7B0FD804650B14FF4FA763F
:102E080000270FF011FD154B1858FFF7F1FD0025AD
:102E180015E04FF0FF364FF0FF37F2E74046FFF777
:102E280069FD804670B94FF0FF364FF0FF3709E073
:102E38002C4632463B460A4807F078FC2546B8F14E
:102E4800000FEBD1FFF706FF04460028F6D1002D4E
:102E5800EED000210846FFF711FDEAE70800000060
:102E6800C80D0020014800EB81007047240D0020A8
:102E78000248034BC01AC008704700BFAC2C0108B9
:102E8800DC2B010810B50C46FFF7F2FFA04203D96E
:102E9800024B53F8340010BD0020FCE7DC2B01087E
:102EA80010B50C46FFF7E4FFA04204D9034B03EB2F
:102EB800C403187910BD0020FCE700BFDC2B010813
:102EC80010B5002410E021460020FFF7E9FF0A4A68
:102ED80052F8243023F0070342F8243000F00700AA
:102EE800034342F824300134044B054A9B1AB4EBDF
:102EF800D30FE8D310BD00BF240D0020AC2C01086F
:102F0800DC2B01082DE9F8430D46164698460028A3
:102F180012DBC4B2002320460BF0C6F8074610B1F6
:102F2800404500D947463B463246E9B220460BF0B9
:102F38009BF83846BDE8F8830C4B0D4AA3EB020911
:102F48004FEA1919002427460DE0094B03EB041337
:102F580058684346324629460079FFF7D3FF87422F
:102F680038BF074601344C45EFD3E2E7BC2C0108D3
:102F7800AC2C010838B504460D461146084BC31A57
:102F88001B11013342681371436899710BF0C8F83B
:102F980063681D60636801225A71FFF7A9FD38BD97
:102FA800AC2C010800B589B005920693002307935D
:102FB80062B1074A0C9B02930B9B01930A9B0093F7
:102FC80005ABFEF757FE09B05DF804FB0022F1E7F8
:102FD80065E100082DE9F04F8BB004AF05461E46A9
:102FE8008846C1F34A24002C00F08F8091460022C5
:102FF800FA603A617A6104230293FB1801930A2369
:10300800009307F10C0321464846FEF733FEB0F55E
:10301800006F5ED3464B1B6813F0060F00F08480E8
:10302800D9F804106D4600233B7302237B738AB0E2
:1030380004AC14F1100221D012201AB1042801DDC9
:103048003C4B636100233B7002237B70CAB103468B
:10305800082800DDA1610C2B02DD40F2FF73E3615B
:1030680004F12003002101290BD801F118063E4480
:1030780016F8186C03F8016B0131F4E76FF00040A3
:10308800DBE7112822DD122342B104213973002124
:103098007973B9730121F973F868206100216FF31E
:1030A80000016FF341016FF382016FF3C501022044
:1030B80060F38811C3F30A0363F353210023C1F3B8
:1030C80013011B480BF0CAF8AD462DE06FF01B0347
:1030D800DAE760F35328C0F30A0A0AEB18501730EE
:1030E80020F007008008FFF793FD8346B0B1042362
:1030F8000293FB1801930A230093534600F1100230
:1031080021464846FFF74EFF08E004EB11541734F8
:1031180024F00704A008FFF77BFD834633464246A8
:10312800294658460BF030F81C37BD46BDE8F08FED
:10313800600D002018360108406820B1034BC01A02
:1031480040F38F0070474FF0FF307047240D002088
:103158000EB400B582B0014603AB53F8042B0193BB
:10316800034804F097FA02B05DF804EB03B0704727
:103178008BE3000830B585B011F0440F05D01A4B29
:103188001C6834B9002005B030BD1849FFF7E0FFCE
:10319800F9E7174B1968B2FBF1F1B1FBF4FC154ADA
:1031A800A2FB0C32D20A4FF4616E0EFB12CE124B08
:1031B800A3FB0E535B0904FB1C114FF47A7C0CFB38
:1031C80001F1B1FBF4F504FB15110CFB01F1B1FBA6
:1031D800F4F102910195C3EB0311AEEB810100916B
:1031E8000649FFF7B5FFCEE7841B002058360108D3
:1031F800801B0020C5B3A29189888888643601089D
:1032080061B108B52AB1064A52F8232012B9054A15
:1032180000E0044A0449FFF79BFF08BD704700BF60
:103228000437010880360108883601082DE9F04185
:1032380005461746069EDDF81C8081B900242EB18C
:10324800324611492846FFF783FF0444B8F1000FBE
:1032580014D06FB1099B042B13D00C4909E00C4B17
:10326800099A53F822200B49FFF772FF0446E6E754
:10327800064942462846FFF76BFF04442046BDE84E
:10328800F0810549F5E700BFA0360108903601082E
:1032980018370108983601088C3601082DE9F04FD7
:1032A80087B005460C46049205939DF84C7001F0D2
:1032B800020B01F0010AC1F3C00801F480790AF099
:1032C800BFFE18B3024616492846FFF741FF0646D7
:1032D800BBF1000F1CD13A46514628460BF011F8B5
:1032E800B9F1000F01D0002311930397129B0293A9
:1032F800119B0193109B00930023049A4146284692
:10330800FFF794FF304407B0BDE8F08F0026DFE7F1
:10331800059A21462846FFF72DFF0644DBE700BF44
:10332800A436010811F0100F0BD108B511F0200FC9
:1033380003D00449FFF70CFF08BD0349FFF708FF56
:10334800FAE77047D8420108A83601082DE9F0418C
:1033580005460F46164698460699FFF7E3FF0024F0
:10336800444505DA24492846FFF7F2FE0134F7E719
:10337800002409E020492846FFF7EAFE0BE01F4930
:103388002846FFF7E5FE01340F2C0CDC002C02DD8B
:1033980014F0070FEED0B442F1D23A5D184928462E
:1033A800FFF7D6FEEFE717492846FFF7D1FE0024BE
:1033B80009E011492846FFF7CBFE0BE012492846E1
:1033C800FFF7C6FE01340F2C13DC002C02DD14F0CD
:1033D800070FEED0B44207D23A5D0C4B9B5C13F05A
:1033E800970FEBD12E22E9E703492846FFF7B0FEF5
:1033F800E8E7BDE8F08100BF9C360108B436010853
:10340800AC360108B8360108D4440108AD6101089A
:103418002DE9F04184B004469DF82C500C9F0E9E77
:1034280095B9012B1ED019484FF0000827B13B462B
:103438002246174909F062FEC6B905BB20460AF0C4
:1034480093FF04B0BDE8F08103950A9802900193B8
:1034580000920B4600220F992046FFF71FFF804677
:103468000C48E3E70B484FF00008DFE70F9B009399
:10347800434632460D9920460AF05BFFDDE72A46AF
:103488000F9920460AF049FFD8E700BFC3E30008B8
:103498009D7600088BE3000870B582B00446056885
:1034A80042F20F738B4228BF0B460E4A052168462D
:1034B80008F0CCFA064663685B680B220A4928467E
:1034C8000AF012FF63685B683246694628460AF0CC
:1034D8000BFF63685B681B22044928460AF004FF57
:1034E80002B070BDF8300108D8360108BC360108B2
:1034F800074B01221A6004E04008054A13685B0084
:103508001360044B9842F7D8034B1860704700BF0C
:10351800801B002040420F00841B0020014B1960D3
:10352800002070479C1B002000B583B00023009347
:103538004FF40063034A0449012006F0C3FC03B0BA
:103548005DF804FBC81C00202C37010808B5FFF7FC
:10355800EBFF034B01221A70024B034A1A6008BDA5
:10356800162A0020AC1B0020B01B002008B518B993
:10357800074B00221A7008BD064B1B7823B142F294
:1035880010700DF0E6FFF6E70A200AF058FFF2E7A0
:10359800162A0020172A002038B504460A4B0122B3
:1035A8001A700A4B1B782BB938BD651E2046FFF7E9
:1035B800DDFF2C46012006F075FC0028F4D0024BF4
:1035C8001B78002BF1D1EFE7162A0020172A0020DC
:1035D800F8B506460D4601270DE02A46314601207A
:1035E80006F0B2FB044610E03846FFF7D5FFBCB939
:1035F8000F4B1B78A3B10F4B1B78002BEDD12A463C
:103608003146012006F0A0FB0446002CECD1084B03
:103618001B78002BEBD0013F3846FFF7A7FFE6E702
:1036280014B9034B1B7803B92C462046F8BD00BFDC
:10363800162A0020172A0020F8B5354B1A68354B92
:10364800D31A012B1ED0324B1C680D2204F8012C12
:10365800621C1A600A2323702F4B1E68002E02DD9D
:103668002E4B1B6893B12A4B1A682A49521A01201B
:1036780006F06AFB002845D1274A13680133136016
:103688000020F8BD0132224B1A60DCE73746632E72
:10369800A8BF63271F4D521B294605F117000EF0DE
:1036A800DAFFAC461E4D0FCDACE80F0095E80300DD
:1036B8004CF8040B2CF8021B090C8CF80010183479
:1036C800134B1C60154B01221A60092E06DC114BA6
:1036D80020225A7530371F75DA74C4E7114A82FB05
:1036E8000732FB17C3EBA203194603EB8303A7EBCF
:1036F80043033033074A537501F1300313753E23F2
:10370800D374B0E70023044A1360044A1360B7E790
:10371800AC1B0020B01B0020A41B0020A01B002015
:10372800343701086766666608B50A280AD00B4B65
:103738001B680B4A93420ED2591C084A1160187034
:10374800002009E0FFF778FF18B9044B054A1A6012
:1037580002E0012000E0002008BD00BFAC1B0020F3
:10376800AF1C0020B01B002070B505460E46094B63
:103778001B784BB90446AB19A34208D92078FFF748
:10378800D3FF20B90134F6E7FFF722FF00E0601B02
:1037980070BD00BF172A002008B5034B01221A701C
:1037A80002480AF0E1FD08BD172A00207837010811
:1037B80008B50248FFF770FE08BD00BF783701085A
:1037C80010B50C46044B1868FFF77AF903460F2228
:1037D80021460248984710BD9C1B002078370108F5
:1037E800014B03600020704788370108012806D084
:1037F800032806D008B104487047044870470448B5
:1038080070470448704700BF0C3A01088837010820
:10381800903701089C3701082DE9F0410E46904683
:103828001F464469052120460AF07FFE00284AD039
:10383800274B1A787AB90025E368FBB1013BE360AE
:103848001BBB72BBA368002160699847051E31DB6A
:103858000123237119E004F118050EF00FF840B1A7
:1038680000220023284606F061FF051E2DDB3246A4
:10387800E2E74FF0FF324FF0FF33F3E7154B1B68D9
:1038880013F0060F07D16FF07705114B1B78ABB912
:103898002846BDE8F081104A02210E480AF0BCFC17
:1038A800F1E70223237142463B4604F1400007F04A
:1038B800ADF8EAE7E3680133E360E6E704F11800EE
:1038C80006F00CFFE4E70025E2E76FF00F05DFE7FD
:1038D8001F2A0020740D0020AC3701082DE9F043A1
:1038E80083B04469002C00F0AA80054605212046D3
:1038F8000AF01BFE20B90025284603B0BDE8F08376
:10390800082168690AF011FE88B94E4B1B781BB371
:1039180004F118050DF0B2FFC8B1002200232846B3
:1039280006F004FF051E18DA6FF00A05E4E7EFF366
:103938001184102383F31288BFF36F8F28460AF08F
:1039480031FE054684F31188BFF36F8FD4E74FF03B
:10395800FF324FF0FF33E2E700250DF08FFF10B183
:103968002379022B68D02669F6B13046FFF7B6FFF7
:10397800054640B1334B1B78002BBDD004F118002D
:1039880006F0ACFEB8E7012120460AF0CEFD00BBE8
:10399800BFF35B8F54E8003F43F0040344E8003270
:1039A800002AF7D1BFF35B8FE3680133E360237923
:1039B800022B14D0234B1B78B3BBE368012BD9D857
:1039C800A368012160699847051E31DB0023237134
:1039D800D0E730460AF0B6FD6FF00A05CAE704F1F1
:1039E80040000DF03CFF10F0010FE3D100232371DC
:1039F800C0E704F13007032138460EF084FC04F1D7
:103A08001806304606F06AFE4FF0FF384FF0FF39CF
:103A1800CDE900890022032138460EF07AFC42469F
:103A28004B46304606F082FE2379022BE1D0C4E7EC
:103A3800E368013BE3609DE76FF00A059AE700251C
:103A48005AE700BF1F2A002038B54469002C4FD020
:103A58000546052120460AF068FD10B100252846D4
:103A680038BD28460AF011FD002844D108216869AC
:103A78000AF05BFD28BB214B1B783BBB636973B322
:103A880023799BBBA368002160699847051E0FDB5B
:103A9800012323710023E360BFF35B8F54E8003FE9
:103AA80043F0200344E80032002AF7D1BFF35B8FCC
:103AB800124B1B78002BD2D004F1180006F00EFE32
:103AC800CDE728460AF012FD0546C8E704F11800BC
:103AD8004FF0FF324FF0FF3306F028FECEE7656166
:103AE800074904F140000DF095FEC9E70025D1E72C
:103AF8006FF08505B3E76FF00F05B0E71F2A0020C8
:103B0800F5E500088446002300E00133074A1268FF
:103B18009A4208DD1A010649096801EB03108A5C1C
:103B28006245F2D100E00020704700BFC0370108AD
:103B3800A00B002038B50C4B1B687BB10C46FFF777
:103B4800E1FF054668B1C06828B10DF010FD10B15D
:103B58002560002038BD6FF01200FBE76FF00C0005
:103B6800F8E76FF00100F5E7A00B002070B588B00A
:103B780004460D4616466946C0B2FFF7DBFF00282B
:103B88001CDB0098E8B101944368029383680393AF
:103B98000496002305932A6806920793C4680AF0DE
:103BA80090FD8CB101AA0A4920460CF0A8F9079BA0
:103BB8000BB9059B2B60079808B070BD6FF0150016
:103BC800FAE76FF01500F7E76FF01200F4E700BFAF
:103BD80007E700082DE9F8430F4B1D68CDB1804673
:103BE8000F4614460D4E4FF0FF324FF0FF3330466C
:103BF80006F0B6FC6B68D3F8089023463A4641466F
:103C08002846C8470446304606F02AFD2046BDE847
:103C1800F8836FF00104F9E7C8240020B40D0020F0
:103C280000230360054B5B681BB11860034B5860A9
:103C38007047024B58601860704700BFCC240020C2
:103C4800014B1860704700BFC824002030B585B00C
:103C58000546002301930293039301904FF0FF322E
:103C68004FF0FF330E4806F07BFC0E4B1C6864B126
:103C780063681B6801A92046984723462468002CDE
:103C8800F5D0002BF3D11C46F1E7284600F0B4F933
:103C98000446034806F0E4FC204605B030BD00BFEA
:103CA800B40D0020CC240020F8B5254B1F68002F48
:103CB80043D005467B685B680BB138469847214C72
:103CC800002600E01434204B9C4210D235B100226B
:103CD800294620680AF036FD0028F3D02369002B16
:103CE800F0D01A489847002EECD10646EAE7184B60
:103CF8001C683CB1143C05E014F1140314D0646949
:103D080004B1143C94B135B10022294620680AF068
:103D180019FD0028F0D02369002BF0D00B489847F4
:103D2800002EECD10646EAE71C46EBE77B68DB6829
:103D38000BB1384698473046F8BD6FF00106FAE7F0
:103D4800C8240020BC2C0108BC2C0108DD3B00085D
:103D5800D4240020024B00221A605A60704700BF2A
:103D6800CC24002008B5034B00221A605A60FFF7E4
:103D7800F1FF08BDD424002038B50546204C00E0EA
:103D88001434204B9C4208D221682868FCF7A8FF0D
:103D98000028F5D16FF010042FE04FF0FF324FF0FC
:103DA800FF33194806F0DCFB184B1C6814B1143CAF
:103DB80000E01C4664B121682868FCF791FFB8B19F
:103DC80014F11403F5D06469002CF3D0143CF1E726
:103DD80005F1140300226A610C4A526822B113608B
:103DE8000A4A5360002405E0084A5360136001E062
:103DF8006FF01004044806F033FC204638BD00BFBD
:103E0800BC2C0108BC2C0108B40D0020D4240020CF
:103E1800F0B583B006460F4609B100230B60274C66
:103E2800002504E00FB1019B3B6025461434244B68
:103E38009C4216D201AA216830460AF083FC002869
:103E4800F4D0002DEED00022296820680AF07AFC10
:103E58000028EBD01FB1019B3B602546E6E72546CD
:103E6800E4E7184B1C683CB1143C05E014F114035A
:103E780017D0646904B1143CE4B101AA2168304642
:103E88000AF060FC0028F1D06DB100222968206892
:103E98000AF058FC0028ECD057B1019B3B6025463E
:103EA800E7E71C46E8E70FB1019B3B602546E0E7E2
:103EB8002546DEE7284603B0F0BD00BFBC2C01084C
:103EC800BC2C0108D42400202DE9F04786B002AFAD
:103ED80004460E46904699463D6BF860B5B1296890
:103EE80021B107F10C020AF02DFC58B1D5F804A055
:103EF800BAF1000F0AD0AB68F86800934B46424607
:103F08003146D0471037BD46BDE8F08707F10C01B0
:103F18002046FFF77DFF002866D085684B4642465D
:103F28003146F868A8470028ECD0314B1B6813F0DD
:103F3800070F5BD06D4600233B7202237B728AB069
:103F480002AE16F1100218D04FF0120C22B1BCF1DB
:103F5800040F01DD274B736100233B7102237B7142
:103F6800C2B16346BCF1080F00DDB4610C2B00DD63
:103F7800F06106F1200300210AE06FF0004CE5E74C
:103F880001F11000384410F80C0C03F8010B013152
:103F98000129F5D9BCF1110F23DD122342B1042107
:103FA800397200217972B9720121F972B8683061E9
:103FB80000216FF300016FF341016FF382016FF38A
:103FC800C501012060F38811C3F30A0363F3532189
:103FD8006FF31F5100230648FEF7FCFFAD46002093
:103FE80090E76FF01B03D9E700208BE7002089E7F3
:103FF800780D00200438010870B505461B4C0026D2
:1040080000E014341A4B9C420FD235B100222946E5
:1040180020680AF097FB0028F3D0E368002BF0D063
:104028009847002EEDD10646EBE7124B1C683CB1D1
:10403800143C05E014F1140313D0646904B1143C72
:104048008CB135B10022294620680AF07BFB002894
:10405800F0D0E368002BF0D09847002EEDD106464B
:10406800EBE71C46ECE7304670BD00BFBC2C0108EE
:10407800BC2C0108D424002010B54FF0FF324FF0BB
:10408800FF330B4806F06CFA0A4B1B782BB100245F
:10409800074806F0E5FA204610BDFFF763FE00F07A
:1040A8008BF804460028F3D1024B01221A70EFE77F
:1040B800B40D0020182A00202DE9F04798B080465A
:1040C8008946048F0134A4B24FF0000A0EE000289C
:1040D80042DD2946384609F035FF2146384609F0C1
:1040E80031FFB8F83830AB4245D02C46651EADB22A
:1040F800B5F5004F2CD008F108074A2303AA294632
:10410800384609F025FF064604F57F543F34A4B22B
:1041180001230DF10B022146384609F019FF002E44
:10412800D5DD0028D5DD06F160030DEB030600237D
:1041380006F8543C1697ADF85C40CDF8009016ABE5
:10414800124A014603A8FFF7BFFE82460028CCD0DA
:10415800504618B0BDE8F087B8F83830AB42C4D143
:10416800013B424622F8383F02234FF400413846CB
:10417800FEF74AFAB9E7013B424622F8383F0223E4
:104188004FF400413846FEF73FFAAEE7A5E70008CE
:1041980008B5034B4360FFF743FD002008BD00BF8F
:1041A800A40B002008B5034B4360FFF749FD00202E
:1041B80008BD00BFA40B002010B584B001230093F4
:1041C80003A90320FFF7B6FC034610B1184604B054
:1041D80010BD01AA69460320FFF7C8FC034610B1C9
:1041E80010F10C0FF2D1029CB4F5803F23D20022CB
:1041F8001346072B07D8224403998968914202D3B2
:1042080001339BB2F5E70D488482C382039B5A6849
:104218008260DB68C3630AF06DFB03460028D5D1D2
:104228000648FFF7B5FF03460028CFD10348FFF73C
:10423800B9FF0346CAE76FF02003C7E7DC24002074
:1042480008B5034B034A08210AF024FE002008BDE4
:1042580038380108403801082DE9F04182B0064697
:1042680015460023019301AA0A21A86801F094FCCD
:10427800019C9CB98046C3B2042B17D8686809F022
:104288002BFF071E1DDB3AB25FFA88F300210846B0
:1042980009F03CFF204602B0BDE8F08123460C4AF5
:1042A800012130460AF0F6FD019CF3E7C3B2094A42
:1042B800012130460AF0EEFD30460AF041FE0124A5
:1042C800E8E76B68044A012130460AF0E3FDDAE7C3
:1042D800543801087C3801089438010830B583B097
:1042E800054613460022019201AA0A21586801F0E6
:1042F80053FC019C24B90AF022FB204603B030BDD0
:104308002346034A012128460AF0C4FD019CF4E72C
:10431800B438010810B5044605F05CFB0346084AAA
:10432800082120460AF0B6FD064A082120460AF070
:10433800B1FD2146044807F073F8002010BD00BF06
:1043480060390108803901085543000870B58EB0FE
:1043580004460D46D0F8AC600DF0CCFA02460EF0DB
:1043680063FA254B1B589C4230D0244B002A2FD08F
:1043780001920094224A082128460AF08BFD94F9FC
:104388000E10D4E90A23CDE902230091237B1D4AAC
:10439800082128460AF07EFD202205A9204606F0BD
:1043A8004FFB0346626F0092174A082128460AF01D
:1043B80071FD0DA920460DF0E1FA034650B1134AEC
:1043C800082128460AF066FD0EB070BD104BCDE7F7
:1043D800104ACDE70D9AB11A642301FB03F3B3FB2E
:1043E800F6F3039302960191009233460A4A082194
:1043F80028460AF04FFDE7E7080000009C36010850
:10440800903901089C390108C8390108E0390108C8
:10441800185001088C390108103A0108F0B589B024
:1044280004460D46D0F8AC6007A90DF0A7FAC8B944
:1044380020460DF05FFA079AB11A642301FB03F3D3
:10444800B3FBF6F30746A0B10593049603910292D5
:10445800019600972346084A082128460AF01AFDC3
:1044680009B0F0BD0346054A082128460AF012FDA6
:10447800F6E7034FE8E700BF483A0108E0390108CA
:104488008C39010870B592B0054600240A940B9443
:104498000C940D940E940F94109411944FF02033B3
:1044A8000A930B930C930D930E930F93ADF8403032
:1044B8000146164806F0B4FF14B1002012B070BDD2
:1044C80004EB8413124E06EB831609AA4FF48051AD
:1044D80006F140000DF041FA0999C1F580506422B7
:1044E80000FB02F2120B06924FF4805305930490DE
:1044F800039102930AAB019300943346054A0821BD
:1045080028460AF0C7FC0134D6E700BF2544000856
:10451800C03A00208C3A010810B5044605F07AFA32
:104528000346034A082120460AF0B4FC002010BDC7
:10453800D83A010870B582B005461446506805F0AF
:1045480025FDB8B106460AF098F8E0B10DF107016B
:10455800304609F091FF9DF80730EBB96368144ABB
:10456800082128460AF096FC304609F0EBFF0020A7
:1045780002B070BD63680F4A012128460AF08AFC20
:104588006FF01200F4E763680B4A012128460AF02D
:1045980081FC6FF08500EBE76368084A082128462C
:1045A8000AF078FC3046FFF799F90020E0E700BFF1
:1045B800943D0108483D0108603D0108B03D0108EF
:1045C80010B503460C461146006808B1027822B9B6
:1045D800024A204607F03AFA204610BDCC3D0108B1
:1045E800F0B58BB0054609A805F0C0FC00EB40000B
:1045F800099F07EBC007214A082128460AF04AFC10
:10460800099C18E000238DF80F300DF10F012046AA
:1046180009F032FF08B11A4E20E09DF80F00FFF7AD
:10462800E5F806461AE000903346164A082128465F
:104638000AF030FC1834BC421CD2142204A92046CB
:10464800FFF7BEFF0346104A082128460AF022FC5D
:1046580020460CF08CFF0028D4D10C4E20460AF0DE
:1046680019F80028DFDA3346094A082128460AF0F3
:1046780011FCDFE700200BB0F0BD00BFE83D0108EA
:10468800D43D0108FC3D0108F43D0108DC3D01086A
:10469800103E010808B5102A12D0202A13D0082A83
:1046A80006D00A4A08210AF0F5FB6FF0150006E06B
:1046B8000B78DBB2064A08210AF0ECFB002008BDA3
:1046C8000B889BB2F6E70B68F4E700BFD43E0108FD
:1046D800EC3E010808B5029B102A0ED0202A10D003
:1046E800082A06D0084A08210AF0D4FB6FF0150002
:1046F80002E0DBB20B70002008BD9BB20B800020EB
:10470800FAE70B600020F7E7D43E01088B1E022B66
:104718003AD82DE9F04182B005460C4616461022DB
:104728000021706807F034FA8046022C1FD8202731
:104738003B46174A082128460AF0ACFB032C1DD932
:1047480010220021F06807F023FA04460346114AB4
:10475800082128460AF09EFB0094002301933A465C
:1047680041462846FFF7B6FF02B0BDE8F0810A22AD
:104778000021B06807F00CFAC7B2D9E73A464146BB
:104788002846FFF787FFEFE76FF01500704700BF77
:10479800003F0108183F010838B504460D4611B11D
:1047A8000F4B1B785BB90E4A137883F00103137023
:1047B80063B9294620460AF0DFFB002038BD094AC4
:1047C80001210AF067FB6FF00F00F7E7064A08219E
:1047D80020460AF05FFB024B01221A70E9E700BF8E
:1047E800192A00202C3F0108683F0108F8B5074640
:1047F8000E4615460023244A1370244A1360244A9F
:1048080013600CE000231C440222224920460DF0CC
:10481800B3FD98B91C4B01221A700435013E012ED4
:104828001ED96C6802221C4920460DF0A5FD0028FF
:10483800E8D1A378002BE6D00123E4E71649204607
:10484800FCF74EFA58B123782D2B09D163783BB188
:104858002346124A082138460AF01CFBDDE70435D6
:1048680000221146686807F01DF90D4B18600022F8
:104878001146686807F016F90A4B18600A49384665
:10488800FFF78AFF0020F8BD1B2A00202025002002
:1048980024250020983F0108943F01089C3F010807
:1048A8002C25002028250020B548000838B50546E5
:1048B800554B1B78182B01D0002305E00B78112BE2
:1048C80032D0002300E0013302F1FF3C9E469C45B4
:1048D80009D9CC5C182CF6D18E449EF80100112819
:1048E800F1D1012300E00023F3B911F80C20464B65
:1048F8001A700A78A2F13003DBB2092B09D9A2F1A8
:104908006103DBB2052B04D9A2F14103DBB2052B0D
:1049180005D83E490B683E48C25401330B603B4BF7
:104928001B68022B5ED038BD3A4B1B683A4A0821F7
:1049380028460AF0AFFA00212846FFF72DFF374B2B
:104948001B78002BEFD113E0354D2A681068030A55
:1049580003F47F4343EA1063040204F47F0423430F
:1049680043EA006342F8043B2A600439294B196082
:10497800284B19680429E7DC11F0030F0FD1284BE5
:1049880018680268130A03F47F4343EA12631102AA
:1049980001F47F010B4343EA02630360C3E74B4220
:1049A80001F0030103F0030358BF594202290FD055
:1049B8000329B8D11A4B19680B68C3F3074203F4EB
:1049C8007F4002431B0403F47F0313430B60AAE7F1
:1049D800134B19680B68C3F307221B029BB21343DE
:1049E8000B60A0E710220021094807F0D1F80D4A12
:1049F800136803F8010B1360064A13680133136048
:104A0800024B00221A608EE71A2A00202025002077
:104A18001C25002024250020B43F01081B2A002063
:104A2800282500202C2500202DE9F04385B080465C
:104A38000F4615461C46DE08002D5DD04FF0000CD1
:104A480008E01CF807300CF110010DEB010C0CF814
:104A5800103C9446B54240D30CEB0602102A3CD8D1
:104A6800102C0DD0202C1BD0082CEAD0234A08216A
:104A780040460AF00FFA6FF0150005B0BDE8F08364
:104A88003CF807300CF11001694401F8103CC3F3FD
:104A980007230CF111010DEB010C0CF8103CD8E7C1
:104AA8005CF807300CF11001694401F8103CC3F3BD
:104AB80007200CF11101694401F8100CC3F30740F9
:104AC8000CF11201694401F8100C1B0E0CF11301D2
:104AD8000DEB010C0CF8103CBBE7A946102D28BFC4
:104AE8004FF010094B466A463946404600F0BEFD75
:104AF8001037A5EB09059FE70020BEE7D43E010863
:104B08002DE9F84306460D461446414B01221A602A
:104B18004FF0FF374FF02009B8463E4A2146284655
:104B2800FCF796FDB0F1FF3F54D0732820D07728CA
:104B380037D0612803D06FF01500BDE8F883102244
:104B48000021354B186807F023F807460028E4D100
:104B58000DF06AFE314B1B58162BDED12E4B1B680D
:104B68002F4A012130460AF095F96FF01500E4E765
:104B780000221146284B186807F00AF880460028DA
:104B8800CBD10DF051FE254B1B58162BC5D1224B0E
:104B98001B68244A012130460AF07CF96FF01500A1
:104BA800CBE7002211461C4B186806F0F1FF81463E
:104BB8000028B2D10DF038FE184B1B58162BACD17B
:104BC800154B1B68184A012130460AF063F96FF04B
:104BD8001500B2E7B7F1FF3F0AD0B8F1FF3F0FD099
:104BE8005FFA89F3424639463046FFF71DFFA4E7CE
:104BF8000E4A012130460AF04DF96FF015009CE786
:104C08000B4A012130460AF045F96FF0150094E788
:104C1800900B00200C4001085C1B00200C000000D9
:104C2800D03F0108E43F0108F83F0108144001089B
:104C38003440010808B518B9034B00221A7008BDA2
:104C4800052009F09CFEFAE71C2A0020014B0122EE
:104C58001A7070471C2A00202DE9F8430E461546A5
:104C68009846D0F80490042706E03846FFF7EEFF90
:104C7800BCB9114B1878A0B105F058F92A4631464D
:104C8800002005F061F8044605F05CF9002CECD131
:104C9800094B1B78002BEBD0013F3846FFF7CAFFC2
:104CA800E6E7D9F80030D9F8401001209847C8F84D
:104CB80000500020BDE8F8831C2A002030B583B0DE
:104CC80044682260236404F1080500220749284645
:104CD8000DF0D2F8E4634FF4FA620023CDE9002323
:104CE800284606F083FD002003B030BDC9E900085E
:104CF80000B583B0042300930123054A12680021FC
:104D0800044800F06FFD002003B05DF804FB00BF0D
:104D1800F8410108BC2C010883681975022900D0E4
:104D2800704710B5044683689B6C03B110BD09F049
:104D380052FEA368D3F8783213F4805F03D120467B
:104D48000AF046FCF2E7054B054A032120460AF023
:104D5800A6FB0021204609F0B5FEF0E74C42010809
:104D68008836010810B5044609F092FEA3685B6C0A
:104D780013B1014620469847A3680022C3F82023B0
:104D88000DF052FD014B185802F022F908000000FE
:104D980008B58368D3F8743213F0200F00D108BD2A
:104DA8000249406909F099FFF9E700BF382D010869
:104DB80010B504468168183101F0E2F9A168034A88
:104DC800183120460AF024FC10BD00BF90420108AB
:104DD80009B10020704710B5044683689B69054AED
:104DE80001210AF05CFB2046FFF7E2FF6FF0150097
:104DF80010BD00BFA0420108F8B5044616468068F9
:104E0800426A72B10D4690F8282092B390F8293082
:104E1800FF2B25D0AA4226D81344AB4248D2002102
:104E280022E0ABB15A68002A44D0C1698A420AD04C
:104E380000F1180E9C46BCE80F00AEE80F00DCF845
:104E48000030CEF800302046FFF7B2FF01272DE0F2
:104E58001A4A012120460AF022FB6FF0070725E0D5
:104E68004FF6FF73D6E700212046FFF7B1FF07464C
:104E7800E0B90121204609F085FEA06800F54370DD
:104E880005F0EEFBA3685B6A324629462046984740
:104E98000746A06800F543704FF0FF324FF0FF332C
:104EA80005F05EFB0021204609F06CFE3846F8BD8F
:104EB8000121D9E76FF00707F8E700BFBC420108F6
:104EC80091B110B504460846D36803B910BD204611
:104ED8000AF042FA204600F05BFF044A012120460E
:104EE8000AF0DDFA0020F1E701207047DC420108F2
:104EF8002DE9F047A6B00646542200210CA80DF073
:104F0800C4FB00230693059304934FF0FF330393E8
:104F1800B36803F1560A30460AF01EFA30460AF022
:104F2800ADF9C8B1B36800279F61DF611F625F6296
:104F38009F6230460AF025F9B168B1F85020563121
:104F4800304609F0E1FE30460AF0AFFD0897B84652
:104F58000CACB9463D465BE06C49706909F0BDFE92
:104F6800E0E700286AD00346694A012130460AF082
:104F780096FA6FF00700A1E0206801F023F90028F5
:104F88005FD0089B5BB1B468183407AD0FCD0FC470
:104F98002B6823603046FFF70BFF01208EE05D4A47
:104FA800012130460AF07BFA6FF0070086E022689C
:104FB800294630460AF09EFD022868D0032843D0CF
:104FC800069B013306934FF0010921E021AA2168CD
:104FD80038460AF0B3F8054639E0069B93B9B3683A
:104FE800DB6A23B1DB6813B14FF0010848E04A4B94
:104FF80000930C9B494A012130460AF050FA4FF0C1
:1050080001083DE04FF001083AE0069B01330693A2
:10501800049B012B3BD0069B132B38D8039B002BFA
:1050280035D002235246214604A800F015FDD4F8D5
:1050380004A0049B002B63D0012B92D0069B002B6D
:105048009AD1069B002BB2D1B8F1000FBED0043420
:10505800039B013B0393002DBFD02A4649463046A7
:10506800FFF72EFF00284ED0B16803AB019305ABC4
:10507800009306AB07AA1831284609F0B7FC2F465B
:10508800039B002BC1D1049B022BC1D1BDE7069B1A
:10509800132B02D9049B022B13D0B9F1000F19D19D
:1050A80017B17B7CFE2B20D0059907AB0CAA02EB2D
:1050B80081020698411A3046FFF79EFE26B0BDE8E9
:1050C800F087174B174A012130460AF0E8F96FF0CC
:1050D8000700F3E730460AF020FDB2681423563281
:1050E8000CA906A800F0B8FCDAE7069B26AA02EB92
:1050F800830252F8682C002AD6D001330693D3E7EE
:105108006FF00700DAE76FF00700D7E7D842010829
:105118000C430108BC420108284301082043010848
:105128003C4301083056010810B5044601391629D8
:105138000FD8DFE801F00C0F1226292C0E0E0E0EE8
:105148002F320E4C0E500E0E0E0E540E61000AF049
:10515800FAF810BD0AF00BF9FBE70AF0FDF8204653
:105168000AF08CF840B10121204609F02BFD0221FC
:105178002046FFF7D1FDECE72349606909F0ADFD52
:10518800F1E70AF0F3F9E4E70AF0E6F8E1E70AF0F4
:10519800F9F8DEE70AF003F9DBE78368D3F874323D
:1051A80013F0200F09D1A368D3F8743213F0200F3D
:1051B80008D120460AF00CFACBE71449406909F0F7
:1051C8008CFDF0E71249606909F087FDF1E70021DD
:1051D80009F0AEFDBDE7012109F0AAFDB9E70AF023
:1051E800B2F8204609F0F7FB0121204609F0EAFC55
:1051F8002046FFF7CDFDACE700F072FE0121204606
:1052080009F0E0FCA5E700BFD8420108402D0108DD
:10521800482D010870B586B0044600230593A3689D
:105228009D6CF5B1606803681E6905AB102269467C
:10523800B047059B9BB10121204609F0A3FC059AC4
:1052480069462046A8470021204609F09BFCA36830
:105258009B6C002BE3D102212046FFF75DFD06B0D1
:1052680070BD606803681D6905AB01220DF113016B
:10527800A847059B002BF2D09DF813109DF9133019
:10528800002BCCDBA268537D032B00F24481DFE8BE
:1052980013F00400AD00BF003F01204609F0D0FB29
:1052A800002841D19DF813101B2953D81B2900F25F
:1052B800838001A353F821F027520008C153000846
:1052C800C1530008C1530008C1530008C153000866
:1052D800C1530008C15300089B53000893530008AA
:1052E800C1530008C1530008C1530008C153000846
:1052F800C1530008C1530008C1530008C153000836
:10530800C1530008C1530008C1530008C153000825
:10531800C1530008C1530008C1530008C153000815
:10532800C15300088B530008A568B5F850305BB925
:10533800204609F0E0FC7949606909F0CEFC0221B9
:105348002046FFF7E9FC6AE72046FFF7D1FDC5F8DC
:105358002403F4E77F292FD1A368D3F8743213F01C
:10536800020F3FF45CAF0121204609F02BFCA36833
:10537800D3F8743213F0080F1AD020460AF015F942
:105388004DE7A36801225A7549E7A368D3F8743238
:1053980045E7A368D3F8743213F0020F3FF43FAF28
:1053A8000121204609F00EFC20460AF0FEF836E7F7
:1053B80020460AF0DBF832E7594B5B5C13F0970F95
:1053C8000AD1A368D3F8743213F0020F3FF427AF61
:1053D8002046FFF7A9FE22E70121204609F0F2FB4B
:1053E8009DF8131020460AF0A5F818E75B2908D0A5
:1053F800D2F8743213F0020F06D1A36800225A754E
:105408000DE7022353750AE7204609F082FCF4E70A
:1054180000235375A368D3F8742212F0020F3FF4E7
:10542800FEAE31391B293FF6FAAE01A252F821F03F
:10543800D9540008E5540008FF540008CD5400086A
:105448002752000827520008275200082752000850
:105458002752000827520008275200082752000840
:105468002752000827520008275200082752000830
:10547800A9540008B3540008BD540008C5540008D6
:1054880027520008D154000827520008DD540008AC
:10549800275200082752000827520008E95400083C
:1054A8000121204609F044FCB9E60021204609F014
:1054B8003FFCB4E6204609F065FFB0E6204609F057
:1054C80056FFACE603225A75204609F045FFA6E6CA
:1054D80003225A75204609F036FFA0E603225A75C2
:1054E800A368D3F8741201F0010181F0010120468C
:1054F80009F088FB93E603225A75A368D3F874323F
:1055080013F0020F3FF48BAE20460AF02FF886E620
:105518000023537583E60023537580E6D8420108BB
:10552800AD61010810B504468068037D012B21D1C7
:1055380000F543704FF0FF324FF0FF3305F010F8DD
:105548000821204600F0A2FC206818B1FBF7DAFB1E
:1055580080B250B902212046FFF7DEFBA06800F5B3
:10556800437005F07DF8002010BD0449606909F01A
:10557800B4FBEFE76FF08500F6E700BF443A010897
:1055880038B504461546003918BF012109F0BAFAA2
:10559800A368DD64606803689B680021984700B1D0
:1055A80038BD2046FFF7BEFF0028F9D11AE0A068F1
:1055B80000F543704FF0FF324FF0FF3304F0D0FF97
:1055C8002B461B4A0121204609F069FFA06800F517
:1055D800437005F045F8E3E79847A06800F5437085
:1055E80005F03EF8A06800F52F704FF0FF324FF03D
:1055F800FF33032106F03AF905460028D7D1A06801
:1056080000F543704FF0FF324FF0FF3304F0A8FF6E
:10561800084A0221204609F035FB074A00212046A6
:1056280009F030FB606803685B69002BD4D1D4E7CC
:10563800604301086D4D0008EBED000810B5044605
:10564800074A082109F026FC064A0821204609F0E5
:1056580021FC054A0021204609F0DAFF002010BD90
:1056680078430108CC43010868440108F8B50546A9
:1056780017461E460B46294A082109F00BFC002450
:105688000BE0274A0821284609F004FC0CE0254ACB
:105698000821284609F0FEFB01340F2C0DDC002CF4
:1056A80002DD14F0070FECD0B442F0D23B5D1E4A85
:1056B8000821284609F0EEFBEEE71C4A0821284697
:1056C80009F0E8FB00240BE0154A0821284609F0F8
:1056D800E1FB0CE0164A0821284609F0DBFB0134FF
:1056E8000F2C14DC002C02DD14F0070FECD0B442B0
:1056F80007D23B5D0F4AD25C12F0970FEAD12E23F6
:10570800E8E7074A0821284609F0C4FBE7E70A4A00
:105718000821284609F0BEFBF8BD00BF80440108F7
:105728009C360108B4360108AC360108B8360108C1
:10573800D4440108AD610108884401082DE9F0410D
:105748000646884617464FF44A72002180680CF0D6
:105758009CFF304609F0BCFAB06800F543700BF0C6
:1057680068FF002517E0B0682C0104F51E7420447A
:1057780004300CF047FDB068031905EB850C4FEABF
:105788008C0C0CF52E7C604404330022012104307B
:105798000CF006FD0135032DE5DDB36900241C601E
:1057A8000121304609F0CEF9B36850225A87B36810
:1057B80018221A873168304609F091FB64F3820792
:1057C800B368C3F87472706803681C683346044A87
:1057D8004146A04710B9B36801221A75BDE8F081A7
:1057E800BFEC000870B588B004468068D0F8200384
:1057F80010BB1D462046FFF7A1FF064610B13046F4
:1058080008B070BDA06AE16A00220023CDE9062332
:10581800002304930E2303930C9B02930195009499
:10582800074B4FF400620CF076F8A368C3F8200326
:10583800616A05F0F3F8E2E76FF07706DFE700BF8B
:105848008955000810B5044613460A46014605481E
:1058580001F020FF23691B7903B910BD204609F028
:1058680093FBFAE7A9EF000870B50C46037873B10B
:105878002388C21812F8012C11498A5C12F0080F0B
:1058880006D0013B9BB22380002BF1D1037070BD81
:105898000022C25413461D4601339BB24119425D92
:1058A800074EB25C12F0080FF5D1002DEFD0228818
:1058B800521B01320CF0CFFE23885B1B2380E6E7E6
:1058C800AD6101082DE9F8430746056800269CE00C
:1058D8006C1C4DB12846FBF715FA82B221462846C2
:1058E8000CF0B9FE254690E00022F7E76E1C4DB19A
:1058F8002846FBF707FA82B2314628460CF0ABFE81
:10590800264682E00022F7E76C1C4DB12846FBF7DB
:10591800F9F982B2214628460CF09DFE002674E073
:105928000022F7E76C1C2846FBF7ECF982B2214607
:1059380028460CF090FE254667E04FF00008022448
:10594800042C0CD82B5DA3F13002D2B2072A06D85A
:1059580042EAC8025FFA82F80134E4B2F0E7022CA6
:105968006DD904F1FF39A94465B12846FBF7CAF996
:1059780082B2023C121B494628460CF06CFE05F820
:10598800018B42E00022F4E7A3F16102D2B2052ABA
:1059980014D8573BDBB243EA08135FFA83F80134A3
:1059A800E4B2032C16D82B5DA3F13002D2B2092A37
:1059B800EAD842EA08125FFA82F8F0E7A3F1410256
:1059C800D2B2052A06D8373BDBB243EA08135FFA9E
:1059D80083F8E4E7022C17D904F1FF39A94465B12B
:1059E8002846FBF78FF982B2023C121B494628462B
:1059F8000CF031FE05F8018B07E00022F4E7154BA7
:105A08001B5D13F0080F20D101352C78ECB146B995
:105A1800272C3FF46BAF5C2C3FF45AAF222C3FF499
:105A280065AFA6423FF470AF002EE8D05C2CEBD1F6
:105A38006B789E423FF476AF302B3FF47EAF782BE5
:105A4800E2D14FF000080224ABE73D603046BDE8E4
:105A5800F88300BFAD61010870B582B004460E46F8
:105A680001921D460020206007E0531C019300238B
:105A7800137002E001A8FFF725FF019A117869B1B8
:105A8800074B5B5C13F0080FEFD123685A1C2260A8
:105A9800019A46F823202368AB42EBD102B070BDCF
:105AA800AD6101088C46034688B110B5144680687C
:105AB80020B3154B984214D3144B984211D2036863
:105AC8001146604698472068C0B1204616E0104944
