:020000040800F2
:10000000C0A300204996000873C90108359600086E
:100010003596000835960008359600080000000067
:1000200000000000000000000000000091970008A0
:1000300035960008000000005D970008355D010856
:100040007599000875990008759900087599000858
:100050007599000875990008759900087599000848
:100060007599000875990008759900087599000838
:100070007599000875990008759900087599000828
:100080007599000875990008759900087599000818
:100090007599000875990008759900087599000808
:1000A00075990008759900087599000875990008F8
:1000B00075990008759900087599000875990008E8
:1000C00075990008759900087599000875990008D8
:1000D00075990008759900087599000875990008C8
:1000E00075990008759900087599000875990008B8
:1000F00075990008759900087599000875990008A8
:100100007599000875990008759900087599000897
:100110007599000875990008759900087599000887
:100120007599000875990008759900087599000877
:0801300075990008759900089B
:1001380081F0004102E000BF83F0004330B54FEA90
:1001480041044FEA430594EA050F08BF90EA020FFD
:100158001FBF54EA000C55EA020C7FEA645C7FEA90
:10016800655C00F0E2804FEA5454D4EB5555B8BFB3
:100178006D420CDD2C4480EA020281EA030382EA24
:10018800000083EA010180EA020281EA0303362DB6
:1001980088BF30BD11F0004F4FEA01314FF4801C89
:1001A8004CEA113102D0404261EB410113F0004F9B
:1001B8004FEA03334CEA133302D0524263EB430352
:1001C80094EA050F00F0A780A4F10104D5F1200EF0
:1001D8000DDB02FA0EFC22FA05F2801841F100014B
:1001E80003FA0EF2801843FA05F359410EE0A5F11F
:1001F80020050EF1200E012A03FA0EFC28BF4CF050
:10020800020C43FA05F3C01851EBE37101F0004505
:1002180007D54FF0000EDCF1000C7EEB00006EEB12
:100228000101B1F5801F1BD3B1F5001F0CD349089C
:100238005FEA30004FEA3C0C04F101044FEA4452F3
:1002480012F5800F80F09A80BCF1004F08BF5FEA7A
:10025800500C50F1000041EB045141EA050130BD5A
:100268005FEA4C0C404141EB0101013C28BFB1F56C
:10027800801FE9D291F0000F04BF01460020B1FAB7
:1002880081F308BF2033A3F10B03B3F120020CDA8A
:100298000C3208DD02F1140CC2F10C0201FA0CF068
:1002A80021FA02F10CE002F11402D8BFC2F1200CCD
:1002B80001FA02F120FA0CFCDCBF41EA0C01904083
:1002C800E41AA2BF01EB0451294330BD6FEA0404CC
:1002D8001F3C1CDA0C340EDC04F11404C4F12002B7
:1002E80020FA04F001FA02F340EA030021FA04F3C9
:1002F80045EA030130BDC4F10C04C4F1200220FA20
:1003080002F001FA04F340EA0300294630BD21FA5D
:1003180004F0294630BD94F0000F83F4801306BF23
:1003280081F480110134013D4EE77FEA645C18BF17
:100338007FEA655C29D094EA050F08BF90EA020FAE
:1003480005D054EA000C04BF1946104630BD91EAA6
:10035800030F1EBF0021002030BD5FEA545C05D1A9
:100368004000494128BF41F0004130BD14F58004E8
:100378003CBF01F5801130BD01F0004545F0FE415C
:1003880041F470014FF0000030BD7FEA645C1ABF91
:10039800194610467FEA655C1CBF0B46024650EAC8
:1003A800013406BF52EA033591EA030F41F40021F4
:1003B80030BD00BF90F0000F04BF0021704730B57A
:1003C8004FF4806404F132044FF000054FF000014F
:1003D80050E700BF90F0000F04BF0021704730B510
:1003E8004FF4806404F1320410F0004548BF4042E5
:1003F8004FF000013EE700BF42004FEAE2014FEA3A
:1004080031014FEA02701FBF12F07F4393F07F4F14
:1004180081F06051704732F07F4208BF704793F017
:100428007F4F04BF41F40021704730B54FF460742A
:1004380001F0004521F000411CE700BF50EA01022D
:1004480008BF704730B54FF000050AE050EA0102D6
:1004580008BF704730B511F0004502D5404261EB46
:1004680041014FF4806404F132045FEA915C3FF487
:10047800D8AE4FF003025FEADC0C18BF03325FEA24
:10048800DC0C18BF033202EBDC02C2F1200300FAD5
:1004980003FC20FA02F001FA03FE40EA0E0021FAFA
:1004A80002F11444BDE600BF4FEA4102B2F1E04355
:1004B80024BFB3F5001CDCF1FE5C0DD901F0004C43
:1004C8004FEAC0024CEA5070B2F1004F40EB830093
:1004D80008BF20F00100704711F0804F21D113F1BF
:1004E8003872BCBF01F00040704741F480114FEAF8
:1004F8005252C2F11802C2F1200C10FA0CF320FA81
:1005080002F018BF40F001004FEAC1234FEAD3239D
:1005180003FA0CFC40EA0C0023FA02F34FEA430307
:10052800CCE77FEA625307D150EA01331EBF4FF090
:10053800FE4040F44000704701F0004040F0FE40AB
:1005480040F40000704700BF80F0004002E000BFA8
:1005580081F0004142001FBF5FEA410392EA030FA6
:100568007FEA226C7FEA236C6AD04FEA1262D2EBF0
:100578001363C1BFD218414048404140B8BF5B42F5
:10058800192B88BF704710F0004F40F4000020F08E
:100598007F4018BF404211F0004F41F4000121F0A4
:1005A8007F4118BF494292EA030F3FD0A2F10102EE
:1005B80041FA03FC10EB0C00C3F1200301FA03F12C
:1005C80000F0004302D5494260EB4000B0F5000F4F
:1005D80013D3B0F1807F06D340084FEA310102F10E
:1005E8000102FE2A51D2B1F1004F40EBC25008BFC0
:1005F80020F0010040EA03007047490040EB00008A
:10060800013A28BFB0F5000FEDD2B0FA80FCACF18A
:10061800080CB2EB0C0200FA0CF0AABF00EBC250B7
:1006280052421843BCBFD0401843704792F0000FA5
:1006380081F4000106BF80F400000132013BB5E7F8
:100648004FEA41037FEA226C18BF7FEA236C21D06E
:1006580092EA030F04D092F0000F08BF08467047D3
:1006680090EA010F1CBF0020704712F07F4F04D1A1
:10067800400028BF40F00040704712F100723CBFB4
:1006880000F50000704700F0004343F0FE4040F4DE
:10069800000070477FEA226216BF08467FEA23639C
:1006A8000146420206BF5FEA412390EA010F40F487
:1006B800800070474FF0000304E000BF10F00043D3
:1006C80048BF40425FEA000C08BF704743F09643BA
:1006D80001464FF000001CE050EA010208BF7047D5
:1006E8004FF000030AE000BF50EA010208BF70475C
:1006F80011F0004302D5404261EB41015FEA010C71
:1007080002BF84460146002043F0B64308BFA3F168
:100718008053A3F50003BCFA8CF2083AA3EBC2534A
:1007280010DB01FA02FC634400FA02FCC2F1200269
:10073800BCF1004F20FA02F243EB020008BF20F0A0
:100748000100704702F1200201FA02FCC2F1200206
:1007580050EA4C0021FA02F243EB020008BF20EAFB
:10076800DC7070474FF0FF0C1CEAD0521EBF1CEA29
:10077800D15392EA0C0F93EA0C0F6FD01A4480EA17
:10078800010C400218BF5FEA41211ED04FF0006300
:1007980043EA501043EA5111A0FB01310CF000402C
:1007A800B1F5000F3EBF490041EAD3715B0040EA52
:1007B800010062F17F02FD2A1DD8B3F1004F40EB22
:1007C800C25008BF20F00100704790F0000F0CF0F5
:1007D800004C08BF49024CEA502040EA51207F3AB9
:1007E800C2BFD2F1FF0340EAC250704740F4000094
:1007F8004FF00003013A5DDC12F1190FDCBF00F085
:1008080000407047C2F10002410021FA02F1C2F132
:10081800200200FA02FC5FEA310040F1000053EACE
:100828004C0308BF20EADC70704792F0000F00F01C
:10083800004C02BF400010F4000F013AF9D040EA22
:100848000C0093F0000F01F0004C02BF490011F4B6
:10085800000F013BF9D041EA0C018FE70CEAD153B4
:1008680092EA0C0F18BF93EA0C0F0AD030F0004C34
:1008780018BF31F0004CD8D180EA010000F00040E8
:10088800704790F0000F17BF90F0004F084691F0A6
:10089800000F91F0004F14D092EA0C0F01D14202E0
:1008A8000FD193EA0C0F03D14B0218BF084608D1A9
:1008B80080EA010000F0004040F0FE4040F40000F3
:1008C800704740F0FE4040F4400070474FF0FF0C86
:1008D8001CEAD0521EBF1CEAD15392EA0C0F93EACD
:1008E8000C0F69D0A2EB030280EA010C49024FEA1F
:1008F800402037D04FF0805343EA111143EA1013D8
:100908000CF000408B4238BF5B0042F17D024FF48F
:10091800000C8B4224BF5B1A40EA0C00B3EB510F6A
:1009280024BFA3EB510340EA5C00B3EB910F24BF53
:10093800A3EB910340EA9C00B3EBD10F24BFA3EBD8
:10094800D10340EADC001B0118BF5FEA1C1CE0D1A0
:10095800FD2A3FF650AF8B4240EBC25008BF20F053
:10096800010070470CF0004C4CEA50207F32C2BFA7
:10097800D2F1FF0340EAC250704740F400004FF044
:100988000003013A37E792F0000F00F0004C02BF75
:10099800400010F4000F013AF9D040EA0C0093F03F
:1009A800000F01F0004C02BF490011F4000F013B99
:1009B800F9D041EA0C0195E70CEAD15392EA0C0F01
:1009C80008D142027FF47DAF93EA0C0F7FF470AF39
:1009D800084676E793EA0C0F04D14B023FF44CAF7C
:1009E80008466EE730F0004C18BF31F0004CCAD111
:1009F80030F000427FF45CAF31F000437FF43CAF4D
:100A08005FE700BF4FF0FF3C06E000BF4FF0010C6E
:100A180002E000BF4FF0010C4DF804CD4FEA400250
:100A28004FEA41037FEA226C18BF7FEA236C11D09A
:100A380001B052EA530C18BF90EA010F58BFB2EB4D
:100A4800030088BFC81738BF6FEAE17018BF40F0CD
:100A5800010070477FEA226C02D15FEA402C05D181
:100A68007FEA236CE4D15FEA412CE1D05DF8040B06
:100A7800704700BF844608466146FFE70FB5FFF799
:100A8800C9FF002848BF10F1000F0FBD4DF808ED51
:100A9800FFF7F4FF0CBF012000205DF808FB00BF42
:100AA8004DF808EDFFF7EAFF34BF012000205DF89C
:100AB80008FB00BF4DF808EDFFF7E0FF94BF0120E9
:100AC80000205DF808FB00BF4DF808EDFFF7D2FFE6
:100AD80094BF012000205DF808FB00BF4DF808ED29
:100AE800FFF7C8FF34BF012000205DF808FB00BFF6
:100AF8004FEA40024FEA41037FEA226C02D15FEAE3
:100B0800402C08D17FEA236C02D15FEA412C02D144
:100B18004FF0000070474FF0010070474FEA400265
:100B2800B2F1FE4F0FD34FF09E03B3EB12620DD913
:100B38004FEA002343F0004310F0004F23FA02F07D
:100B480018BF404270474FF00000704712F1610F24
:100B580001D1420205D110F0004008BF6FF00040FB
:100B680070474FF00000704742000ED2B2F1FE4FBE
:100B78000BD34FF09E03B3EB126209D44FEA002364
:100B880043F0004323FA02F070474FF0000070472B
:100B980012F1610F01D1420202D14FF0FF307047CC
:100BA8004FF00000704700BF7BB972B90029BEBF83
:100BB80000204FF0004106E008BF00281CBF6FF07E
:100BC80000414FF0FF3000F057B8ADF1080C6DE967
:100BD80004CE002909DB002B1ADB00F062F8DDF8EF
:100BE80004E0DDE9022304B07047404261EB4101B3
:100BF800002B1BDB00F055F8DDF804E0DDE90223EB
:100C080004B0404261EB4101524263EB4303704739
:100C1800524263EB430300F044F8DDF804E0DDE9F9
:100C2800022304B0404261EB41017047524263EB3A
:100C3800430300F036F8DDF804E0DDE9022304B0F0
:100C4800524263EB4303704753B94AB9002908BFBE
:100C580000281CBF4FF0FF314FF0FF3000F00CB8F8
:100C6800ADF1080C6DE904CE00F01BF8DDF804E0E6
:100C7800DDE9022304B07047704700BF430803F062
:100C88005533C01A00F03333800800F0333018446D
:100C980000EB10104FF0013300F00F305843000EF6
:100CA80070472DE9F04786468C460846089E15464B
:100CB80074461946002B40F0C2808542B2FA82F28F
:100CC80045D94AB1C2F1200300FA02FC2EFA03F317
:100CD800954043EA0C0C94404FEA154EA8B2BCFB71
:100CE800FEF8230C0EFB18CC08FB00F943EA0C4372
:100CF800994528D9EB1808F1FF3704D2994502D94C
:100D0800A8F102072B44A3EB0903A4B2B3FBFEFC32
:100D18000EFB1C330CFB00F044EA0344A04214D938
:100D28002C190CF1FF3304D2A04202D9ACF1020312
:100D38002C44241A43EA07401EB1D44000233460EF
:100D48007360BDE8F0874746DDE76346F1E792BB8D
:100D5800431B01214FEA154EAFB2B3FBFEFC200C3A
:100D68000EFB1C330CFB07F840EA0343984562D995
:100D7800EB180CF1FF3004D2984502D9ACF102000F
:100D88002B44A3EB0803A4B2B3FBFEFC0EFB1C33FD
:100D98000CFB07F744EA0344A7424ED92C190CF17F
:100DA800FF3304D2A74202D9ACF102032C44E41B5E
:100DB80043EA0040C0E7C2F1200320FA03F195405E
:100DC80090402EFA03F303434FEA154EAFB2B1FB3E
:100DD800FEFC0EFB1C10190C0CFB07F841EA004145
:100DE800884504FA02F422D969180CF1FF3004D2BC
:100DF800884502D9ACF102002944A1EB08019BB255
:100E0800B1FBFEFC0EFB1C110CFB07F743EA014388
:100E18009F420ED9EB180CF1FF3104D29F4202D940
:100E2800ACF102012B44DB1B41EA004192E760462A
:100E3800E3E76146F7E76046A3E76346B7E783421F
:100E480006D916B9002108467BE7C6E900E0F9E7AC
:100E5800B3FA83F78FB9834201D3724508D8BEEB42
:100E6800020460EB030301209C461EB9002168E7D9
:100E78003846FAE7C6E9004CF8E7C7F1200CBB4052
:100E880022FA0CF41C432EFA0CF120FA0CF3B840A9
:100E980001434FEA14490EFA07F5B3FBF9F81FFAB4
:100EA80084FE09FB18300B0C08FB0EFA43EA0043DA
:100EB8009A4502FA07F240D9E31808F1FF3004D244
:100EC8009A4502D9A8F102002344A3EB0A0389B288
:100ED800B3FBF9F809FB183308FB0EFE41EA03419E
:100EE8008E452CD9611808F1FF3304D28E4502D9FA
:100EF800A8F10203214443EA0040A0FB0298A1EBB9
:100F08000E014145CE46434602D306D14D4504D293
:100F1800B9EB020E68EB04030138002EA6D0B5EB3E
:100F28000E0261EB030101FA0CFC22FA07F34CEA0A
:100F38000303F940C6E9003198E74046C5E7434650
:100F4800D9E710F8012B11F8013B012A28BF9A4272
:100F5800F7D0D01A7047034611F8012B03F8012B7C
:100F6800002AF9D17047034613F8012B002AFBD158
:100F7800181A0138704700002DE9F04F8FB00B9018
:100F88000C46154620F0F6FD0022431880F08580B7
:100F980013444F4FA7FB032C2CF0030202EB9C02D7
:100FA8009B1AC01A61F100024FF0CC3100FB01F12D
:100FB80007FB0211A0FB07031944400840EAC1706F
:100FC8004F088046012C6AD06C6821464148FFF7DB
:100FD800B8FF28B121464048FFF7B3FF002867D182
:100FE80039A3D3E9002340463946FFF7DDFD0C90CD
:100FF8000E4635A3D3E9002340463946FFF7D4FD12
:1010080015461C46354A002328462146FFF7CCFDE5
:1010180007460D91314A002328462146FFF7C4FDB3
:1010280015461C464EF66022002328462146FFF747
:10103800BBFD814688464EF660220023284621469D
:10104800FFF7B2FD15461C464FF47A720023284676
:101058002146FFF7A9FD83468A464FF47A7200239A
:1010680028462146FFF7A0FDCDE90823CDF818B0A2
:10107800CDF81CA0CDF81090CDF8148002970D9BE8
:1010880003930C9B00930196154A08210B981AF0BC
:1010980013FE00200FB0BDE8F08F012278E7009022
:1010A8000197104A08210B981AF006FE0020F1E774
:1010B80023460D4A01210B981AF0FEFD6FF004003B
:1010C800E8E700BFAFF30080005C260500000000E1
:1010D800CDCCCCCC584502085C45020880EE3600E1
:1010E80080450208444502086845020838B520488A
:1010F80020F0A8F868B11E4883681B681D49984706
:101108000446D8B11C4B1B6813F0070F0FD12046BB
:1011180038BD194B1B6813F0070F02D16FF012048A
:10112800F5E7164A0121144819F06FFFF6E7034660
:10113800134A0121104819F072FFE8E700210C4812
:1011480004F054FE054680B110F1780FDFD00A4B49
:101158001B6813F0070F01D12C46D8E70346094A4C
:101168000121054819F05BFFF6E70446CFE700BF09
:101178007C27020860300208BC100020682F020893
:101188007C2F0208A02F02082DE9F04188B000AF9B
:101198000546A94820F056F8A0B10121A64804F058
:1011A80025FE0446E0B110F1780F19D0A34B1B6857
:1011B80013F0070F30D00346A14A01219F4819F0C8
:1011C8002EFF29E09D4B1B6813F0070F02D16FF02B
:1011D800120421E09B4A0121984819F016FFF6E70E
:1011E8000023BB60FB603B617B61BB610423FB6048
:1011F80007F11E033B6102237B610C233B768E487B
:1012080083685B6807F108019847044680B18B4BF7
:101218001B6813F0070F04D120462037BD46BDE8F0
:10122800F0810346884A0121844819F0F8FEF3E763
:10123800B7F91E307B60804B98683B1D3A7E0821C9
:10124800008918F010FC0646002840F0A5807B4B6A
:101258001B6813F0040F44D0D7F804C0B7F91E4038
:10126800E8468AB06B4613F1100200F0A3801421FF
:101278009AB10846042903DDDFF8D0E1C3F814E089
:10128800082803DDDFF8C8E1C3F818E00C2801DD01
:10129800C3F81CC0102800DD1C62132940F38D80A0
:1012A80014243AB10521397000217970B970F970A8
:1012B8003868186100216FF300016FF341016FF383
:1012C80082016FF3C501042363F38811C4F30A0490
:1012D80064F353216FF31F510023584804F064F955
:1012E800C5466DB17868FFF7E9F95A49FFF7EEFA94
:1012F80028605949FFF7EAFA5849FFF733FA286096
:101308004E4B1B6813F0040F7CD02868FFF774F865
:1013180000220023FEF712FF6C461C220C2312F059
:10132800070F4DD103F10805AC461F3323F007031F
:10133800ADEB030D6A46002D4ED002F1100E032DC1
:1013480048D9BEF1000F07D0042D01DD444B53618D
:10135800082D01DD3E4B93611C234FF00C0C13F05C
:10136800070F30D16346BEF1000F04D0AC4502DA56
:10137800F444CCE9000108339D4228DB9C46BEF1C9
:10138800000F29D0C3F387033B7000237B70BB7029
:10139800FB70386810611FE0284B1B6813F0070FBB
:1013A80001D1344638E703462E4A0121234819F073
:1013B80036FEF6E76FF000415AE76FF01B0470E75E
:1013C80004330432ABE70CF1040C0433C7E76FF0C5
:1013D8001B0CD4E76FF01B0C00216FF300016FF3B7
:1013E80041016FF382016FF3C501042363F3881190
:1013F8006CF353216FF31F51103200230F4804F090
:10140800D3F8A54600210C4804F0F0FC0446002857
:101418003FF402AF10F1780F0CD0084B1B6813F0A3
:10142800070F3FF4F9AE0346054A0121034819F0B6
:10143800F6FDF1E63446EFE67C270208BC100020F2
:10144800A02F0208682F0208C82F02080C300208D3
:101458004C30020800007A440000C84200002544CD
:1014680030300208E42F02082DE9F047804689460B
:1014780092465C4B1B685C4A03EB430102EB81001C
:1014880052F82140456886686CB958494046FFF7CC
:1014980007FB002840F0998055494046FFF71EFB9E
:1014A800002840F09480012C2AD0B4F1FF3F2ED0C0
:1014B8006DB94E494846FFF7F3FA002840F0898095
:1014C8004B494846FFF70AFB002840F08480012D6D
:1014D80025D0B5F1FF3F2AD05EB944495046FFF701
:1014E800DFFA002879D142495046FFF7F7FA002879
:1014F80075D1012E23D0B6F1FF3F28D0BDE8F08783
:101508003C494046FFF7CCFA0028CED028E03A49BB
:101518004046FFF7E3FA0028CAD0012420E0354905
:101528004846FFF7BDFA0028D3D02C4618E03249C8
:101538004846FFF7D3FA0028CED0012410E02D4901
:101548005046FFF7ADFA0028D5D0344608E02A49BE
:101558005046FFF7C3FA0028D0D0012400E0013438
:10156800062CCBDC204B04EB440203EB820753F838
:101578002200FFF7A3F84146FEF7EAFF20F00045F6
:101588007868FFF79BF84946FEF7E2FF20F000462F
:10159800B868FFF793F85146FEF7DAFF20F00047E6
:1015A80014492846FFF77CFA0028D8D0114930465C
:1015B800FFF776FA0028D2D00E493846FFF770FABE
:1015C8000028CCD0074B1C6098E70124C8E7012409
:1015D800C6E70124C4E70124C2E70124C0E70124C7
:1015E800BEE700BF1022002048310208CDCCCCBE97
:1015F800CDCCCC3E9A99193F9A9919BF2DE9F04F55
:101608008FB000AF06460D467A613B614FF0FF325E
:101618004FF0FF33AC4815F0C1FAAC481FF012FE8A
:1016280098B14FF00008B8F1040F1FDCA748836891
:10163800DB683B21984704463D2817D164200021E8
:1016480016F00AF908F10108EDE7A14B1B6813F041
:10165800070F05D19C4815F021FB6FF0120438E202
:101668009C4A01219A4819F0D0FCF3E7002C40F07D
:101678008B80964883681B6907F1200203219847ED
:101688000446002840F09080386AFFF717F8804633
:10169800786AFFF713F89049FFF718F901464046B2
:1016A800FEF758FF8046B86AFFF708F88146F86ADF
:1016B800FFF704F88849FFF709F901464846FEF79D
:1016C80049FF8146386BFEF7F9FF8246786BFEF7D3
:1016D800F5FF8149FFF7FAF801465046FEF73AFF51
:1016E80082467B4B1B6813F0040F00F08F80404646
:1016F800FEF782FE00220023FEF720FDC7E9020163
:10170800EB461C230C2213F0070F5DD102F10803EE
:101718009C461F3222F00702ADEB020D6A46002BF1
:101728005ED002F1100E032B58D9BEF1000F07D07E
:10173800042B01DD69495161082B01DD684991617C
:101748001C214FF00C0C704611F0070F3FD1864654
:10175800C7F804C030B1634504DD8444D7E9020109
:10176800CCE90001796808318B4234DB8C46BEF144
:10177800000F35D0C1F38701397700237B77BB771A
:10178800FB77F86910612BE0514B1B6813F0070FCA
:1017980003D14D4815F082FA9BE12346514A0121B5
:1017A8004B4819F03CFCF4E7494B1B6813F0070F52
:1017B80003D1454815F072FA8BE103464A4A0121E4
:1017C800434819F02CFCF4E7043204339BE70CF18E
:1017D800040C0431B8E76FF01B0CC8E76FF01B0C62
:1017E80000216FF300016FF341016FF382016FF382
:1017F800C501042363F388116CF353216FF31F5160
:1018080010320023324803F0CFFEDD46304B1B6810
:1018180013F0040F00F084804846FEF7EDFD002227
:101828000023FEF78BFCC7E90201EB461C230C22C0
:1018380013F0070F3DD102F108039C461F3222F036
:101848000702ADEB020D6A46002B53D002F1100ED1
:10185800032B4DD9BEF1000F07D0042B01DD23491E
:101868005161082B01DD1E4991611C214FF00C0CC0
:10187800704611F0070F1FD18646C7F804C030B173
:101888009C4504DA8444D7E90201CCE9000179686F
:1018980008318B4214DB8C46BEF1000F2AD0C1F30D
:1018A8008701397700237B77BB77FB77F86910616D
:1018B80020E004320433BBE70CF1040C0431D8E710
:1018C8006FF01B0CE8E700BF401200202428020834
:1018D800B4100020682F020800247449C43002089C
:1018E80038310208743002089C300208E4300208DB
:1018F8006FF01B0C00216FF300016FF341016FF3D0
:1019080082016FF3C501042363F388116CF353213B
:101918006FF31F5110320023734803F045FEDD4674
:10192800714B1B6813F0040F6ED05046FEF764FD30
:1019380000220023FEF702FCC7E90201EB461C2344
:101948000C2213F0070F3DD102F108039C461F3209
:1019580022F00702ADEB020D6A46002B3ED002F1E1
:10196800100E032B38D9BEF1000F07D0042B01DD70
:101978005E495161082B01DD5D4991611C214FF0E1
:101988000C0C704611F0070F1FD18646C7F804C02B
:1019980030B19C4504DA8444D7E90201CCE900015E
:1019A800796808318B4214DB8C46BEF1000F15D0E4
:1019B800C1F38701397700237B77BB77FB77F86919
:1019C80010610BE004320433BBE70CF1040C043162
:1019D800D8E76FF01B0CE8E76FF01B0C00216FF3E2
:1019E80000016FF341016FF382016FF3C501042316
:1019F80063F388116CF353216FF31F5110320023E6
:101A0800394803F0D1FDDD460EB1C6F800800DB1AE
:101A1800C5F800907B690BB1C3F800A03549504662
:101A2800FEF754FF064633494846FEF74FFF054682
:101A380030494046FEF74AFF32462946FFF714FD73
:101A48002D4B1D68284B1B6813F0040F3BD06E46C6
:101A580088B06B4613F1100240D010217AB10846C5
:101A6800042903DDDFF894C0C3F814C0082803DD97
:101A7800DFF87CC0C3F818C00C2800DDDD610F2931
:101A88002FDD4FF0100C3AB1042139770021797716
:101A9800B977F977F869186100216FF300016FF3DE
:101AA80041016FF382016FF3C501042363F38811C9
:101AB800CCF30A0C6CF353216FF31F5100230A482F
:101AC80003F072FDB5463B6903B11D600C4815F083
:101AD800E5F820463C37BD46BDE8F08F6FF0004181
:101AE800BCE76FF01B0CCEE7B410002004310208ED
:101AF800383102080AE81C4110220020243102086B
:101B0800401200202DE9F04385B000AF06460D468F
:101B1800AF481FF097FB00286FD0AD488368DB689B
:101B28003B2198470446002875D1A94883681B695A
:101B380007F108020D219847044600287CD1B868AF
:101B4800FEF7BCFD0446F868FEF7B8FDA149FEF7AC
:101B5800BDFE2146FEF7FEFC04469F4B1B6813F0B2
:101B6800040F00F09780FEF747FC00220023FEF7E1
:101B7800E5FAE8461C220C2312F0070F68D103F19E
:101B8800080EF4461F3323F00703ADEB030D6A4636
:101B9800BEF1000F68D002F11009BEF1030F61D940
:101BA800B9F1000F09D0BEF1040F01DD8B4B536171
:101BB800BEF1080F01DD8A4B93611C234FF00C0C1A
:101BC80013F0070F47D16346B9F1000F04D0E6457B
:101BD80002DDCC44CCE9000108339E453FDB9C463E
:101BE800B9F1000F40D0C3F387033B7100237B7129
:101BF800BB71FB717868106136E0774B1B6813F096
:101C0800070F02D16FF012040AE0764A01217248E8
:101C180019F0FBF9F6E7704B1B6813F0070F04D1B6
:101C280020461437BD46BDE8F08303466E4A0121BD
:101C3800694819F0F4F9F3E7674B1B6813F0070FCD
:101C4800EED00346694A0121634819F0E8F9E7E74D
:101C58000433043290E70CF1040C0433B0E76FF05E
:101C68001B0CBDE76FF01B0C00216FF300016FF335
:101C780041016FF382016FF3C501042363F38811F7
:101C88006CF353216FF31F5110320023524803F0B5
:101C98008BFCC54606B134604D4883681B6907F163
:101CA800080210219847044600285DD1B868FEF75D
:101CB80005FD0646F868FEF701FD4649FEF706FEF3
:101CC80001463046FEF746FC0646434B1B6813F0B8
:101CD800040F78D0FEF790FB00220023FEF72EFABF
:101CE800E8461C220C2312F0070F4AD103F1080E14
:101CF800F4461F3323F00703ADEB030D6A46BEF12C
:101D0800000F4AD002F11009BEF1030F43D9B9F10F
:101D1800000F09D0BEF1040F01DD354B5361BEF150
:101D2800080F01DD2E4B93611C234FF00C0C13F0B0
:101D3800070F29D16346B9F1000F04D0F44502DA40
:101D4800CC44CCE9000108339E4521DB9C46B9F11F
:101D5800000F22D0C3F387033B7100237B71BB7153
:101D6800FB717868106118E01B4B1B6813F0070FB4
:101D78003FF456AF03461D4A0121174819F04FF9A1
:101D88004EE704330432AEE70CF1040C0433CEE71B
:101D98006FF01B0CDBE76FF01B0C00216FF30001E9
:101DA8006FF341016FF382016FF3C501042363F3FD
:101DB80088116CF353216FF31F511032002306482A
:101DC80003F0F2FBC546002D3FF42AAF2E6027E74B
:101DD8000C28020800247449D4100020A8310208F5
:101DE800D8310208682F0208743002089C300208B3
:101DF800C031020810B51E481FF024FA88B11C48EB
:101E080083689B681B499847041E18DB1A4B1C60A3
:101E1800174883681B68002198470446D8B92046AC
:101E280010BD164B1B6813F0070F02D16FF0120498
:101E3800F5E7134A0121114819F0E7F8F6E70F4BC7
:101E48001B6813F0070FEAD023460E4A01210B48FE
:101E580019F0E5F8E3E7094B1B6813F0070FDED02C
:101E68000346094A0121054819F0D9F8D7E700BF08
:101E7800DC270208680D002014220020D81000205A
:101E8800682F0208F43102081C32020810B5144801
:101E98001FF0D8F948B1134B196811488368DB68FB
:101EA8009847044678B9204610BD0F4B1B6813F0BD
:101EB800070F02D16FF01204F5E70C4A01210A4816
:101EC80019F0A3F8F6E7084B1B6813F0070FEAD0E0
:101ED8000346074A0121044819F0A1F8E3E700BFC7
:101EE800DC27020814220020D8100020682F0208DE
:101EF8003832020810B56C4B9C6821462046FEF724
:101F0800F7FDB0B9694B1B78EBB169492046FEF77C
:101F1800E5FD58B367492046FEF7C2FD30B3664B6E
:101F28001B6803F00703022B07D8604B00221A70C6
:101F38001CE05E4B00221A7018E0604A03215E48DC
:101F480019F063F8F1E75E492046FEF7A9FD20B9CC
:101F58005C492046FEF7C2FD40B1574B1B6803F0B1
:101F68000703022B21D8514B01221A704E4B5C6992
:101F780021462046FEF7BCFDE8B9534B1B7823B336
:101F880052492046FEF7AAFD002832D05049204683
:101F9800FEF786FD68B3484B1B6803F00703022B66
:101FA8000DD8494B00221A7023E04A4A03214248BF
:101FB80019F02BF8D7E7444B00221A7019E0464A6B
:101FC80003213D4819F021F8EBE74FF07F512046F7
:101FD800FEF766FD20B941492046FEF77FFD40B176
:101FE800354B1B6803F00703022B21D8364B01221F
:101FF8001A702D4B9C6921462046FEF779FDE8B9F9
:10200800374B1B7823B331492046FEF767FD00287C
:1020180032D02F492046FEF743FD68B3264B1B6894
:1020280003F00703022B0DD82D4B00221A7023E072
:102038002C4A0321204818F0E8FFD7E7284B002254
:102048001A7019E0284A03211B4818F0DEFFEBE755
:102058004FF07F512046FEF723FD20B91F49204647
:10206800FEF73CFD40B1144B1B6803F00703022B3D
:102078000DD81B4B01221A700C4B1B786BB9124BF5
:102088001B7863B9164B1B785BB1012006E0174A31
:102098000321094818F0B9FFEBE7012010BD012022
:1020A800FCE70020FAE700BFF00D002018420020EE
:1020B8000000944100000A42B81000206032020873
:1020C80000008C4100000E42174200200000204012
:1020D8000000F04084320208A432020800000841DF
:1020E80016420020D43202080033020830330208B6
:1020F8002DE9F04F87B000AF804689461446B44BAF
:102108001B78002B00F043814FF40045B04B0022B0
:102118001A704FF0FF324FF0FF33AE4814F03EFD17
:10212800AD4B1E686FF000439E4200F0328106F00E
:102138000F0645F48045A84BD3F804A051465046F5
:10214800FEF7D6FC002840F02681A4495046FEF749
:1021580009FBFEF709FDC3B27B6045F400559E4BB1
:10216800D3F808A051465046FEF7C2FC002840F0BC
:1021780015819B495046FEF7F5FAFEF7CFFC0FFA9A
:1021880080FB45F48055944BD3F80CA0514650463B
:10219800FEF7AEFC002840F0048151465046FEF799
:1021A800D9F9FEF7E1FCC3B23B6045F400658A4B00
:1021B800D3F810A051465046FEF79AFC002840F08C
:1021C800F38051465046FEF7C5F9FEF7CDFC83B2C1
:1021D800FB6045F48065804BD3F814A05146504607
:1021E800FEF786FC002840F0E3807D495046FEF764
:1021F800B9FAFEF793FC03B2BB6045F40075764B61
:10220800D3F818A051465046FEF772FC002840F05B
:10221800D38073495046FEF7A5FAFEF77FFC0FFA04
:1022280080FA45F480756B4814F038FD2E43002180
:1022380021604A46404620F0E9F823684B4580F083
:10224800BE805A1C2260320A08F8032023684B45D6
:1022580080F0D6805A1C226008F8036016F4005FEC
:1022680008D023684B4580F0D9805A1C22607A68D0
:1022780008F8032016F4805F11D023684B4580F0DE
:10228800DB805A1C22604FEA2B2208F803202368BF
:102298004B4580F0DF805A1C226008F803B016F422
:1022A800006F08D023684B4580F0E2805A1C2260FA
:1022B8003A6808F8032016F4806F12D023684B455B
:1022C80080F0E4805A1C2260FA68120A08F8032099
:1022D80023684B4580F0E8805A1C2260FA6808F8A9
:1022E800032016F4007F12D023684B4580F0EA8063
:1022F8005A1C2260BA68121208F8032023684B455A
:1023080080F0EE805A1C2260BA6808F8032016F4A0
:10231800807F11D023684B4580F0F0805A1C2260E2
:102328004FEA2A2208F8032023684B4580F0F480FE
:102338005A1C226008F803A02A4B1B6813F0040FEC
:1023480000F034816D4601233B7503237B758AB009
:102358006E4616F1100200F0ED80122042B10346DD
:10236800042801DD20497161082B01DD1F4BB36191
:1023780001233B7403237B74002A00F0EA800C28B5
:1023880001DD1B4BF36106F120030021DFE000258E
:10239800BCE6FF26CFE6FF237B60E0E647F6FF7B3F
:1023A800F1E6FF233B6002E74FF6FF73FB6012E79D
:1023B80047F6FF73BB6022E747F6FF7A33E7094B1E
:1023C8001B6813F0070F15D16FF01B00E7E000BF83
:1023D8004410002004120020F00D002000004842A4
:1023E8000000C842C01000208C330208A83302083D
:1023F800943302086E4A01216E4818F006FEE3E79E
:102408006C4B1B6813F0070F02D16FF01B00C6E07E
:10241800674A0121674818F0F8FDF6E7654B1B6825
:1024280013F0070F02D16FF01B00B8E0604A0121DA
:10243800604818F0EAFDF6E75E4B1B6813F0070FDB
:1024480002D16FF01B00AAE0594A0121594818F03F
:10245800DCFDF6E7574B1B6813F0070F02D16FF04E
:102468001B009CE0524A0121524818F0CEFDF6E7C5
:10247800504B1B6813F0070F02D16FF01B008EE062
:102488004B4A01214B4818F0C0FDF6E7494B1B6841
:1024980013F0070F02D16FF01B0080E0444A0121BE
:1024A800444818F0B2FDF6E7424B1B6813F0070FDB
:1024B80002D16FF01B0072E03D4A01213D4818F03F
:1024C800A4FDF6E73B4B1B6813F0070F02D16FF032
:1024D8001B0064E0364A0121364818F096FDF6E7FD
:1024E800344B1B6813F0070F02D16FF01B0056E046
:1024F8002F4A01212F4818F088FDF6E72D4B1B685D
:1025080013F0070F02D16FF01B0048E0284A0121A1
:10251800284818F07AFDF6E7264B1B6813F0070FDA
:1025280002D16FF01B003AE0214A0121214818F03E
:102538006CFDF6E76FF0004010E701F1080C07F1B9
:10254800100EF4441CF808CC03F801CB0131012922
:10255800F3D9112827DD122342B10421397500214E
:102568007975B9750121F9757869306100216FF3C2
:1025780000016FF341016FF382016FF3C50104207D
:1025880060F38811C3F30A0363F35321236863F3E9
:102598001F514346074803F007F8AD4600201C3793
:1025A800BD46BDE8F08F6FF01B03D5E70020F6E7C6
:1025B80068330208C010002038B50446184D0422BC
:1025C80029461848A0470422A9181748A0470822F6
:1025D800A9181648A047042205F110011448A0477D
:1025E800102205F114011348A047102205F1240117
:1025F8001148A047042205F134011048A0470422DD
:1026080005F138010E48A047042205F13C010D48A8
:10261800A047042205F140010B48A047002038BD1F
:10262800900D0020C0330208D8330208F0330208A6
:1026380004340208183402082C3402084034020812
:1026480058340208783402089834020810B504F0A7
:1026580077F870B10446184B1B6813F0070F01D1C7
:10266800204610BD0346154A0121134818F0D7FC2F
:10267800F6E7134803F0E4FE044658B10E4B1B6816
:1026880013F0070FECD003460E4A01210A4818F050
:10269800C6FCE5E70C4803F017FE04460028DFD027
:1026A800054B1B6813F0070FDAD00346074A0121D0
:1026B800014818F0B4FCD3E7C4100020B034020875
:1026C800780D0020D83402086C3B0208FC3402085C
:1026D800B0B582B000AF244B1B6813F0040F34D0A0
:1026E8006C4688B06B4613F1100237D00C2142B10A
:1026F8000846042901DD1D4D5D61082801DD1C48DF
:1027080098610B292DDD4FF00C0C3AB1032139717A
:1027180000217971B971F9717868186100216FF336
:1027280000016FF341016FF382016FF3C5010423C8
:1027380063F38811CCF30A0C6CF353216FF31F5128
:102748000023094802F030FFA546442209490A48F7
:102758001FF034FE00200837BD46B0BD6FF00041C1
:10276800C5E76FF01B0CD0E7C41000202435020821
:1027780084380208900D002018220020F0B583B09C
:1027880004460D4617461E4601AA994918F0ECFE64
:1027980010B1019B002B66D001AA9649204618F07B
:1027A800E3FE10B1019B002B76D001AA9249204686
:1027B80018F0DAFE18B1019B002B00F0848001AA02
:1027C8008E49204618F0D0FE18B1019B002B00F06E
:1027D800918001AA8A49204618F0C6FE18B1019BCB
:1027E800002B00F09E8001AA8649204618F0BCFE06
:1027F80018B1019B002B00F0AB8001AA824920464A
:1028080018F0B2FE18B1019B002B00F0B88001AAA5
:102818007E49204618F0A8FE18B1019B002B00F055
:10282800C68001AA7A49204618F09EFE18B1019B7D
:10283800002B00F0D38001AA7649204618F094FEB8
:10284800002800F03681019B002B40F03581042DD3
:1028580040F035812A4670493046B847041EC0F218
:102868000081002409E0042D40F008812A466B49C4
:102878003046B847041E03DB0024204603B0F0BDF1
:10288800674B1B6813F0070FF7D02346654A0121F1
:10289800634818F0C4FBF0E7042D40F0F2802A46A4
:1028A80061493046B847041E01DB0024E5E75C4B6C
:1028B8001B6813F0070FE0D023465A4A01215848F5
:1028C80018F0ADFBD9E7082D40F0DE802A465749BD
:1028D8003046B847041E01DB0024CEE7504B1B6886
:1028E80013F0070FC9D023464E4A01214C4818F06F
:1028F80096FBC2E7042D40F0CA802A464C49304670
:10290800B847041E01DB0024B7E7454B1B6813F0EA
:10291800070FB2D02346434A0121414818F07FFBF4
:10292800ABE7102D40F0B6802A4642493046B847FA
:10293800041E01DB0024A0E7394B1B6813F0070FC6
:102948009BD02346374A0121354818F068FB94E7A5
:10295800102D40F0A2802A4637493046B847041E59
:1029680001DB002489E72E4B1B6813F0070F84D086
:1029780023462C4A01212A4818F051FB7DE7042DF3
:1029880040F08E802A462D493046B847041E01DBA8
:10299800002472E7224B1B6813F0070F3FF46DAF5A
:1029A8002346204A01211E4818F039FB65E7042D0B
:1029B80079D12A4622493046B847041E01DB002453
:1029C8005BE7174B1B6813F0070F3FF456AF23461E
:1029D800144A0121124818F022FB4EE7042D65D154
:1029E8002A4618493046B847041E2DDB002444E720
:1029F800403502086C3502087C3502088835020823
:102A080094350208A0350208AC350208C035020822
:102A1800D8350208F0350208D00D0020900D0020AE
:102A2800C410002050350208940D0020980D002095
:102A3800A00D0020A40D0020B40D0020C40D00201E
:102A4800C80D0020CC0D00201E4B1B6813F0070F8B
:102A58003FF413AF23461C4A01211A4818F0DFFA45
:102A68000BE7184B1B6813F0070F3FF406AF23461C
:102A7800154A0121134818F0D2FAFEE66FF0150442
:102A8800FBE66FF01504F8E66FF01504F5E66FF055
:102A98001504F2E66FF01504EFE66FF01504ECE6A6
:102AA8006FF01504E9E66FF01504E6E66FF015041B
:102AB800E3E66FF00104E0E66FF00104DDE66FF095
:102AC8001504DAE6C41000205035020808B5034B97
:102AD8001B6C034A082119F0EFF808BD900D00207F
:102AE8000036020810B582B00446064BD86BFDF7D5
:102AF80083FCCDE90001044A0821204619F0DCF8DE
:102B080002B010BD900D00201C36020810B582B02E
:102B18000446064B986BFDF76FFCCDE90001044AAB
:102B28000821204619F0C8F802B010BD900D002009
:102B38004036020810B582B00446064B586BFDF7C4
:102B48005BFCCDE90001044A0821204619F0B4F8DD
:102B580002B010BD900D00206436020808B5034B82
:102B68005B68034A082119F0A7F808BD900D0020FA
:102B78008436020808B5034B1B68034A082119F07C
:102B88009BF808BD900D0020A036020810B5044639
:102B9800012903D819F0E6F8002010BD5368054A4A
:102BA800012119F089F8204619F0DCF86FF01500BA
:102BB800F3E700BFBC36020838B50546012912D034
:102BC800022914D154682046FEF7CDF90A2815D1F8
:102BD8000023834222D2E25C15498A5C12F0040F7A
:102BE80014D00133F5E7FFF771FF00201EE0114A0A
:102BF800012119F061F86FF0150017E00E4A012164
:102C0800284619F059F86FF015000FE00A4A01211B
:102C1800284619F051F86FF0150007E00A22002144
:102C2800204615F063FC054B1864002038BD00BF32
:102C380051850208D4360208F4360208900D0020A7
:102C480038B50546012914D0022916D150681FF05D
:102C580003FAFDF729FC04460F49FDF721FF98B94F
:102C68000E492046FDF73AFF70B90D4BDC63002092
:102C780038BDFFF737FF0020FAE70A4A012119F0AB
:102C88001BF86FF01500F3E7074A0121284619F0F1
:102C980013F86FF01500EBE70000A0C00000A0409B
:102CA800900D0020D43602081037020838B50546C2
:102CB800012914D0022916D150681FF0CDF9FDF76B
:102CC800F3FB04460F49FDF7EBFE98B90E49204681
:102CD800FDF704FF70B90D4B9C63002038BDFFF76A
:102CE80015FF0020FAE70A4A012118F0E5FF6FF006
:102CF8001500F3E7074A0121284618F0DDFF6FF0B9
:102D08001500EBE70000A0C00000A040900D0020D7
:102D1800D43602081037020838B50546012914D000
:102D2800022916D150681FF097F9FDF7BDFB04463C
:102D38000F49FDF7B5FE98B90E492046FDF7CEFEBE
:102D480070B90D4B5C63002038BDFFF7F3FE00201F
:102D5800FAE70A4A012118F0AFFF6FF01500F3E710
:102D6800074A0121284618F0A7FF6FF01500EBE786
:102D78000000A0C00000A040900D0020D43602083A
:102D88001037020810B58AB00446212301AA102181
:102D98000B4817F08DFB58B903460A4A126812F01F
:102DA800070F0BD0084A0121064818F038F905E04A
:102DB80001AB064A0821204618F07EFF0AB010BD74
:102DC800B40D0020C4100020283702084437020838
:102DD80030B585B00446012919D002291BD15568A0
:102DE8002846FEF7C0F8014620281BD110236A4662
:102DF800284617F08EFB0546E0B1174C04AB13E9E3
:102E08000F0084E80F000025284605B030BDFFF705
:102E1800B9FF0025F8E7114A012118F04DFF6FF0BE
:102E28001505F1E70E4A0121204618F045FF6FF01D
:102E38001505E9E70B4A126812F0070F05D10A4A8F
:102E48000121204618F038FFDEE70346074A012132
:102E5800044818F0E4F8F2E7B40D0020D43602086C
:102E68005C370208C410002094370208783702083B
:102E780010B58AB00446212301AA10210B4817F087
:102E880017FB58B903460A4A126812F0070F0BD00D
:102E9800084A0121064818F0C2F805E001AB064AC5
:102EA8000821204618F008FF0AB010BDA40D002024
:102EB800C410002028370208A437020830B585B0AE
:102EC8000446012919D002291BD155682846FEF766
:102ED8004AF8014620281BD110236A46284617F0D5
:102EE80018FB0546E0B1174C04AB13E90F0084E862
:102EF8000F000025284605B030BDFFF7B9FF0025B3
:102F0800F8E7114A012118F0D7FE6FF01505F1E72F
:102F18000E4A0121204618F0CFFE6FF01505E9E7AB
:102F28000B4A126812F0070F05D10A4A0121204600
:102F380018F0C2FEDEE70346074A0121044818F0EC
:102F48006EF8F2E7A40D0020D43602085C370208B8
:102F5800C4100020943702087837020810B584B0EE
:102F68000446092301AA04210B4817F0A1FA58B90D
:102F780003460A4A126812F0070F0BD0084A0121CB
:102F8800064818F04CF805E001AB064A082120462F
:102F980018F092FE04B010BDA00D0020C41000204F
:102FA80028370208BC37020830B583B00446012927
:102FB80017D0022919D155682846FDF7D4FF0146D4
:102FC800082819D104230DEB0302284617F0A1FAAB
:102FD8000546C8B1154B019A1A610025284603B069
:102FE80030BDFFF7BBFF0025F8E7114A012118F0B3
:102FF80063FE6FF01505F1E70E4A0121204618F02F
:103008005BFE6FF01505E9E70B4A126812F0070F2F
:1030180005D10A4A0121204618F04EFEDEE7034694
:10302800074A0121044817F0FAFFF2E7900D002043
:10303800D43602085C370208C4100020943702080E
:103048007837020810B586B00446112301AA082172
:103058000B4817F02DFA58B903460A4A126812F0BD
:10306800070F0BD0084A0121064817F0D8FF05E0E2
:1030780001AB064A0821204618F01EFE06B010BD16
:10308800980D0020C410002028370208D437020801
:1030980030B583B00446012919D002291BD15568DF
:1030A8002846FDF760FF014610281BD108236A4611
:1030B800284617F02EFA0546E0B1174B02AA12E986
:1030C800030083E803000025284603B030BDFFF75E
:1030D800B9FF0025F8E7114A012118F0EDFD6FF05E
:1030E8001505F1E70E4A0121204618F0E5FD6FF0BD
:1030F8001505E9E70B4A126812F0070F05D10A4ACD
:103108000121204618F0D8FDDEE70346074A0121D1
:10311800044817F084FFF2E7980D0020D43602081F
:103128005C370208C4100020943702087837020878
:1031380010B50446012910D01346022911D10A22DC
:103148000021586815F05CF9A0F13C020C4B9A423A
:103158000ED80C4B5860002010BDFFF7FFFC002074
:10316800FAE7094A012118F0A7FD6FF01500F3E707
:10317800064A0121204618F09FFD6FF01500EBE785
:1031880044510100900D0020D4360208103702087F
:1031980010B50446012912D01346022913D10A2278
:1031A8000021586815F02CF9034620B1411F40F65C
:1031B8000B6291420ED80B4A1360002010BDFFF736
:1031C800D9FC0020FAE7084A012118F075FD6FF0D4
:1031D8001500F3E7054A0121204618F06DFD6FF050
:1031E8001500EBE7900D0020D436020810370208CE
:1031F80070B582B0044601A9032002F0D9FF054644
:1032080070B1164B1B6813F0070F02D1284602B0A5
:1032180070BD0346124A0121104817F000FFF5E778
:103228004FF400520021019818F045F9061E07DBFB
:10323800019818F03FF9002CE8D0012001F080FA3D
:10324800064B1B6813F0070F01D13546DEE73346FE
:10325800044A0121014817F0E2FEF6E7C4100020F5
:10326800EC3702081038020838B504460120FFF789
:10327800BFFF054608B9284638BD094B1B6813F03F
:10328800070F05D1074A0121204618F015FDF2E77E
:103298000346054A0121024817F0C1FEF2E700BFC4
:1032A800C4100020943702083438020838B50446A0
:1032B80018F055F9054610B96CB9284638BD074BC2
:1032C8001B6813F0070FF8D00346054A012103488D
:1032D80017F0A5FEF1E7012001F032FAC410002032
:1032E8004C38020838B504460120FFF7DFFF0546D1
:1032F80008B9284638BD094B1B6813F0070F05D1DC
:10330800074A0121204618F0D7FCF2E70346054A90
:103318000121024817F083FEF2E700BFC410002025
:10332800943702086C38020810B52B481DF08AFF44
:10333800A8B129481DF086FF88B127481DF082FFF3
:1033480068B14FF4B011254816F0E9FB0446D8B12E
:10335800234B1B6813F0070F0FD1204610BD204BDD
:103368001B6813F0070F02D16FF01204F5E71D4A2E
:1033780001211B4817F049FEF6E703461A4A0121C6
:10338800174817F04CFEE8E74FF4B011174816F04D
:10339800C6FB044658B1124B1B6813F0070FDCD06C
:1033A8000346114A01210E4817F039FED5E74FF4BC
:1033B800B0110F4816F0B3FB04460028CDD0084BD7
:1033C8001B6813F0070FC8D00346074A01210448B9
:1033D80017F025FEC1E700BF4C270208103D020880
:1033E800C8100020682F0208A43C0208083D020803
:1033F800003D020808B50A4601280ED002280ED062
:10340800A8B1114B1B6813F0070F0FD003460F4AE2
:1034180001210D4817F003FE08E00D4B00E00D4BAD
:103428001979186816F096FB034610B908BD0A4BBF
:10343800F6E7054A126812F0070FF7D0074A01218C
:10344800014817F0ECFDF1E7C8100020CC3C020859
:10345800083D0208003D0208103D0208E03C020851
:103468002DE9F04383B000AFFC6A5B4D2D6805F091
:10347800070CBCF1020F4AD916466D468AB0EC46D5
:103488001CF1100272D04FF01808DAB1C646B8F134
:10349800040F03DDDFF84491CCF81490BEF1080F57
:1034A80001DDCCF81800BEF10C0F01DDCCF81C10C2
:1034B800BEF1100F01DDCCF82060BEF1140F01DD64
:1034C800CCF82430B8F1170F53DD182342B1062188
:1034D800397100217971B971F9717868CCF81000E7
:1034E80000216FF300016FF341016FF382016FF365
:1034F800C501032060F38811C3F30A0363F3532162
:103508006FF31F510023344802F04EF8AD46002CEB
:103518005BD0314B1B6803F00703022B55D96E466D
:1035280000233B7102237B7188B06D4615F11002B0
:1035380022D00E201AB1042801DD294B6B6100232B
:103548003B7002237B70D2B1082801DD254BAB61AB
:1035580005F11C030021012911D801F1080CBC4414
:103568001CF808CC03F801CB0131F4E76FF00048F0
:103578008BE76FF01B03A9E76FF00040DAE70D282F
:1035880027DD0E2342B10321397100217971B97108
:103598000121F9717868286100216FF300016FF348
:1035A80041016FF382016FF3C501032060F38811B5
:1035B800C3F30A0363F3532197F8283063F31F51C9
:1035C8002346054801F0F0FFB5460C37BD46BDE877
:1035D800F0836FF01B03D5E7CC100020203D0208D4
:1035E8000C5F02084C3D020810B582B004460DF18C
:1035F80006010DF1070019F05FFA0E4B1A6802F088
:103608000702022A07D80B4B1B6803F00703022B9B
:1036180008D802B010BD2346074A0321054817F011
:10362800FEFCF0E79DF80630044A0321014817F034
:10363800F6FCEEE7CC100020583D02086C3D02086D
:1036480010B51F481DF0FEFDA0B1052007F064F875
:10365800041E1DDB07F0E8FA044628B3194B1B6863
:1036680013F0070F29D00346174A0121154817F010
:10367800D6FC22E0134B1B6813F0070F02D16FF042
:1036880012041AE0114A01210E4817F0BEFCF6E7B1
:103698000C4B1B6813F0070F0FD023460C4A01216F
:1036A800084817F0BCFC08E00A4807F0A5FA0A48E1
:1036B80007F09CFA094807F0B1FA204610BD00BF90
:1036C800F4270208CC100020B03D0208682F020839
:1036D800883D0208D40D0020779B0108F1350008C9
:1036E80010B5134801230375124B03611A7A597AEE
:1036F80041EA02219C7ADA7A42EA042242EA014249
:10370800026003F10C0282601C33436007F028F862
:10371800044608B9204610BD074B1B6813F0070F75
:10372800F8D00346054A0121034817F078FCF1E771
:103738005C22002020220020CC100020D03D02086E
:1037480010B50023CAB20146012007F031F904463A
:1037580008B9204610BD064B1B6813F0070FF8D0B8
:103768000346044A0121024817F059FCF1E700BF5B
:10377800CC100020F03D020808B5024902481DF0AF
:10378800C6FE08BDE00D0020C812002010B582B0AA
:10379800134C20461DF0C5FE002300930E234FF462
:1037A80080521049204613F013FC0F4B1B6813B9C5
:1037B800002002B010BD4FF47A7202FB03F3990F98
:1037C8009A00D31841F10002D81842EB0201009088
:1037D800019142F210720023044814F02DFBE7E730
:1037E800C81200204042002018220020B8110020F2
:1037F800F0B585B06FF0004303932F4B029301930C
:10380800009302A8FDF7C0FC28B103462B4A1268B2
:1038180012F0070F3DD103AB002211461046FDF709
:10382800EDFE034620B1254A126812F0070F36D183
:10383800694601A8FEF766F9034620B11F4A1268D7
:1038480012F0070F31D11E4F4FF0FF324FF0FF3308
:10385800384613F0A3F91B4C039B2360029B63605B
:10386800194D0199686BFCF775FEA060009BE36039
:10387800114E26613146A86BFCF76CFE606131463B
:10388800E86BFCF767FEA061384613F007FA05B04D
:10389800F0BD0E4A0121094817F0C1FBBBE70C4AED
:1038A8000121064817F0BBFBC2E70A4A0121034879
:1038B80017F0B5FBC7E700BF0000C07FD01000209D
:1038C80004120020F00D002018220020183E0208E3
:1038D800403E0208643E020808B5024902481DF04D
:1038E80016FE08BD0C0E0020B013002030B593B0B2
:1038F8003B4D6C68042103A81BF0C5FC03996B6859
:10390800384A82FB0302DB17C3EBA20391FBF3F2F5
:1039180003FB12110C44344B1B6803F00703022B02
:1039280031D84FF47A7303FB04F18B0F8A005218D5
:1039380043F1000392185B414FF0FF304FF0FF3125
:10394800CDE90001294814F077FA254B1B680BB321
:1039580004AA332105A8FEF7CBFB0346E8B9224B9E
:103968001B6803F00703022B22D8049905A8FFF768
:10397800E7FE034610BB1C4B1B6803F00703022B32
:1039880027D813B030BD2346194A0321164817F02B
:1039980046FBC6E7FFF72CFFDAE7134A126812F076
:1039A800070FEED0134A01210F4817F038FBE8E75C
:1039B800114A03210C4817F028FBD6E70A4A126877
:1039C80012F0070FDDD00D4A0121074817F027FB39
:1039D800D7E70B4A0321044817F017FBD1E700BFCC
:1039E80018220020676666661C11002080110020DE
:1039F800943E0208BC3E0208DC3E0208EC3E020887
:103A08000C3F020838B50446FFF76AFE054698B130
:103A18000C4B1B6813F0070F07D12B460A4A0821E5
:103A2800204618F049F9284638BD0346074A0121BF
:103A3800044817F0F4FAF0E7054A0821204618F080
:103A48003BF9F0E71C110020383F0208183F020834
:103A58004C3F020810B582B004464FF0FF324FF0D9
:103A6800FF33CDE9002300220023054814F0E4F9D0
:103A7800044A0821204618F01FF9002002B010BDA2
:103A8800801100204C3F020810B582B03C4B1B68E7
:103A980003F00703022B0DD816F06FF8FFF720FE8E
:103AA8000446A0B1364B1B6813F0070F08D1204617
:103AB80002B010BD334A0321314817F0A6FAEBE7EC
:103AC8000346314A01212E4817F0A9FAEFE72F4C97
:103AD80020461DF026FD002300930E234FF480524C
:103AE8002B49204613F074FA4FF0FF324FF0FF33A2
:103AF800CDE900234CF250320023264814F09CF9FB
:103B080022E0254A03211E4817F07FFA22E01C4BC9
:103B18001B6813F0070FCAD00346204A0121184832
:103B280017F07DFAC3E701210846FFF763FC32204E
:103B3800002113F091FE00210120FFF75BFC47F202
:103B48003050002113F088FE0D4B1B6803F007036B
:103B5800022BD6D8FEF79AF904460028D7D1FEF7EB
:103B6800C9F90028DFD001210020FFF743FC3220EB
:103B7800002113F071FE00210846FFF73BFCDEE749
:103B88001C110020603F0208183F0208B0130020F3
:103B98008052002080110020843F02088C3F0208D8
:103BA8004FF0000C944515D210B511F80C30584060
:103BB8000309094CE35C83EA00135FFA83FEC3F34D
:103BC8000313E05C80EA0E10C0B20CF1010C9445BE
:103BD800EBD310BD704700BF1840020808B500F0CD
:103BE800D3F801220260426000238360C36003614E
:103BF8000649416106490A6006490A60064A136097
:103C0800064A1360064A136008BD00BF7C460208D6
:103C1800380E0020340E00207C220020782200205C
:103C2800742200202DE9F04106460F46154600F0A3
:103C3800ABF80446C3681BB943691A78002A54D103
:103C48000023E360616857F821306361B14231DADB
:103C58005A1C62611A782D2A2CD19A1C62615A78F2
:103C6800A2602D2A2ED04AB9394B63612D212846EE
:103C78001EF005FA002832D02D23A360D4F808805E
:103C8800414628461EF0FBF9B8F13A0F32D0002819
:103C980030D043783A2B38D00023236163691B78EE
:103CA80013B9636801336360204600F053F8A068D5
:103CB800BDE8F081264B6361204600F04BF84FF0D9
:103CC800FF30F5E79B78002BCDD101316160204BA7
:103CD8006361204600F03EF84FF0FF30E8E72046E9
:103CE80000F038F84FF0FF30E2E75A1C42611B78C9
:103CF8008360C3E763691B7813B963680133636042
:103D0800204600F027F83F20D2E763691A7832B1DD
:103D180023610F4B6361636801336360C4E76368C1
:103D280001336360B34203DA57F823302361F0E7C5
:103D3800074B63612B783A2B04D0204600F00AF831
:103D48003F20B5E7204600F005F83A20B0E700BF6D
:103D58007C4602080268074B1A604268064B1A60E4
:103D68008268064B1A60C268054B1A600269054BE7
:103D78001A607047380E0020340E00207C22002084
:103D88007822002074220020004870471C0E002072
:103D98002DE9F04F91B005920293134602F0040208
:103DA8000092C3F3C20210F00303019340F02D8286
:103DB80080468A460132041D00284FD0B8F1000F12
:103DC80005D0A4EB08030433534500F22182029B7B
:103DD8005D1E019B04930693039300264FF0FF3B5F
:103DE8000427B946B8F1000F01D0029B2360531E87
:103DF8000793002A40F35F81059B13F0020228D045
:103E08000120A4EB08018B081AB1B1F5007F80F0FE
:103E1800058203990F2900F20482B8F1000F00F01F
:103E28006281DBB201F140026A4402F8103C02F8F8
:103E380020BC002800F0538163F07F0301F14002A9
:103E48006A4402F8103C049B01330493039B01333A
:103E5800039304340022CC4640463DE001F0070AB3
:103E68005444CAF1080AA9E7002634E0002632E0E3
:103E7800002630E00827BC462DE025292BD10BF180
:103E8800010B01260427BC4625E04729EED82A293C
:103E980014D32A39C9B24FF0010E0EFA01F14FF6C8
:103EA800DA7E11EA0E0F16D111F0625F40F0C18080
:103EB80011F0010F40F08C8000260CE0252903D179
:103EC8000BF1FF3B002606E001D9002603E020297C
:103ED80001D02329CCD11D466B1C6978002900F03C
:103EE8001B81002EC9D07A29BED84C29CDD34C3994
:103EF8002E2961D80FF2040E5EF821F0DF3E00088B
:103F0800C13F0008C13F0008C13F0008C13F000889
:103F1800C13F0008C13F0008C13F0008C13F000879
:103F2800C13F0008C13F0008C13F0008D13F000859
:103F3800C13F0008C13F0008C13F0008C13F000859
:103F4800C13F0008C13F0008C13F0008C13F000849
:103F58003B400008C13F0008D13F0008D13F00089E
:103F68003B4000083B4000083B400008DF3E00089B
:103F7800D13F00087D3E0008C13F0008DF3E000831
:103F8800C13F000897400008D13F0008974000084B
:103F9800C13F0008C13F00089F400008CB3F000810
:103FA800D13F0008C13F0008C13F0008D13F0008C9
:103FB800C13F0008C53F000800268CE70427BC461F
:103FC80089E70427BC4686E729786C2925D000268E
:103FD8003C44013CB4FBF7F407FB04F4254620B14C
:103FE800211A6144514500F21681002A58D1BCF1CA
:103FF800040F00F08980BCF1080F40F015811A9970
:10400800073121F0070101F108051A95D1E9008966
:1040180008B1C4E9008908345DE713F8021C6C296B
:1040280003D000260427BC46D2E700260827BC4652
:10403800CEE729784C291AD01A99073121F00701BF
:1040480001F108061A96D1E90067073424F007043D
:1040580040B1211A0831514513D829784C2913D079
:10406800C4E90067083400260827BC4633E71A99D4
:10407800073121F0070101F108061A96D1E9006716
:10408800E3E76FF01B00BDE0C4E90067EAE700263C
:104098000427BC469CE7324600260427BC4697E71F
:1040A8002C46E14680461A9A111D1A91126802920E
:1040B800079A1D4696E6624B029A9A4204D3614BD0
:1040C8009A420AD3002300E00023002B7FF494AE29
:1040D800059B03F00202002093E60123F5E7069B07
:1040E80001330693B2E610B10AF1010AAEE6009B6D
:1040F80013B10AF1020AA9E60298FCF734FF00EBB3
:104108000A0303F1020AA1E61A990D1D1A95096816
:1041180000B121600434DEE68046231AB3F5806FCF
:1041280080F0858090B1002202609B080370009B9C
:1041380083B1069BC370049B88F802301BBB019DAA
:10414800DDF80C90DDF810B0029F3DE05344A3F178
:10415800080057E0069B4370EDE701339842EED91B
:1041680003F140026A4412F8101C12F9102C002ABC
:10417800F3DA01F07F01A4EB08020132524559D865
:1041880004F8011BE9E7019B0398E7E7009B43B3A9
:1041980005F140036B4413F8203C04F8013B019EF1
:1041A800A4EB080333440133534546D805F14003D3
:1041B8006B4413F8103C04F8013B3246394620465C
:1041C8001EF0FCF834440135A94519D9BBF1000F9C
:1041D800DCD005F140036B4413F9103C002BD5DA11
:1041E800F1E705F140036B4413F8103C58F82370CD
:1041F800002248F823203846FCF7B5FE461CCFE7D6
:10420800A4EB080011B0BDE8F08F6FF00D00F9E7DE
:104218006FF01B00F6E76FF01B00F3E76FF0150077
:10422800F0E76FF01500EDE76FF01500EAE76FF0C3
:104238001500E7E76FF01B00E4E76FF01B00E1E70C
:10424800C42502086C8602082DE9F04F97B000AF2C
:104258008346BA613B61D7F88030C3F3C0033B6241
:10426800F96011B915F072FDF8609BF80260B1466B
:1042780036B1D7F8803013F0010F0DD1002300E0DC
:1042880000239BF803207A6242B1D7F8802012F00D
:10429800020F22D1002202E00123F2E7002202B934
:1042A800EBB19BF80050AA00BA60DBF804207A61F1
:1042B8000BEB8505BA69F2B1002B40F00581B9F125
:1042C800000F00F01081D7F8803013F0040F40F091
:1042D8000E810020F8610646FAE00122DFE7BB699B
:1042E8001BB13A69F96858469847FC6820465C371C
:1042F800BD46BDE8F08FFC6853BB4D444FF0000845
:10430800D7F8803003F00503FB604FF0000AC7F8C8
:104318001080A046C7F81CB0D7F804B0BEE004442B
:10432800013501364E45EBD22A7800235BF822206E
:104338001946B86915F01FFDBAF1000FEFD0D7F88C
:1043480088309845EBD22AF8180008F10108E6E70A
:104358000026B046D7F884A0E4E700253B6A7BB97D
:10436800002D7DD0D7F8803013F0010F7DD1FB6888
:10437800002B73D10223A8EB03088CE00125EDE79D
:104388004946786915F03DFD0028E9D0BB4B1B680C
:1043980013F0060F40D06C46002387F82C30022318
:1043A80087F82D308AB0694611F1100237D01225EE
:1043B8001AB1042D01DDB24B4B61002387F8283078
:1043C800022387F829306ABB112D44DD122362B11C
:1043D800042087F82C00002087F82D0087F82E008D
:1043E800012087F82F00F86A08616FF3000B6FF35C
:1043F800410B6FF3820B6FF3C50B022161F3881B2E
:10440800C3F30A0363F3532B6FF31F5B002359466F
:104418009A4801F0C9F8A546A8F102083BE06FF0F8
:104428000045C5E72B46082D01DD786988610C2B0E
:1044380001DDC1F81C9001F1200300200128C3D838
:1044480000F1300C07F1280EF4441CF830CC03F8C6
:1044580001CB0130F2E76FF01B03B8E701238AE7CD
:10446800D7F8803013F0020F15D0002322461946E2
:10447800B86915F080FCD7F8843053B13B69D7F898
:104488008820934205D2D7F8842022F813000133FC
:104498003B61013880440AF1010A35467B6A9A4536
:1044A80010D22E4616F8029B6B78FA6952F8234010
:1044B800744B9C42FFF451AF734B9C42FFF45EAFC8
:1044C80000254BE7444611E707F144000023FB6150
:1044D80018B14A4629461DF071FF4D444FF00008B7
:1044E800C7F804901EE00020F8610646F0E7FE6178
:1044F80007F134000026EBE700253B6A33BB002DAB
:104508003BD0D7F8803013F0010F26D0731C06F18A
:10451800300207F12801561806F8149CDEB208F19B
:10452800010825467B6A98454AD22C4614F802AB06
:1045380095F801905BF82930524A9342DCD3524AED
:10454800934201D30025D8E70125D6E7514678697B
:1045580015F057FC0028D2D0E1E7D7F8803013F0E7
:10456800040FDCD0FA69531C303207F128010A44E1
:1045780002F8249CDBB2FB61D1E7D7F8803013F056
:10458800020F09D0731C06F1300207F128015618F2
:1045980006F8149CDEB2C2E7F869431C00F130014A
:1045A80007F128028A1802F824AC02460232D2B275
:1045B800FA6107F1580252FA83F303F8249CAEE734
:1045C800D7F804909BF8003087F854309BF80130F6
:1045D800334487F85530D7F8803013F0020F0ED1E6
:1045E800FB69C3F3470387F85730D7F8803013F0D7
:1045F800010F06D113F0040F48D1002302E0002375
:10460800F1E7002387F85630DBF800003863786D4F
:10461800CBF80000D7F810804246B9685846D7F85A
:1046280018A0D047041EFFF661AE386BCBF8000027
:10463800C7F810804246F96907F13400D0470028CE
:1046480057DB04EB0008B96849447B6A01EB430176
:10465800D7F810904A46FB68591A2846D047041ED6
:10466800FFF644AE08EB04054FF000087E62C7F879
:1046780020B05646D7F884B01FE000BFDC100020F9
:1046880030400208C42502086C860208FB69B9E7B5
:104698004FF0000A4A46012107F12C00B0470028D4
:1046A80029DB0544534622464946304615F063FB4C
:1046B800002822DB054408F101087B6A984511D2DD
:1046C80008F1300307F12802134413F8143C87F863
:1046D8002C303A6A52F82340BBF1000FD8D03BF88F
:1046E80018A0D7E73A6900210846BB6998472C46C5
:1046F800FCE50446FAE50446F8E50446F6E500BF9D
:10470800014B1860704700BF3C0E002080B505467D
:104718000E461746984613F0D7F803461DF044FF97
:104728000446DFF8189049F80030424639463046CA
:10473800A84754F8090004F0B1FF00BF08000000C2
:1047480008B50446EFF31183102383F31288BFF3EF
:104758006F8F1CF0DEFC204618F034F9024815F083
:104768007DFB18F04FF9FCE7E840020882B04FF0F3
:10477800B0439A6C42F001029A649B6C03F0010307
:104788000193019B034A536843F0020353600020DE
:1047980002B07047002004E0064B1A6842F4007229
:1047A8001A601A6842F480621A60034B034A1A605E
:1047B80000207047004000583010002000093D00DC
:1047C8002DE9F04387B0044600230393C36A1F7999
:1047D80000F114094FF0FF324FF0FF33484612F052
:1047E800DDF9E36A1B68DAB2012A08D913460732F1
:1047F8005B4203EA02064FF00008454603E008263C
:10480800F9E70135ADB2E389AB421CD9A189891B0F
:1048180089B201EB0541039108233A46204615F079
:1048280073FF0028EDD008F101081FFA88F803A9E2
:10483800204615F0C3FF08233A460399204615F091
:1048480063FF0028DDD1E389434500F00481AB42D2
:104858000DD003A9204615F0E8FF0546002840F0D2
:10486800DF80039B63601B0C1B04A36010E008231C
:104878003A460399891B204615F046FF0028E8D1DF
:1048880003A9204615F09AFFE3E763689B1B636062
:104898006168A36899422ED304AA204615F02FFF19
:1048A8000546002840F0B580394604A815F07AFF7F
:1048B80008B304A9204615F09CFF0028E5D0BDF8F0
:1048C8000E301904A160BDF81230BDF8140003447D
:1048D800E26A1268D5B2012D03D92B44013B6A4222
:1048E80013400B44A36062689342CED10028CCD019
:1048F8006FF01C0594E0E3881B04039303A920468A
:1049080015F05CFFA3893A460399204615F0FCFE92
:10491800051EC0F28580002D68D063683344039378
:1049280002E0039B3344039303998AB2A3899B1B38
:104938009A4218D201AA204615F0E1FE0546002841
:1049480067D101A9204615F054FF0028E9D0BDF829
:1049580004204FF6FF739A42E3D1BDF80830002BCC
:10496800DFD1012300E00023E3B93C4B1B6803F0CF
:104978000703022B2FD86168204615F0F6FE05467E
:1049880000284DD1E3881B046360A289A2EB46028C
:10499800134463601B0C1B04A360204616F0ADF89B
:1049A800054636E02D4B1B6803F00703022B0CD895
:1049B800E3881B04039303A9204615F0FFFE03991F
:1049C800204615F0D2FE054623E0254A0321234858
:1049D80016F01BFBECE7234A0321204816F015FBD1
:1049E800C9E7A368E26A12681344A3606368A16810
:1049F8008B4208D95B1A3A46204615F085FE051EFB
:104A080007DB002DEDD1616801EB4602A3899A42CC
:104A18000DD02DB9A288A389A3EB46039A4215D0DD
:104A2800484612F03BF9284607B0BDE8F083A26873
:104A38000B0C1B049A42ECD0204615F096FE054656
:104A48000028EDD1E3881B04A360E2E7204616F0B6
:104A58003CF80546E4E76FF02C05E1E7E810002094
:104A6800184102083041020830B587B004461430B6
:104A78001CF04AFCA06A8368DB689847E06200285B
:104A880037D0A06A8368DB6898470368013B1F2B0F
:104A98003DD8A06A216803AA1AF084FF002844D1EF
:104AA800A389002B4FD0049AB3FBF2F102FB113318
:104AB800002B48D1E389012B53D92046FFF780FE0C
:104AC800054698B9012323743B4B1B6803F0070381
:104AD800022B54D8384B1B6803F00703022B57D816
:104AE800354B1B6803F00703022B5BD8284607B039
:104AF80030BD314B1B6813F0070F02D16FF015055D
:104B0800F4E72E4A01212C4816F07FFAF6E72A4BE3
:104B18001B6813F0070F02D16FF01505E6E7284A66
:104B28000121254816F071FAF6E7234B1B6813F0AC
:104B3800070F02D16FF01505D8E7224A01211E4858
:104B480016F063FAF6E71C4B1B6813F0070F02D147
:104B58006FF01505CAE71C4A0121174816F055FAE7
:104B6800F6E7154B1B6813F0070F02D16FF0150518
:104B7800BCE7164A0121104816F047FAF6E7E38920
:104B8800A2890092124A03210B4816F053FAA1E7B2
:104B98006268130C92B200920E4A0321064816F07E
:104BA80049FA9DE7A268130C92B200920A4A0321BF
:104BB800014816F03FFA99E7E81000206C41020816
:104BC80090410208B0410208C8410208DC410208CD
:104BD80000420208184202082C4202082DE9F04F50
:104BE80087B0019290F810B0BBF1000F26D00446B0
:104BF8000E469946C36A1B68D9B201292CD901F11E
:104C0800070A4A420AEA020A012928D9DBB209EB53
:104C1800030808F1FF385B4208EA0308A389A3EBFD
:104C28008A034B45C0F09080B9F1000F03D0019B77
:104C3800002B00F08C806368039316E0454B1B68DB
:104C480013F0070F02D16FF00C0575E0424A0121FD
:104C5800404816F0DAF9F6E74FF0080AD4E7C846F4
:104C6800DCE76268039B9A4213D0039F04AA03A956
:104C7800204615F03AFE054600285DD1BDF81030F3
:104C8800B342EED104A9204615F0B3FD0028E8D0C0
:104C980001E04FF0000BBBF1000F18D03F0C3F04B0
:104CA800BDF812103944B9F1000F03D1BDF8143022
:104CB80083B941E0BDF814304B450BD14B46019AFE
:104CC800204616F00CF8002804DC054634E0B9F15B
:104CD800000F31D0B8F1000F1DD01AFA88F7BFB213
:104CE80004F114084FF0FF324FF0FF33404611F043
:104CF80055FFE3899D421AD06268A3683B449A42F3
:104D08000BD2204615F0B8FFD0B9204615F0F5FEB5
:104D1800C0B90135EDE70027E2E74B46019A314675
:104D2800204615F08AFF054618B94D4601E06FF098
:104D38001B05404611F0B2FF284607B0BDE8F08FCA
:104D48000546F6E70546F4E76FF01505F4E76FF05A
:104D58001505F1E7E8100020584102082DE9F04751
:104D680084B09946BDF83080037CA3B104460F4651
:104D78009246C36A1B68DAB2012A1AD91346073267
:104D88005B421A40A389A3EB42034B4552D36668A2
:104D98000396002513E02C4B1B6813F0070F02D174
:104DA8006FF00C033BE0294A0121274816F02DF942
:104DB800F6E70822E6E76268039B9A4216D0454563
:104DC80014D8039E01AA03A9204615F08EFD0346B8
:104DD80028BBBDF80430BB42EDD101A9204615F02F
:104DE80008FD0028E7D00135ADB2E4E76268039B0F
:104DF8009A4218D0BDF80830FBB1454520D3360C8F
:104E08003604BDF806104B4528BF4B465246314480
:104E1800204615F065FC034608B9BDF80830184669
:104E280004B0BDE8F087BDF80430BB42E2D06FF0B3
:104E38000103F4E76FF01503F1E76FF00103EEE704
:104E48006FF00103EBE700BFE810002058410208AB
:104E580070B506460D46084C04E02A463146204601
:104E680098471034054B9C4204D223689B69002B59
:104E7800F3D1F6E770BD00BF642B0208742B02085B
:104E880008B51CF077FE0022431819D213440D4AC6
:104E9800A2FB03CE2EF0030C0CEB9E0CA3EB0C0331
:104EA800C01A61F100014FF0CC3300FB03F302FBA1
:104EB8000133A0FB02021344400840EAC37008BD56
:104EC8000122E3E7CDCCCCCC2DE9F04107460546DD
:104ED8000AE007EA0807144B03EB06135B68042291
:104EE8001968204600F030FBD5B195FAA5F6B6FA58
:104EF80086F60D4C04EB06140123B3406FEA030851
:104F080025EA0305237B002BEED03301064AD3584C
:104F18001B69002BDDD0204698470028E4D1D8E74C
:104F28003846BDE8F08100BF642B02082DE9F04146
:104F380080460F46204BBFF35B8F53E8005F6A1C27
:104F480043E800210029F8D1BFF35B8F002D2FD152
:104F58001A4C002607E0636804221968204600F00E
:104F6800F3FA01361034164B9C4213D2237B002BE4
:104F7800F7D02368DB680BB12046984723681B6984
:104F8800002BE8D0204698470028E4D00123B340FE
:104F98001D43E6E7B8F1000F0BD055B12846FFF7DF
:104FA80093FF0546002FF8D00A2015F0E4FEF4E739
:104FB80000252846BDE8F08194220020642B0208D1
:104FC800742B020808B5064B186018B1054B1B680E
:104FD800002B00DC08BD044811F09EFEFAE700BF74
:104FE80088220020902200207C12002008B5024868
:104FF80011F092FE08BD00BF7C12002038B50546AE
:105008000B4C00E010340B4B9C420FD263685B7969
:10501800002BF7D02946204615F0BDFE0028F1D018
:1050280023681B68294620469847EBE738BD00BF30
:10503800642B0208742B020830B589B000220F498E
:105048000F481CF0A6FD0F4D00220023CDE90623D2
:10505800002404940E2303930294019400940A4BB1
:105068004FF40062094928461CF0E2FA084928462C
:1050780011F0FAFF204609B030BD00BFF54F000817
:10508800681D002098140020C9530008C062002041
:1050980048420208014B53F8200070476442020856
:1050A80048B108B5054A1060054B1960084600F07C
:1050B80009FD002008BD6FF015007047400E002064
:1050C8008422002008B5054B1B781BB1034B012235
:1050D8001A7008BD024811F01FFEF7E719420020B8
:1050E8007C1200200D4BBFF35B8F53E8001F01318A
:1050F80043E80012002AF8D1BFF35B8F00B970476C
:10510800074BBFF35B8F53E8001F013943E80012D8
:10511800002AF8D1BFF35B8FF1E700BF8C22002093
:1051280090220020064B00200146BFF35B8F53E816
:10513800000F43E80012002AF9D1BFF35B8F7047D4
:105148008C22002038B5FFF7EDFF0546094C00E03A
:105158001034094B9C420BD263685B79002BF7D063
:1051680023685B68002BF3D0294620469847EFE771
:1051780038BD00BF642B0208742B0208034B186863
:105188000028D4BF00200120704700BF8C220020D7
:1051980010B5044C0449204614F0C5FF034B1C60AD
:1051A80010BD00BF68100020504202088022002075
:1051B80008B50023074A1370074A1360074A1360AB
:1051C8004FF47A710648FFF76BFFFFF7E1FF00F035
:1051D80061F908BD1A4200208C220020902200208C
:1051E800894E000808B50146014815F0F6FD08BDCE
:1051F8006810002008B5024815F076F808BD00BF11
:105208006810002008B50146024B186815F0EBFD40
:1052180008BD00BF8022002008B5024815F0E7FD50
:1052280008BD00BF6810002010B582B0002200231E
:10523800CDE900232C4B187808B902B010BD684698
:1052480015F0EDFD044688B1284BBFF35B8F53E89A
:10525800001F013943E80012002AF8D1BFF35B8F21
:105268002046FFF7CBFE2046FFF7CCFFFFF786FF6F
:1052780058B91F4A1368516813F57A7341F1000150
:1052880013605160FFF7C8FFD7E71CF073FC0022DA
:10529800431827D21344174AA2FB034C2CF00304EB
:1052A80004EB9C041B1BC01A61F100014FF0CC33C6
:1052B80000FB03F302FB0133A0FB02021344400886
:1052C80040EAC3705B080A490A684968801A63EBB8
:1052D800010340F2E932904273F10003C9D3FFF7AA
:1052E80031FFC6E70122D5E71942002090220020AD
:1052F800601D0020CDCCCCCC0F4B1B7803B1704780
:1053080010B500210120FFF711FE0C4C00E010340D
:105318000B4B9C4208D263685B79002BF7D023685B
:105328009B6820469847F2E7FFF77EFF0028FBD1ED
:10533800014B01221A7010BD1A420020642B02088A
:10534800742B020810B5124BBFF35B8F53E8002F84
:10535800511C43E800100028F8D1BFF35B8F0D4BB8
:105368001B783BB90C4B1B688BB182B90B4811F009
:10537800D3FC0CE0EFF31184102383F31288BFF3FE
:105388006F8FFFF751FF84F31188BFF36F8F10BD44
:10539800902200201A420020882200207C1200203F
:1053A80010B50446044B1B689847A0602146034883
:1053B80015F039FD10BD00BF400E00206810002018
:1053C8002DE9F04100210846FFF7B0FD804650B1B5
:1053D8004FF4FA7600271DF0E7F8154B1858FFF739
:1053E800F1FD002515E04FF0FF364FF0FF37F2E7EB
:1053F8004046FFF769FD804670B94FF0FF364FF021
:10540800FF3709E02C4632463B460A4811F0ACFC0F
:105418002546B8F1000FEBD1FFF706FF0446002838
:10542800F6D1002DEED000210846FFF711FDEAE77E
:10543800080000007C120020014800EB8100704742
:10544800AC1000200248034BC01AC008704700BFC8
:10545800642B02082C2A020810B50C46FFF7F2FF4D
:10546800A04203D9024B53F8340010BD0020FCE7DA
:105478002C2A020810B50C46FFF7E4FFA04204D915
:10548800034B03EBC403187910BD0020FCE700BFF1
:105498002C2A020810B5002410E021460020FFF74E
:1054A800E9FF0A4A52F8243023F0070342F824306F
:1054B80000F00700034342F824300134044B054A46
:1054C8009B1AB4EBD30FE8D310BD00BFAC1000207B
:1054D800642B02082C2A02082DE9F8430D461646CB
:1054E8009846002812DBC4B20023204615F0D5FCEC
:1054F800074610B1404500D947463B463246E9B217
:10550800204615F0AAFC3846BDE8F8830C4B0D4A36
:10551800A3EB02094FEA1919002427460DE0094BAD
:1055280003EB041358684346324629460079FFF7CF
:10553800D3FF874238BF074601344C45EFD3E2E733
:10554800742B0208642B020838B504460D46114630
:10555800084BC31A1B1101334268137143689971D0
:1055680015F0D7FC63681D60636801225A71FFF764
:10557800A9FD38BD642B020800B589B005920693D1
:105588000023079362B1074A0C9B02930B9B01937C
:105598000A9B009305ABFEF757FE09B05DF804FBC4
:1055A8000022F1E757AF01082DE9F04F8BB004AFA7
:1055B80005461E468846C1F34A24002C00F08F8019
:1055C80091460022FA603A617A6104230293FB183B
:1055D80001930A23009307F10C0321464846FEF77E
:1055E80033FEB0F5006F5ED3464B1B6813F0060F11
:1055F80000F08480D9F804106D4600233B73022321
:105608007B738AB004AC14F1100221D012201AB1B5
:10561800042801DD3C4B636100233B7002237B704F
:10562800CAB10346082800DDA1610C2B02DD40F257
:10563800FF73E36104F12003002101290BD801F174
:1056480018063E4416F8186C03F8016B0131F4E7AC
:105658006FF00040DBE7112822DD122342B104215C
:10566800397300217973B9730121F973F8682061DE
:1056780000216FF300016FF341016FF382016FF3B3
:10568800C501022060F38811C3F30A0363F35321B1
:105698000023C1F313011B4815F0D9FCAD462DE0DA
:1056A8006FF01B03DAE760F35328C0F30A0A0AEB2A
:1056B8001850173020F007008008FFF793FD834645
:1056C800B0B104230293FB1801930A2300935346B5
:1056D80000F1100221464846FFF74EFF08E004EBB0
:1056E8001154173424F00704A008FFF77BFD834604
:1056F800334642462946584615F03FFC1C37BD46FE
:10570800BDE8F08F0811002084420208406820B1EB
:10571800034BC01A40F38F0070474FF0FF307047BB
:10572800AC1000200EB400B582B0014603AB53F8AC
:10573800042B0193034804F033FB02B05DF804EB3B
:1057480003B070477DB1010830B585B011F0440F42
:1057580005D01A4B1C6834B9002005B030BD184973
:10576800FFF7E0FFF9E7174B1968B2FBF1F1B1FB5E
:10577800F4FC154AA2FB0C32D20A4FF4616E0EFB00
:1057880012CE124BA3FB0E535B0904FB1C114FF402
:105798007A7C0CFB01F1B1FBF4F504FB15110CFB51
:1057A80001F1B1FBF4F102910195C3EB0311AEEBEA
:1057B800810100910649FFF7B5FFCEE79C22002042
:1057C800C442020898220020C5B3A291898888881B
:1057D800D042020861B108B52AB1064A52F823201E
:1057E80012B9054A00E0044A0449FFF79BFF08BDC7
:1057F800704700BF6C430208EC4202080C5F0208C5
:105808002DE9F04105461746069EDDF81C8081B952
:1058180000242EB1324611492846FFF783FF04447D
:10582800B8F1000F14D06FB1099B042B13D00C49A9
:1058380009E00C4B099A53F822200B49FFF772FF35
:105848000446E6E7064942462846FFF76BFF04444C
:105858002046BDE8F0810549F5E700BF0843020886
:10586800F84202088043020800430208F442020892
:105878002DE9F04F87B005460C46049205939DF834
:105888004C7001F0020B01F0010AC1F3C00801F4E9
:10589800807915F0CEFA18B3024616492846FFF764
:1058A80041FF0646BBF1000F1CD13A465146284637
:1058B80015F020FCB9F1000F01D0002311930397D4
:1058C800129B0293119B0193109B00930023049A4F
:1058D80041462846FFF794FF304407B0BDE8F08FF3
:1058E8000026DFE7059A21462846FFF72DFF0644E4
:1058F800DBE700BF0C43020811F0100F0BD108B50D
:1059080011F0200F03D00449FFF70CFF08BD03492D
:10591800FFF708FFFAE77047484F020810430208EC
:105928002DE9F04105460F46164698460699FFF7B9
:10593800E3FF0024444505DA24492846FFF7F2FE30
:105948000134F7E7002409E020492846FFF7EAFE7A
:105958000BE01F492846FFF7E5FE01340F2C0CDC4D
:10596800002C02DD14F0070FEED0B442F1D23A5DFC
:1059780018492846FFF7D6FEEFE717492846FFF7EC
:10598800D1FE002409E011492846FFF7CBFE0BE0C1
:1059980012492846FFF7C6FE01340F2C13DC002CF1
:1059A80002DD14F0070FEED0B44207D23A5D0C4B7B
:1059B8009B5C13F0970FEBD12E22E9E703492846A9
:1059C800FFF7B0FEE8E7BDE8F08100BF543D0208EC
:1059D8001C430208144302082043020844510208E9
:1059E800518502082DE9F04184B004469DF82C50F9
:1059F8000C9F0E9E95B9012B1ED019484FF0000838
:105A080027B13B462246174914F0CBF9C6B905BB66
:105A1800204615F0A2FB04B0BDE8F08103950A9872
:105A28000290019300920B4600220F992046FFF73F
:105A38001FFF80460C48E3E70B484FF00008DFE7FC
:105A48000F9B0093434632460D99204615F06AFB9A
:105A5800DDE72A460F99204615F058FBD8E700BF26
:105A6800B5B10108A99D00087DB1010870B582B0E3
:105A78000446056842F20F738B4228BF0B460E4A54
:105A88000521684612F008FB064663685B680B222E
:105A98000A49284615F021FB63685B683246694667
:105AA800284615F01AFB63685B681B2204492846E0
:105AB80015F013FB02B070BDE02F02084043020846
:105AC80024430208074B01221A6004E04008054AF3
