:020000040800F2
:100000000072002071310008B3EC00085D31000877
:100010005D3100085D3100085D310008000000001E
:100020000000000000000000000000008132000815
:100030005D310008000000004D3200085D3100080D
:100040002D3400082D3400082D3400082D3400080C
:100050002D3400082D3400082D3400082D340008FC
:100060002D3400082D3400082D3400082D340008EC
:100070002D3400082D3400082D3400082D340008DC
:100080002D3400082D3400082D3400082D340008CC
:100090002D3400082D3400082D3400082D340008BC
:1000A0002D3400082D3400082D3400082D340008AC
:1000B0002D3400082D3400082D3400082D3400089C
:1000C0002D3400082D3400082D3400082D3400088C
:1000D0002D3400082D3400082D3400082D3400087C
:1000E0002D3400082D3400082D3400082D3400086C
:1000F0002D3400082D3400082D3400082D3400085C
:100100002D3400082D3400082D3400082D3400084B
:100110002D3400082D3400082D3400082D3400083B
:100120002D3400082D3400082D3400082D3400082B
:080130002D3400082D340008F5
:1001380080F0004002E000BF81F0004142001FBF94
:100148005FEA410392EA030F7FEA226C7FEA236C9D
:100158006AD04FEA1262D2EB1363C1BFD218414092
:1001680048404140B8BF5B42192B88BF704710F028
:10017800004F40F4000020F07F4018BF404211F0CB
:10018800004F41F4000121F07F4118BF494292EA33
:10019800030F3FD0A2F1010241FA03FC10EB0C005F
:1001A800C3F1200301FA03F100F0004302D54942EC
:1001B80060EB4000B0F5000F13D3B0F1807F06D399
:1001C80040084FEA310102F10102FE2A51D2B1F191
:1001D800004F40EBC25008BF20F0010040EA030086
:1001E8007047490040EB0000013A28BFB0F5000F06
:1001F800EDD2B0FA80FCACF1080CB2EB0C0200FABC
:100208000CF0AABF00EBC25052421843BCBFD0400A
:100218001843704792F0000F81F4000106BF80F484
:1002280000000132013BB5E74FEA41037FEA226C47
:1002380018BF7FEA236C21D092EA030F04D092F012
:10024800000F08BF0846704790EA010F1CBF002046
:10025800704712F07F4F04D1400028BF40F00040A3
:10026800704712F100723CBF00F50000704700F0C3
:10027800004343F0FE4040F4000070477FEA2262EA
:1002880016BF08467FEA23630146420206BF5FEABB
:10029800412390EA010F40F4800070474FF00003BB
:1002A80004E000BF10F0004348BF40425FEA000C82
:1002B80008BF704743F0964301464FF000001CE02A
:1002C80050EA010208BF70474FF000030AE000BF80
:1002D80050EA010208BF704711F0004302D54042BE
:1002E80061EB41015FEA010C02BF84460146002030
:1002F80043F0B64308BFA3F18053A3F50003BCFA4B
:100308008CF2083AA3EBC25310DB01FA02FC6344F7
:1003180000FA02FCC2F12002BCF1004F20FA02F2FE
:1003280043EB020008BF20F00100704702F12002F1
:1003380001FA02FCC2F1200250EA4C0021FA02F252
:1003480043EB020008BF20EADC7070474FF0FF0C57
:100358001CEAD0521EBF1CEAD15392EA0C0F93EA52
:100368000C0F6FD01A4480EA010C400218BF5FEAF4
:1003780041211ED04FF0006343EA501043EA511167
:10038800A0FB01310CF00040B1F5000F3EBF490061
:1003980041EAD3715B0040EA010062F17F02FD2A65
:1003A8001DD8B3F1004F40EBC25008BF20F0010048
:1003B800704790F0000F0CF0004C08BF49024CEA5F
:1003C800502040EA51207F3AC2BFD2F1FF0340EAF1
:1003D800C250704740F400004FF00003013A5DDC62
:1003E80012F1190FDCBF00F000407047C2F10002A3
:1003F800410021FA02F1C2F1200200FA02FC5FEA90
:10040800310040F1000053EA4C0308BF20EADC70D9
:10041800704792F0000F00F0004C02BF400010F44B
:10042800000F013AF9D040EA0C0093F0000F01F0F8
:10043800004C02BF490011F4000F013BF9D041EA1A
:100448000C018FE70CEAD15392EA0C0F18BF93EA1C
:100458000C0F0AD030F0004C18BF31F0004CD8D146
:1004680080EA010000F00040704790F0000F17BFCD
:1004780090F0004F084691F0000F91F0004F14D013
:1004880092EA0C0F01D142020FD193EA0C0F03D16B
:100498004B0218BF084608D180EA010000F000406E
:1004A80040F0FE4040F40000704740F0FE4040F449
:1004B800400070474FF0FF0C1CEAD0521EBF1CEAE8
:1004C800D15392EA0C0F93EA0C0F69D0A2EB030206
:1004D80080EA010C49024FEA402037D04FF08053A0
:1004E80043EA111143EA10130CF000408B4238BF65
:1004F8005B0042F17D024FF4000C8B4224BF5B1A73
:1005080040EA0C00B3EB510F24BFA3EB510340EAC0
:100518005C00B3EB910F24BFA3EB910340EA9C006E
:10052800B3EBD10F24BFA3EBD10340EADC001B01DE
:1005380018BF5FEA1C1CE0D1FD2A3FF650AF8B4282
:1005480040EBC25008BF20F0010070470CF0004C8F
:100558004CEA50207F32C2BFD2F1FF0340EAC250BA
:10056800704740F400004FF00003013A37E792F07B
:10057800000F00F0004C02BF400010F4000F013AD9
:10058800F9D040EA0C0093F0000F01F0004C02BFD4
:10059800490011F4000F013BF9D041EA0C0195E73D
:1005A8000CEAD15392EA0C0F08D142027FF47DAFD6
:1005B80093EA0C0F7FF470AF084676E793EA0C0FC6
:1005C80004D14B023FF44CAF08466EE730F0004CC4
:1005D80018BF31F0004CCAD130F000427FF45CAF54
:1005E80031F000437FF43CAF5FE700BF4FF0FF3CC2
:1005F80006E000BF4FF0010C02E000BF4FF0010C15
:100608004DF804CD4FEA40024FEA41037FEA226CDD
:1006180018BF7FEA236C11D001B052EA530C18BFFF
:1006280090EA010F58BFB2EB030088BFC81738BF64
:100638006FEAE17018BF40F0010070477FEA226C52
:1006480002D15FEA402C05D17FEA236CE4D15FEA4E
:10065800412CE1D05DF8040B704700BF8446084682
:100668006146FFE70FB5FFF7C9FF002848BF10F143
:10067800000F0FBD4DF808EDFFF7F4FF0CBF012088
:1006880000205DF808FB00BF4DF808EDFFF7EAFF12
:1006980034BF012000205DF808FB00BF4DF808EDCD
:1006A800FFF7E0FF94BF012000205DF808FB00BFC2
:1006B8004DF808EDFFF7D2FF94BF012000205DF848
:1006C80008FB00BF4DF808EDFFF7C8FF34BF012055
:1006D80000205DF808FB00BF4FEA40024FEA4103E3
:1006E8007FEA226C02D15FEA402C08D17FEA236CB2
:1006F80002D15FEA412C02D14FF0000070474FF061
:10070800010070474FEA4002B2F1FE4F0FD34FF09D
:100718009E03B3EB12620DD94FEA002343F0004366
:1007280010F0004F23FA02F018BF404270474FF014
:100738000000704712F1610F01D1420205D110F09B
:10074800004008BF6FF0004070474FF0000070474E
:1007580042000ED2B2F1FE4F0BD34FF09E03B3EB23
:10076800126209D44FEA002343F0004323FA02F04F
:1007780070474FF00000704712F1610F01D142023B
:1007880002D14FF0FF3070474FF00000704700BFB4
:100798007BB972B90029BEBF00204FF0004106E0C6
:1007A80008BF00281CBF6FF000414FF0FF3000F079
:1007B80057B8ADF1080C6DE904CE002909DB002B10
:1007C8001ADB00F062F8DDF804E0DDE9022304B08A
:1007D8007047404261EB4101002B1BDB00F055F8EC
:1007E800DDF804E0DDE9022304B0404261EB410199
:1007F800524263EB43037047524263EB430300F0FA
:1008080044F8DDF804E0DDE9022304B0404261EB7E
:1008180041017047524263EB430300F036F8DDF8BC
:1008280004E0DDE9022304B0524263EB430370475E
:1008380053B94AB9002908BF00281CBF4FF0FF313F
:100848004FF0FF3000F00CB8ADF1080C6DE904CEA4
:1008580000F01BF8DDF804E0DDE9022304B070477E
:10086800704700BF430803F05533C01A00F0333314
:10087800800800F03330184400EB10104FF00133BB
:1008880000F00F305843000E70472DE9F0478646B8
:100898008C460846089E154674461946002B40F0BB
:1008A800C2808542B2FA82F245D94AB1C2F1200328
:1008B80000FA02FC2EFA03F3954043EA0C0C94402C
:1008C8004FEA154EA8B2BCFBFEF8230C0EFB18CC61
:1008D80008FB00F943EA0C43994528D9EB1808F1BD
:1008E800FF3704D2994502D9A8F102072B44A3EB9C
:1008F8000903A4B2B3FBFEFC0EFB1C330CFB00F097
:1009080044EA0344A04214D92C190CF1FF3304D251
:10091800A04202D9ACF102032C44241A43EA07404E
:100928001EB1D440002334607360BDE8F0874746A9
:10093800DDE76346F1E792BB431B01214FEA154E01
:10094800AFB2B3FBFEFC200C0EFB1C330CFB07F80C
:1009580040EA0343984562D9EB180CF1FF3004D202
:10096800984502D9ACF102002B44A3EB0803A4B2CA
:10097800B3FBFEFC0EFB1C330CFB07F744EA0344F5
:10098800A7424ED92C190CF1FF3304D2A74202D941
:10099800ACF102032C44E41B43EA0040C0E7C2F177
:1009A800200320FA03F1954090402EFA03F3034305
:1009B8004FEA154EAFB2B1FBFEFC0EFB1C10190C32
:1009C8000CFB07F841EA0041884504FA02F422D9F1
:1009D80069180CF1FF3004D2884502D9ACF1020045
:1009E8002944A1EB08019BB2B1FBFEFC0EFB1C11D4
:1009F8000CFB07F743EA01439F420ED9EB180CF1B1
:100A0800FF3104D29F4202D9ACF102012B44DB1B17
:100A180041EA004192E76046E3E76146F7E760464E
:100A2800A3E76346B7E7834206D916B9002108460B
:100A38007BE7C6E900E0F9E7B3FA83F78FB98342A9
:100A480001D3724508D8BEEB020460EB0303012012
:100A58009C461EB9002168E73846FAE7C6E9004C0B
:100A6800F8E7C7F1200CBB4022FA0CF41C432EFA1D
:100A78000CF120FA0CF3B84001434FEA14490EFA7E
:100A880007F5B3FBF9F81FFA84FE09FB18300B0CC5
:100A980008FB0EFA43EA00439A4502FA07F240D9E6
:100AA800E31808F1FF3004D29A4502D9A8F10200F0
:100AB8002344A3EB0A0389B2B3FBF9F809FB183303
:100AC80008FB0EFE41EA03418E452CD9611808F156
:100AD800FF3304D28E4502D9A8F10203214443EA28
:100AE8000040A0FB0298A1EB0E014145CE464346CB
:100AF80002D306D14D4504D2B9EB020E68EB0403CC
:100B08000138002EA6D0B5EB0E0261EB030101FA05
:100B18000CFC22FA07F34CEA0303F940C6E900315A
:100B280098E74046C5E74346D9E710F8012B11F886
:100B3800013B012A28BF9A42F7D0D01A70470346D2
:100B480013F8012B002AFBD1181A0138704700004E
:100B580038B50D4D284611F019FC88B1AB680B4922
:100B68001B6828469847044640B90146284601F0C4
:100B78003FFD18B110F1780F18BF0446204638BD64
:100B88006FF01204FAE700BFF4300108F03B0108E7
:100B9800F0B5054689B02948284E11F0F7FB002822
:100BA80046D00121304601F023FD044610B110F172
:100BB800780F3AD11422002103A812F0A9F90423CE
:100BC80004930DF106030593022306930C238DF875
:100BD8001C30B6681948736803A99847044620BBB7
:100BE800BDF9063032899DF81C70534302A90820CC
:100BF800029309F073FB0446B8B9029865B138410D
:100C0800FFF750FB0E49FFF755FC0E49FFF752FC62
:100C18000D49FFF79BFB28600848002101F0E8FC1C
:100C280048B110F1780F18BF0446204609B0F0BD4E
:100C38006FF01204F9E70446F7E700BFF430010843
:100C480000007A440000C8420000254401480BF027
:100C5800A1BD00BFD00900202DE9F04F89B083461F
:100C68008A46914601934FF0FF324FF0FF33874891
:100C78000BF018FD864811F089FB38B9FFF7E6FF3D
:100C88006FF01204204609B0BDE8F08F804B9E68D3
:100C980005257F48F3683B2198473D28044608D13D
:100CA800292000210CF06EFA013DF2D1FFF7CEFFAA
:100CB800E8E70028FAD17648336902AA0321984761
:100CC80004460028F2D10398FFF7ECFA7149FFF7C0
:100CD800F1FB05460298FFF7E5FA01462846FFF7BB
:100CE8002DFA05460598FFF7DDFA6A49FFF7E2FB9A
:100CF80006460498FFF7D6FA01463046FFF71EFA73
:100D080006460798FFF7CEFA6249FFF7D3FB074676
:100D18000698FFF7C7FA01463846FFF70FFA074665
:100D2800BBF1000F01D0CBF80050BAF1000F01D091
:100D3800CAF80060B9F1000F01D0C9F8007056492F
:100D4800DFF858A12846FFF7B5FB5349054630465A
:100D5800FFF7B0FB504906463846FFF7ABFBDAF819
:100D680000304F490C225343CA18CB58D2E901B975
:100D7800074653B94B492846FFF786FC00283FD160
:100D880049492846FFF79EFC05E0012B12D1474947
:100D98002846FFF779FC002832D1BBF1000F0DD1AE
:100DA80040493046FFF770FC50BB3F493046FFF7DB
:100DB80089FC0AE00133F0D13D49E2E7BBF1010FBC
:100DC80011D13A493046FFF75FFCC8B9B9F1000FB5
:100DD8000ED134493846FFF757FC88B932493846AE
:100DE800FFF770FC0BE0BBF1FF3FEFD13049DDE7C7
:100DF800B9F1010F3CD12D493846FFF745FC70B3D6
:100E0800DFF89C80DFF8A4B04FF00109D8F80C0097
:100E1800FFF748FA2946FFF78FF9594620F00040B6
:100E2800FFF732FC48B3D8F81000FFF73BFA314619
:100E3800FFF782F9594620F00040FFF725FCE0B1A2
:100E4800D8F81400FFF72EFA3946FFF775F9594616
:100E580020F00040FFF718FC78B1CAF80090019B19
:100E6800002B3FF423AF019ADAF8003013601DE736
:100E7800B9F1FF3FF3D10E49B1E709F10109B9F121
:100E8800070F08F10C08C1D1E9E700BFD00900201D
:100E9800E4310108002474490AE81C41200E0020AE
:100EA80060340108CDCCCCBECDCCCC3E9A99193F4C
:100EB8009A9919BF2DE9F34107460E46234D284656
:100EC80011F064FA00283DD0D5F808803B21D8F805
:100ED8000C3028469847044600282FD10D21D8F811
:100EE80010306A4628469847044638BB77B10198BF
:100EF800FFF7D8F91649FFF7DDFA04460098FFF71F
:100F0800D1F901462046FFF719F93860AB680F4858
:100F18001B696A4610219847044678B976B101984A
:100F2800FFF7C0F90A49FFF7C5FA05460098FFF729
:100F3800B9F901462846FFF701F93060204602B0AA
:100F4800BDE8F0816FF01204F8E700BFCC3101086A
:100F58000024744901480BF01DBC00BFE4090020BF
:100F68002DE9FF41E84688E803009DF80030282B6A
:100F780003D11D4D2B68012B03D9002004B0BDE817
:100F8800F0811A4CDDF80370BDF8016004EB03131F
:100F9800986811F0FBF900B340460CF02EFF2B685F
:100FA80004EB0313CDE9020198688368D3F8008045
:100FB800B8F1000F14D002AB10223B21C047002823
:100FC800DCD12B685A1C190104EB03132A6046EA8A
:100FD80007463A0C66505A60CFE76FF01200CDE72B
:100FE8006FF05700CAE700BF240E00200000002061
:100FF80038B511F0F2FA88BB4FF0FF324FF0FF33EB
:1010080018480BF04FFB184811F0C0F928B9FFF742
:10101800A1FF6FF01204204638BD134913480CF0A5
:1010280026FF044630B1104910480CF04BFFFFF77B
:1010380091FFF0E70E4B0F4A18600B4903460B4827
:1010480000F0B2F80849054608480CF03BFF044692
:1010580008B1002DEBDA05EAE574E8E76FF00A0459
:10106800D9E700BFE40900206C310108280E0020F0
:10107800240E0020690F000810B511F0AEFA60B90F
:101088004FF0FF3306484FF0FF320BF00BFB054BD8
:101098001C68FFF75FFF204610BD6FF00A04FAE7EF
:1010A800E4090020240E002073B505460C461646B8
:1010B80011F093FA002868D135484FF0FF324FF00D
:1010C800FF330BF0EFFA002D03DB324B1B68AB420A
:1010D80006DCFFF73FFF6FF02104204602B070BD29
:1010E8002D4811F053F920B9FFF734FF6FF01204BF
:1010F800F3E734B1294B03EB0513D3E90023C4E923
:101108000023254926480CF0B2FE044620B12249A6
:1011180023480CF0D7FE0CE0204B03EB0515A8681C
:1011280011F034F940B91C491D480CF0CBFE6FF0A2
:101138001204FFF70FFFD0E7A86883683B21DB683C
:10114800984704460028E2D1A86883686A461B6964
:101158000D219847044676B10198FFF7A3F8114985
:10116800FFF7A8F905460098FFF79CF801462846BE
:10117800FEF7E4FF3060084909480CF0A3FE002898
:10118800D7D0002C08BF0446D3E76FF00A04A4E7C1
:10119800E4090020240E00206C3101080000002022
:1011A800280E0020002474492DE9F341054616460F
:1011B8000022C5E90022084698462A721D4B009570
:1011C800F02110F0C1FF071E14DB296889B151F81E
:1011D800084904B1083C16B103C94246B04744B1B6
:1011E8002146A4681CB1083C002EF5D1F8E7002E72
:1011F800F2D100272868C0B150F8084904B1083C6A
:10120800002601E020461C460346696853F8082F6B
:101218002A60994208BF6A60866011F088FD24B18F
:10122800A368002BEED0083BECE7384602B0BDE8D7
:10123800F08100BF0DDE000870B50B4C204611F0A0
:10124800A5F870B1A5680949AB68204698470028F9
:1012580009DB074B186000212B682046BDE8704069
:1012680018476FF0120070BD543101084005002086
:10127800340E002010B5084C204611F087F838B11C
:10128800064B1968A3682046DB68BDE8104018477C
:101298006FF0120010BD00BF54310108340E002059
:1012A800F8B53C4D3C4FAC6821462046FFF714FA90
:1012B80010B100233B700CE03B78A3B137492046BE
:1012C800FFF700FA28B136492046FFF7DDF9002874
:1012D800EFD16C69334E21462046FFF7FDF978B10E
:1012E8000023337019E030492046FFF7CDF928B9BB
:1012F8002E492046FFF7E6F90028EAD00123D9E76E
:101308003378A3B12A492046FFF7DCF928B12949E7
:101318002046FFF7B9F90028E2D1AC69264D2146ED
:101328002046FFF7D9F980B100232B701AE04FF05F
:101338007F512046FFF7A8F928B920492046FFF732
:10134800C1F90028E9D00123CBE72B7893B11849DC
:101358002046FFF7B7F928B116492046FFF794F958
:101368000028E1D13B789BB933788BB9287800F015
:101378000100F8BD4FF07F512046FFF785F928B9E5
:101388000E492046FFF79EF90028EBD00123CCE751
:101398000120ECE7C8050020C21F002000007841AA
:1013A8000000C441C11F0020000068410000CC417A
:1013B800000020400000F040C01F0020000008414D
:1013C8002DE9F04F8A4B1D781446ED03002285B0B5
:1013D80006460F46ADB21A70DFF8188286484FF0FD
:1013E800FF324FF0FF330BF05DF9D8F80030D8F832
:1013F80004906FF00042934214BF03F00F03FF23E1
:10140800494648461ABF039345F480450393FFF7BE
:1014180063F9002876D179494846FEF797FFFFF728
:1014280097F9C3B2019345F40055D8F80890494696
:101438004846FFF751F9002867D171494846FEF739
:1014480085FFFFF75FF945F480550FFA80FBD8F860
:101458000C9049464846FFF73FF9002858D14946BD
:101468004846FEF76BFEFFF773F9C3B2029345F4E3
:101478000065D8F8109049464846FFF72DF900282E
:1014880049D149464846FEF759FEFFF761F945F448
:1014980080651FFA80FAD8F8149049464846FFF745
:1014A8001BF900283AD156494846FEF74FFFFFF787
:1014B80029F945F400750FFA80F9D8F818804146E3
:1014C8004046FFF709F960BB4D494046FEF73EFF2D
:1014D800FFF718F945F480750FFA80F846480BF0C5
:1014E80059F9039B00212B4321603A4630461D469B
:1014F80011F00EFD2368BB4216D36FF01B0005B038
:10150800BDE8F08FFF2301938FE747F6FF7B9EE747
:10151800FF230293ADE74FF6FF7ABCE747F6FF7962
:10152800CBE747F6FF78D9E75A1C22602A0AF2541B
:101538002368BB42E1D25A1C2260AA04F55406D59E
:101548002368BB42D9D25A1C2260019AF254EB0498
:101558000ED52368BB42D0D25A1C22604FEA2B22F8
:10156800F2542368BB42C8D25A1C226006F803B062
:10157800280506D52368BB42BFD25A1C2260029AAE
:10158800F25469050ED52368BB42B6D25A1C2260B4
:101598004FEA1A22F2542368BB42AED25A1C226088
:1015A80006F803A0AA050ED52368BB42A5D25A1C8B
:1015B80022604FEA2922F2542368BB429DD25A1C6A
:1015C800226006F80390EB0501D4002097E7236812
:1015D800BB4292D25A1C22604FEA2822F254236856
:1015E800BB428AD25A1C226006F80380EDE700BF8E
:1015F80094070020C80500209409002000004842F4
:101608000000C84208B503490348442211F072FC9F
:10161800002008BD68050020380E002038B5194D97
:101628000446294604221848A0470422A918174846
:10163800A0470822A9181648A04705F1100104225E
:101648001448A04705F1140110221348A04705F1DA
:10165800240110221148A04705F134010422104842
:10166800A04705F1380104220E48A04705F13C01C6
:1016780004220D48A047042205F140010B48A04769
:10168800002038BD68050020043C01081B3C010807
:10169800323C0108443C0108573C01086A3C0108F7
:1016A8007D3C0108953C0108B33C0108D13C010888
:1016B800F7B50C461546474901AA07461E460DF0E0
:1016C800D6F970B1019B63B9042C03D06FF01500F3
:1016D80003B0F0BD404922463046A84700EAE07012
:1016E800F6E73E4901AA38460DF0C1F930B1019B31
:1016F80023B9042CEAD13A492246EDE7394901AA2F
:1017080038460DF0B4F930B1019B23B9082CDDD16E
:1017180035492246E0E7354901AA38460DF0A7F9D0
:1017280030B1019B23B9042CD0D131492246D3E7EB
:10173800304901AA38460DF09AF930B1019B23B916
:10174800102CC3D12C492246C6E72C4901AA384699
:101758000DF08DF930B1019B23B9102CB6D1284971
:101768002246B9E7274901AA38460DF080F930B179
:10177800019B23B9042CA9D123492246ACE723496C
:1017880001AA38460DF073F930B1019B23B9042C36
:101798009CD11F4922469FE71E4901AA38460DF0F1
:1017A80066F930B1019B23B9042C8FD11A4922461E
:1017B80092E71A4901AA38460DF059F930B1019B50
:1017C80023B9042C82D11649224685E76FF001001F
:1017D8007EE700BF0B3C010868050020223C010899
:1017E8006C050020393C0108700500204B3C0108BD
:1017F800780500205E3C01087C050020713C01084A
:101808008C050020843C01089C0500209C3C0108B4
:10181800A0050020BA3C0108A4050020D83C010816
:10182800A805002008B501F065FA40B9044801F0A0
:101838009DF920B9BDE80840024801F041B908BD4A
:1018480050050020E63C010808B5104810F09EFD40
:1018580010B96FF0120008BD0C4810F097FD002871
:10186800F7D00A4810F092FD0028F2D008480CF092
:1018780065FB0028EFD107480CF060FB0028EAD18F
:10188800BDE8084004480CF059BB00BFC43001084B
:10189800D0340108C8340108C034010802280A46B7
:1018A80014D80B4B53F8203018681979012303FA20
:1018B80001F103691B68194203D022B183681B69CF
:1018C80003E0002AFAD08368DB681847704700BF36
:1018D800B434010810B50D4810F058FD98B1052032
:1018E80001F0CEFF041E0CDB02F00CF9044640B9EF
:1018F800074802F0F1F8074802F0E8F8064802F055
:10190800FBF8204610BD6FF01204FAE78431010895
:10191800AC0500207BDF00087FDF000807480123B3
:101928000375074B03619A6812BA026003F10C024F
:101938001C338260436001F0B3BF00BF7C0E0020FF
:10194800400E00200149024810F012BEB8050020E0
:10195800400A002073B5FFF74BFB044620BB144830
:1019680010F016FE0E231349114800944FF48052CC
:101978000BF09AF8104B1D68B5B14FF47A735D43BC
:101988004FF48056214640F2E7304FF47A72002334
:10199800E5FB0601FEF74CFF4FF48052CDE900014C
:1019A800002306480BF074FE204602B070BD00BF4D
:1019B800400A002000210020380E0020480900209D
:1019C8002DE9F04188B0284C02946FF0004302A83A
:1019D800019303940494FFF7DBF80022114601AB4E
:1019E8001046FFF739F904A903A8FFF763FAFFF7D0
:1019F80043FB002506462746A046AE4225DC1B4D84
:101A08001B481C4E4FF0FF324FF0FF330AF04AFEDE
:101A1800019B2B60029B03996B60706BFEF78EFB3A
:101A2800049BA860EB603946B06BC5F81080FEF7E0
:101A380085FB21466861F06BFEF780FBA8610C48C6
:101A48000AF0A8FE08B0BDE8F08105AA06A9284654
:101A5800FFF72AFB08B915B9059F0135CDE7012D18
:101A680008BF059CF9E700BF0000C07FC80500203B
:101A780094090020380E00200149024810F078BD72
:101A8800E4050020F00A002070B51D4D90B06E6886
:101A9800042103A808F05CFB039C6B680A2293FBF3
:101AA800F2F394FBF3F203FB124434444FF47A73D9
:101AB8005C434FF4805640F2E73000214FF47A72CD
:101AC8000023E4FB0601FEF7B3FE02460B464FF087
:101AD800FF304FF0FF31CDE900010A480BF0D8FD87
:101AE8002B680BB9FFF76CFF02AA332103A8FFF795
:101AF80067FC18B9029903A80CF047FA10B070BD3A
:101B0800380E00201009002037B501210020FFF70A
:101B1800C5FE4FF4006000210CF03FFA0021084692
:101B2800FFF7BCFE4FF4806000210CF036FA01216B
:101B38000220FFF7B3FE4FF4006000210CF02DFAED
:101B480000210220FFF7AAFE4FF4806000210CF06C
:101B580024FA01210846FFF7A1FE4FF4C0500021E6
:101B68000CF01BFA00210120FFF798FEFFF7D6FEC4
:101B7800044600283AD11F4810F00AFD1E491D48A6
:101B880000940E234FF480520AF08EFF4FF0FF327C
:101B98004FF0FF33CDE9002318484FF4A04200234B
:101BA8000BF076FDFFF766FB0446F8B9FFF778FB04
:101BB8000121054680B12046FFF770FE152000215F
:101BC8000CF0EBF921462046FFF768FE4FF4405031
:101BD80000210CF0E2F9E5E70846FFF75FFE152063
:101BE80000210CF0DAF929460120EDE7204603B080
:101BF80030BD00BFF00A002040310020100900204D
:101C080010B5094C0A44914200D110BD11F8013BAE
:101C1800584003090001E35CC0B2434018091B01A6
:101C2800205CDBB25840EEE7ED3C0108014B1B6835
:101C3800184700BFF405002030B585B004460D46AE
:101C480010220021684611F063F902238DF8023052
:101C58002A46044B0193214668460BF041FE05B025
:101C680030BD00BF351C000880B505460E46174636
:101C780098460BF0A5FA034611F052F9DFF81890D0
:101C8800044649F80030424630463946A84754F8D9
:101C9800090001F07FFA00BF08000000034A5368FA
:101CA80023F0020353600020704700BF002004E0C7
:101CB800064B1A6842F400721A601A6842F480628D
:101CC8001A60034B034A1A6000207047004000580E
:101CD8008007002000093D00022826D14FF0B042BD
:101CE8000229936823F400439360104B4FF00702D6
:101CF8009A610ED0032912D0012916D11A6822F050
:101D080007021A600A4A136943F0040313610CF0CE
:101D1800DEBF1A6822F0070242F00102F1E71A68F2
:101D280022F0070242F00202EBE770470004005875
:101D380000ED00E0022808B50BD1094B1A6922F022
:101D480002021A611A6922F004021A61002008F0DE
:101D5800D1FD002383F31188BFF36F8F08BD00BF47
:101D680000ED00E02DE9F7430F4606460821C06A5A
:101D7800DFF850900CF08BFB3C68241A80463C60DE
:101D880004EA0905AC4203D8002003B0BDE8F0839B
:101D980008236A46214630460CF010FB0028F4D18F
:101DA800694630460CF07DFB40B1BDF80230BDF805
:101DB80004203C6005EA090513441D44A4EB08040B
:101DC800E0E700BF0000FFFF2DE9F047044688B0B8
:101DD80000F11407384610F026FBA06A8368DB6818
:101DE8009847E06228B96FF01505284608B0BDE8A5
:101DF800F087A06A8368DB6898470368013B1F2B5C
:101E0800F1D8A06A216805AA0EF07EFF0028EAD161
:101E1800A589002DE7D0069BB5FBF3F203FB12550D
:101E2800002DE0D1E389012BDDD9E36A009593F811
:101E380004904FF0FF334FF0FF3238460AF032FC7F
:101E4800E06A08210CF023FBA8460646E3891FFA3E
:101E580085FA534508D8E389434523D138460AF023
:101E680099FC6FF02C05C0E7A1892B04891B13FA94
:101E780081F14A460823204600910CF0ADFA78B16A
:101E8800694620460CF0EDFA08F10108009908238C
:101E98004A4620461FFA88F80CF09EFA0028DAD045
:101EA8000135D3E753450BD1009908234A46891BCE
:101EB80020460CF091FA18B9694620460CF0D1FA80
:101EC80069462046FFF74EFF054618B138460AF026
:101ED80061FC8AE7009B63604FEA13484FEA0848B1
:101EE800C4F80880D4E9011399420FD3082301AA42
:101EF80020460CF063FA05460028E7D101AB13F839
:101F0800012B914533D10135082DF8D163681B0C9D
:101F18001B046946204600930CF0A3FAA389009994
:101F28004A4620460CF058FA051ECFDB636876D087
:101F380006EB03084FF6FF79A389CDF800801FFA56
:101F480088F29B1B9A422ED300236168002B43D052
:101F5800090C09040091204669460CF082FA0099A0
:101F680020460CF064FA0546002D74D0AEE701A9AE
:101F780020460CF096FA626810B9921B6260B1E7CD
:101F8800BDF80850BDF80610E06AC4F80880294476
:101F98000CF07DFA40449042A060EED1002DECD0C8
:101FA8006FF01C0568E0082303AA414620460CF0A0
:101FB80005FA0546002889D103A920460CF071FAD4
:101FC80030B1BDF80C304B4502D1BDF810300BB123
:101FD800B044B1E70123B8E720460CF028FA0546DB
:101FE80000287FF473AF6368264AA18913400B4425
:101FF800A3EB460363601340A36020460CF034FB58
:10200800B1E75B1A4A4620460CF0E6F9051EFFF6D2
:102018005DAF08D0E26AA36812681344A360D4E9EC
:1020280001318B42EDD86168A38901EB46029A42DF
:102038009AD1DFF85080A26801EA08039A4293D047
:1020480020460CF0F4F9054600287FF43FAF63689A
:1020580003EA0803A360A389A288A3EB46039A4274
:1020680006D038460AF096FB012323740025BCE607
:1020780020460CF0E2FA054638460AF08BFB002DA4
:10208800F2D0B2E60000FFFF2DE9F04F1D4691B0F7
:10209800037C029104460092002B00F0DF80C26AA4
:1020A800082110460CF0F3F92946019010460CF06F
:1020B800EEF9A389019AA3EB82039D42074600F239
:1020C800D0801DB1009B002B00F0CB806368059386
:1020D80006AA05A92046DDF814A00CF01AFA06464F
:1020E80000283ED1BDF81830029A934206D06268A3
:1020F800059B9A42ECD1002D39D132E006A9204641
:102108000CF0CFF90028F2D0BDF81A80BDF81C30C9
:102118005DB3AB422BD1E36ADDF800B01B684FEA30
:102128001A4A5B424FEA0A4A03F02003D044039359
:10213800AA46DDF80C90D14528BFD1464B4608AADF
:10214800414620460CF03AF9002850D14A4608A9E1
:10215800584610F05CFE50B9BAEB090AC844CB44A3
:10216800E7D1304611B0BDE8F08F002BF9D0002F31
:1021780040D104F114084FF0FF324FF0FF334046CE
:102188000AF090FADFF8E0A0E3899E4263D0D4E930
:102198000123F9188A4231D3029AADF8223008A8EF
:1021A800FF23ADF820208DF82630ADF824500CF030
:1021B80065F92B46A168009A20460CF0F4F92946E7
:1021C8008346E06A0CF063F9A3680344A360BBF19B
:1021D800000F07D108A920460CF01EFA002814BFEA
:1021E8008346AB4640460AF0D5FA5E46B9E7BEDC00
:1021F8000646B6E7019B1F44BFB2BAE7E06A08216A
:102208000CF045F94FF6FF73ADF8203000218DF83A
:102218002630A389ADF82410111802EA0A021A44DC
:10222800101A606008A8ADF822100CF027F908A968
:1022380020460CF0F1F9211D20460CF012F96368D4
:1022480003EA0A03A36020460CF00EFA834600282E
:10225800C8D1013698E76FF01B0BC3E76FF00C0687
:102268007FE76FF015067CE70000FFFF014B036076
:1022780000207047D83401082DE9F8430546EFF3EC
:102288001186102383F31288BFF36F8F0D4B0E4F07
:102298001C68DFF838804FF00C092CB986F31188D8
:1022A800BFF36F8FBDE8F883D4E90123002D18BF71
:1022B80013462BB198F8102009FB02F2B85C984736
:1022C8002468EAE7AC0E0020A00E00207C1F002046
:1022D80070B5144B1C7CBFF35B8F04F01F03012205
:1022E8009A40114B610903EB8103D04353E8001F67
:1022F80001EA000543E80056002EF7D1BFF35B8FD3
:102308000A420ED00C23094E5C433519305D6978BA
:10231800FFF710FD0020FFF7AFFF00233351C5E999
:10232800013370BD7C1F0020B40E0020A00E0020D9
:102338002DE9F041334B07461D7CEFF3118810233C
:1023480083F31288BFF36F8F0C242F4B2F4E6C43EF
:102358001A19195D002948D007CA06EB040C8CE845
:10236800070000221A5588F31188BFF36F8F0C23DA
:102378006B43F218F05CB0B394687CB17B1C0DD051
:102388002348244A4FF4805C00210023E4FB0C011D
:10239800FEF74EFA0121381A09F04EFE0AF034FE13
:1023A8000120FFF769FFBFF35B8F1B4B6A0903EB43
:1023B8008203012405F01F0204FA02F253E8000F19
:1023C800104343E800010029F8D1BFF35B8F0C23C9
:1023D8005D437319705D5978FFF77EFCFFF778FF4E
:1023E8000AF026FE2046BDE8F0810146284600F0A6
:1023F80077F820B107C8344484E80700B3E73055BC
:10240800B1E700BF7C1F0020940E0020A00E002022
:102418003F420F0040420F00B40E002030B50E4B73
:10242800002213F8044C844210D113F8034C8C4258
:1024380001D0FF290AD1BFF35B8F53E8004F013465
:1024480043E80045002DF8D1BFF35B8F0132032A22
:1024580003F10803E5D130BD0006002030B50E4B6E
:10246800002213F8044C844210D113F8034C8C4218
:1024780001D0FF290AD1BFF35B8F53E8004F013C1D
:1024880043E80045002DF8D1BFF35B8F0132032AE2
:1024980003F10803E5D130BD0006002010B50E4A4F
:1024A8000023147884420FD154788C420AD10B4A05
:1024B800BFF35B8F52F83300BFF35B8F003818BF50
:1024C800012010BDFF29F2D00133032B02F10802CD
:1024D800E7D10020F5E700BFFC050020000600203A
:1024E8004B1C2DE9F34718BF364A374E1CBF002551
:1024F80040F6FF730C461FBF2946C4FB02311B0B75
:1025080043EA015401A908BF254600F061F8736841
:10251800002B804612DB09F0FBFDD6E900321E1ABB
:1025280062F1000798424FF00003934102DB013E3D
:1025380047F10007012E77F1000302DA26462F46FD
:1025480009E0B5F1FF3F08BFB4F1FF3F03D0B44243
:1025580075EB0703F2DB08F1FF331BB203EB430310
:10256800DFF868A044469D004FF0300924B9A04622
:10257800404602B0BDE8F087019B03EB0508585DB3
:1025880098F80110FFF78AFFC0B9DAF80010D8F8F8
:102598000430D8F80820002909FB03F309FB02F2EC
:1025A80001DB91420AD9B7F1FF3F08BFB6F1FF3FFF
:1025B800DED013449E4277F10003D9DA013CA4B27D
:1025C8000C3DD3E7006CDC0220000020F805002059
:1025D80001289FBF044B53F820300B60034B94BF76
:1025E800185C0020704700BFD8340108FD3C010882
:1025F80070B544690D46002C3FD0244A2379565CB7
:10260800B3423DD0224A525C9A423CD1A3689847D3
:10261800002814DA022D10D0032D0FD110F1860FE7
:102628000BD0BFF35B8F54E8003F43F0020344E84C
:102638000032002AF7D1BFF35B8F267170BD022DDF
:10264800267101D00020F9E7BFF35B8F54E8003F03
:1026580023F0040344E80032002AF7D1BFF35B8F6C
:10266800BFF35B8F54E8003F23F0020344E80032D5
:10267800002AF7D1BFF35B8FE4E76FF05700DDE77F
:102688006FF07700DAE76FF08500D7E7033D0108C0
:10269800FF3C01082DE9F8438846052105460CF062
:1026A80044F917461E46044638B3DFF87C9099F87B
:1026B800001029B30FF091FF4FF0FF33421E43F192
:1026C800000305F118000CF039F9041E29DB414616
:1026D800EB681BB3013BEB6043B999B102232B7143
:1026E8003A46334605F140000AF046FA99F80030B8
:1026F8001BB105F118000CF023F92046BDE8F8835A
:102708000C46E5E7AB6868699847041EB7BFEB68F5
:1027180001230133EB60A8BF2B71E7E76FF0770463
:10272800E4E76FF00F04E8E7D12000202DE9F34734
:102738004569064625B90024204602B0BDE8F08761
:10274800052128460CF0F1F80028F4D0706908211A
:102758000CF0EBF8074660B3EFF31187102383F30F
:102768001288BFF36F8F7569EA682B68E2B95A0758
:102778000AD4AB68012130469847041E0EDA87F365
:102788001188BFF36F8FD7E7286943691B681B0758
:102798000CD5FFF7CBFF041EEBDAF0E700232B7113
:1027A800EB680133EB60EAE70024F9E76FF00A040D
:1027B800E5E73F4E347854B10FF00FFF421E67F142
:1027C800000305F118000CF0B9F8041E6DDB0FF0DA
:1027D80004FF10B12B79022B0ED02F6917B338469E
:1027E800FFF7A4FF044648B9012128460CF09DF8DC
:1027F80060B138460CF0A6F86FF00A043378002B65
:102808009AD005F118000CF09BF895E7BFF35B8FA1
:1028180055E8003F43F0040345E80032002AF7D1A9
:10282800BFF35B8FEB680133EB602B79022B08D188
:1028380005F140000FF0BEFE10F0010001D1287133
:10284800DCE7337843B105F130074FF0FF384FF03C
:10285800FF392B79022B10D0EB68012BCED8AB684F
:10286800686901219847041EB7BFEB68002303F18C
:10287800FF33EB60A8BF2B71C0E70321384605F191
:10288800180A10F03AFA50460CF05AF80022CDE92E
:1028980000890321384610F034FA4FF0FF324FF028
:1028A800FF3350460CF04AF8D3E76FF00A0443E7C9
:1028B800D1200020F8B545690646002D61D00521D4
:1028C80028460CF032F800285ED130460CF004F8A7
:1028D800044600285AD1706908210CF026F8E0B1A6
:1028E8007569EFF31187102383F31288BFF36F8F95
:1028F800297931B9AB6830469847041E07DB0123B4
:102908002B712B6843F020032B600023EB6087F3C7
:102918001188BFF36F8F2046F8BD1E4F3B783BB13F
:102928004FF0FF324FF0FF3305F118000CF006F8B6
:102938006B692BB918496E6105F140000FF02EFE46
:102948002979E1B9AB6868699847041E0FDB012350
:102958002B710023EB60BFF35B8F55E8003F43F01A
:10296800200345E80032002AF7D1BFF35B8F3B789C
:10297800002BD0D005F118000BF0E2FFCBE70024C4
:10298800E7E76FF08504C6E70024C4E76FF00F049B
:10299800C1E700BFD1200020A7E9000870B5114B9E
:1029A8001C680D46DCB1104B196800238B4202DB12
:1029B8006FF0010070BD224612F8106B864202D0FB
:1029C80001331446F2E7E06810B96FF01200F1E73E
:1029D8000FF0DCFC0028F8D02C600020EAE76FF04C
:1029E8000C00E7E7140600200435010870B588B02C
:1029F80005460C46C0B269461646FFF7CFFF0028C9
:102A08001BDB0098C8B1436802938368226801956C
:102A1800CDE903360023CDE906230593C5680CF0FC
:102A280003F86DB12846084901AA0EF071F9079814
:102A380008B9059B236008B070BD6FF01500FAE770
:102A48006FF01200F7E700BF33EA00082DE9F04104
:102A58000F4B1C6805460E461746ACB14FF0FF32C7
:102A68004FF0FF330B4809F01DFE63683246D3F878
:102A7800088029463B462046C0470446054809F0D9
:102A880089FE2046BDE8F0816FF00104F9E700BF38
:102A9800B80E0020F809002000230360044B5A6890
:102AA80012B9C3E90000704710605860704700BF52
:102AB800BC0E0020014B1860704700BFB80E002004
:102AC80030B585B000230546CDE9023301904FF0BB
:102AD800FF330C484FF0FF3209F0E4FD0A4B1C6845
:102AE8004CB9284600F0CEF80446064809F052FED4
:102AF800204605B030BD636820461B6801A9984789
:102B08002468EDE7F8090020BC0E00201FB5CDE9C8
:102B1800010103924FF0FF330A484FF0FF3209F0EA
:102B2800C1FD094B1C682CB9064809F033FE204644
:102B380004B010BD636820461B6801A99847246843
:102B4800F1E700BFF8090020BC0E0020024B00226C
:102B5800C3E90022704700BFBC0E0020024B0022D0
:102B6800C3E90022FFF7F2BFC40E002070B51B4C6A
:102B78001B4E0546B44212D31A4E1B484FF0FF3283
:102B88004FF0FF3309F08EFD34687CB1286854F8A3
:102B9800141C143CFDF7C9FFC8B16469F5E7216846
:102BA8002868FDF7C2FFA8B11434E3E700226A6180
:102BB800726805F114033AB9C6E9003300240A48DB
:102BC80009F0E8FD204670BD13607360F6E76FF00A
:102BD8001004F4E76FF01004F4E700BFEC330108C9
:102BE800EC330108C40E0020F80900202DE9F74352
:102BF80007460C4609B100230B601F4DDFF87C9097
:102C080000264D450FD31E4B1D6885B355F8148C0F
:102C180001AA41463846143D0BF029FF10B3D6B936
:102C280014BB2E461EE0D5F8008001AA414638465E
:102C38000BF01DFF50B116B954B92E4606E03168A5
:102C4800002240460BF013FF0028F5D11435D8E7D1
:102C5800019B2360F1E73168002240460BF007FF33
:102C68000028DDD16D69D0E7019B2360D9E73046A4
:102C780003B0BDE8F08300BFEC330108EC33010872
:102C8800C40E0020F8B5184C184F06460025BC4263
:102C980008D3174B1C682CB3143CB6B9E368E3B9E6
:102CA8006469F8E72EB9E3685BB928461434054629
:102CB800EDE72068002231460BF0D9FE0028F2D15A
:102CC800F3E79847002DF0D1F0E72068002231465D
:102CD8000BF0CDFE0028E1D1E2E79847002D08BFB0
:102CE8000546DDE72846F8BDEC330108EC3301085A
:102CF800C40E002038B50C4D0C484FF0FF334FF090
:102D0800FF3209F0CFFC2B783BB9FFF727FF00F023
:102D18006DF8044610B901232B700024034809F00C
:102D280039FD204638BD00BFC31F0020F809002028
:102D38002DE9F047048FDFF8B0A0013498B00646BB
:102D48008946A4B200F10807651EADB2B5F5004F7B
:102D580047D04A2305AA294638460BF0B6FD04F5A4
:102D68007F543F34A4B28046214601230DF10B0263
:102D780038460BF0AAFDB8F1000F014610DC002818
:102D880010DC338FAB4209D132466B1E22F8383F34
:102D98004FF4004102233846FFF776F92C46D3E773
:102DA800002808DC294638460BF02BFD214638461A
:102DB8000BF027FDE5E708F160030DEB030800239E
:102DC80008F84C3C5246CDF8009003AB05A8039791
:102DD800ADF810400BF06FFE0028DFD018B0BDE84A
:102DE800F0870020FAE700BF2DEB00087FB501232C
:102DF800694603200193FFF7D1FD044660BB02AA90
:102E080001A90320FFF7F2FD044610B110F10C0FE1
:102E180022D10399B1F5803F23D2009A0023946808
:102E28001846084484421AD30133082BF9D10E4DB1
:102E3800A982EB825368AB602846D368EB630BF03A
:102E480009FF044640B9094E6E602846FFF724FE84
:102E580028466E60FFF72EFE204604B070BD9BB278
:102E6800E5E76FF02004F7E7CC0E002018060020F5
:102E780030BFFFF7FDBF00BF2DE9F0410B4EDFF873
:102E8800308006EB0807CC1B054632460949204628
:102E980010F030F8A01942460021083C10F038F82C
:102EA800C5F8844007F10800BDE8F0810000000083
:102EB80004000000EC330108074A936893F90E10E8
:102EC800002907DB926993421FBF044A536843F005
:102ED80080535360704700BF7C1F002000ED00E066
:102EE80070B5204B15469A6A12F0100F9A6A14BFF3
:102EF8001124102412F0080F9A6A18BF122492079E
:102F080006460AD5586B9A6A140628D519B19A6AE2
:102F180022F080029A62132401E06FF01500114B31
:102F28009A6A12F0010F9A6A18BF1424D10602D4C3
:102F38009B6A9A070AD50B4B5B681B0506D5314679
:102F480000F024FA10B180F309880224054A936A34
:102F580043F0FF03936200232B70204670BD6FF08F
:102F68001500D8E700ED00E0134B9A6A12F0007FD5
:102F78009A6A14BF1E201D2012F0807F9A6A18BF1B
:102F88001F2012F4002F9A6A18BF212012F4802FF4
:102F98009A6A18BF222012F4003F9A6A18BF2320A9
:102FA80012F4803F9A6A6FEA02426FEA12429A620A
:102FB80018BF2420704700BF00ED00E010B5164B85
:102FC8009A6A9C6A12F4805F14BF1722162214F4BE
:102FD800006F9C6A18BF1822A40509D59A6B9A6AD3
:102FE800120404D518B19A6A22F400429A6219228E
:102FF800094B986A10F4806F986A18BF1A2210F467
:10300800807F986A40F47F4098624FF000030B700D
:103018000CBF10461B2010BD00ED00E0F0B5484B7A
:103028005B688BB00446C3F30803002585F3118859
:10303800BFF36F8F02F07F40B0F17F4F11D102F0E4
:103048000C0008280DD010074CBF0C4601250022A3
:10305800033B8DF80720032B05D8DFE803F0246332
:1030680067602C46F3E700239DF80720CAB902AE33
:1030780004F1200720686168324603C20834BC4264
:103088001646F7D1099A002D54D0C2F3080121B988
:103098006FEA52226FEA4222099202A918460BF0FF
:1030A800FAFD0BB0F0BD264BDA6A9107DBD4DA6A79
:1030B800002AD8DBDA6A5200D5D55A69A16942F4E8
:1030C80080725A61BFF34F8FBFF36F8F5A6931F81F
:1030D800021C22F480725A61BFF34F8FBFF36F8FC7
:1030E8004DF6027291420AD09A6AD2B24AB10DF1F3
:1030F800070201212046FFF7F3FE0346B4E72368E1
:10310800B2E79A6A12F47F4F05D00DF1070101204A
:10311800FFF754FFF1E79B6AB3F5803FA3D3FFF7AE
:1031280023FFEAE70DF107020021E3E70DF10701AC
:103138000020EDE722F4FF7222F00102ACE700BFA5
:1031480000ED00E0024A536943F0100353617047F1
:1031580000ED00E0EFF30880EFF3098101B5724656
:10316800FFF75CFF01BD00BF102080F311880848FD
:103178004FF48251401880F30988EFF3148002213C
:10318800084380F31488BFF36F8F00F0CDF8000078
:1031980080410020084B9B6883420BD1EFF30583E5
:1031A80043B1064B5A6842F080525A605A6A22F478
:1031B80000425A620FF01BBB7C1F002000ED00E0AC
:1031C8000A4A93686FF00A01C3F88C100849C3F8DB
:1031D80088004B6843F080534B60002383F31188C9
:1031E800BFF36F8F9368D3F88C0070477C1F002063
:1031F80000ED00E010B50446EFF31183102383F3CC
:103208001288BFF36F8F0C4B986998600B4B4FF087
:1032180000625A600A4BD0F884201A600022D0F865
:103228008830C0F8882083F31188BFF36F8F00F0CF
:1032380021F9204610BD00BF7C1F002000ED00E0F2
:103248000C0F00200B498A684FF030001044EFF350
:10325800098C80E8F01F74467046FFF7CBFFA6463E
:1032680004498A6802F1300090E8F01F8CF309885D
:10327800704700007C1F00201EF0040F0CBFEFF306
:103288000880EFF30980816911F8021C0229FFD038
:1032980001B50BF006FD01BD40B2002807DB044A6A
:1032A8004109012300F01F00834042F82130704794
:1032B80000E100E040B200280CDB4309064900F0B9
:1032C8001F0020330122824041F82320BFF34F8F93
:1032D800BFF36F8F704700BF00E100E0054B420964
:1032E80000F01F0053F82220012303FA00F01040D9
:1032F800704700BF00E100E040B20028A8BF00F11D
:10330800604001F10101B8BF064B4FEA0111ACBFA3
:1033180000F5614000F00F00C9B2B4BF195480F83D
:103328000013704714ED00E008B5084B084A23F075
:103338007F039360BFF34F8FBFF36F8F09F0D8F807
:1033480009F0DCFF00F062F809F020F9000000083D
:1033580000ED00E042F8203C009B42F81C3C0A4982
:10336800019B42F8183C029B42F8143C21F00101F1
:103378004FF0807342F8043C42F8081C0023203ABE
:103388000265C0F888307047711C0008094A034676
:10339800906870B113F1160F406F05D0A0F140028C
:1033A8009A4205D8834203D2814228BF0020704741
:1033B800002070477C1F002008B515460C4A0D4BAD
:1033C8009060D0F884201A600E4600F053F82C461E
:1033D80086F309884FF00000074B984720464FF0C6
:1033E80000014FF000024FF00003044C204700BFDB
:1033F8007C1F00200C0F0020C9EC0008711C00087D
:10340800014B10221A61704700ED00E004480023C8
:103418001021C21801333E2B82F80013F9D17047EE
:1034280000E100E008B572B60A4B5A691AB10022E9
:103438005A610EF0E9FF62B6EFF30583064A103BC6
:1034480002EBC30152F8330049688847BDE80840D9
:10345800FFF732BD7C1F0020FC310108024B034AF4
:103468000348012100F076B8000001200000002088
:1034780048350108426F054B403A1A60044A40211A
:10348800C3E901121846012100F06EB8100F0020A0
:1034980000000B15084AC2F898000B6823F01F03B8
:1034A800034343F01003C2F89C308B6843F00103D8
:1034B800C2F8A030704700BF00ED00E02DE9F043EE
:1034C800DFF8608085B00E461F4604464FF00009BD
:1034D800B14523DA6068D8B13FB1411E08421BD11B
:1034E8001F2819D92368194216D1236801930BF0B4
:1034F800FBFBA36803430393D8F89050C5F3072553
:10350800D0B2013DA84207D801A9FFF7C3FF421C6A
:1035180009F101090C34DBE76FF01502104605B01C
:10352800BDE8F08300ED00E0044B0522C3F89420C9
:10353800BFF34F8FBFF36F8F704700BF00ED00E000
:10354800BFF35F8F024B0022C3F89420704700BF7F
:1035580000ED00E010B5034C01232278FFF7AEFF21
:10356800207010BDC41F002008B50B4A0023127834
:10357800FFF7A4FF10F1160F07D0084A0021D2F870
:103588009030C3F30723984200DB08BDC2F89800C7
:10359800C2F8A0100130F2E7C41F002000ED00E0DF
:1035A8002DE9FF41524B534CD3F890302568C3F3B3
:1035B80007239D4200F29980FFF7C2FF00200C26E6
:1035C800854218D14C4C4D4F25706846FEF74EFE8B
:1035D800DFF81C8106460025AE4213D12378444902
:1035E8000020D1F89020C2F30722934277DBFFF73F
:1035F8009BFF00201CE0616806FB0011FFF74AFFF3
:103608000130DDE7009800EB05114FEA051CCB6897
:103618003B40B3F5000F50D00DD8B3F5001F36D09E
:10362800B3F5800F3ED0B3F5801F13D06FF01500AF
:1036380004B0BDE8F081B3F1807F47D0B3F1007FDB
:10364800F4D150F80C3088684A680BF04DFB40F410
:10365800802009E050F80C3088684A680BF044FB79
:1036680040F0885040F43020CDE901230390D8F889
:1036780090302078C3F30723013B9842D6D801A99C
:10368800FFF708FF2378013323700135A4E750F8CA
:103698000C3088684A680BF027FB40F0885040F4EB
:1036A8000020E1E750F80C3088684A680BF01CFBF2
:1036B80040F0007040F40030D6E750F80C308868CD
:1036C8004A680BF011FB40F08270CDE750F80C30DF
:1036D80088684A680BF008FB40F08870C4E7C1F8B6
:1036E8009830C1F8A00001337BE74FF0FF309FE727
:1036F80000ED00E054350108C41F00200000F0FF71
:1037080008B50649064821F00701C1F1005202F543
:1037180080320AF004FE002008BD00BF8792002016
:103728001C0F0020024B1B6803B11847FF2070478D
:103738002C0F00200A4B0B4A0020C3E900000A4B5B
:103748001A600A4A5A600A4A9A600A4ADA600A4BB8
:103758000A4AC3E900200A4A9A600A4ADA607047AE
:10376800500F00205D380008400F0020FD3700088A
:10377800C937000811ED0008300F00202D37000868
:10378800213C000813ED000810B58AB02D2304462B
:1037980068468DF8003003F08DFD074A9DF9043026
:1037A80011788B4200D12CB1D8B2044B10701B6831
:1037B80003B198470AB010BDC81F0020280F002089
:1037C80010B543788AB0044643B90378012B05D174
:1037D800072368468DF8003003F06CFD034B6278D0
:1037E8001A70034809F012F80AB010BDC51F00206E
:1037F800240A0020F7B50546407828BB134B1B78F0
:103808000BB1FFF7C1FF124B1C68ECB1083C4FF637
:10381800FF772388E878BB4201D0834210D16979C9
:10382800AB6801932B7B009301F1FF3CDCF10001B5
:10383800666895F91030B5F90E2041EB0C01B047D8
:10384800A4680CB1083CE4E703B0F0BDC71F002032
:10385800500F002010B5074B1B78044613B1002009
:10386800FFF792FF044B62781A700448BDE81040D5
:1038780008F0CCBFC71F0020C61F00200C0A00207C
:10388800052801BF044B1870044B012206BF002015
:103898001A706FF085007047960700209507002082
:1038A80070B504469AB04FF0FF324FF0FF335548D9
:1038B80008F0F8FE00261D2306A88DF818308DF8AC
:1038C8001C6003F00FFE257D002D45D101238DF8E6
:1038D80004304D4B1B788DF8093002238DF80830E1
:1038E8008DF8403010A82369119303F0FBFD0323E2
:1038F8008DF8403010A82368119303F0F3FD0923D5
:103908008DF8403010A86368119303F0EBFD08238D
:103918008DF8403010A8A368119303F0E3FD01A8C7
:1039280004F004F950B100F023F90446002853D0FC
:10393800344808F02FFF20461AB070BD4FF0FF330F
:1039480032484FF0FF3208F087FF314B18780028D3
:1039580042D000F01FF9E8E7012D4FD135238DF84B
:10396800403010A82B4B119303F0BCFD062310A880
:103978008DF84030119603F0B5FD07238DF84030DF
:1039880010A82368119303F0ADFD0C238DF8403087
:1039980010A8A368119303F0A5FD0D238DF84030FE
:1039A80010A8A368119303F09DFD0E238DF84030F5
:1039B80010A8A368119303F095FD0F238DF84030EC
:1039C80010A86368119303F08DFD10A88DF840507E
:1039D8008DF8445003F086FD0F4B1B784BB92D230F
:1039E8008DF84030084B10A81B788DF8443003F050
:1039F80079FD0120FFF7C8FE002499E76FF0150450
:103A080096E700BFA8090020C91F0020240A00204B
:103A1800C51F002000030001C71F0020F0B507469E
:103A280087B015461C460E4609B9002A43D12348DB
:103A38004FF0FF324FF0FF3308F034FE6946284656
:103A480003F0D6FBA8B100238DF804300393ADF83A
:103A58001030012501A88DF8123004F049FFC0B1DB
:103A680000F086F80446154808F094FE204607B092
:103A7800F0BD5CB1012C09D0114BADF8105093F991
:103A880000308DF8087003960025E3E78DF80440B0
:103A9800F2E74FF0FF330B484FF0FF3208F0DCFE3F
:103AA800094B187808B100F075F8002D044618BFC6
:103AB8006FF00A04D7E76FF01504D7E7BC090020B8
:103AC800C81F00200C0A0020C61F0020014B1860E8
:103AD800704700BF2C0F002000238360054B5968F6
:103AE80000F1080211B9C3E9002270470A605A6060
:103AF800704700BF500F0020014B1860704700BF8F
:103B0800280F002030B5154D15492A7815488FB073
:103B180003F0A4F918B16FF015000FB030BD0BF029
:103B280006F900F099F803F059FB04460028F2D191
:103B3800062302A928788DF808300CF038FC0A4BC7
:103B4800C0B21870094B187030238DF8103004A8D3
:103B58001423059303F0C6FC2046DEE796070020F1
:103B6800300F0020400F0020C91F0020C81F002070
:103B78001628034608D8064A52F8200030B9002B08
:103B880018BF6FF0150070476FF01500704700BF41
:103B9800B43501080F28034608D8064A52F8200011
:103BA80030B9002B18BF6FF0150070476FF0150083
:103BB800704700BF743501082DE9F84FDFF85490BD
:103BC80006460C461746984600254FF0140B0BFB8B
:103BD80005F3314659F8030003EB090AFCF7A5FF82
:103BE800A0B9DAF80C300A991944DAF80830A34277
:103BF80003D06FF01500BDE8F88F0029F9D02246F0
:103C08004046B8478442F4D10020F4E70135072D37
:103C1800DDD1F9E710360108F0B506468BB0B8B12A
:103C2800342368468DF8003003F044FB044678B925
:103C3800019F084D2B8AB34305D1D5E90221686855
:103C48003944FEF703FF0134072C05F11405F1D1BF
:103C58000BB0F0BD1036010830B58BB0342568467E
:103C68008DF8005003F026FB20B16FF015042046B4
:103C78000BB030BD019A07490748FEF747FF0446D5
:103C88000028F4D168468DF8005003F02BFC00287A
:103C9800EDD0EAE7C13B0008163D0108014808F0ED
:103CA800FDBE00BF2C060020014B1860596070470C
:103CB800580F0020024B1A685B6802600B6070475F
:103CC800580F002008B50BF036F8024B1B68C01AD5
:103CD80008BD00BF600F002001480EF05EBE00BFA7
:103CE800D808002007B5014640F2E7304FF47A7251
:103CF800002300EB0130090DFCF79AFD02460B4644
:103D080000210020CDE90001024809F0C1FC03B000
:103D18005DF804FBD808002008B50BF00CF8014B3F
:103D2800186008BD600F0020014B1868704700BF7D
:103D3800600F00202DE9F347274C9A46D4E90193F8
:103D480007460D4616467BB1244B00205B6B98470F
:103D5800CDF800A0D4F80880206833462A463946B2
:103D6800C04702B0BDE8F08704F140020223BFF368
:103D78005B8F52E8001F012903D142E80030002878
:103D8800F7D1BFF35B8F9046EBD1A36C1A78AA42A8
:103D980088BF1D70A36C606C1A7839460FF0AAF8BA
:103DA800E36C03B11E80236D0BB183F800A00B4BAD
:103DB800DB6A984700216160BFF35B8F58E8003FDA
:103DC80048E80012002AF9D1BFF35B8F484602B0D9
:103DD800BDE8F04709F0EEBC640F0020B8370108D1
:103DE80010B5124CBFF35B8F022354E8002F012A51
:103DF80003D144E800310029F7D1BFF35B8F0CBF32
:103E08000120002010D10A4BDB6A9847002344F8B0
:103E18003C3CBFF35B8F54E8002F44E80031002995
:103E2800F9D1BFF35B8F012010BD00BFA40F0020A4
:103E3800B837010810B5064B5C68FFF7D1FF30B101
:103E48002CB100212046BDE8104009F0B3BC10BDDC
:103E5800640F002070B50D460F49BFF35B8F01203A
:103E680051E8004F002C03D141E80006002EF7D19D
:103E7800BFF35B8F0CD1094E41F83C3CD4B2736D53
:103E8800214698472846B36A21469847002070BDC6
:103E98006FF00F00FBE700BFA40F0020B837010840
:103EA8002DE9F0474FF000088EB005AC284F814649
:103EB8008A4615464146102209A80126CDE905443F
:103EC800CDE907880FF024F88DF831603B6B0D942D
:103ED800002B3AD023462A4651464846FFF7BAFFF8
:103EE800041E2EDBEDB2CDE9018503963B8F194CFC
:103EF800009397F8363097F8352097F83410646AAD
:103F08003046A047014640F2E7304FF47A7200236A
:103F180000EB4130C1F3CB41FCF78AFC02460B466B
:103F2800314609A809F0EEFB041E0ADAFFF758FF2C
:103F380038B94FF0FF324FF0FF33314609A809F086
:103F4800E1FB20460EB0BDE8F0876FF01504F8E7F6
:103F5800640F0020B8370108F0B58DB000248DF843
:103F6800072003AE0F461022214607A8CDE90366B5
:103F7800CDE9054401250EF0CBFF1F4B8DF82950E4
:103F88000B96BFF35B8F53E8002FA24203D143E89F
:103F980000510029F7D1BFF35B8F29D10DF107023A
:103FA80043E90F649A60154E149ADA60159A1A61FB
:103FB8005F60FF21736D28469847736B20469847CA
:103FC800DDE91223294607A809F09CFB041E0ADA3A
:103FD800FFF706FF48B94FF0FF324FF0FF3329468D
:103FE80007A809F08FFB9DF8074020460DB0F0BDEB
:103FF8006FF00F04F9E700BFA40F0020B8370108DD
:1040080010B529B9FFF7ECFED0B96FF0150010BD57
:104018000E4BBFF35B8F012053E8002F002A03D11A
:1040280043E80004002CF7D1BFF35B8F0AD1084C9A
:1040380043F8381C636DFF219847636B002098474D
:104048000020E4E76FF00F00E1E700BFA40F0020B5
:10405800B8370108F0B52C4DBFF35B8F8BB00C4619
:10406800012755E8003F002B03D145E80072002ADC
:10407800F7D1BFF35B8F43D1244E2068F36898478C
:10408800E37A4BB32346103D04F1100718685968CA
:104098002A4603C20833BB421546F7D14FF47A6368
:1040A800089300220120237B0793CDE90522CDE95F
:1040B800032023890293A379019363790093F56917
:1040C800237994F90A10A847B36D607B9847FFF7E6
:1040D80087FE00200BB0F0BD0997227BB569CDE9BA
:1040E8000732CDE90533CDE903330A22029222894A
:1040F800CDE900323846A37962792179A847E3E708
:104108006FF00F00E6E700BFA40F0020B8370108E2
:1041180038B5084611461A460B4BBFF35B8F01248E
:1041280053E8005F002D04D143E8004CBCF1000FB8
:10413800F6D1BFF35B8F04D1044BDB6B98470020AB
:1041480038BD6FF00F00FBE7A40F0020B837010857
:1041580038B5104BBFF35B8F002453E8002F43E8BA
:1041680000410029F9D1BFF35B8F0B490B4D43F890
:10417800341C0B4943F82C1C0A4943F8301C2A68A4
:1041880043F8400CA3F134009047EB6A9847204667
:1041980038BD00BFA40F00203D3E0008B837010815
:1041A8003D3D0008CDED000810B5094CE3696BB141
:1041B80000209847074B1B6E03B1984794F82030AE
:1041C80023B1BDE81040024800F0ECB810BD00BFB4
:1041D800B80F0020B837010838B54FF4B01145685A
:1041E800044615480AF0F0FD10B16FF0040038BD20
:1041F80012484FF4B0110AF0E7FD0028F5D1104835
:1042080010490EF099F9204600F0D6F80028EED1B2
:1042180028680EF0BBF810B96FF01200E7E7E868FD
:1042280028B92046FFF794FF00EAE070DFE70EF0B8
:10423800ADF80028F5D1EFE7CC360108D4360108EF
:10424800C40F0020B1410008014801210AF0E5BD72
:10425800CC360108014800210AF0DFBDCC36010840
:10426800014B93F820007047B80F002008B50346AB
:10427800074880F820303BB1042B07D10121BDE865
:10428800084004480AF0C9BD0AF09BFE0021F6E781
:10429800B80F0020D4360108014BD861704700BF21
:1042A800B80F002010B5044C20460AF06FFE012319
:1042B80084F8203010BD00BFB80F002010B5054CA1
:1042C800204600F067F800B910BD0021052008F06D
:1042D80059FFF5E7B80F002070B58CB00D46DDE941
:1042E8001061CDE9063104ABCDE90402CDE90852ED
:1042F800009308AA02230446CDE90A61CDE9022306
:1043080001930AF078FF0B486DB966B983680A49CA
:104318001D686A463346A8472378842B01D0FFF7E7
:10432800CDFF0CB070BD836803491D68014802AB1E
:104338006A46F0E73C310108B836010870B50F4C01
:1043480086B0204600F02EF8C023ADF8043001AB4B
:10435800029302230393012502AB049305950848B1
:104368000849836804AA1E680023B047002803DBB5
:10437800FFF7A4FF84F8205006B070BDB80F0020E6
:104388003C310108B836010801480AF018BE00BFE0
:10439800B80F0020024B5869C0F34000704700BFB7
:1043A80000040058034B4FF48022C3F884213220C4
:1043B800FEF772BF00E100E0002208B51146322086
:1043C800FEF79AFF054AD2F8903043F48053C2F8BA
:1043D80090303220FEF760FF002008BD000800582A
:1043E800074B08491A6843F2390001FB02001860BC
:1043F8006FF00043B0FBF3F3C3EBC373C01A70470D
:104408003C0600206D4EC641014B1860704700BF46
:104418003C06002030B530B10A4D01444FF0FF335F
:10442800814201D1D84330BD10F8012B53400822F6
:1044380043F30004013A2C4092B284EA5303002A61
:10444800F6D1EDE72083B8ED044A13680BB10021DB
:104458005972436110600AF087BE00BFDC0F00206C
:1044680037B5044601A80AF09EFC6CB1174D2A68BE
:10447800134673B963682360012323816AB9FFF780
:104488004BFC2046FFF7E0FF01A80AF095FC03B0BB
:1044980030BD9C42F8D05B69EBE7FFF713FC23685B
:1044A80018442B6820601A689042EAD35A695969FF
:1044B80011B95C616161E7E71168884202D9134666
:1044C8005269F4E75C616261DEE700BFDC0F00203F
:1044D800F8B5FFF729FC1C4C0546FFF71DFC2368BF
:1044E800A3B1471B1E462D1A716929B95A69226062
:1044F800DA68197242B9FEE70A68BA428CBF5219E3
:1045080000220A607669EFE7186990470026236859
:104518002BB9206880B9F8BD18699047F7E71D687E
:10452800FFF7D0FB8542F4D223685A692260DA6823
:104538001E72002AF0D1FEE7437A002BEBD1BDE8CA
:10454800F8400AF011BE00BFDC0F002037B5134D4C
:10455800044601A80AF027FC2B686BB164B100225D
:10456800A342227211D1597A5C6961B15A7244B17D
:1045780020462C600AF0F8FD01A80AF01DFC03B0E3
:1045880030BDFFF7A9FB2C60F6E71A465B69002BE4
:10459800F2D09C42F9D163695361EDE7DC0F00204A
:1045A80007B5074B1B7840BAADF804002BB90222B7
:1045B80001A940F2BC600AF09EFC03B05DF804FB60
:1045C800CC1F002007B5074B1B7840BAADF8040094
:1045D8002BB9022201A940F2BE600AF08CFC03B09C
:1045E8005DF804FBCC1F002010B50C4B1B7804466B
:1045F8009BB94FF4D7600AF0B3FCC4F3002100F074
:10460800FE0001434FF4D7600AF089FCE1B240F2A2
:10461800B960BDE810400AF082BC10BDCC1F002074
:1046280013B50446FFF716FE04F0070314F004045C
:104638008DF8073008BF084B4FF001020DF1070154
:104648004FF0840008BF1C700AF035FC0020FFF70B
:104658000DFE02B010BD00BFCA1F002010B50446F1
:10466800FFF720FE2046FFF717FEFFF767FE002042
:104678000AF0E0FD0AF0E9FB0AF0F3FB034B002225
:104688001A70BDE810400120FFF7F0BDCA1F0020D6
:10469800134B984207B50BD94EF6E113ADF8043029
:1046A800022201A998200AF006FC03B05DF804FB79
:1046B8000C4B984202D94DF6D733EFE70A4B984294
:1046C80002D94CF2C153E9E7084B984202D948F2A3
:1046D8007513E3E7064B9842E2D946F66B73DDE7BC
:1046E80000E9A43580F8A9328044E52D000B6B1B46
:1046F80040FC541937B5104D2B7804461BB9FFF709
:10470800C7FF01232B7043F6095241F68463B4FBBB
:10471800F2F102FB114403EB8433B3FBF2F30422FE
:1047280003EB81331BBA0DEB0201862001930AF0DB
:10473800C2FB03B030BD00BFCA1F002007B5064B3F
:104748008DF80700187001220DF107018A200AF080
:10475800B2FB03B05DF804FBCC1F0020014B1878B6
:10476800704700BFCC1F002013B5224A0446516889
:1047780010686B4603C3204B20781B78834201D016
:10478800FFF7DCFF23781BB1012B2ED002B010BD40
:1047980062681A4BB3FBF2F31A0C8DF800201A0A60
:1047A8008DF801208DF80230A268237B8DF8033044
:1047B80043F60951637BB2FBF1F08DF8043001FB3D
:1047C800102241F6846303EB8233B3FBF1F303EB6E
:1047D80080331A0C5BBA8DF80520ADF80630082234
:1047E80069468B200AF067FBD0E72369009304220F
:1047F800F6E700BF44340108CC1F00200000093D43
:104808001FB52B4A0446D1689068127C01AB03C3DC
:104818001A70284B20781B78834201D0FFF78EFF4F
:1048280023781BB1012B31D004B010BD637AF12B72
:1048380020D14FF6FF70FFF7B3FE48F20500FFF7EF
:10484800C1FE02236288A188ADF8061052BAE18839
:10485800ADF804208DF80B30227AA37A8DF80A205F
:10486800ADF808108DF80C30092201A98C200AF047
:1048780022FBD9E7F22BE5D141F60F50FFF790FE66
:1048880041F22100FFF79EFE0623DBE7A3890A4ACF
:104898005BBAADF80430A37B13708DF80630E37B68
:1048A8008DF80730238AADF808300622DDE700BF0F
:1048B80044340108CC1F0020CB1F002037B5054623
:1048C8000C46022201A913200AF003FB0A4B1B78AD
:1048D800012B0DD1094B1B78012B09D140F2027035
:1048E8000AF03EFB9DF805302870237003B030BDF8
:1048F8009DF80400F6E700BFCC1F0020CB1F002066
:1049080013B50322044601A914200AF0E2FA184B51
:104918001A7822704AB1012A17D013220021601C8C
:104928000EF0F6FA0F2323700DE09DF80430237182
:104938009DF80530A2605B425B10A3719DF80630BC
:104948005B425B10637102B010BD9DF804305B429E
:104958005B1023739DF9053002339B1063739DF838
:1049680006305B425B10A373024B1B682361EAE7C6
:10497800CC1F0020E00F0020034B1B6813B15B68BD
:1049880003B11847704700BF08110020034B1B688C
:1049980013B1DB6803B11847704700BF0811002046
:1049A800014B01221A707047CF1F002008B5FFF78E
:1049B80057FC0438C0B2032896BF024B0020185C8D
:1049C80008BD00BFC83D010838B50C46002340F2B9
:1049D80001211A46054608460AF056FDFFF7BEFEB5
:1049E8000C4B01280C480CBF83F8C74083F8C04023
:1049F800FFF706FF2146284600220AF043FC074B32
:104A0800074819680AF0CEFBBDE838400448FFF7AC
:104A180027BD00BF14100020CC1000202411002056
:104A2800FC0F002038B50D461446FFF763FE2846F4
:104A3800074D0AF019FA0AF0B9FC4FF47A712846C2
:104A480061430AF0AFFB2846BDE83840FFF708BDD0
:104A5800FC0F002073B5574D01A80AF0A4F92C7873
:104A6800002301A82B700AF0A7F9002C61D00AF0E6
:104A780020FD04460AF0C0FD01A80AF094F9FFF7EA
:104A880083FC012808BF287001A80AF095F9E507FA
:104A98000BD54948FFF75AFD0120FFF7E7FB474BC5
:104AA8001B6813B11B6803B19847A00711D5444888
:104AB800424EFFF74BFD14F0400F424B3BD01B78A2
:104AC80013B90120FFF7D2FB336813B11B6903B197
:104AD800984721060AD50120FFF7C8FB374B1B680A
:104AE80023B19B6913B1C4F300209847A2050FD5E1
:104AF800FFF7B6FB04284CD12F48FFF727FD01200C
:104B0800FFF7B4FB2D4B1B6813B15B6803B19847E3
:104B1800A3060ED52A48FFF719FD2A4B1B7813B9AF
:104B28000120FFF7A3FB254B1B6813B1DB6803B11A
:104B3800984702B070BD1D7895B90120FFF796FB24
:104B4800294640F602100AF0EAF940F644100AF045
:104B580007FA40F00201C9B240F644100AF0DFF942
:104B6800194D1A48FF220DF103010AF02CFD2846C1
:104B7800FFF7C6FE3368002BABD09E68002EA8D086
:104B880095F90D3095F90C209DF803100F48B047A2
:104B98009FE7FFF765FB0528BAD10948FFF7D6FC60
:104BA8000120FFF763FB054B1B68002BB0D0DB68C7
:104BB800ACE700BFCF1F0020FC0F00200811002029
:104BC800E40F0020CF2000200C110020D01F00206F
:104BD80010B590B10A4B012219461C68A04206D3B1
:104BE8009C68A04203D201EBC201087910BD0132D2
:104BF800162A03F10803F0D1FEE71F20F6E700BFED
:104C0800083701080128094806D1094B80F8C71060
:104C18001970B830FFF7F4BD90F8BF30012B04D1FC
:104C2800034B80F8C0101970F3E770471410002088
:104C38009707002000234FF6FF7110B51A46044667
:104C480008460AF021FC34B1094821460AF0AAFABC
:104C58000748FFF705FC074B1B782BB16FF07F4027
:104C6800BDE810400AF017BB034B18688001F7E74E
:104C7800E40F0020CF2000202011002000234FF651
:104C8800FF7110B51A46044608460AF0FDFB34B118
:104C9800094821460AF086FA0748FFF7E1FB074B67
:104CA8001B782BB16FF07F40BDE810400AF040BB85
:104CB800034B18688001F7E7E40F0020CF2000209D
:104CC80020110020F0B5BDF814409DF818C09DF8DB
:104CD8001CE09DF8205040B1012814D00122002387
:104CE80098180138B0FBF2F0F0BD8CF0010CE3002D
:104CF80003EBCC0318330EEB450503EBC5034FF468
:104D08007A714B43ECE7501F012803F1040304D8E0
:104D18000C2C38BF0C24002706E0C1B9A2F10B0700
:104D2800012F8CBF002701272801BCF1000F00EBE1
:104D3800CE000CBF14250025A0EB8200062A4FEAFE
:104D480082062844A2F1020C08D835460BE0012956
:104D5800E1D1A2F10C0047424741E5E70830002FB6
:104D6800F3D04FEA8C050028ACBF2E182E1C701EFD
:104D780090FBF5F003FB0044094B062A5A5C8CBFF4
:104D88000C340E340A2A0AD8A30001334FF47A717E
:104D980003FA0CF34B43034951F82220A0E7FFDE46
:104DA800CC3D0108DC3601080D4B10B504461870DF
:104DB800587000F017F85CB134214FF4E8600AF03D
:104DC800AEF84421BDE8104040F241700AF0A7B89F
:104DD80014214FF4E8600AF0A2F82421F2E700BF9A
:104DE800CD1F002008B50120FFF7A8FC054B187857
:104DF8005A78824204D05870BDE80840FFF7D4BF03
:104E080008BD00BFCD1F0020012808B506D000202E
:104E1800FFF794FC034B00225A7008BDBDE8084018
:104E2800FFF7E0BFCD1F00202DE9F04F85B0894680
:104E38009DF84C1000919DF85C109DF844A0BDF8B9
:104E48004070694CDFF8A4B1BDF83C6021700029BE
:104E580018BF0027BAF1000F15469DF8482008BF73
:104E6800FF228BF80020804620B1012854D005B0DD
:104E7800BDE8F08F5E4C0AF0A4FA0B234FEA490014
:104E880084F8EC3084F8E080C4F8E450FFF7A0FE22
:104E980041F60403A4F8BC309BF8003084F8C03015
:104EA800009B84F8ED00002B0CBF0123F22384F84B
:104EB800C130F60001238AF0010A84F8C23084F870
:104EC800B880A4F8BA6084F8BE8084F8BFA00AF05D
:104ED800A1FB94F8E000003818BF0120FFF794FF09
:104EE80004F1E000FFF740FC04F1B800FFF788FC8C
:104EF800404A1068516802AB03C302A80AF091F94E
:104F080040F2FF10FFF770FB4FF4FA537B43B3FBFB
:104F1800F5F3394A1360AAE70020354C01930AF0EB
:104F280050FA3649019B11F8091084F8E080EAB27A
:104F380084F8F020B9F1000F45D10B3D012D8CBF4D
:104F480000250125053A012A02D80C2E38BF0C2667
:104F580084F8F230012384F8B8309BF8003084F8E4
:104F6800C730009B84F8C8309DF8583084F8C930A1
:104F780084F8F11084F8F350A4F8C46084F8C6A04B
:104F88000AF048FB94F8E000003818BF0120FFF74A
:104F98003BFF1B48FFF7E8FB1A48FFF731FCF8B264
:104FA8000AF01BFA94F8C930012B40F2367014D17C
:104FB80009F0D6FF00F0FB0140F2367009F0AFFFB0
:104FC8004FF6FF73A5E7B9F1010F04D1A5F10C0065
:104FD80045424541B6E70025B4E709F0C1FF40F076
:104FE8000401C9B2E8E700BFCF20002097070020DE
:104FF800141000205534010820110020CC3D010870
:10500800F4100020CC1000202DE9F74F0C9DBDF8BE
:1050180038709DF83C909DF840A088469346064617
:1050280048B101284DD040F6890009F099FF40F0B9
:105038000401C9B28DE0524C0B2284F8E0005800FC
:1050480084F8EC20C4F8E450FFF7C2FD41F60403ED
:10505800BAF1000FA4F8BC300CBF0123F22384F886
:10506800C130FF00012389F0010984F8C23084F8B7
:10507800ED00C4F8E8B084F8B860A4F8BA7084F811
:10508800BE6084F8BF900AF0C5FA94F8E0000038D2
:1050980018BF0120FFF7B8FE04F1E000FFF764FB3A
:1050A80004F1B800FFF7ACFB364A106851686B464C
:1050B80003C368460AF0B5F840F2FF10FFF794FA08
:1050C800B1E72F4C304984F8E000EAB2C95C84F8B3
:1050D800F020002B4AD10B3D012D8CBF0025012566
:1050E800053A012A02D80C2F38BF0C279DF8343016
:1050F80084F8F230012384F8B830244B84F8F11096
:105108001B7884F8C7309DF84C3084F8C93084F88F
:10511800F350A4F8C47084F8C69084F8C8A00AF0C4
:1051280079FA94F8E000003818BF0120FFF76CFE08
:105138001748FFF719FB1748FFF762FB94F8F1309F
:10514800062B7FF470AF40F6890009F009FF00F0E4
:10515800FB0140F6890009F0E2FE404609F084FEB2
:10516800149A0D4B1A6003B0BDE8F08F012B04D1DF
:10517800A5F10C035D425D41B2E70025B0E700BF31
:105188001410002055340108CC3D01089707002071
:10519800F4100020CC1000202411002008B5174B73
:1051A80018601748FFF75AFA00200AF043F8012060
:1051B8000AF03EF9002108460AF0EBF90421002024
:1051C8000AF0A4F900234FF6FF711A4608460AF0C0
:1051D8005BF940F6AC000AF099FA40F689000AF04B
:1051E80095FA0849084809F0D5FF0849084809F020
:1051F800D1FF084B00221A7008BD00BF081100201B
:10520800A949000881490008FC0F002095490008B9
:10521800E40F0020CF1F0020A1F11003DBB2102BF8
:105228002DE9F047044604D83A4820FA03F3DB078F
:1052380005D4002382F8F030FF20BDE8F087561E21
:10524800254615F8013B06F8013F631B0B4413F094
:10525800FF00F6D101F11C039B005FFA83FCC3F346
:105268000313013BDFF8B09082F8F03088465318FA
:105278004FF0010EB8FBF1FA01FB1A8A1AF0FF0A87
:1052880013F8047C13F8036C13F8025C13F8014C50
:1052980030D119F806A019F8056019F8045019F862
:1052A80007404FEADE1707EB47078EEA0A0A07EBC3
:1052B800C7074FEA4E0EFFB25FFA8EFE87EA0E0E60
:1052C800574692F800A087EA0A071F7057787E4071
:1052D8005E70967875409D70D57808F104085FFA7D
:1052E80088F86C40C445DC7002F1040203F1040341
:1052F800C0D8A2E71829E4D9BAF1100FE1D1DFF834
:1053080018A01AF807701AF806601AF805501AF863
:105318000440D6E701010100CF3F01082DE9F04F15
:10532800A3B092F8F0301D911B920193002B00F06E
:10533800538101461EA80AF05FFA1B9BA74CA84D93
:10534800A84E10330293002303939DF87C00049029
:105358009DF886000590205C06909DF87B000790DC
:10536800205C089004989DF881C0205C099014F88E
:105378000C000A909DF880000B909DF885009DF820
:1053880078809DF87DE09DF882A09DF887900C902C
:105398009DF87A00029B1C9314F80A2014F809302F
:1053A80014F8081014F80E700D90205C0E909DF8FB
:1053B8007F000F90205C10900B98205C11900C9847
:1053C800205C12909DF8840013909DF87900149049
:1053D8009DF87E001590205C16909DF8830017902C
:1053E800205C18901398205C19901498205C1A90EF
:1053F8000398013003900298DDF804B01030029051
:105408009DF80C00834536D88DF878108DF87A20F1
:1054180009990E9A8DF87C108DF882201199069AB8
:105428008DF880108DF87E201999169A8DF88410C1
:105438008DF886200A99189A8DF87D108DF88720A6
:105448001299109A8DF87B301B9B8DF881108DF87E
:1054580083201A99089A1D988DF885108DF87F2059
:105468001EA903EB0B128DF879700AF0C5F900201C
:1054780023B0BDE8F08F15F808B082EA03008BEA84
:10548800000016F80EB080EA0B008DF8780015F8C9
:105498000E004B40434016F80A0043408DF879301F
:1054A80081EA070315F80A10594016F809305940DF
:1054B80016F808308DF87A107A40534015F809200C
:1054C80053408DF87B30089A069B5340049AAA5C97
:1054D800534016F80C2053408DF87C30DDE9083233
:1054E8005A4015F80C305340059AB25C53408DF879
:1054F8007D30DDE909325A40059BEB5C5340079A41
:10550800B25C53408DF87E30069B0A9A5340049A49
:10551800B25C5A40079BEB5C5A408DF87F200E9B8B
:10552800109A53400B9AAA5C53400C9AB25C5340B1
:105538008DF88030DDE910325A400C9BEB5C53400B
:105548000D9AB25C53408DF88130DDE911325A4032
:105558000D9BEB5C53400F9AB25C53408DF8823040
:10556800129A0E9B53400B9AB25C5A400F9BEB5C0D
:105578001C995A408DF88320169B189A5340139A09
:10558800AA5C5340149AB25C53408DF88430DDE92C
:1055980018325A40149BEB5C5340159AB25C534046
:1055A8008DF88530DDE919325A40159BEB5C534084
:1055B800179AB25C53408DF886301A9A169B53405E
:1055C800139AB25C5340179AAA5C1EA853408DF8F0
:1055D80087300AF0D0F8B8E6FF2049E7CF3F010846
:1055E800CF3E0108CF3D01082DE9F043CBB0064678
:1055F800DDF84891174698460D4689B3B9F1000F72
:105608002ED004A80AF03AF9164B1968002401F1C3
:10561800140304EB04101A5C424513D115300144FD
:1056280004A80AF03BF9A6B93A46294604A80AF0A4
:105638003AF9684604A90AF0A1F9009BC9F80030B4
:10564800002003E00134172CE3D103204BB0BDE860
:10565800F083102231460DEB02000AF024F9E3E74B
:105668000220F3E72811002030B5E9B04FF4D072DA
:105678000021044668460DF04BFC284B0DF115023D
:1056880003F1200153F8040B42F8040B8B42F9D1C3
:105698001B88138022490323452216A88DF847301A
:1056A8000DF028FC7F238DF8AD3080238DF8BE30B7
:1056B80081238DF8CF3082238DF8E03083238DF855
:1056C800F13084238DF8023185238DF81331862338
:1056D8008DF8243187238DF8353188238DF84631AC
:1056E80089238DF857318A238DF868318B238DF8FB
:1056F80079318C238DF88A316CB10A4D4FF4D07210
:10570800694620462C6009F08DFC28680AF0A9FA41
:10571800002069B030BD0220FBE700BFCF40010880
:10572800F2400108281100202DE9F0410D46BEB0D5
:1057380016469846074670B36BB311F00F042CD188
:10574800F022214601A809F081FC154B1868214672
:1057580000F1140201EB0113D45CB4420BD11533F0
:1057680001AA10211844FFF757FD2C462E1BF6B24C
:1057780044B9204603E001311729EBD103203EB09C
:10578800BDE8F08101AA08EB0601B819103CFFF743
:10579800C5FDA4B2EAE70220F1E70520EFE700BF64
:1057A80028110020F0B51D4E3468034685B0084620
:1057B800002204F1140102EB02154F5D9F4227D12C
:1057C800802B05F1150508D07D33DBB2062B18D8E0
:1057D800492222FA03F3DB0713D50023CDE900336E
:1057E800CDE902337F2210216B46FFF79DFF044667
:1057F800306810226946284409F014FC204605B098
:10580800F0BD01461022601909F00CFC0024F5E7F0
:105818000132172ACFD10324F0E700BF2811002056
:1058280008B5014630B1044B0822186809F0FAFBA4
:10583800002008BD0220FCE728110020014B186851
:10584800704700BF2811002008B5014638B1054B44
:1058580018680822104409F0E5FB002008BD022062
:10586800FCE700BF28110020014B1868083070477A
:105878002811002008B5014638B1054B18680422E4
:10588800103009F0CFFB002008BD0220FCE700BF64
:1058980028110020014B186810307047281100208B
:1058A800044B054A93F8A831022B18BF062382F847
:1058B80088347047D411002034160020034BD3F8E5
:1058C800483313B1DB6803B118477047341600201A
:1058D800034A137843F002031370FFF7EFBF00BFCA
:1058E80040110020034A137843F008031370FFF7B0
:1058F800E5BF00BF40110020034A137843F00403BA
:105908001370FFF7DBBF00BF40110020074BD3F82F
:10591800402322F48072C3F8402393F8892442F08C
:10592800100283F88924FFF7C9BF00BF341600208E
:105938002DE9F04116461D4680460F4609F043FC06
:10594800084A094C13782781C4E9000823F0110399
:1059580043F01103668125731370BDE8F041FFF72A
:10596800ADBF00BF401100202C1100201FB5094B0E
:105978008DF8090093F88C208DF80A2093F85800C8
:105988000D2202A98DF808200AF011FDC0B205B059
:105998005DF804FBD411002010B5154C94F8C9210A
:1059A80094F85030012A4FF0010294BF84F8D521B1
:1059B80084F8D721013394F8C821DBB29A4284F8DD
:1059C800503009D80B48FEF7C1FD002384F8503049
:1059D800BDE81040FFF772BF074C04F2BC40D4F892
:1059E800DC1409F0DFFB04F2BC40FEF739FDEFE7F9
:1059F800D4110020F01A00203416002008B50748FA
:105A0800FEF7A4FD064B93F8162412B1012283F881
:105A18001524BDE80840FFF751BF00BF301A002029
:105A28003416002010B50C4CD4F8403343F08003F2
:105A3800C4F8403394F8163413B10020FFF7DEFFA2
:105A480094F8893423F0120343F0120384F889345C
:105A5800BDE81040FFF724BF341600202DE9F041BF
:105A68004F4C90B008B984F8C001B4F8DC30A4F801
:105A7800483094F8B93084F879304A4B4A4ED3E923
:105A8800100183E80300D3E9120103F1080282E858
:105A98000300B4F8CC20A4F88C20D4F8D420C4F89F
:105AA8009420D4F8D820D4F8D010C4F89820002531
:105AB8004FF0010803F5407203F54173C4F89010E4
:105AC800A56384F8AB51A4F8B08184F84A5084F8EF
