:020000040800F2
:10000000C0700020552E0008D5E30008412E0008DE
:10001000412E0008412E0008412E0008000000007B
:10002000000000000000000000000000652F000834
:10003000412E000800000000312F0008412E00086A
:100040001131000811310008113100081131000888
:100050001131000811310008113100081131000878
:100060001131000811310008113100081131000868
:100070001131000811310008113100081131000858
:100080001131000811310008113100081131000848
:100090001131000811310008113100081131000838
:1000A0001131000811310008113100081131000828
:1000B0001131000811310008113100081131000818
:1000C0001131000811310008113100081131000808
:1000D00011310008113100081131000811310008F8
:1000E00011310008113100081131000811310008E8
:1000F00011310008113100081131000811310008D8
:1001000011310008113100081131000811310008C7
:1001100011310008113100081131000811310008B7
:1001200011310008113100081131000811310008A7
:08013000113100081131000833
:1001380080F0004002E000BF81F0004142001FBF94
:100148005FEA410392EA030F7FEA226C7FEA236C9D
:100158006AD04FEA1262D2EB1363C1BFD218414092
:1001680048404140B8BF5B42192B88BF704710F028
:10017800004F40F4000020F07F4018BF404211F0CB
:10018800004F41F4000121F07F4118BF494292EA33
:10019800030F3FD0A2F1010241FA03FC10EB0C005F
:1001A800C3F1200301FA03F100F0004302D54942EC
:1001B80060EB4000B0F5000F13D3B0F1807F06D399
:1001C80040084FEA310102F10102FE2A51D2B1F191
:1001D800004F40EBC25008BF20F0010040EA030086
:1001E8007047490040EB0000013A28BFB0F5000F06
:1001F800EDD2B0FA80FCACF1080CB2EB0C0200FABC
:100208000CF0AABF00EBC25052421843BCBFD0400A
:100218001843704792F0000F81F4000106BF80F484
:1002280000000132013BB5E74FEA41037FEA226C47
:1002380018BF7FEA236C21D092EA030F04D092F012
:10024800000F08BF0846704790EA010F1CBF002046
:10025800704712F07F4F04D1400028BF40F00040A3
:10026800704712F100723CBF00F50000704700F0C3
:10027800004343F0FE4040F4000070477FEA2262EA
:1002880016BF08467FEA23630146420206BF5FEABB
:10029800412390EA010F40F4800070474FF00003BB
:1002A80004E000BF10F0004348BF40425FEA000C82
:1002B80008BF704743F0964301464FF000001CE02A
:1002C80050EA010208BF70474FF000030AE000BF80
:1002D80050EA010208BF704711F0004302D54042BE
:1002E80061EB41015FEA010C02BF84460146002030
:1002F80043F0B64308BFA3F18053A3F50003BCFA4B
:100308008CF2083AA3EBC25310DB01FA02FC6344F7
:1003180000FA02FCC2F12002BCF1004F20FA02F2FE
:1003280043EB020008BF20F00100704702F12002F1
:1003380001FA02FCC2F1200250EA4C0021FA02F252
:1003480043EB020008BF20EADC7070474FF0FF0C57
:100358001CEAD0521EBF1CEAD15392EA0C0F93EA52
:100368000C0F6FD01A4480EA010C400218BF5FEAF4
:1003780041211ED04FF0006343EA501043EA511167
:10038800A0FB01310CF00040B1F5000F3EBF490061
:1003980041EAD3715B0040EA010062F17F02FD2A65
:1003A8001DD8B3F1004F40EBC25008BF20F0010048
:1003B800704790F0000F0CF0004C08BF49024CEA5F
:1003C800502040EA51207F3AC2BFD2F1FF0340EAF1
:1003D800C250704740F400004FF00003013A5DDC62
:1003E80012F1190FDCBF00F000407047C2F10002A3
:1003F800410021FA02F1C2F1200200FA02FC5FEA90
:10040800310040F1000053EA4C0308BF20EADC70D9
:10041800704792F0000F00F0004C02BF400010F44B
:10042800000F013AF9D040EA0C0093F0000F01F0F8
:10043800004C02BF490011F4000F013BF9D041EA1A
:100448000C018FE70CEAD15392EA0C0F18BF93EA1C
:100458000C0F0AD030F0004C18BF31F0004CD8D146
:1004680080EA010000F00040704790F0000F17BFCD
:1004780090F0004F084691F0000F91F0004F14D013
:1004880092EA0C0F01D142020FD193EA0C0F03D16B
:100498004B0218BF084608D180EA010000F000406E
:1004A80040F0FE4040F40000704740F0FE4040F449
:1004B800400070474FF0FF0C1CEAD0521EBF1CEAE8
:1004C800D15392EA0C0F93EA0C0F69D0A2EB030206
:1004D80080EA010C49024FEA402037D04FF08053A0
:1004E80043EA111143EA10130CF000408B4238BF65
:1004F8005B0042F17D024FF4000C8B4224BF5B1A73
:1005080040EA0C00B3EB510F24BFA3EB510340EAC0
:100518005C00B3EB910F24BFA3EB910340EA9C006E
:10052800B3EBD10F24BFA3EBD10340EADC001B01DE
:1005380018BF5FEA1C1CE0D1FD2A3FF650AF8B4282
:1005480040EBC25008BF20F0010070470CF0004C8F
:100558004CEA50207F32C2BFD2F1FF0340EAC250BA
:10056800704740F400004FF00003013A37E792F07B
:10057800000F00F0004C02BF400010F4000F013AD9
:10058800F9D040EA0C0093F0000F01F0004C02BFD4
:10059800490011F4000F013BF9D041EA0C0195E73D
:1005A8000CEAD15392EA0C0F08D142027FF47DAFD6
:1005B80093EA0C0F7FF470AF084676E793EA0C0FC6
:1005C80004D14B023FF44CAF08466EE730F0004CC4
:1005D80018BF31F0004CCAD130F000427FF45CAF54
:1005E80031F000437FF43CAF5FE700BF4FF0FF3CC2
:1005F80006E000BF4FF0010C02E000BF4FF0010C15
:100608004DF804CD4FEA40024FEA41037FEA226CDD
:1006180018BF7FEA236C11D001B052EA530C18BFFF
:1006280090EA010F58BFB2EB030088BFC81738BF64
:100638006FEAE17018BF40F0010070477FEA226C52
:1006480002D15FEA402C05D17FEA236CE4D15FEA4E
:10065800412CE1D05DF8040B704700BF8446084682
:100668006146FFE70FB5FFF7C9FF002848BF10F143
:10067800000F0FBD4DF808EDFFF7F4FF0CBF012088
:1006880000205DF808FB00BF4DF808EDFFF7EAFF12
:1006980034BF012000205DF808FB00BF4DF808EDCD
:1006A800FFF7E0FF94BF012000205DF808FB00BFC2
:1006B8004DF808EDFFF7D2FF94BF012000205DF848
:1006C80008FB00BF4DF808EDFFF7C8FF34BF012055
:1006D80000205DF808FB00BF4FEA40024FEA4103E3
:1006E8007FEA226C02D15FEA402C08D17FEA236CB2
:1006F80002D15FEA412C02D14FF0000070474FF061
:10070800010070474FEA4002B2F1FE4F0FD34FF09D
:100718009E03B3EB12620DD94FEA002343F0004366
:1007280010F0004F23FA02F018BF404270474FF014
:100738000000704712F1610F01D1420205D110F09B
:10074800004008BF6FF0004070474FF0000070474E
:1007580042000ED2B2F1FE4F0BD34FF09E03B3EB23
:10076800126209D44FEA002343F0004323FA02F04F
:1007780070474FF00000704712F1610F01D142023B
:1007880002D14FF0FF3070474FF00000704700BFB4
:100798007BB972B90029BEBF00204FF0004106E0C6
:1007A80008BF00281CBF6FF000414FF0FF3000F079
:1007B80057B8ADF1080C6DE904CE002909DB002B10
:1007C8001ADB00F062F8DDF804E0DDE9022304B08A
:1007D8007047404261EB4101002B1BDB00F055F8EC
:1007E800DDF804E0DDE9022304B0404261EB410199
:1007F800524263EB43037047524263EB430300F0FA
:1008080044F8DDF804E0DDE9022304B0404261EB7E
:1008180041017047524263EB430300F036F8DDF8BC
:1008280004E0DDE9022304B0524263EB430370475E
:1008380053B94AB9002908BF00281CBF4FF0FF313F
:100848004FF0FF3000F00CB8ADF1080C6DE904CEA4
:1008580000F01BF8DDF804E0DDE9022304B070477E
:10086800704700BF430803F05533C01A00F0333314
:10087800800800F03330184400EB10104FF00133BB
:1008880000F00F305843000E70472DE9F0478646B8
:100898008C460846089E154674461946002B40F0BB
:1008A800C2808542B2FA82F245D94AB1C2F1200328
:1008B80000FA02FC2EFA03F3954043EA0C0C94402C
:1008C8004FEA154EA8B2BCFBFEF8230C0EFB18CC61
:1008D80008FB00F943EA0C43994528D9EB1808F1BD
:1008E800FF3704D2994502D9A8F102072B44A3EB9C
:1008F8000903A4B2B3FBFEFC0EFB1C330CFB00F097
:1009080044EA0344A04214D92C190CF1FF3304D251
:10091800A04202D9ACF102032C44241A43EA07404E
:100928001EB1D440002334607360BDE8F0874746A9
:10093800DDE76346F1E792BB431B01214FEA154E01
:10094800AFB2B3FBFEFC200C0EFB1C330CFB07F80C
:1009580040EA0343984562D9EB180CF1FF3004D202
:10096800984502D9ACF102002B44A3EB0803A4B2CA
:10097800B3FBFEFC0EFB1C330CFB07F744EA0344F5
:10098800A7424ED92C190CF1FF3304D2A74202D941
:10099800ACF102032C44E41B43EA0040C0E7C2F177
:1009A800200320FA03F1954090402EFA03F3034305
:1009B8004FEA154EAFB2B1FBFEFC0EFB1C10190C32
:1009C8000CFB07F841EA0041884504FA02F422D9F1
:1009D80069180CF1FF3004D2884502D9ACF1020045
:1009E8002944A1EB08019BB2B1FBFEFC0EFB1C11D4
:1009F8000CFB07F743EA01439F420ED9EB180CF1B1
:100A0800FF3104D29F4202D9ACF102012B44DB1B17
:100A180041EA004192E76046E3E76146F7E760464E
:100A2800A3E76346B7E7834206D916B9002108460B
:100A38007BE7C6E900E0F9E7B3FA83F78FB98342A9
:100A480001D3724508D8BEEB020460EB0303012012
:100A58009C461EB9002168E73846FAE7C6E9004C0B
:100A6800F8E7C7F1200CBB4022FA0CF41C432EFA1D
:100A78000CF120FA0CF3B84001434FEA14490EFA7E
:100A880007F5B3FBF9F81FFA84FE09FB18300B0CC5
:100A980008FB0EFA43EA00439A4502FA07F240D9E6
:100AA800E31808F1FF3004D29A4502D9A8F10200F0
:100AB8002344A3EB0A0389B2B3FBF9F809FB183303
:100AC80008FB0EFE41EA03418E452CD9611808F156
:100AD800FF3304D28E4502D9A8F10203214443EA28
:100AE8000040A0FB0298A1EB0E014145CE464346CB
:100AF80002D306D14D4504D2B9EB020E68EB0403CC
:100B08000138002EA6D0B5EB0E0261EB030101FA05
:100B18000CFC22FA07F34CEA0303F940C6E900315A
:100B280098E74046C5E74346D9E710F8012B11F886
:100B3800013B012A28BF9A42F7D0D01A70470346D2
:100B480013F8012B002AFBD1181A0138704700004E
:100B580038B50D4D284610F046FC88B1AB680B49F6
:100B68001B6828469847044640B90146284601F0C4
:100B7800B1FB18B110F1780F18BF0446204638BDF4
:100B88006FF01204FAE700BF981F0108E429010872
:100B9800F0B5054689B02948284E10F024FC0028F5
:100BA80046D00121304601F095FB044610B110F102
:100BB800780F3AD11422002103A811F006F9042372
:100BC80004930DF106030593022306930C238DF875
:100BD8001C30B6681948736803A99847044620BBB7
:100BE800BDF9063032899DF81C70534302A90820CC
:100BF800029309F0E5F90446B8B9029865B138419D
:100C0800FFF750FB0E49FFF755FC0E49FFF752FC62
:100C18000D49FFF79BFB28600848002101F05AFBAB
:100C280048B110F1780F18BF0446204609B0F0BD4E
:100C38006FF01204F9E70446F7E700BF981F0108B0
:100C480000007A440000C8420000254401480BF027
:100C58003DBB00BF200900202DE9F04F89B0834635
:100C68008A46914601934FF0FF324FF0FF33874891
:100C78000BF0B4FA864810F0B6FB38B9FFF7E6FF78
:100C88006FF01204204609B0BDE8F08F804B9E68D3
:100C980005257F48F3683B2198473D28044608D13D
:100CA800292000210CF00AF8013DF2D1FFF7CEFF10
:100CB800E8E70028FAD17648336902AA0321984761
:100CC80004460028F2D10398FFF7ECFA7149FFF7C0
:100CD800F1FB05460298FFF7E5FA01462846FFF7BB
:100CE8002DFA05460598FFF7DDFA6A49FFF7E2FB9A
:100CF80006460498FFF7D6FA01463046FFF71EFA73
:100D080006460798FFF7CEFA6249FFF7D3FB074676
:100D18000698FFF7C7FA01463846FFF70FFA074665
:100D2800BBF1000F01D0CBF80050BAF1000F01D091
:100D3800CAF80060B9F1000F01D0C9F8007056492F
:100D4800DFF858A12846FFF7B5FB5349054630465A
:100D5800FFF7B0FB504906463846FFF7ABFBDAF819
:100D680000304F490C225343CA18CB58D2E901B975
:100D7800074653B94B492846FFF786FC00283FD160
:100D880049492846FFF79EFC05E0012B12D1474947
:100D98002846FFF779FC002832D1BBF1000F0DD1AE
:100DA80040493046FFF770FC50BB3F493046FFF7DB
:100DB80089FC0AE00133F0D13D49E2E7BBF1010FBC
:100DC80011D13A493046FFF75FFCC8B9B9F1000FB5
:100DD8000ED134493846FFF757FC88B932493846AE
:100DE800FFF770FC0BE0BBF1FF3FEFD13049DDE7C7
:100DF800B9F1010F3CD12D493846FFF745FC70B3D6
:100E0800DFF89C80DFF8A4B04FF00109D8F80C0097
:100E1800FFF748FA2946FFF78FF9594620F00040B6
:100E2800FFF732FC48B3D8F81000FFF73BFA314619
:100E3800FFF782F9594620F00040FFF725FCE0B1A2
:100E4800D8F81400FFF72EFA3946FFF775F9594616
:100E580020F00040FFF718FC78B1CAF80090019B19
:100E6800002B3FF423AF019ADAF8003013601DE736
:100E7800B9F1FF3FF3D10E49B1E709F10109B9F121
:100E8800070F08F10C08C1D1E9E700BF20090020CD
:100E980040200108002474490AE81C41580D00202C
:100EA800BC220108CDCCCCBECDCCCC3E9A99193F02
:100EB8009A9919BF2DE9F34107460E46234D284656
:100EC80010F091FA00283DD0D5F808803B21D8F8D9
:100ED8000C3028469847044600282FD10D21D8F811
:100EE80010306A4628469847044638BB77B10198BF
:100EF800FFF7D8F91649FFF7DDFA04460098FFF71F
:100F0800D1F901462046FFF719F93860AB680F4858
:100F18001B696A4610219847044678B976B101984A
:100F2800FFF7C0F90A49FFF7C5FA05460098FFF729
:100F3800B9F901462846FFF701F93060204602B0AA
:100F4800BDE8F0816FF01204F8E700BF282001081F
:100F58000024744970B50B4C204610F044FA70B167
:100F6800A5680949AB6820469847002809DB074B64
:100F7800186000212B682046BDE8704018476FF0C4
:100F8800120070BDF81F0108B00400205C0D00209D
:100F980010B5084C204610F026FA38B1064B1968EF
:100FA800A3682046DB68BDE8104018476FF01200C0
:100FB80010BD00BFF81F01085C0D0020F8B53C4DBE
:100FC8003C4FAC6821462046FFF786FB10B1002352
:100FD8003B700CE03B78A3B137492046FFF772FB22
:100FE80028B136492046FFF74FFB0028EFD16C693E
:100FF800334E21462046FFF76FFB78B1002333704C
:1010080019E030492046FFF73FFB28B92E49204612
:10101800FFF758FB0028EAD00123D9E73378A3B1BA
:101028002A492046FFF74EFB28B129492046FFF7F9
:101038002BFB0028E2D1AC69264D21462046FFF75C
:101048004BFB80B100232B701AE04FF07F512046F4
:10105800FFF71AFB28B920492046FFF733FB002881
:10106800E9D00123CBE72B7893B118492046FFF745
:1010780029FB28B116492046FFF706FB0028E1D1D5
:101088003B789BB933788BB9287800F00100F8BD1C
:101098004FF07F512046FFF7F7FA28B90E4920464E
:1010A800FFF710FB0028EBD00123CCE70120ECE789
:1010B80038050020A21E00200000944100000A42CA
:1010C800A11E002000008C4100000E4200002040BC
:1010D8000000F040A01E0020000008412DE9F04F5C
:1010E8008A4B1D781446ED03002285B006460F464C
:1010F800ADB21A70DFF8188286484FF0FF324FF011
:10110800FF330BF06BF8D8F80030D8F804906FF084
:101118000042934214BF03F00F03FF234946484699
:101128001ABF039345F480450393FFF7D5FA0028C7
:1011380076D179494846FFF709F9FFF709FBC3B2A9
:10114800019345F40055D8F8089049464846FFF7FA
:10115800C3FA002867D171494846FFF7F7F8FFF747
:10116800D1FA45F480550FFA80FBD8F80C9049461F
:101178004846FFF7B1FA002858D149464846FEF7D5
:10118800DDFFFFF7E5FAC3B2029345F40065D8F82E
:10119800109049464846FFF79FFA002849D149462A
:1011A8004846FEF7CBFFFFF7D3FA45F480651FFAF0
:1011B80080FAD8F8149049464846FFF78DFA002877
:1011C8003AD156494846FFF7C1F8FFF79BFA45F46C
:1011D80000750FFA80F9D8F8188041464046FFF7A5
:1011E8007BFA60BB4D494046FFF7B0F8FFF78AFA33
:1011F80045F480750FFA80F846480BF067F8039BB2
:1012080000212B4321603A4630461D4610F0DDFD93
:101218002368BB4216D36FF01B0005B0BDE8F08F02
:10122800FF2301938FE747F6FF7B9EE7FF23029397
:10123800ADE74FF6FF7ABCE747F6FF79CBE747F60D
:10124800FF78D9E75A1C22602A0AF2542368BB4265
:10125800E1D25A1C2260AA04F55406D52368BB4281
:10126800D9D25A1C2260019AF254EB040ED5236895
:10127800BB42D0D25A1C22604FEA2B22F254236878
:10128800BB42C8D25A1C226006F803B0280506D50E
:101298002368BB42BFD25A1C2260029AF2546905E5
:1012A8000ED52368BB42B6D25A1C22604FEA1A22D6
:1012B800F2542368BB42AED25A1C226006F803A03F
:1012C800AA050ED52368BB42A5D25A1C22604FEA54
:1012D8002922F2542368BB429DD25A1C226006F888
:1012E8000390EB0501D4002097E72368BB4292D214
:1012F8005A1C22604FEA2822F2542368BB428AD241
:101308005A1C226006F80380EDE700BF040700209E
:1013180038050020E4080020000048420000C842C8
:1013280008B503490348442210F041FD002008BDD8
:10133800D8040020600D002038B5194D0446294610
:1013480004221848A0470422A9181748A0470822D1
:10135800A9181648A04705F1100104221448A0470F
:1013680005F1140110221348A04705F124011022A9
:101378001148A04705F1340104221048A04705F19F
:10138800380104220E48A04705F13C0104220D480B
:10139800A047042205F140010B48A047002038BDB2
:1013A800D8040020F0290108072A01081E2A01088C
:1013B800302A0108432A0108562A0108692A010827
:1013C800812A01089F2A0108BD2A0108F7B50C46A1
:1013D8001546474901AA07461E460CF0D9FE70B1CA
:1013E800019B63B9042C03D06FF0150003B0F0BD66
:1013F800404922463046A84700EAE070F6E73E49F1
:1014080001AA38460CF0C4FE30B1019B23B9042C64
:10141800EAD13A492246EDE7394901AA38460CF0A3
:10142800B7FE30B1019B23B9082CDDD135492246DE
:10143800E0E7354901AA38460CF0AAFE30B1019B15
:1014480023B9042CD0D131492246D3E7304901AA27
:1014580038460CF09DFE30B1019B23B9102CC3D146
:101468002C492246C6E72C4901AA38460CF090FEC2
:1014780030B1019B23B9102CB6D128492246B9E7CF
:10148800274901AA38460CF083FE30B1019B23B9E5
:10149800042CA9D123492246ACE7234901AA38469E
:1014A8000CF076FE30B1019B23B9042C9CD11F4966
:1014B80022469FE71E4901AA38460CF069FE30B162
:1014C800019B23B9042C8FD11A49224692E71A4965
:1014D80001AA38460CF05CFE30B1019B23B9042CFC
:1014E80082D11649224685E76FF001007EE700BFEA
:1014F800F7290108D80400200E2A0108DC0400207E
:10150800252A0108E0040020372A0108E804002001
:101518004A2A0108EC0400205D2A0108FC04002086
:10152800702A01080C050020882A010810050020EF
:10153800A62A010814050020C42A0108180500205D
:1015480008B501F049FA40B9044801F081F920B919
:10155800BDE80840024801F025B908BDC0040020D4
:10156800D22A010808B510480FF03DFF10B96FF0F6
:10157800120008BD0C480FF036FF0028F7D00A48C3
:101588000FF031FF0028F2D008480CF0CAF9002803
:10159800EFD107480CF0C5F90028EAD1BDE80840AA
:1015A80004480CF0BEB900BF681F01082C230108CD
:1015B800242301081C23010802280A4614D80B4BCF
:1015C80053F8203018681979012303FA01F10369E7
:1015D8001B68194203D022B183681B6903E0002A03
:1015E800FAD08368DB681847704700BF10230108EA
:1015F80010B50D480FF0F7FE98B1052001F0B2FFC5
:10160800041E0CDB02F0F0F8044640B9074802F06B
:10161800D5F8074802F0CCF8064802F0DFF8204673
:1016280010BD6FF01204FAE7102001081C05002015
:1016380061D9000865D90008074801230375074BDD
:1016480003619A6812BA026003F10C021C338260CB
:10165800436001F097BF00BFA40D0020680D002073
:10166800014902480FF0B1BF280500207809002081
:1016780073B5144800250FF0B8FF0E23124911481E
:1016880000954FF480520AF0ABFF104B1C68B4B1C0
:101698004FF47A735C434FF48056294640F2E730A2
:1016A8004FF47A720023E4FB0601FFF7C1F84FF408
:1016B8008052CDE90001002305480BF085FD00208C
:1016C80002B070BD78090020C01F0020600D002006
:1016D80098080020F0B585B01C4D01956FF00043C7
:1016E80001A8009302950395FFF752FA00221146CC
:1016F8006B461046FFF7B0FA03A902A8FFF7DAFB1A
:10170800134F144C144E4FF0FF324FF0FF3338464E
:101718000AF064FD009B2360019B02996360706B73
:10172800FEF70CFD039BA060E3602946B06B2561C2
:10173800FEF704FD29466061F06BFEF7FFFCA0612F
:1017480038460AF0C3FD05B0F0BD00BF0000C07FF9
:10175800E408002038050020600D002001490248F7
:101768000FF033BF54050020280A002070B51D4D26
:1017780090B06E68042103A808F05CFB039C6B68BA
:101788000A2293FBF2F394FBF3F203FB1244344472
:101798004FF47A735C434FF4805640F2E7300021EF
:1017A8004FF47A720023E4FB0601FFF741F8024682
:1017B8000B464FF0FF304FF0FF31CDE900010A48EA
:1017C8000BF002FD2B680BB9FFF784FF02AA332147
:1017D80003A8FFF783FC18B9029903A80CF0C8F80E
:1017E80010B070BD600D00206008002037B50121E1
:1017F8000020FFF7E1FE4FF4006000210CF0C0F874
:1018080000210846FFF7D8FE4FF4806000210CF055
:10181800B7F801210220FFF7CFFE4FF40060002146
:101828000CF0AEF800210220FFF7C6FE4FF48060EE
:1018380000210CF0A5F801210846FFF7BDFE4FF482
:10184800C05000210CF09CF800210120FFF7B4FEE5
:10185800FFF7F2FE044600283AD11F480FF0C5FEF4
:101868001E491D4800940E234FF480520AF0B8FE1A
:101878004FF0FF324FF0FF33CDE9002318484FF403
:10188800A04200230BF0A0FCFFF782FB0446F8B946
:10189800FFF794FB0121054680B12046FFF78CFE37
:1018A800152000210CF06CF821462046FFF784FE35
:1018B8004FF4405000210CF063F8E5E70846FFF7C5
:1018C8007BFE152000210CF05BF829460120EDE78E
:1018D800204603B030BD00BF280A00200030002099
:1018E8006008002010B5094C0A44914200D110BD8F
:1018F80011F8013B584003090001E35CC0B24340C2
:1019080018091B01205CDBB25840EEE7D92A010810
:10191800014B1B68184700BF6405002030B585B02F
:1019280004460D4610220021684610F04EFA0223A4
:101938008DF802302A46044B0193214668460BF085
:1019480063FD05B030BD00BF1919000880B5054614
:101958000E46174698460BF0CFF9034610F03EFAAC
:10196800DFF81890044649F80030424630463946B8
:10197800A84754F8090001F07FFA00BF08000000EA
:10198800034A536823F0020353600020704700BFE6
:10199800002004E0064B1A6842F400721A601A68C4
:1019A80042F480621A60034B034A1A6000207047B1
:1019B80000400058F006002000093D00022826D10A
:1019C8004FF0B0420229936823F400439360104B10
:1019D8004FF007029A610ED0032912D0012916D1BF
:1019E8001A6822F007021A600A4A136943F00403CE
:1019F80013610CF0FDBC1A6822F0070242F00102E4
:101A0800F1E71A6822F0070242F00202EBE770479A
:101A18000004005800ED00E0022808B50BD1094B7E
:101A28001A6922F002021A611A6922F004021A6184
:101A3800002008F0D1FD002383F31188BFF36F8FD6
:101A480008BD00BF00ED00E02DE9F7430F4606464C
:101A58000821C06ADFF850900CF0AAF83C68241AF4
:101A680080463C6004EA0905AC4203D8002003B074
:101A7800BDE8F08308236A46214630460CF02FF86B
:101A88000028F4D1694630460CF09CF840B1BDF806
:101A98000230BDF804203C6005EA090513441D44E2
:101AA800A4EB0804E0E700BF0000FFFF2DE9F047C2
:101AB800044688B000F1140738460FF0E1FCA06A2C
:101AC8008368DB689847E06228B96FF015052846F7
:101AD80008B0BDE8F087A06A8368DB6898470368A8
:101AE800013B1F2BF1D8A06A216805AA0EF09DFCC6
:101AF8000028EAD1A589002DE7D0069BB5FBF3F2B3
:101B080003FB1255002DE0D1E389012BDDD9E36AEF
:101B1800009593F804904FF0FF334FF0FF323846AA
:101B28000AF05CFBE06A08210CF042F8A846064679
:101B3800E3891FFA85FA534508D8E389434523D139
:101B480038460AF0C3FB6FF02C05C0E7A1892B04C7
:101B5800891B13FA81F14A460823204600910BF0AD
:101B6800CCFF78B1694620460CF00CF808F1010862
:101B7800009908234A4620461FFA88F80BF0BDFF53
:101B88000028DAD00135D3E753450BD10099082353
:101B98004A46891B20460BF0B0FF18B96946204613
:101BA8000BF0F0FF69462046FFF74EFF054618B1D7
:101BB80038460AF08BFB8AE7009B63604FEA1348BC
:101BC8004FEA0848C4F80880D4E9011399420FD3B2
:101BD800082301AA20460BF082FF05460028E7D11A
:101BE80001AB13F8012B914533D10135082DF8D1FC
:101BF80063681B0C1B046946204600930BF0C2FF68
:101C0800A38900994A4620460BF077FF051ECFDBD3
:101C1800636876D006EB03084FF6FF79A389CDF801
:101C280000801FFA88F29B1B9A422ED3002361681A
:101C3800002B43D0090C09040091204669460BF09B
:101C4800A1FF009920460BF083FF0546002D74D0B4
:101C5800AEE701A920460BF0B5FF626810B9921BE8
:101C68006260B1E7BDF80850BDF80610E06AC4F834
:101C7800088029440BF09CFF40449042A060EED1BC
:101C8800002DECD06FF01C0568E0082303AA41463C
:101C980020460BF024FF0546002889D103A92046D9
:101CA8000BF090FF30B1BDF80C304B4502D1BDF8B8
:101CB80010300BB1B044B1E70123B8E720460BF070
:101CC80047FF054600287FF473AF6368264AA18959
:101CD80013400B44A3EB460363601340A360204604
:101CE8000CF053F8B1E75B1A4A4620460BF005FFA3
:101CF800051EFFF65DAF08D0E26AA36812681344B8
:101D0800A360D4E901318B42EDD86168A38901EB66
:101D180046029A429AD1DFF85080A26801EA080385
:101D28009A4293D020460BF013FF054600287FF413
:101D38003FAF636803EA0803A360A389A288A3EB03
:101D480046039A4206D038460AF0C0FA01232374A3
:101D58000025BCE620460CF001F8054638460AF096
:101D6800B5FA002DF2D0B2E60000FFFF2DE9F04FE2
:101D78001D4691B0037C029104460092002B00F0AE
:101D8800DF80C26A082110460BF012FF2946019035
:101D980010460BF00DFFA389019AA3EB82039D4225
:101DA800074600F2D0801DB1009B002B00F0CB80CD
:101DB8006368059306AA05A92046DDF814A00BF070
:101DC80039FF064600283ED1BDF81830029A9342E2
:101DD80006D06268059B9A42ECD1002D39D132E0D9
:101DE80006A920460BF0EEFE0028F2D0BDF81A80B6
:101DF800BDF81C305DB3AB422BD1E36ADDF800B00F
:101E08001B684FEA1A4A5B424FEA0A4A03F020036A
:101E1800D0440393AA46DDF80C90D14528BFD1469B
:101E28004B4608AA414620460BF059FE002850D1DF
:101E38004A4608A958460FF047FF50B9BAEB090AB5
:101E4800C844CB44E7D1304611B0BDE8F08F002B31
:101E5800F9D0002F40D104F114084FF0FF324FF0B1
:101E6800FF3340460AF0BAF9DFF8E0A0E3899E4262
:101E780063D0D4E90123F9188A4231D3029AADF824
:101E8800223008A8FF23ADF820208DF82630ADF8C1
:101E980024500BF084FE2B46A168009A20460BF0D4
:101EA80013FF29468346E06A0BF082FEA3680344C9
:101EB800A360BBF1000F07D108A920460BF03DFF36
:101EC800002814BF8346AB4640460AF0FFF95E4639
:101ED800B9E7BEDC0646B6E7019B1F44BFB2BAE7C6
:101EE800E06A08210BF064FE4FF6FF73ADF820306E
:101EF80000218DF82630A389ADF82410111802EAC4
:101F08000A021A44101A606008A8ADF822100BF0F3
:101F180046FE08A920460BF010FF211D20460BF0B5
:101F280031FE636803EA0A03A36020460BF02DFF25
:101F380083460028C8D1013698E76FF01B0BC3E72A
:101F48006FF00C067FE76FF015067CE70000FFFFD7
:101F5800014B036000207047342301082DE9F84342
:101F68000546EFF31186102383F31288BFF36F8FB2
:101F78000D4B0E4F1C68DFF838804FF00C092CB958
:101F880086F31188BFF36F8FBDE8F883D4E9012386
:101F9800002D18BF13462BB198F8102009FB02F248
:101FA800B85C98472468EAE7D40D0020C80D0020E3
:101FB8005C1E002070B5144B1C7CBFF35B8F04F0D3
:101FC8001F0301229A40114B610903EB8103D0439F
:101FD80053E8001F01EA000543E80056002EF7D138
:101FE800BFF35B8F0A420ED00C23094E5C433519B0
:101FF800305D6978FFF710FD0020FFF7AFFF002381
:102008003351C5E9013370BD5C1E0020DC0D002092
:10201800C80D00202DE9F041334B07461D7CEFF336
:102028001188102383F31288BFF36F8F0C242F4B72
:102038002F4E6C431A19195D002948D007CA06EBC0
:10204800040C8CE8070000221A5588F31188BFF3A6
:102058006F8F0C236B43F218F05CB0B394687CB1BB
:102068007B1C0DD02348244A4FF4805C00210023B8
:10207800E4FB0C01FEF7DCFB0121381A09F078FDBE
:102088000AF05EFD0120FFF769FFBFF35B8F1B4B72
:102098006A0903EB8203012405F01F0204FA02F225
:1020A80053E8000F104343E800010029F8D1BFF3BB
:1020B8005B8F0C235D437319705D5978FFF77EFCC5
:1020C800FFF778FF0AF050FD2046BDE8F081014691
:1020D800284600F077F820B107C8344484E80700A0
:1020E800B3E73055B1E700BF5C1E0020BC0D0020EF
:1020F800C80D00203F420F0040420F00DC0D0020B9
:1021080030B50E4B002213F8044C844210D113F85A
:10211800034C8C4201D0FF290AD1BFF35B8F53E8EF
:10212800004F013443E80045002DF8D1BFF35B8F21
:102138000132032A03F10803E5D130BD7005002000
:1021480030B50E4B002213F8044C844210D113F81A
:10215800034C8C4201D0FF290AD1BFF35B8F53E8AF
:10216800004F013C43E80045002DF8D1BFF35B8FD9
:102178000132032A03F10803E5D130BD70050020C0
:1021880010B50E4A0023147884420FD154788C423B
:102198000AD10B4ABFF35B8F52F83300BFF35B8F52
:1021A800003818BF012010BDFF29F2D00133032BDE
:1021B80002F10802E7D10020F5E700BF6C05002016
:1021C800700500204B1C2DE9F34718BF364A374EDF
:1021D8001CBF002540F6FF730C461FBF2946C4FBF1
:1021E80002311B0B43EA015401A908BF254600F040
:1021F80061F87368002B804612DB09F025FDD6E9EB
:1022080000321E1A62F1000798424FF00003934112
:1022180002DB013E47F10007012E77F1000302DAE5
:1022280026462F4609E0B5F1FF3F08BFB4F1FF3F4E
:1022380003D0B44275EB0703F2DB08F1FF331BB29E
:1022480003EB4303DFF868A044469D004FF03009D4
:1022580024B9A046404602B0BDE8F087019B03EBD5
:102268000508585D98F80110FFF78AFFC0B9DAF839
:102278000010D8F80430D8F80820002909FB03F327
:1022880009FB02F201DB91420AD9B7F1FF3F08BF0F
:10229800B6F1FF3FDED013449E4277F10003D9DA4E
:1022A800013CA4B20C3DD3E7006CDC020000002026
:1022B8006805002001289FBF044B53F820300B60AD
:1022C800034B94BF185C0020704700BF34230108FB
:1022D800E92A010870B544690D46002C3FD0244A0C
:1022E8002379565CB3423DD0224A525C9A423CD193
:1022F800A3689847002814DA022D10D0032D0FD1B7
:1023080010F1860F0BD0BFF35B8F54E8003F43F00A
:10231800020344E80032002AF7D1BFF35B8F26712D
:1023280070BD022D267101D00020F9E7BFF35B8F45
:1023380054E8003F23F0040344E80032002AF7D1B0
:10234800BFF35B8FBFF35B8F54E8003F23F00203BA
:1023580044E80032002AF7D1BFF35B8FE4E76FF05F
:102368005700DDE76FF07700DAE76FF08500D7E711
:10237800EF2A0108EB2A01082DE9F84388460521D0
:1023880005460BF063FE17461E46044638B3DFF8D1
:102398007C9099F8001029B30FF04CF94FF0FF33F7
:1023A800421E43F1000305F118000BF058FE041E0D
:1023B80029DB4146EB681BB3013BEB6043B999B19C
:1023C80002232B713A46334605F140000AF070F9B2
:1023D80099F800301BB105F118000BF042FE2046B9
:1023E800BDE8F8830C46E5E7AB6868699847041EC2
:1023F800B7BFEB6801230133EB60A8BF2B71E7E798
:102408006FF07704E4E76FF00F04E8E7B11F0020EE
:102418002DE9F3474569064625B90024204602B050
:10242800BDE8F087052128460BF010FE0028F4D0FF
:10243800706908210BF00AFE074660B3EFF31187B5
:10244800102383F31288BFF36F8F7569EA682B68CE
:10245800E2B95A070AD4AB68012130469847041EEE
:102468000EDA87F31188BFF36F8FD7E728694369BE
:102478001B681B070CD5FFF7CBFF041EEBDAF0E750
:1024880000232B71EB680133EB60EAE70024F9E7DE
:102498006FF00A04E5E73F4E347854B10FF0CAF8FC
:1024A800421E67F1000305F118000BF0D8FD041E69
:1024B8006DDB0FF0BFF810B12B79022B0ED02F690E
:1024C80017B33846FFF7A4FF044648B90121284648
:1024D8000BF0BCFD60B138460BF0C5FD6FF00A0487
:1024E8003378002B9AD005F118000BF0BAFD95E768
:1024F800BFF35B8F55E8003F43F0040345E8003223
:10250800002AF7D1BFF35B8FEB680133EB602B79BF
:10251800022B08D105F140000FF079F810F0010006
:1025280001D12871DCE7337843B105F130074FF06A
:10253800FF384FF0FF392B79022B10D0EB68012BB5
:10254800CED8AB68686901219847041EB7BFEB680D
:10255800002303F1FF33EB60A8BF2B71C0E7032111
:10256800384605F1180A0FF0A0FB50460BF079FD2C
:102578000022CDE90089032138460FF09AFB4FF07D
:10258800FF324FF0FF3350460BF069FDD3E76FF091
:102598000A0443E7B11F0020F8B545690646002D37
:1025A80061D0052128460BF051FD00285ED1304648
:1025B8000BF023FD044600285AD1706908210BF05E
:1025C80045FDE0B17569EFF31187102383F3128895
:1025D800BFF36F8F297931B9AB6830469847041E2D
:1025E80007DB01232B712B6843F020032B600023AA
:1025F800EB6087F31188BFF36F8F2046F8BD1E4F3D
:102608003B783BB14FF0FF324FF0FF3305F1180034
:102618000BF025FD6B692BB918496E6105F1400077
:102628000EF0E9FF2979E1B9AB6868699847041E9B
:102638000FDB01232B710023EB60BFF35B8F55E8A1
:10264800003F43F0200345E80032002AF7D1BFF3EA
:102658005B8F3B78002BD0D005F118000BF001FD03
:10266800CBE70024E7E76FF08504C6E70024C4E75A
:102678006FF00F04C1E700BFB11F0020C9E00008D8
:1026880070B5114B1C680D46DCB1104B196800235E
:102698008B4202DB6FF0010070BD224612F8106B0E
:1026A800864202D001331446F2E7E06810B96FF0B1
:1026B8001200F1E70EF097FE0028F8D02C600020F9
:1026C800EAE76FF00C00E7E78405002060230108C3
:1026D80070B588B005460C46C0B269461646FFF785
:1026E800CFFF00281BDB0098C8B1436802938368BA
:1026F80022680195CDE903360023CDE90623059329
:10270800C5680BF022FD6DB12846084901AA0DF0F5
:1027180090FE079808B9059B236008B070BD6FF05C
:102728001500FAE76FF01200F7E700BF55E100085F
:102738002DE9F0410F4B1C6805460E461746ACB113
:102748004FF0FF324FF0FF330B4809F047FD636845
:102758003246D3F8088029463B462046C0470446FF
:10276800054809F0B3FD2046BDE8F0816FF001048B
:10277800F9E700BFE00D00203409002000230360C2
:10278800044B5A6812B9C3E90000704710605860DA
:10279800704700BFE40D0020014B1860704700BF70
:1027A800E00D002030B585B000230546CDE90233A1
:1027B80001904FF0FF330C484FF0FF3209F00EFD47
:1027C8000A4B1C684CB9284600F0CEF80446064867
:1027D80009F07CFD204605B030BD636820461B68C3
:1027E80001A998472468EDE734090020E40D00208A
:1027F8001FB5CDE9010103924FF0FF330A484FF0AE
:10280800FF3209F0EBFC094B1C682CB9064809F0AB
:102818005DFD204604B010BD636820461B6801A911
:1028280098472468F1E700BF34090020E40D002030
:10283800024B0022C3E90022704700BFE40D0020CC
:10284800024B0022C3E90022FFF7F2BFEC0D002083
:1028580070B51B4C1B4E0546B44212D31A4E1B488A
:102868004FF0FF324FF0FF3309F0B8FC34687CB109
:10287800286854F8141C143CFEF757F9C8B1646969
:10288800F5E721682868FEF750F9A8B11434E3E7A2
:1028980000226A61726805F114033AB9C6E9003387
:1028A80000240A4809F012FD204670BD13607360C9
:1028B800F6E76FF01004F4E76FF01004F4E700BFD8
:1028C8004822010848220108EC0D002034090020A4
:1028D8002DE9F74307460C4609B100230B601F4D4D
:1028E800DFF87C9000264D450FD31E4B1D6885B33D
:1028F80055F8148C01AA41463846143D0BF048FCA3
:1029080010B3D6B914BB2E461EE0D5F8008001AA34
:10291800414638460BF03CFC50B116B954B92E4626
:1029280006E03168002240460BF032FC0028F5D161
:102938001435D8E7019B2360F1E73168002240464F
:102948000BF026FC0028DDD16D69D0E7019B2360E0
:10295800D9E7304603B0BDE8F08300BF482201083C
:1029680048220108EC0D0020F8B5184C184F06460F
:102978000025BC4208D3174B1C682CB3143CB6B9CD
:10298800E368E3B96469F8E72EB9E3685BB92846F8
:1029980014340546EDE72068002231460BF0F8FBB9
:1029A8000028F2D1F3E79847002DF0D1F0E720682E
:1029B800002231460BF0ECFB0028E1D1E2E7984712
:1029C800002D08BF0546DDE72846F8BD4822010866
:1029D80048220108EC0D002038B50C4D0C484FF08A
:1029E800FF334FF0FF3209F0F9FB2B783BB9FFF7C3
:1029F80027FF00F06DF8044610B901232B7000245E
:102A0800034809F063FC204638BD00BFA31E002020
:102A1800340900202DE9F047048FDFF8B0A0013415
:102A280098B006468946A4B200F10807651EADB203
:102A3800B5F5004F47D04A2305AA294638460BF07A
:102A4800D5FA04F57F543F34A4B2804621460123C9
:102A58000DF10B0238460BF0C9FAB8F1000F014628
:102A680010DC002810DC338FAB4209D132466B1ED4
:102A780022F8383F4FF4004102233846FFF776F931
:102A88002C46D3E7002808DC294638460BF04AFADA
:102A9800214638460BF046FAE5E708F160030DEBEE
:102AA8000308002308F84C3C5246CDF8009003ABCD
:102AB80005A80397ADF810400BF08EFB0028DFD077
:102AC80018B0BDE8F0870020FAE700BF4FE2000821
:102AD8007FB50123694603200193FFF7D1FD044622
:102AE80060BB02AA01A90320FFF7F2FD044610B15A
:102AF80010F10C0F22D10399B1F5803F23D2009A2F
:102B0800002394681846084484421AD30133082BDA
:102B1800F9D10E4DA982EB825368AB602846D36881
:102B2800EB630BF028FC044640B9094E6E6028465A
:102B3800FFF724FE28466E60FFF72EFE204604B0FD
:102B480070BD9BB2E5E76FF02004F7E7F40D0020B5
:102B58008805002030BFFFF7FDBF00BF2DE9F04119
:102B68000B4EDFF8308006EB0807CC1B05463246D3
:102B7800094920460FF01BF9A01942460021083CDC
:102B88000FF023F9C5F8844007F10800BDE8F0818B
:102B9800000000000400000048220108074A93686A
:102BA80093F90E10002907DB926993421FBF044A6C
:102BB800536843F080535360704700BF5C1E002089
:102BC80000ED00E070B5204B15469A6A12F0100F20
:102BD8009A6A14BF1124102412F0080F9A6A18BFB9
:102BE8001224920706460AD5586B9A6A140628D505
:102BF80019B19A6A22F080029A62132401E06FF0F8
:102C08001500114B9A6A12F0010F9A6A18BF142422
:102C1800D10602D49B6A9A070AD50B4B5B681B0541
:102C280006D5314600F024FA10B180F30988022451
:102C3800054A936A43F0FF03936200232B702046F2
:102C480070BD6FF01500D8E700ED00E0134B9A6AED
:102C580012F0007F9A6A14BF1E201D2012F0807F98
:102C68009A6A18BF1F2012F4002F9A6A18BF2120F1
:102C780012F4802F9A6A18BF222012F4003F9A6A31
:102C880018BF232012F4803F9A6A6FEA02426FEA63
:102C980012429A6218BF2420704700BF00ED00E07E
:102CA80010B5164B9A6A9C6A12F4805F14BF1722FB
:102CB800162214F4006F9C6A18BF1822A40509D5BF
:102CC8009A6B9A6A120404D518B19A6A22F40042DF
:102CD8009A621922094B986A10F4806F986A18BF93
:102CE8001A2210F4807F986A40F47F4098624FF06F
:102CF80000030B700CBF10461B2010BD00ED00E058
:102D0800F0B5484B5B688BB00446C3F30803002555
:102D180085F31188BFF36F8F02F07F40B0F17F4FCA
:102D280011D102F00C0008280DD010074CBF0C463A
:102D380001250022033B8DF80720032B05D8DFE887
:102D480003F0246367602C46F3E700239DF807200F
:102D5800CAB902AE04F1200720686168324603C28E
:102D68000834BC421646F7D1099A002D54D0C2F354
:102D7800080121B96FEA52226FEA4222099202A998
:102D880018460BF019FB0BB0F0BD264BDA6A910719
:102D9800DBD4DA6A002AD8DBDA6A5200D5D55A6958
:102DA800A16942F480725A61BFF34F8FBFF36F8FEE
:102DB8005A6931F8021C22F480725A61BFF34F8FAE
:102DC800BFF36F8F4DF6027291420AD09A6AD2B25F
:102DD8004AB10DF1070201212046FFF7F3FE034631
:102DE800B4E72368B2E79A6A12F47F4F05D00DF171
:102DF80007010120FFF754FFF1E79B6AB3F5803F15
:102E0800A3D3FFF723FFEAE70DF107020021E3E769
:102E18000DF107010020EDE722F4FF7222F0010214
:102E2800ACE700BF00ED00E0024A536943F010032D
:102E38005361704700ED00E0EFF30880EFF309817C
:102E480001B57246FFF75CFF01BD00BF102080F39B
:102E5800118808484FF48251401880F30988EFF32D
:102E680014800221084380F31488BFF36F8F00F0A9
:102E7800CDF8000040400020084B9B6883420BD1EE
:102E8800EFF3058343B1064B5A6842F080525A600B
:102E98005A6A22F400425A620EF0C6BC5C1E002038
:102EA80000ED00E00A4A93686FF00A01C3F88C103D
:102EB8000849C3F888004B6843F080534B600023EF
:102EC80083F31188BFF36F8F9368D3F88C00704732
:102ED8005C1E002000ED00E010B50446EFF31183FE
:102EE800102383F31288BFF36F8F0C4B9869986097
:102EF8000B4B4FF000625A600A4BD0F884201A60DE
:102F08000022D0F88830C0F8882083F31188BFF3F6
:102F18006F8F00F021F9204610BD00BF5C1E002015
:102F280000ED00E0340E00200B498A684FF03000B5
:102F38001044EFF3098C80E8F01F74467046FFF7E1
:102F4800CBFFA64604498A6802F1300090E8F01FDA
:102F58008CF30988704700005C1E00201EF0040FE7
:102F68000CBFEFF30880EFF30980816911F8021CA8
:102F78000229FFD001B50BF025FA01BD40B20028A7
:102F880007DB044A4109012300F01F00834042F88F
:102F98002130704700E100E040B200280CDB430913
:102FA800064900F01F0020330122824041F8232007
:102FB800BFF34F8FBFF36F8F704700BF00E100E092
:102FC800054B420900F01F0053F82220012303FAA1
:102FD80000F01040704700BF00E100E040B2002858
:102FE800A8BF00F1604001F10101B8BF064B4FEAEC
:102FF8000111ACBF00F5614000F00F00C9B2B4BFC9
:10300800195480F80013704714ED00E008B5084B18
:10301800084A23F07F039360BFF34F8FBFF36F8F8E
:1030280009F002F809F006FF00F062F809F04AF822
:103038000000000800ED00E042F8203C009B42F848
:103048001C3C0A49019B42F8183C029B42F8143C7C
:1030580021F001014FF0807342F8043C42F8081C4B
:103068000023203A0265C0F88830704755190008D7
:10307800094A0346906870B113F1160F406F05D0E6
:10308800A0F140029A4205D8834203D2814228BF68
:1030980000207047002070475C1E002008B51546C8
:1030A8000C4A0D4B9060D0F884201A600E4600F050
:1030B80053F82C4686F309884FF00000074B9847D1
:1030C80020464FF000014FF000024FF00003044C7F
:1030D800204700BF5C1E0020340E0020EBE30008F0
:1030E80055190008014B10221A61704700ED00E0E5
:1030F800044800231021C21801333E2B82F8001324
:10310800F9D1704700E100E008B572B60A4B5A6978
:103118001AB100225A610EF0A4F962B6EFF30583E2
:10312800064A103B02EBC30152F83300496888474E
:10313800BDE80840FFF732BD5C1E0020582001089A
:10314800024B034A0348012100F076B80000012031
:1031580000000020A4230108426F054B403A1A6082
:10316800044A4021C3E901121846012100F06EB853
:10317800380E002000000B15084AC2F898000B68AA
:1031880023F01F03034343F01003C2F89C308B68FD
:1031980043F00103C2F8A030704700BF00ED00E023
:1031A8002DE9F043DFF8608085B00E461F460446DF
:1031B8004FF00009B14523DA6068D8B13FB1411E2C
:1031C80008421BD11F2819D92368194216D1236830
:1031D80001930BF01AF9A36803430393D8F89050AE
:1031E800C5F30725D0B2013DA84207D801A9FFF7CA
:1031F800C3FF421C09F101090C34DBE76FF015022B
:10320800104605B0BDE8F08300ED00E0044B052250
:10321800C3F89420BFF34F8FBFF36F8F704700BF81
:1032280000ED00E0BFF35F8F024B0022C3F894204B
:10323800704700BF00ED00E010B5034C0123227871
:10324800FFF7AEFF207010BDA41E002008B50B4A82
:1032580000231278FFF7A4FF10F1160F07D0084AD1
:103268000021D2F89030C3F30723984200DB08BD51
:10327800C2F89800C2F8A0100130F2E7A41E00209E
:1032880000ED00E02DE9FF41524B534CD3F890304C
:103298002568C3F307239D4200F29980FFF7C2FF18
:1032A80000200C26854218D14C4C4D4F257068469D
:1032B800FEF74EFEDFF81C8106460025AE4213D10C
:1032C800237844490020D1F89020C2F30722934282
:1032D80077DBFFF79BFF00201CE0616806FB00110D
:1032E800FFF74AFF0130DDE7009800EB05114FEAD0
:1032F800051CCB683B40B3F5000F50D00DD8B3F593
:10330800001F36D0B3F5800F3ED0B3F5801F13D021
:103318006FF0150004B0BDE8F081B3F1807F47D0AD
:10332800B3F1007FF4D150F80C3088684A680BF08C
:103338006CF840F4802009E050F80C3088684A683E
:103348000BF063F840F0885040F43020CDE90123B9
:103358000390D8F890302078C3F30723013B9842B4
:10336800D6D801A9FFF708FF237801332370013568
:10337800A4E750F80C3088684A680BF046F840F02B
:10338800885040F40020E1E750F80C3088684A681B
:103398000BF03BF840F0007040F40030D6E750F8EE
:1033A8000C3088684A680BF030F840F08270CDE73E
:1033B80050F80C3088684A680BF027F840F088709D
:1033C800C4E7C1F89830C1F8A00001337BE74FF09B
:1033D800FF309FE700ED00E0B0230108A41E0020A5
:1033E8000000F0FF08B50649064821F00701C1F1C1
:1033F800005202F580320AF023FB002008BD00BF0E
:1034080047910020440E0020024B1B6803B1184767
:10341800FF207047540E00200A4B0B4A0020C3E9D6
:1034280000000A4B1A600A4A5A600A4A9A600A4A15
:10343800DA600A4B0A4AC3E900200A4A9A600A4A33
:10344800DA607047780E002041350008680E0020C9
:10345800E1340008AD34000833E40008580E0020B9
:10346800113400080539000835E4000810B58AB0A1
:103478002D23044668468DF8003003F08DFD074A79
:103488009DF9043011788B4200D12CB1D8B2044B8D
:1034980010701B6803B198470AB010BDA81E002021
:1034A800500E002010B543788AB0044643B903781B
:1034B800012B05D1072368468DF8003003F06CFD19
:1034C800034B62781A70034808F03CFF0AB010BD3D
:1034D800A51E002060090020F7B50546407828BBE6
:1034E800134B1B780BB1FFF7C1FF124B1C68ECB1F3
:1034F800083C4FF6FF772388E878BB4201D0834227
:1035080010D16979AB6801932B7B009301F1FF3CE3
:10351800DCF10001666895F91030B5F90E2041EB31
:103528000C01B047A4680CB1083CE4E703B0F0BD57
:10353800A71E0020780E002010B5074B1B78044604
:1035480013B10020FFF792FF044B62781A70044809
:10355800BDE8104008F0F6BEA71E0020A61E0020F9
:1035680048090020052801BF044B1870044B0122AC
:1035780006BF00201A706FF085007047060700200C
:103588000507002070B504469AB04FF0FF324FF09F
:10359800FF33554808F022FE00261D2306A88DF8A3
:1035A80018308DF81C6003F00FFE257D002D45D1E5
:1035B80001238DF804304D4B1B788DF80930022318
:1035C8008DF808308DF8403010A82369119303F066
:1035D800FBFD03238DF8403010A82368119303F0F6
:1035E800F3FD09238DF8403010A86368119303F0A8
:1035F800EBFD08238DF8403010A8A368119303F061
:10360800E3FD01A804F004F950B100F023F90446E1
:10361800002853D0344808F059FE20461AB070BD2F
:103628004FF0FF3332484FF0FF3208F0B1FE314B14
:103638001878002842D000F01FF9E8E7012D4FD193
:1036480035238DF8403010A82B4B119303F0BCFDA7
:10365800062310A88DF84030119603F0B5FD072316
:103668008DF8403010A82368119303F0ADFD0C23AA
:103678008DF8403010A8A368119303F0A5FD0D2321
:103688008DF8403010A8A368119303F09DFD0E2318
:103698008DF8403010A8A368119303F095FD0F230F
:1036A8008DF8403010A86368119303F08DFD10A8C1
:1036B8008DF840508DF8445003F086FD0F4B1B7871
:1036C8004BB92D238DF84030084B10A81B788DF886
:1036D800443003F079FD0120FFF7C8FE002499E784
:1036E8006FF0150496E700BFF8080020A91E002017
:1036F80060090020A51E002000030001A71E00206D
:10370800F0B5074687B015461C460E4609B9002A8B
:1037180043D123484FF0FF324FF0FF3308F05EFDEE
:103728006946284603F0D6FBA8B100238DF804307B
:103738000393ADF81030012501A88DF8123004F07C
:1037480049FFC0B100F086F80446154808F0BEFDF0
:10375800204607B0F0BD5CB1012C09D0114BADF883
:10376800105093F900308DF8087003960025E3E7B0
:103778008DF80440F2E74FF0FF330B484FF0FF326B
:1037880008F006FE094B187808B100F075F8002D0E
:10379800044618BF6FF00A04D7E76FF01504D7E79F
:1037A8000C090020A81E002048090020A61E0020A1
:1037B800014B1860704700BF540E0020002383603F
:1037C800054B596800F1080211B9C3E90022704796
:1037D8000A605A60704700BF780E0020014B1860DD
:1037E800704700BF500E002030B5154D15492A7896
:1037F80015488FB003F0A4F918B16FF015000FB099
:1038080030BD0AF025FE00F099F803F059FB044694
:103818000028F2D1062302A928788DF808300CF088
:1038280057F90A4BC0B21870094B187030238DF83D
:10383800103004A81423059303F0C6FC2046DEE7E5
:1038480006070020580E0020680E0020A91E002040
:10385800A81E00201628034608D8064A52F8200059
:1038680030B9002B18BF6FF0150070476FF01500C6
:10387800704700BF102401080F28034608D8064ADD
:1038880052F8200030B9002B18BF6FF015007047B0
:103898006FF01500704700BFD02301082DE9F84FDD
:1038A800DFF8549006460C461746984600254FF018
:1038B800140B0BFB05F3314659F8030003EB090A17
:1038C800FDF733F9A0B9DAF80C300A991944DAF897
:1038D8000830A34203D06FF01500BDE8F88F002927
:1038E800F9D022464046B8478442F4D10020F4E794
:1038F8000135072DDDD1F9E76C240108F0B506463E
:103908008BB0B8B1342368468DF8003003F044FB1F
:10391800044678B9019F084D2B8AB34305D1D5E9F0
:10392800022168683944FEF703FF0134072C05F1CA
:103938001405F1D10BB0F0BD6C24010830B58BB083
:10394800342568468DF8005003F026FB20B16FF04F
:10395800150420460BB030BD019A07490748FEF709
:1039680047FF04460028F4D168468DF8005003F05C
:103978002BFC0028EDD0EAE7A5380008022B010847
:10398800014808F027BE00BF9C050020014B1860C5
:1039980059607047800E0020024B1A685B6802600D
:1039A8000B607047800E002008B50AF055FD024BE9
:1039B8001B68C01A08BD00BF880E002001480DF022
:1039C800C4BF00BF2808002007B5014640F2E73011
:1039D8004FF47A72002300EB0130090DFCF728FF41
:1039E80002460B4600210020CDE90001024809F0FB
:1039F800EBFB03B05DF804FB2808002008B50AF0CB
:103A08002BFD014B186008BD880E0020014B18687B
:103A1800704700BF880E00202DE9F347274C9A46CF
:103A2800D4E9019307460D4616467BB1244B002086
:103A38005B6B9847CDF800A0D4F80880206833461F
:103A48002A463946C04702B0BDE8F08704F1400273
:103A58000223BFF35B8F52E8001F012903D142E81C
:103A680000300028F7D1BFF35B8F9046EBD1A36CF1
:103A78001A78AA4288BF1D70A36C606C1A78394600
:103A88000EF095F9E36C03B11E80236D0BB183F83A
:103A980000A00B4BDB6A984700216160BFF35B8F86
:103AA80058E8003F48E80012002AF9D1BFF35B8FBD
:103AB800484602B0BDE8F04709F018BC8C0E00205B
:103AC8001426010810B5124CBFF35B8F022354E88B
:103AD800002F012A03D144E800310029F7D1BFF3B0
:103AE8005B8F0CBF0120002010D10A4BDB6A98477E
:103AF800002344F83C3CBFF35B8F54E8002F44E8B4
:103B080000310029F9D1BFF35B8F012010BD00BF40
:103B1800CC0E00201426010810B5064B5C68FFF790
:103B2800D1FF30B12CB100212046BDE8104009F08A
:103B3800DDBB10BD8C0E002070B50D460F49BFF3DC
:103B48005B8F012051E8004F002C03D141E80006AB
:103B5800002EF7D1BFF35B8F0CD1094E41F83C3CE6
:103B6800D4B2736D214698472846B36A21469847D0
:103B7800002070BD6FF00F00FBE700BFCC0E0020E7
:103B8800142601082DE9F0474FF000088EB005AC67
:103B9800284F81468A4615464146102209A8012623
:103BA800CDE90544CDE907880EF00FF98DF83160AD
:103BB8003B6B0D94002B3AD023462A465146484683
:103BC800FFF7BAFF041E2EDBEDB2CDE9018503969F
:103BD8003B8F194C009397F8363097F8352097F8B3
:103BE8003410646A3046A047014640F2E7304FF48B
:103BF8007A72002300EB4130C1F3CB41FCF718FE89
:103C080002460B46314609A809F018FB041E0ADAD9
:103C1800FFF758FF38B94FF0FF324FF0FF33314606
:103C280009A809F00BFB20460EB0BDE8F0876FF03D
:103C38001504F8E78C0E002014260108F0B58DB0A5
:103C480000248DF8072003AE0F461022214607A84E
:103C5800CDE90366CDE9054401250EF0B6F81F4B02
:103C68008DF829500B96BFF35B8F53E8002FA242C3
:103C780003D143E800510029F7D1BFF35B8F29D165
:103C88000DF1070243E90F649A60154E149ADA6041
:103C9800159A1A615F60FF21736D28469847736B08
:103CA80020469847DDE91223294607A809F0C6FAF5
:103CB800041E0ADAFFF706FF48B94FF0FF324FF04B
:103CC800FF33294607A809F0B9FA9DF807402046AE
:103CD8000DB0F0BD6FF00F04F9E700BFCC0E002067
:103CE8001426010810B529B9FFF7ECFED0B96FF01A
:103CF800150010BD0E4BBFF35B8F012053E8002F5A
:103D0800002A03D143E80004002CF7D1BFF35B8FEE
:103D18000AD1084C43F8381C636DFF219847636B40
:103D2800002098470020E4E76FF00F00E1E700BFAC
:103D3800CC0E002014260108F0B52C4DBFF35B8F84
:103D48008BB00C46012755E8003F002B03D145E80E
:103D58000072002AF7D1BFF35B8F43D1244E20684D
:103D6800F3689847E37A4BB32346103D04F11007F4
:103D7800186859682A4603C20833BB421546F7D16A
:103D88004FF47A63089300220120237B0793CDE93F
:103D98000522CDE9032023890293A379019363794E
:103DA8000093F569237994F90A10A847B36D607BED
:103DB8009847FFF787FE00200BB0F0BD0997227BDC
:103DC800B569CDE90732CDE90533CDE903330A22D8
:103DD80002922289CDE900323846A37962792179A5
:103DE800A847E3E76FF00F00E6E700BFCC0E00201E
:103DF8001426010838B5084611461A460B4BBFF37E
:103E08005B8F012453E8005F002D04D143E8004C88
:103E1800BCF1000FF6D1BFF35B8F04D1044BDB6B11
:103E28009847002038BD6FF00F00FBE7CC0E00204C
:103E38001426010838B5104BBFF35B8F002453E8F4
:103E4800002F43E800410029F9D1BFF35B8F0B49EC
:103E58000B4D43F8341C0B4943F82C1C0A4943F812
:103E6800301C2A6843F8400CA3F134009047EB6AF1
:103E78009847204638BD00BFCC0E0020213B0008E3
:103E880014260108213A0008EFE4000810B5094C8F
:103E9800E3696BB100209847074B1B6E03B1984745
:103EA80094F8203023B1BDE81040024800F0ECB887
:103EB80010BD00BFE00E00201426010838B54FF4ED
:103EC800B0114568044615480AF00FFB10B16FF0B1
:103ED800040038BD12484FF4B0110AF006FB002860
:103EE800F5D1104810490DF054FB204600F0D6F8E3
:103EF8000028EED128680DF076FA10B96FF012009C
:103F0800E7E7E86828B92046FFF794FF00EAE07081
:103F1800DFE70DF068FA0028F5D1EFE7282501085A
:103F280030250108EC0E0020953E000801480121CB
:103F38000AF004BB28250108014800210AF0FEBA4E
:103F480028250108014B93F820007047E00E002057
:103F580008B50346074880F820303BB1042B07D149
:103F68000121BDE8084004480AF0E8BA0AF0BAFBA3
:103F78000021F6E7E00E002030250108014BD8614A
:103F8800704700BFE00E002010B5044C20460AF030
:103F98008EFB012384F8203010BD00BFE00E002006
:103FA80010B5054C204600F067F800B910BD002197
:103FB800052008F083FEF5E7E00E002070B58CB010
:103FC8000D46DDE91061CDE9063104ABCDE9040207
:103FD800CDE90852009308AA02230446CDE90A61F4
:103FE800CDE9022301930AF097FC0B486DB966B935
:103FF80083680A491D686A463346A8472378842B94
:1040080001D0FFF7CDFF0CB070BD836803491D6870
:10401800014802AB6A46F0E7E01F010814250108D1
:1040280070B50F4C86B0204600F02EF8C023ADF8CE
:10403800043001AB029302230393012502AB0493DE
:10404800059508480849836804AA1E680023B047F4
:10405800002803DBFFF7A4FF84F8205006B070BDEA
:10406800E00E0020E01F01081425010801480AF0AD
:1040780037BB00BFE00E0020024B5869C0F3400078
:10408800704700BF00040058034B4FF48022C3F868
:1040980084213220FEF772BF00E100E0002208B55B
:1040A80011463220FEF79AFF054AD2F8903043F4C1
:1040B8008053C2F890303220FEF760FF002008BD20
:1040C80000080058074B08491A6843F2390001FBF9
:1040D800020018606FF00043B0FBF3F3C3EBC37347
:1040E800C01A7047AC0500206D4EC641014B1860E0
:1040F800704700BFAC05002030B530B10A4D01440F
:104108004FF0FF33814201D1D84330BD10F8012B65
:104118005340082243F30004013A2C4092B284EA47
:104128005303002AF6D1EDE72083B8ED044A13685B
:104138000BB100215972436110600AF0A6BB00BFA1
:10414800040F002037B5044601A80AF0BDF96CB188
:10415800174D2A68134673B96368236001232381C6
:104168006AB9FFF74BFC2046FFF7E0FF01A80AF009
:10417800B4F903B030BD9C42F8D05B69EBE7FFF7B8
:1041880013FC236818442B6820601A689042EAD30D
:104198005A69596911B95C616161E7E71168884238
:1041A80002D913465269F4E75C616261DEE700BF39
:1041B800040F0020F8B5FFF729FC1C4C0546FFF753
:1041C8001DFC2368A3B1471B1E462D1A716929B926
:1041D8005A692260DA68197242B9FEE70A68BA4277
:1041E8008CBF521900220A607669EFE71869904778
:1041F800002623682BB9206880B9F8BD1869904754
:10420800F7E71D68FFF7D0FB8542F4D223685A69A7
:104218002260DA681E72002AF0D1FEE7437A002B8A
:10422800EBD1BDE8F8400AF030BB00BF040F002016
:1042380037B5134D044601A80AF046F92B686BB14F
:1042480064B10022A342227211D1597A5C6961B12A
:104258005A7244B120462C600AF017FB01A80AF0F4
:104268003CF903B030BDFFF7A9FB2C60F6E71A460E
:104278005B69002BF2D09C42F9D163695361EDE789
:10428800040F002007B5074B1B7840BAADF80400AF
:104298002BB9022201A940F2BC600AF0BDF903B0B3
:1042A8005DF804FBAC1E002007B5074B1B7840BA2D
:1042B800ADF804002BB9022201A940F2BE600AF051
:1042C800ABF903B05DF804FBAC1E002010B50C4B35
:1042D8001B7804469BB94FF4D7600AF0D2F9C4F3AF
:1042E800002100F0FE0001434FF4D7600AF0A8F95E
:1042F800E1B240F2B960BDE810400AF0A1B910BDC2
:10430800AC1E002013B50446FFF716FE04F00703A1
:1043180014F004048DF8073008BF084B4FF0010271
:104328000DF107014FF0840008BF1C700AF054F922
:104338000020FFF70DFE02B010BD00BFAA1E00202E
:1043480010B50446FFF720FE2046FFF717FEFFF7DB
:1043580067FE00200AF0FFFA0AF008F90AF012F9DD
:10436800034B00221A70BDE810400120FFF7F0BD92
:10437800AA1E0020134B984207B50BD94EF6E1133D
:10438800ADF80430022201A998200AF025F903B0FB
:104398005DF804FB0C4B984202D94DF6D733EFE792
:1043A8000A4B984202D94CF2C153E9E7084B9842AC
:1043B80002D948F27513E3E7064B9842E2D946F66C
:1043C8006B73DDE700E9A43580F8A9328044E52D58
:1043D800000B6B1B40FC541937B5104D2B78044665
:1043E8001BB9FFF7C7FF01232B7043F6095241F6AB
:1043F8008463B4FBF2F102FB114403EB8433B3FB97
:10440800F2F3042203EB81331BBA0DEB0201862081
:1044180001930AF0E1F803B030BD00BFAA1E0020E6
:1044280007B5064B8DF80700187001220DF107013A
:104438008A200AF0D1F803B05DF804FBAC1E002016
:10444800014B1878704700BFAC1E002013B5224AF4
:104458000446516810686B4603C3204B20781B78CC
:10446800834201D0FFF7DCFF23781BB1012B2ED04C
:1044780002B010BD62681A4BB3FBF2F31A0C8DF848
:1044880000201A0A8DF801208DF80230A268237BDB
:104498008DF8033043F60951637BB2FBF1F08DF8D8
:1044A800043001FB102241F6846303EB8233B3FB33
:1044B800F1F303EB80331A0C5BBA8DF80520ADF8E5
:1044C8000630082269468B200AF086F8D0E723696F
:1044D80000930422F6E700BFA0220108AC1E0020CA
:1044E8000000093D1FB52B4A0446D1689068127C2C
:1044F80001AB03C31A70284B20781B78834201D084
:10450800FFF78EFF23781BB1012B31D004B010BD0B
:10451800637AF12B20D14FF6FF70FFF7B3FE48F214
:104528000500FFF7C1FE02236288A188ADF80610D6
:1045380052BAE188ADF804208DF80B30227AA37ABC
:104548008DF80A20ADF808108DF80C30092201A961
:104558008C200AF041F8D9E7F22BE5D141F60F504B
:10456800FFF790FE41F22100FFF79EFE0623DBE7EE
:10457800A3890A4A5BBAADF80430A37B13708DF89F
:104588000630E37B8DF80730238AADF80830062221
:10459800DDE700BFA0220108AC1E0020AB1E0020F2
:1045A80037B505460C46022201A913200AF022F865
:1045B8000A4B1B78012B0DD1094B1B78012B09D114
:1045C80040F202700AF05DF89DF8053028702370FB
:1045D80003B030BD9DF80400F6E700BFAC1E002014
:1045E800AB1E002013B50322044601A914200AF0CB
:1045F80001F8184B1A7822704AB1012A17D01322F1
:104608000021601C0DF0E1FB0F2323700DE09DF8E5
:10461800043023719DF80530A2605B425B10A371E2
:104628009DF806305B425B10637102B010BD9DF8C7
:1046380004305B425B1023739DF9053002339B10F5
:1046480063739DF806305B425B10A373024B1B68D3
:104658002361EAE7AC1E0020080F0020034B1B680B
:1046680013B15B6803B11847704700BF30100020D2
:10467800034B1B6813B1DB6803B11847704700BFD1
:1046880030100020014B01221A707047AF1E002025
:1046980008B5FFF757FC0438C0B2032896BF024B91
:1046A8000020185C08BD00BFB42B010838B50C46C3
:1046B800002340F201211A46054608460AF075FA19
:1046C800FFF7BEFE0C4B01280C480CBF83F8C7400F
:1046D80083F8C040FFF706FF2146284600220AF06B
:1046E80062F9074B074819680AF0EDF8BDE8384049
:1046F8000448FFF727BD00BF3C0F0020F40F00203F
:104708004C100020240F002038B50D461446FFF742
:1047180063FE2846074D09F038FF0AF0D8F94FF430
:104728007A71284661430AF0CEF82846BDE8384039
:10473800FFF708BD240F002073B5574D01A809F0F5
:10474800C3FE2C78002301A82B7009F0C6FE002CAC
:1047580061D00AF03FFA04460AF0DFFA01A809F02E
:10476800B3FEFFF783FC012808BF287001A809F0F1
:10477800B4FEE5070BD54948FFF75AFD0120FFF7BE
:10478800E7FB474B1B6813B11B6803B19847A007A9
:1047980011D54448424EFFF74BFD14F0400F424BF1
:1047A8003BD01B7813B90120FFF7D2FB336813B154
:1047B8001B6903B1984721060AD50120FFF7C8FBFA
:1047C800374B1B6823B19B6913B1C4F3002098478A
:1047D800A2050FD5FFF7B6FB04284CD12F48FFF7E9
:1047E80027FD0120FFF7B4FB2D4B1B6813B15B6855
:1047F80003B19847A3060ED52A48FFF719FD2A4B9F
:104808001B7813B90120FFF7A3FB254B1B6813B1D5
:10481800DB6803B1984702B070BD1D7895B90120D7
:10482800FFF796FB294640F6021009F009FF40F60B
:10483800441009F026FF40F00201C9B240F64410C6
:1048480009F0FEFE194D1A48FF220DF103010AF086
:104858004BFA2846FFF7C6FE3368002BABD09E689C
:10486800002EA8D095F90D3095F90C209DF803106D
:104878000F48B0479FE7FFF765FB0528BAD10948FD
:10488800FFF7D6FC0120FFF763FB054B1B68002BE5
:10489800B0D0DB68ACE700BFAF1E0020240F0020BB
:1048A800301000200C0F0020AF1F00203410002013
:1048B800B01E002010B590B10A4B012219461C68A1
:1048C800A04206D39C68A04203D201EBC20108793A
:1048D80010BD0132162A03F10803F0D1FEE71F20AC
:1048E800F6E700BF642501080128094806D1094BED
:1048F80080F8C7101970B830FFF7F4BD90F8BF30D2
:10490800012B04D1034B80F8C0101970F3E77047EE
:104918003C0F00200707002000234FF6FF7110B559
:104928001A46044608460AF040F934B109482146B7
:1049380009F0C9FF0748FFF705FC074B1B782BB1A7
:104948006FF07F40BDE810400AF036B8034B186896
:104958008001F7E70C0F0020AF1F0020481000204F
:1049680000234FF6FF7110B51A46044608460AF0B0
:104978001CF934B10948214609F0A5FF0748FFF79B
:10498800E1FB074B1B782BB16FF07F40BDE810406F
:104998000AF05FB8034B18688001F7E70C0F002096
:1049A800AF1F002048100020F0B5BDF814409DF856
:1049B80018C09DF81CE09DF8205040B1012814D083
:1049C8000122002398180138B0FBF2F0F0BD8CF0FA
:1049D800010CE30003EBCC0318330EEB450503EBA6
:1049E800C5034FF47A714B43ECE7501F012803F1DC
:1049F800040304D80C2C38BF0C24002706E0C1B9E6
:104A0800A2F10B07012F8CBF002701272801BCF159
:104A1800000F00EBCE000CBF14250025A0EB820090
:104A2800062A4FEA82062844A2F1020C08D8354625
:104A38000BE00129E1D1A2F10C0047424741E5E72B
:104A48000830002FF3D04FEA8C050028ACBF2E1891
:104A58002E1C701E90FBF5F003FB0044094B062A40
:104A68005A5C8CBF0C340E340A2A0AD8A3000133CE
:104A78004FF47A7103FA0CF34B43034951F822209F
:104A8800A0E7FFDEB82B0108382501080D4B10B54B
:104A980004461870587000F017F85CB134214FF4D0
:104AA800E86009F0CDFD4421BDE8104040F24170B6
:104AB80009F0C6BD14214FF4E86009F0C1FD2421B6
:104AC800F2E700BFAD1E002008B50120FFF7A8FCE3
:104AD800054B18785A78824204D05870BDE80840CF
:104AE800FFF7D4BF08BD00BFAD1E0020012808B5E0
:104AF80006D00020FFF794FC034B00225A7008BD33
:104B0800BDE80840FFF7E0BFAD1E00202DE9F04FDB
:104B180085B089469DF84C1000919DF85C109DF871
:104B280044A0BDF84070694CDFF8A4B1BDF83C6002
:104B38002170002918BF0027BAF1000F15469DF80B
:104B4800482008BFFF228BF80020804620B10128AA
:104B580054D005B0BDE8F08F5E4C09F0C3FF0B23BD
:104B68004FEA490084F8EC3084F8E080C4F8E45057
:104B7800FFF7A0FE41F60403A4F8BC309BF8003010
:104B880084F8C030009B84F8ED00002B0CBF012393
:104B9800F22384F8C130F60001238AF0010A84F870
:104BA800C23084F8B880A4F8BA6084F8BE8084F86B
:104BB800BFA00AF0C0F894F8E000003818BF012040
:104BC800FFF794FF04F1E000FFF740FC04F1B800A0
:104BD800FFF788FC404A1068516802AB03C302A87B
:104BE80009F0B0FE40F2FF10FFF770FB4FF4FA53E4
:104BF8007B43B3FBF5F3394A1360AAE70020354C31
:104C0800019309F06FFF3649019B11F8091084F8E8
:104C1800E080EAB284F8F020B9F1000F45D10B3DED
:104C2800012D8CBF00250125053A012A02D80C2E3A
:104C380038BF0C2684F8F230012384F8B8309BF88A
:104C4800003084F8C730009B84F8C8309DF858308D
:104C580084F8C93084F8F11084F8F350A4F8C460DB
:104C680084F8C6A00AF067F894F8E000003818BF86
:104C78000120FFF73BFF1B48FFF7E8FB1A48FFF747
:104C880031FCF8B209F03AFF94F8C930012B40F230
:104C9800367014D109F0F5FC00F0FB0140F23670D3
:104CA80009F0CEFC4FF6FF73A5E7B9F1010F04D167
:104CB800A5F10C0045424541B6E70025B4E709F0E7
:104CC800E0FC40F00401C9B2E8E700BFAF1F0020D4
:104CD800070700203C0F0020B122010848100020DF
:104CE800B82B01081C100020F40F00202DE9F74F05
:104CF8000C9DBDF838709DF83C909DF840A0884602
:104D08009346064648B101284DD040F6890009F07F
:104D1800B8FC40F00401C9B28DE0524C0B2284F873
:104D2800E000580084F8EC20C4F8E450FFF7C2FD16
:104D380041F60403BAF1000FA4F8BC300CBF0123FC
:104D4800F22384F8C130FF00012389F0010984F8B7
:104D5800C23084F8ED00C4F8E8B084F8B860A4F86C
:104D6800BA7084F8BE6084F8BF9009F0E4FF94F844
:104D7800E000003818BF0120FFF7B8FE04F1E0009A
:104D8800FFF764FB04F1B800FFF7ACFB364A106884
:104D980051686B4603C3684609F0D4FD40F2FF1022
:104DA800FFF794FAB1E72F4C304984F8E000EAB2F3
:104DB800C95C84F8F020002B4AD10B3D012D8CBF33
:104DC80000250125053A012A02D80C2F38BF0C27E7
:104DD8009DF8343084F8F230012384F8B830244B3D
:104DE80084F8F1101B7884F8C7309DF84C3084F8AB
:104DF800C93084F8F350A4F8C47084F8C69084F8D5
:104E0800C8A009F098FF94F8E000003818BF012006
:104E1800FFF76CFE1748FFF719FB1748FFF762FB0F
:104E280094F8F130062B7FF470AF40F6890009F052
:104E380028FC00F0FB0140F6890009F001FC40461F
:104E480009F0A3FB149A0D4B1A6003B0BDE8F08F6C
:104E5800012B04D1A5F10C035D425D41B2E70025A9
:104E6800B0E700BF3C0F0020B1220108B82B0108B1
:104E7800070700201C100020F40F00204C10002011
:104E880008B5174B18601748FFF75AFA002009F0C1
:104E980062FD012009F05DFE0021084609F00AFFC5
:104EA8000421002009F0C3FE00234FF6FF711A46C3
:104EB800084609F07AFE40F6AC0009F0B8FF40F663
:104EC800890009F0B4FF0849084809F0F4FC0849CA
:104ED800084809F0F0FC084B00221A7008BD00BF12
:104EE800301000208D46000865460008240F002079
:104EF800794600080C0F0020AF1E0020A1F1100316
:104F0800DBB2102B2DE9F047044604D83A4820FAC2
:104F180003F3DB0705D4002382F8F030FF20BDE857
:104F2800F087561E254615F8013B06F8013F631B1E
:104F38000B4413F0FF00F6D101F11C039B005FFA4C
:104F480083FCC3F30313013BDFF8B09082F8F03021
:104F5800884653184FF0010EB8FBF1FA01FB1A8A84
:104F68001AF0FF0A13F8047C13F8036C13F8025CB8
:104F780013F8014C30D119F806A019F8056019F892
:104F8800045019F807404FEADE1707EB47078EEA87
:104F98000A0A07EBC7074FEA4E0EFFB25FFA8EFE0A
:104FA80087EA0E0E574692F800A087EA0A071F7094
:104FB80057787E405E70967875409D70D57808F178
:104FC80004085FFA88F86C40C445DC7002F10402FA
:104FD80003F10403C0D8A2E71829E4D9BAF1100FE5
:104FE800E1D1DFF818A01AF807701AF806601AF865
:104FF80005501AF80440D6E701010100BB2D01084D
:105008002DE9F04FA3B092F8F0301D911B92019357
:10501800002B00F0538101461EA809F07EFF1B9B60
:10502800A74CA84DA84E10330293002303939DF874
:105038007C0004909DF886000590205C06909DF801
:105048007B000790205C089004989DF881C0205C44
:10505800099014F80C000A909DF880000B909DF8B8
:1050680085009DF878809DF87DE09DF882A09DF8E8
:1050780087900C909DF87A00029B1C9314F80A20E4
:1050880014F8093014F8081014F80E700D90205C0C
:105098000E909DF87F000F90205C10900B98205C7C
:1050A80011900C98205C12909DF8840013909DF844
:1050B800790014909DF87E001590205C16909DF85C
:1050C80083001790205C18901398205C199014980E
:1050D800205C1A900398013003900298DDF804B020
:1050E800103002909DF80C00834536D88DF8781062
:1050F8008DF87A2009990E9A8DF87C108DF8822007
:105108001199069A8DF880108DF87E201999169AB3
:105118008DF884108DF886200A99189A8DF87D10DC
:105128008DF887201299109A8DF87B301B9B8DF88B
:1051380081108DF883201A99089A1D988DF885108A
:105148008DF87F201EA903EB0B128DF8797009F0FA
:10515800E4FE002023B0BDE8F08F15F808B082EA1D
:1051680003008BEA000016F80EB080EA0B008DF8F9
:10517800780015F80E004B40434016F80A004340EB
:105188008DF8793081EA070315F80A10594016F8A6
:105198000930594016F808308DF87A107A40534093
:1051A80015F8092053408DF87B30089A069B534028
:1051B800049AAA5C534016F80C2053408DF87C30B2
:1051C800DDE908325A4015F80C305340059AB25CB4
:1051D80053408DF87D30DDE909325A40059BEB5C80
:1051E8005340079AB25C53408DF87E30069B0A9A6A
:1051F8005340049AB25C5A40079BEB5C5A408DF8C6
:105208007F200E9B109A53400B9AAA5C53400C9A2D
:10521800B25C53408DF88030DDE910325A400C9B67
:10522800EB5C53400D9AB25C53408DF88130DDE958
:1052380011325A400D9BEB5C53400F9AB25C5340BD
:105248008DF88230129A0E9B53400B9AB25C5A40EA
:105258000F9BEB5C1C995A408DF88320169B189A7B
:105268005340139AAA5C5340149AB25C53408DF889
:105278008430DDE918325A40149BEB5C5340159A90
:10528800B25C53408DF88530DDE919325A40159BE0
:10529800EB5C5340179AB25C53408DF886301A9AEB
:1052A800169B5340139AB25C5340179AAA5C1EA8E7
:1052B80053408DF8873009F0EFFDB8E6FF2049E745
:1052C800BB2D0108BB2C0108BB2B01082DE9F043BD
:1052D800CBB00646DDF84891174698460D4689B387
:1052E800B9F1000F2ED004A809F059FE164B196821
:1052F800002401F1140304EB04101A5C424513D195
:105308001530014404A809F05AFEA6B93A462946C0
:1053180004A809F059FE684604A909F0C0FE009BDC
:10532800C9F80030002003E00134172CE3D1032032
:105338004BB0BDE8F083102231460DEB020009F0B6
:1053480043FEE3E70220F3E75010002030B5E9B050
:105358004FF4D0720021044668460CF036FD284B05
:105368000DF1150203F1200153F8040B42F8040B68
:105378008B42F9D11B88138022490323452216A8A2
:105388008DF847300CF013FD7F238DF8AD30802366
:105398008DF8BE3081238DF8CF3082238DF8E03030
:1053A80083238DF8F13084238DF8023185238DF81D
:1053B800133186238DF8243187238DF835318823DE
:1053C8008DF8463189238DF857318A238DF8683155
:1053D8008B238DF879318C238DF88A316CB10A4D85
:1053E8004FF4D072694620462C6009F0ACF9286861
:1053F80009F0C8FF002069B030BD0220FBE700BFFC
:10540800BB2E0108DE2E0108501000202DE9F041C6
:105418000D46BEB016469846074670B36BB311F0FA
:105428000F042CD1F022214601A809F0A0F9154B50
:105438001868214600F1140201EB0113D45CB44250
:105448000BD1153301AA10211844FFF757FD2C463C
:105458002E1BF6B244B9204603E001311729EBD1DF
:1054680003203EB0BDE8F08101AA08EB0601B81997
:10547800103CFFF7C5FDA4B2EAE70220F1E70520DA
:10548800EFE700BF50100020F0B51D4E346803460A
:1054980085B00846002204F1140102EB02154F5DA5
:1054A8009F4227D1802B05F1150508D07D33DBB24B
:1054B800062B18D8492222FA03F3DB0713D5002359
:1054C800CDE90033CDE902337F2210216B46FFF787
:1054D8009DFF0446306810226946284409F033F9D4
:1054E800204605B0F0BD01461022601909F02BF9DD
:1054F8000024F5E70132172ACFD10324F0E700BFD3
:105508005010002008B5014630B1044B0822186835
:1055180009F019F9002008BD0220FCE7501000200E
:10552800014B1868704700BF5010002008B50146AD
:1055380038B1054B18680822104409F004F9002016
:1055480008BD0220FCE700BF50100020014B18687E
:10555800083070475010002008B5014638B1054B97
:1055680018680422103009F0EEF8002008BD022067
:10557800FCE700BF50100020014B1868103070473E
:1055880050100020044B054A93F8A831022B18BF8D
:10559800062382F888347047FC1000205C15002030
:1055A800034BD3F8483313B1DB6803B1184770478E
:1055B8005C150020034A137843F002031370FFF7C9
:1055C800EFBF00BF68100020034A137843F00803B8
:1055D8001370FFF7E5BF00BF68100020034A137877
:1055E80043F004031370FFF7DBBF00BF681000200F
:1055F800074BD3F8402322F48072C3F8402393F872
:10560800892442F0100283F88924FFF7C9BF00BF3C
:105618005C1500202DE9F04116461D4680460F46D0
:1056280009F062F9084A094C13782781C4E900088F
:1056380023F0110343F01103668125731370BDE84D
:10564800F041FFF7ADBF00BF6810002054100020E4
:105658001FB5094B8DF8090093F88C208DF80A20A6
:1056680093F858000D2202A98DF808200AF030FAA4
:10567800C0B205B05DF804FBFC10002010B5154C55
:1056880094F8C92194F85030012A4FF0010294BFD0
:1056980084F8D52184F8D721013394F8C821DBB2E6
:1056A8009A4284F8503009D80B48FEF7C1FD002310
:1056B80084F85030BDE81040FFF772BF074C04F281
:1056C800BC40D4F8DC1409F0FEF804F2BC40FEF744
:1056D80039FDEFE7FC100020181A00205C150020A7
:1056E80008B50748FEF7A4FD064B93F8162412B137
:1056F800012283F81524BDE80840FFF751BF00BF19
:10570800581900205C15002010B50C4CD4F8403313
:1057180043F08003C4F8403394F8163413B10020E2
:10572800FFF7DEFF94F8893423F0120343F01203E5
:1057380084F88934BDE81040FFF724BF5C150020C9
:105748002DE9F0414F4C90B008B984F8C001B4F885
:10575800DC30A4F8483094F8B93084F879304A4BF2
:105768004A4ED3E9100183E80300D3E9120103F19B
:10577800080282E80300B4F8CC20A4F88C20D4F8FE
:10578800D420C4F89420D4F8D820D4F8D010C4F881
:10579800982000254FF0010803F5407203F5417386
:1057A800C4F89010A56384F8AB51A4F8B08184F8CC
:1057B8004A5084F8AD5184F8AE51C4F8C451A4F8E5
:1057C800C85103A9C6F8E454A6F8145486F8165428
:1057D800C4E9735594F8580004932D4B84F8D551B7
:1057E800A4F8D651039205938DF818800AF080F931
:1057F800E36FC6F8D83394F88D3086F8E43386F82A
:10580800D45394F8C03186F8E73306F575770FCF8F
:1058180006F57A740FC486F8E55386F8E6833B6884
:105828002360022386F8FA33D6F8483386F81754EB
:10583800CDE9015586F8F9831BB15A68DB680192F6
:105848000293144B0793A3F14C020892A3F114029C
:105858000992114A0B9221330A93A2F18C030C93FB
:10586800A2F188030D93131D0E9301A902F1DC0325
:1058780007A802F559720F9309F013FE10B0BDE89E
:10588800F08100BFFC100020781100205C1500207A
:105898006C100020C4190020E011002013B509F095
:1058A80023F80A4B6C461860204608F0B9FF94E8C4
:1058B8000300074A074B83E80300137843F02003EB
:1058C800137002B0BDE81040FFF76ABE64100020F4
:1058D8006810002094180020F8B52E4E96F8A831CC
:1058E800022B07460D4602D02B4BDB6A984709F07E
:1058F800E3FD044680B996F8A831012B16D0274C51
:1059080094F8882494F816346AB30BB184F8415497
:10591800284603F0CBF836E0022009F0C3FD00204A
:1059280009F0C5FD96F8A831012B11D109F0C6FD83
:1059380090B1002009F0B7FD002009F0B9FD09F089
:10594800BFFD28B1002009F0AFFD002009F0B1FD2E
:10595800BDE8F840FFF716BE09F0B2FD0028F1D106
:10596800002CCCD0F4E70BB184F84174384603F02E
:105978009DF8F06B08F0BFFFD4F8BC339842E7D32A
:105988000748FEF755FC94F8893443F0100384F86F
:105998008934DDE7FC100020142601085C1500207E
:1059A800FC18002073B5124D124E0096EB6D95F859
:1059B800602095F9881095F858000AF0B5F8022388
:1059C800B37495F8C031F37495F85800012306F1C3
:1059D8003802314673740AF0B4F830B1064B00202F
:1059E8005B6B9847B37C86F8A03002B070BD00BFEF
:1059F800FC1000204419002014260108F8B53B4C7F
:105A080094F8A851012D06460ED0022D60D0002D25
:105A180069D138B9D4E91F0104F1840383E803008C
:105A2800002006E0012805D109F051FD08B984F8E5
:105A3800A861F8BD022856D12D4F84F8A80107F5B2
:105A4800757EBEE80F0007F57A7CACE80F00DEF83B
:105A58000030CCF8003087F8FA63234693F8E92041
:105A680082B393F80021022A2CD1302303FB054589
:105A7800D5F80431C4F88430C7F8EC3394F88D3085
:105A880095F8082187F8F833032384F8882087F8E5
:105A9800FA3397F8172487F8E823012387F8F933AE
:105AA800002387F81634134BDB6A9847FFF77AFF11
:105AB80094F8BE31002BB3D00F490122202002F008
:105AC80079FEADE70135042D03F13003C6D1E7E7D0
