:020000040800F2
:1000000080A200208D98000891CA01087998000804
:100010007998000879980008799800080000000095
:1000200000000000000000000000000081990008AE
:1000300079980008000000001D990008755B010810
:10004000619B0008619B0008619B0008619B0008A0
:10005000619B0008619B0008619B0008619B000890
:10006000619B0008619B0008619B0008619B000880
:10007000619B0008619B0008619B0008619B000870
:10008000619B0008619B0008619B0008619B000860
:10009000619B0008619B0008619B0008619B000850
:1000A000619B0008619B0008619B0008619B000840
:1000B000619B0008619B0008619B0008619B000830
:1000C000619B0008619B0008619B0008619B000820
:1000D000619B0008619B0008619B0008619B000810
:1000E000619B0008619B0008619B0008619B000800
:1000F000619B0008619B0008619B0008619B0008F0
:10010000619B0008619B0008619B0008619B0008DF
:10011000619B0008619B0008619B0008619B0008CF
:10012000619B0008619B0008619B0008619B0008BF
:08013000619B0008619B0008BF
:1001380081F0004102E000BF83F0004330B54FEA90
:1001480041044FEA430594EA050F08BF90EA020FFD
:100158001FBF54EA000C55EA020C7FEA645C7FEA90
:10016800655C00F0E2804FEA5454D4EB5555B8BFB3
:100178006D420CDD2C4480EA020281EA030382EA24
:10018800000083EA010180EA020281EA0303362DB6
:1001980088BF30BD11F0004F4FEA01314FF4801C89
:1001A8004CEA113102D0404261EB410113F0004F9B
:1001B8004FEA03334CEA133302D0524263EB430352
:1001C80094EA050F00F0A780A4F10104D5F1200EF0
:1001D8000DDB02FA0EFC22FA05F2801841F100014B
:1001E80003FA0EF2801843FA05F359410EE0A5F11F
:1001F80020050EF1200E012A03FA0EFC28BF4CF050
:10020800020C43FA05F3C01851EBE37101F0004505
:1002180007D54FF0000EDCF1000C7EEB00006EEB12
:100228000101B1F5801F1BD3B1F5001F0CD349089C
:100238005FEA30004FEA3C0C04F101044FEA4452F3
:1002480012F5800F80F09A80BCF1004F08BF5FEA7A
:10025800500C50F1000041EB045141EA050130BD5A
:100268005FEA4C0C404141EB0101013C28BFB1F56C
:10027800801FE9D291F0000F04BF01460020B1FAB7
:1002880081F308BF2033A3F10B03B3F120020CDA8A
:100298000C3208DD02F1140CC2F10C0201FA0CF068
:1002A80021FA02F10CE002F11402D8BFC2F1200CCD
:1002B80001FA02F120FA0CFCDCBF41EA0C01904083
:1002C800E41AA2BF01EB0451294330BD6FEA0404CC
:1002D8001F3C1CDA0C340EDC04F11404C4F12002B7
:1002E80020FA04F001FA02F340EA030021FA04F3C9
:1002F80045EA030130BDC4F10C04C4F1200220FA20
:1003080002F001FA04F340EA0300294630BD21FA5D
:1003180004F0294630BD94F0000F83F4801306BF23
:1003280081F480110134013D4EE77FEA645C18BF17
:100338007FEA655C29D094EA050F08BF90EA020FAE
:1003480005D054EA000C04BF1946104630BD91EAA6
:10035800030F1EBF0021002030BD5FEA545C05D1A9
:100368004000494128BF41F0004130BD14F58004E8
:100378003CBF01F5801130BD01F0004545F0FE415C
:1003880041F470014FF0000030BD7FEA645C1ABF91
:10039800194610467FEA655C1CBF0B46024650EAC8
:1003A800013406BF52EA033591EA030F41F40021F4
:1003B80030BD00BF90F0000F04BF0021704730B57A
:1003C8004FF4806404F132044FF000054FF000014F
:1003D80050E700BF90F0000F04BF0021704730B510
:1003E8004FF4806404F1320410F0004548BF4042E5
:1003F8004FF000013EE700BF42004FEAE2014FEA3A
:1004080031014FEA02701FBF12F07F4393F07F4F14
:1004180081F06051704732F07F4208BF704793F017
:100428007F4F04BF41F40021704730B54FF460742A
:1004380001F0004521F000411CE700BF50EA01022D
:1004480008BF704730B54FF000050AE050EA0102D6
:1004580008BF704730B511F0004502D5404261EB46
:1004680041014FF4806404F132045FEA915C3FF487
:10047800D8AE4FF003025FEADC0C18BF03325FEA24
:10048800DC0C18BF033202EBDC02C2F1200300FAD5
:1004980003FC20FA02F001FA03FE40EA0E0021FAFA
:1004A80002F11444BDE600BF70B54FF0FF0C4CF4E8
:1004B800E06C1CEA11541DBF1CEA135594EA0C0F9A
:1004C80095EA0C0F00F0DEF82C4481EA030621EAD5
:1004D8004C5123EA4C5350EA013518BF52EA033510
:1004E80041F4801143F4801338D0A0FB02CE4FF0C2
:1004F8000005E1FB02E506F00042E0FB03E54FF0F2
:100508000006E1FB03569CF0000F18BF4EF0010EE9
:10051800A4F1FF04B6F5007F64F5407404D25FEAE5
:100528004E0E6D4146EB060642EAC62141EA555198
:100538004FEAC52040EA5E504FEACE2EB4F1FD0CDA
:1005480088BFBCF5E06F1ED8BEF1004F08BF5FEA58
:10055800500E50F1000041EB045170BD06F000460A
:1005680046EA010140EA020081EA0301B4EB5C04B7
:10057800C2BFD4EB0C0541EA045170BD41F48011AF
:100588004FF0000E013C00F3AB8014F1360FDEBFD4
:10059800002001F0004170BDC4F10004203C35DAB0
:1005A8000C341BDC04F11404C4F1200500FA05F333
:1005B80020FA04F001FA05F240EA020001F00042D4
:1005C80021F0004110EBD37021FA04F642EB06014A
:1005D8005EEA430E08BF20EAD37070BDC4F10C0474
:1005E800C4F1200500FA04F320FA05F001FA04F238
:1005F80040EA020001F0004110EBD37041F1000124
:100608005EEA430E08BF20EAD37070BDC4F120052E
:1006180000FA05F24EEA020E20FA04F301FA05F296
:1006280043EA020321FA04F001F0004121FA04F23E
:1006380020EA020000EBD3705EEA430E08BF20EA0E
:10064800D37070BD94F0000F0FD101F00046400048
:1006580041EB010111F4801F08BF013CF7D041EACA
:10066800060195F0000F18BF704703F000465200CE
:1006780043EB030313F4801F08BF013DF7D043EA9F
:100688000603704794EA0C0F0CEA135518BF95EA55
:100698000C0F0CD050EA410618BF52EA4306D1D1DC
:1006A80081EA030101F000414FF0000070BD50EAFB
:1006B800410606BF1046194652EA430619D094EA85
:1006C8000C0F02D150EA013613D195EA0C0F05D16F
:1006D80052EA03361CBF104619460AD181EA0301C3
:1006E80001F0004141F0FE4141F470014FF000007B
:1006F80070BD41F0FE4141F4780170BD70B54FF016
:10070800FF0C4CF4E06C1CEA11541DBF1CEA135595
:1007180094EA0C0F95EA0C0F00F0A7F8A4EB050477
:1007280081EA030E52EA03354FEA013100F088806E
:100738004FEA03334FF0805545EA131343EA126337
:100748004FEA022245EA111545EA10654FEA0026EC
:100758000EF000419D4208BF964244F1FD0404F5A5
:10076800407402D25B084FEA3202B61A65EB030501
:100778005B084FEA32024FF480104FF4002CB6EBBE
:10078800020E75EB030E22BFB61A754640EA0C003E
:100798005B084FEA3202B6EB020E75EB030E22BF7E
:1007A800B61A754640EA5C005B084FEA3202B6EBBF
:1007B800020E75EB030E22BFB61A754640EA9C007E
:1007C8005B084FEA3202B6EB020E75EB030E22BF4E
:1007D800B61A754640EADC0055EA060E18D04FEA0C
:1007E800051545EA16754FEA06164FEAC30343EAAC
:1007F80052734FEAC2025FEA1C1CC0D111F4801F79
:100808000BD141EA00014FF000004FF0004CB6E771
:1008180011F4801F04BF01430020B4F1FD0C88BF10
:10082800BCF5E06F3FF6AFAEB5EB030C04BFB6EB1B
:10083800020C5FEA500C50F1000041EB045170BD0E
:100848000EF0004E4EEA113114EB5C04C2BFD4EB3B
:100858000C0541EA045170BD41F480114FF0000EBF
:10086800013C90E645EA060E8DE60CEA135594EA3B
:100878000C0F08BF95EA0C0F3FF43BAF94EA0C0F3E
:100888000AD150EA01347FF434AF95EA0C0F7FF4B3
:1008980025AF104619462CE795EA0C0F06D152EA07
:1008A80003353FF4FDAE1046194622E750EA4106EB
:1008B80018BF52EA43067FF4C5AE50EA41047FF4FC
:1008C8000DAF52EA43057FF4EBAE12E74FF0FF3C61
:1008D80006E000BF4FF0010C02E000BF4FF0010C32
:1008E8004DF804CD4FEA410C7FEA6C5C4FEA430CAB
:1008F80018BF7FEA6C5C1BD001B050EA410C0CBFFA
:1009080052EA430C91EA030F02BF90EA020F00205B
:10091800704710F1000F91EA030F58BF994208BFC2
:1009280090422CBFD8176FEAE37040F0010070477F
:100938004FEA410C7FEA6C5C02D150EA013C07D1D6
:100948004FEA430C7FEA6C5CD6D152EA033CD3D021
:100958005DF8040B704700BF8446104662468C461B
:100968001946634600E000BF01B5FFF7B7FF00284E
:1009780048BF10F1000F01BD4DF808EDFFF7F4FF77
:100988000CBF012000205DF808FB00BF4DF808ED02
:10099800FFF7EAFF34BF012000205DF808FB00BF25
:1009A8004DF808EDFFF7E0FF94BF012000205DF847
:1009B80008FB00BF4DF808EDFFF7CEFF94BF0120FC
:1009C80000205DF808FB00BF4DF808EDFFF7C4FFF5
:1009D80034BF012000205DF808FB00BF4FEA410248
:1009E80012F5001215D211D56FF47873B3EB625279
:1009F80012D94FEAC12343F0004343EA505311F0A0
:100A0800004F23FA02F018BF404270474FF0000031
:100A1800704750EA013005D111F0004008BF6FF06F
:100A2800004070474FF00000704700BF4FEA410296
:100A3800B2F1E04324BFB3F5001CDCF1FE5C0DD934
:100A480001F0004C4FEAC0024CEA5070B2F1004F7E
:100A580040EB830008BF20F00100704711F0804F81
:100A680021D113F13872BCBF01F00040704741F446
:100A780080114FEA5252C2F11802C2F1200C10FA4A
:100A88000CF320FA02F018BF40F001004FEAC1232E
:100A98004FEAD32303FA0CFC40EA0C0023FA02F3D2
:100AA8004FEA4303CCE77FEA625307D150EA0133A8
:100AB8001EBF4FF0FE4040F44000704701F0004078
:100AC80040F0FE4040F40000704700BF80F0004056
:100AD80002E000BF81F0004142001FBF5FEA41030E
:100AE80092EA030F7FEA226C7FEA236C6AD04FEA0E
:100AF8001262D2EB1363C1BFD21841404840414053
:100B0800B8BF5B42192B88BF704710F0004F40F404
:100B1800000020F07F4018BF404211F0004F41F420
:100B2800000121F07F4118BF494292EA030F3FD0EC
:100B3800A2F1010241FA03FC10EB0C00C3F12003FF
:100B480001FA03F100F0004302D5494260EB40008E
:100B5800B0F5000F13D3B0F1807F06D340084FEAF9
:100B6800310102F10102FE2A51D2B1F1004F40EBEE
:100B7800C25008BF20F0010040EA03007047490056
:100B880040EB0000013A28BFB0F5000FEDD2B0FAF3
:100B980080FCACF1080CB2EB0C0200FA0CF0AABF16
:100BA80000EBC25052421843BCBFD04018437047B4
:100BB80092F0000F81F4000106BF80F400000132BA
:100BC800013BB5E74FEA41037FEA226C18BF7FEA91
:100BD800236C21D092EA030F04D092F0000F08BFD3
:100BE8000846704790EA010F1CBF0020704712F0BA
:100BF8007F4F04D1400028BF40F00040704712F1F9
:100C080000723CBF00F50000704700F0004343F05D
:100C1800FE4040F4000070477FEA226216BF084693
:100C28007FEA23630146420206BF5FEA412390EA56
:100C3800010F40F4800070474FF0000304E000BF4C
:100C480010F0004348BF40425FEA000C08BF7047FD
:100C580043F0964301464FF000001CE050EA0102C1
:100C680008BF70474FF000030AE000BF50EA0102D6
:100C780008BF704711F0004302D5404261EB4101C3
:100C88005FEA010C02BF84460146002043F0B643E8
:100C980008BFA3F18053A3F50003BCFA8CF2083A0D
:100CA800A3EBC25310DB01FA02FC634400FA02FC16
:100CB800C2F12002BCF1004F20FA02F243EB02001D
:100CC80008BF20F00100704702F1200201FA02FC7F
:100CD800C2F1200250EA4C0021FA02F243EB020072
:100CE80008BF20EADC7070474FF0FF0C1CEAD052B6
:100CF8001EBF1CEAD15392EA0C0F93EA0C0F6FD077
:100D08001A4480EA010C400218BF5FEA41211ED054
:100D18004FF0006343EA501043EA5111A0FB013140
:100D28000CF00040B1F5000F3EBF490041EAD37115
:100D38005B0040EA010062F17F02FD2A1DD8B3F191
:100D4800004F40EBC25008BF20F00100704790F000
:100D5800000F0CF0004C08BF49024CEA502040EA52
:100D680051207F3AC2BFD2F1FF0340EAC250704718
:100D780040F400004FF00003013A5DDC12F1190F56
:100D8800DCBF00F000407047C2F10002410021FAC8
:100D980002F1C2F1200200FA02FC5FEA310040F1E0
:100DA800000053EA4C0308BF20EADC70704792F059
:100DB800000F00F0004C02BF400010F4000F013A91
:100DC800F9D040EA0C0093F0000F01F0004C02BF8C
:100DD800490011F4000F013BF9D041EA0C018FE7FB
:100DE8000CEAD15392EA0C0F18BF93EA0C0F0AD001
:100DF80030F0004C18BF31F0004CD8D180EA010027
:100E080000F00040704790F0000F17BF90F0004FBF
:100E1800084691F0000F91F0004F14D092EA0C0FA1
:100E280001D142020FD193EA0C0F03D14B0218BF34
:100E3800084608D180EA010000F0004040F0FE407A
:100E480040F40000704740F0FE4040F44000704716
:100E58004FF0FF0C1CEAD0521EBF1CEAD15392EA95
:100E68000C0F93EA0C0F69D0A2EB030280EA010C85
:100E780049024FEA402037D04FF0805343EA11111E
:100E880043EA10130CF000408B4238BF5B0042F17C
:100E98007D024FF4000C8B4224BF5B1A40EA0C0021
:100EA800B3EB510F24BFA3EB510340EA5C00B3EB53
:100EB800910F24BFA3EB910340EA9C00B3EBD10F41
:100EC80024BFA3EBD10340EADC001B0118BF5FEA93
:100ED8001C1CE0D1FD2A3FF650AF8B4240EBC250BC
:100EE80008BF20F0010070470CF0004C4CEA50207D
:100EF8007F32C2BFD2F1FF0340EAC250704740F4CC
:100F080000004FF00003013A37E792F0000F00F0BD
:100F1800004C02BF400010F4000F013AF9D040EA3B
:100F28000C0093F0000F01F0004C02BF490011F4CF
:100F3800000F013BF9D041EA0C0195E70CEAD153C7
:100F480092EA0C0F08D142027FF47DAF93EA0C0FAE
:100F58007FF470AF084676E793EA0C0F04D14B0292
:100F68003FF44CAF08466EE730F0004C18BF31F044
:100F7800004CCAD130F000427FF45CAF31F000433E
:100F88007FF43CAF5FE700BF4FF0FF3C06E000BFD7
:100F98004FF0010C02E000BF4FF0010C4DF804CDFA
:100FA8004FEA40024FEA41037FEA226C18BF7FEA0A
:100FB800236C11D001B052EA530C18BF90EA010F0C
:100FC80058BFB2EB030088BFC81738BF6FEAE1709B
:100FD80018BF40F0010070477FEA226C02D15FEA37
:100FE800402C05D17FEA236CE4D15FEA412CE1D0A3
:100FF8005DF8040B704700BF844608466146FFE76A
:101008000FB5FFF7C9FF002848BF10F1000F0FBD4B
:101018004DF808EDFFF7F4FF0CBF012000205DF844
:1010280008FB00BF4DF808EDFFF7EAFF34BF0120C9
:1010380000205DF808FB00BF4DF808EDFFF7E0FF62
:1010480094BF012000205DF808FB00BF4DF808EDB3
:10105800FFF7D2FF94BF012000205DF808FB00BF16
:101068004DF808EDFFF7C8FF34BF012000205DF8F8
:1010780008FB00BF4FEA40024FEA41037FEA226CB7
:1010880002D15FEA402C08D17FEA236C02D15FEAE3
:10109800412C02D14FF0000070474FF0010070471B
:1010A8004FEA4002B2F1FE4F0FD34FF09E03B3EB6D
:1010B80012620DD94FEA002343F0004310F0004FAD
:1010C80023FA02F018BF404270474FF00000704703
:1010D80012F1610F01D1420205D110F0004008BFA2
:1010E8006FF0004070474FF00000704742000ED28A
:1010F800B2F1FE4F0BD34FF09E03B3EB126209D44B
:101108004FEA002343F0004323FA02F070474FF000
:101118000000704712F1610F01D1420202D14FF075
:10112800FF3070474FF00000704700BF7BB972B9BD
:101138000029BEBF00204FF0004106E008BF00288C
:101148001CBF6FF000414FF0FF3000F057B8ADF111
:10115800080C6DE904CE002909DB002B1ADB00F02E
:1011680074F8DDF804E0DDE9022304B0704740427A
:1011780061EB4101002B1BDB00F067F8DDF804E0B0
:10118800DDE9022304B0404261EB4101524263EBC6
:1011980043037047524263EB430300F056F8DDF80F
:1011A80004E0DDE9022304B0404261EB41017047ED
:1011B800524263EB430300F048F8DDF804E0DDE950
:1011C800022304B0524263EB4303704753B94AB950
:1011D800002908BF00281CBF4FF0FF314FF0FF3037
:1011E80000F00CB8ADF1080C6DE904CE00F02DF854
:1011F800DDF804E0DDE9022304B07047704700BF62
:1012080010F8012B11F8013B012A28BF9A42F7D0A8
:10121800D01A7047034613F8012B002AFBD1181A7D
:1012280001387047430803F05533C01A00F03333D0
:10123800800800F03330184400EB10104FF00133F1
:1012480000F00F305843000E70472DE9F0478646EE
:101258008C460846089E154674461946002B40F0F1
:10126800C2808542B2FA82F245D94AB1C2F120035E
:1012780000FA02FC2EFA03F3954043EA0C0C944062
:101288004FEA154EA8B2BCFBFEF8230C0EFB18CC97
:1012980008FB00F943EA0C43994528D9EB1808F1F3
:1012A800FF3704D2994502D9A8F102072B44A3EBD2
:1012B8000903A4B2B3FBFEFC0EFB1C330CFB00F0CD
:1012C80044EA0344A04214D92C190CF1FF3304D288
:1012D800A04202D9ACF102032C44241A43EA074085
:1012E8001EB1D440002334607360BDE8F0874746E0
:1012F800DDE76346F1E792BB431B01214FEA154E38
:10130800AFB2B3FBFEFC200C0EFB1C330CFB07F842
:1013180040EA0343984562D9EB180CF1FF3004D238
:10132800984502D9ACF102002B44A3EB0803A4B200
:10133800B3FBFEFC0EFB1C330CFB07F744EA03442B
:10134800A7424ED92C190CF1FF3304D2A74202D977
:10135800ACF102032C44E41B43EA0040C0E7C2F1AD
:10136800200320FA03F1954090402EFA03F303433B
:101378004FEA154EAFB2B1FBFEFC0EFB1C10190C68
:101388000CFB07F841EA0041884504FA02F422D927
:1013980069180CF1FF3004D2884502D9ACF102007B
:1013A8002944A1EB08019BB2B1FBFEFC0EFB1C110A
:1013B8000CFB07F743EA01439F420ED9EB180CF1E7
:1013C800FF3104D29F4202D9ACF102012B44DB1B4E
:1013D80041EA004192E76046E3E76146F7E7604685
:1013E800A3E76346B7E7834206D916B90021084642
:1013F8007BE7C6E900E0F9E7B3FA83F78FB98342E0
:1014080001D3724508D8BEEB020460EB0303012048
:101418009C461EB9002168E73846FAE7C6E9004C41
:10142800F8E7C7F1200CBB4022FA0CF41C432EFA53
:101438000CF120FA0CF3B84001434FEA14490EFAB4
:1014480007F5B3FBF9F81FFA84FE09FB18300B0CFB
:1014580008FB0EFA43EA00439A4502FA07F240D91C
:10146800E31808F1FF3004D29A4502D9A8F1020026
:101478002344A3EB0A0389B2B3FBF9F809FB183339
:1014880008FB0EFE41EA03418E452CD9611808F18C
:10149800FF3304D28E4502D9A8F10203214443EA5E
:1014A8000040A0FB0298A1EB0E014145CE46434601
:1014B80002D306D14D4504D2B9EB020E68EB040302
:1014C8000138002EA6D0B5EB0E0261EB030101FA3C
:1014D8000CFC22FA07F34CEA0303F940C6E9003191
:1014E80098E74046C5E74346D9E7000000000000FA
:1014F8002DE9F04F8DB009900C46154620F051FDAE
:101508000022431880F0838013444B4FA7FB032C21
:101518002CF0030202EB9C029B1AC01A61F1000234
:101528004FF0CC3100FB01F107FB0211A0FB0703D0
:101538001944420842EAC1724FEA51099246012C05
:1015480067D06C6821463D48FFF75AFE28B121460E
:101558003B48FFF755FE002862D135A3D3E90023A5
:1015680050464946FFF7E2FD80460A9130A3D3E989
:10157800002350464946FFF7D9FD15461C46314A17
:10158800002328462146FFF7D1FD06460F462D4A7F
:10159800002328462146FFF7C9FD15461C464EF68E
:1015A8006022002328462146FFF7C0FD81460B91A3
:1015B8004EF66022002328462146FFF7B7FD154660
:1015C8001C464FF47A72002328462146FFF7AEFDE9
:1015D80083468A464FF47A72002328462146FFF74D
:1015E800A5FDCDE90623CDF810B0CDF814A0CDF8AF
:1015F80008900B9A03920096019742460A9B12495B
:1016080009981AF0E2FE00200DB0BDE8F08F012223
:101618007AE74B460D4909981AF0D7FE0020F3E700
:1016280022460B4909981AF0EEFE6FF00400EBE72A
:10163800005C260500000000CDCCCCCC3C50020854
:101648004050020880EE3600645002082850020814
:101658004C50020800000000F8B5064614461D4626
:101668000022254B20462946FFF790F980BB1EA390
:10167800D3E9002320462946FFF7A6F958BB2046A0
:101688002946FFF7ABF90746FEF7A4FE02460B46CC
:1016980020462946FEF750FD15A3D3E90023FEF79F
:1016A80003FF04460D460022134BFFF76FF9A8B954
:1016B8000DA3D3E9002320462946FFF785F980B911
:1016C800376020462946FFF789F970600020F8BD89
:1016D8006FF02100FBE76FF02100F8E76FF02100C1
:1016E800F5E76FF02100F2E70000C0FFFFFFDF41E0
:1016F8000000000080842E410000E0C100000000CE
:10170800F0B583B0044600251DB10026304603B06D
:10171800F0BD614820F031F800286FD05E4883683A
:10172800DB6840219847064600286CD15A488368F0
:101738001B696A46162198470646002874D1009806
:10174800FEF748FE06460F460198FEF743FE50A3F3
:10175800D3E90023FEF7D2FF02460B46304639464E
:10176800FEF7ECFC02460B464C4920461AF02DFECB
:10177800494883681B696A460E219847064600282F
:1017880063D10098FEF726FE06460F460198FEF73D
:1017980021FE3FA3D3E90023FEF7B0FF02460B4624
:1017A80030463946FEF7CAFC02460B463C492046FD
:1017B8001AF00BFE384883681B696A460D21984762
:1017C8000646002852D10098FEF704FE06460F464A
:1017D8000198FEF7FFFD2EA3D3E90023FEF78EFF45
:1017E80002460B4630463946FEF7A8FC02460B4631
:1017F8002C4920461AF0E9FD013585E72A4920469B
:101808001AF0E3FDF8E7294920461AF0DEFD284BD7
:101818001B6813F0070F3FF479AF3346254A0121BF
:1018280023481AF00CF871E7204920461AF0CDFD3C
:101838001F4B1B6813F0070F3FF468AF33461E4A6F
:1018480001211B4819F0FBFF60E7184920461AF0F0
:10185800BCFD174B1B6813F0070F3FF457AF334617
:10186800154A0121124819F0EAFF4FE70F492046AF
:101878001AF0ABFD0E4B1B6813F0070F3FF446AF91
:1018880033460D4A01210A4819F0D9FF3EE700BF47
:101898000000000080842E41DC2B0208148102081D
:1018A800288102083C810208008102089C41020844
:1018B800C41000203C3602086436020838B52048B7
:1018C8001FF05BFF68B11E4883681B681D49984775
:1018D8000446D8B11C4B1B6813F0070F0FD12046E4
:1018E80038BD194B1B6813F0070F02D16FF01204B3
:1018F800F5E7164A0121144819F097FFF6E7034661
:10190800134A0121104819F09AFFE8E700210C4812
:1019180005F0D2FA054680B110F1780FDFD00A4BF6
:101928001B6813F0070F01D12C46D8E70346094A74
:101938000121054819F083FFF6E70446CFE700BF09
:10194800642B02082836020854100020303502089B
:1019580044350208683502082DE9F04188B000AF27
:101968000546A9481FF009FFA0B10121A64805F0C6
:10197800A3FA0446E0B110F1780F19D0A34B1B6805
:1019880013F0070F30D00346A14A01219F4819F0F0
:1019980056FF29E09D4B1B6813F0070F02D16FF02B
:1019A800120421E09B4A0121984819F03EFFF6E70E
:1019B8000023BB60FB603B617B61BB610423FB6070
:1019C80007F11E033B6102237B610C233B768E48A3
:1019D80083685B6807F108019847044680B18B4B20
:1019E8001B6813F0070F04D120462037BD46BDE819
:1019F800F0810346884A0121844819F020FFF3E763
:101A0800B7F91E307B60804B98683B1D3A7E0921F0
:101A1800008918F082FC0646002840F0A5807B4B20
:101A28001B6813F0040F44D0D7F804C0B7F91E4060
:101A3800E8468AB06B4613F1100200F0A380142127
:101A48009AB10846042903DDDFF8D0E1C3F814E0B1
:101A5800082803DDDFF8C8E1C3F818E00C2801DD29
:101A6800C3F81CC0102800DD1C62132940F38D80C8
:101A780014243AB10521397000217970B970F970D0
:101A88003868186100216FF300016FF341016FF3AB
:101A980082016FF3C501042363F38811C4F30A04B8
:101AA80064F353216FF31F510023584804F086FD57
:101AB800C5466DB17868FFF7C3F85A49FFF7C8F90A
:101AC80028605949FFF7C4F95849FFF70DF928600C
:101AD8004E4B1B6813F0040F7CD02868FEF78CFC73
:101AE80000220023FEF72AFB6C461C220C2312F06E
:101AF800070F4DD103F10805AC461F3323F0070348
:101B0800ADEB030D6A46002D4ED002F1100E032DE9
:101B180048D9BEF1000F07D0042D01DD444B5361B5
:101B2800082D01DD3E4B93611C234FF00C0C13F084
:101B3800070F30D16346BEF1000F04D0AC4502DA7E
:101B4800F444CCE9000108339D4228DB9C46BEF1F1
:101B5800000F29D0C3F387033B7000237B70BB7051
:101B6800FB70386810611FE0284B1B6813F0070FE3
:101B780001D1344638E703462E4A0121234819F09B
:101B88005EFEF6E76FF000415AE76FF01B0470E75E
:101B980004330432ABE70CF1040C0433C7E76FF0ED
:101BA8001B0CD4E76FF01B0C00216FF300016FF3DF
:101BB80041016FF382016FF3C501042363F38811B8
:101BC8006CF353216FF31F51103200230F4804F0B8
:101BD800F5FCA54600210C4805F06EF904460028DE
:101BE8003FF402AF10F1780F0CD0084B1B6813F0CC
:101BF800070F3FF4F9AE0346054A0121034819F0DF
:101C08001EFEF1E63446EFE6642B0208541000206D
:101C1800683502083035020890350208D4350208C4
:101C28001436020800007A440000C8420000254427
:101C3800F8350208AC3502082DE9F0478046894698
:101C480092465C4B1B685C4A03EB430102EB810044
:101C580052F82140456886686CB958494046FFF7F4
:101C6800E1F9002840F0998055494046FFF7F8F916
:101C7800002840F09480012C2AD0B4F1FF3F2ED0E8
:101C88006DB94E494846FFF7CDF9002840F08980E4
:101C98004B494846FFF7E4F9002840F08480012DBD
:101CA80025D0B5F1FF3F2AD05EB944495046FFF729
:101CB800B9F9002879D142495046FFF7D1F90028EF
:101CC80075D1012E23D0B6F1FF3F28D0BDE8F087AB
:101CD8003C494046FFF7A6F90028CED028E03A490B
:101CE8004046FFF7BDF90028CAD0012420E0354955
:101CF8004846FFF797F90028D3D02C4618E0324918
:101D08004846FFF7ADF90028CED0012410E02D4950
:101D18005046FFF787F90028D5D0344608E02A490D
:101D28005046FFF79DF90028D0D0012400E0013487
:101D3800062CCBDC204B04EB440203EB820753F860
:101D48002200FEF77DFF4146FEF7C4FE20F0004565
:101D58007868FEF775FF4946FEF7BCFE20F000469E
:101D6800B868FEF76DFF5146FEF7B4FE20F0004755
:101D780014492846FFF756F90028D8D011493046AB
:101D8800FFF750F90028D2D00E493846FFF74AF934
:101D98000028CCD0074B1C6098E70124C8E7012431
:101DA800C6E70124C4E70124C2E70124C0E70124EF
:101DB800BEE700BFC021002010370208CDCCCCBE42
:101DC800CDCCCC3E9A99193F9A9919BF2DE9F04F7D
:101DD8008FB000AF06460D467A613B614FF0FF3287
:101DE8004FF0FF33AC4815F0E7F8AC481FF0C5FCDE
:101DF80098B14FF00008B8F1040F1FDCA7488368BA
:101E0800DB684021984704463D2817D1642000210B
:101E180016F076F808F10108EDE7A14B1B6813F0FE
:101E2800070F05D19C4815F047F96FF0120438E206
:101E38009C4A01219A4819F0F8FCF3E7002C40F07D
:101E48008B80964883681B6907F120020321984715
:101E58000446002840F09080386AFEF7F1FE80467C
:101E6800786AFEF7EDFE9049FEF7F2FF014640461C
:101E7800FEF732FE8046B86AFEF7E2FE8146F86A4F
:101E8800FEF7DEFE8849FEF7E3FF01464846FEF707
:101E980023FE8146386BFEF7D3FE8246786BFEF749
:101EA800CFFE8149FEF7D4FF01465046FEF714FEE7
:101EB80082467B4B1B6813F0040F00F08F8040466E
:101EC800FEF79AFA00220023FEF738F9C7E9020163
:101ED800EB461C230C2213F0070F5DD102F1080317
:101EE8009C461F3222F00702ADEB020D6A46002B1A
:101EF8005ED002F1100E032B58D9BEF1000F07D0A7
:101F0800042B01DD69495161082B01DD68499161A4
:101F18001C214FF00C0C704611F0070F3FD186467C
:101F2800C7F804C030B19C4504DA8444D7E90201FB
:101F3800CCE90001796808318B4234DB8C46BEF16C
:101F4800000F35D0C1F38701397700237B77BB7742
:101F5800FB77F86910612BE0514B1B6813F0070FF2
:101F680003D14D4815F0A8F89BE12346514A0121B9
:101F78004B4819F064FCF4E7494B1B6813F0070F52
:101F880003D1454815F098F88BE103464A4A0121E8
:101F9800434819F054FCF4E7043204339BE70CF18E
:101FA800040C0431B8E76FF01B0CC8E76FF01B0C8A
:101FB80000216FF300016FF341016FF382016FF3AA
:101FC800C501042363F388116CF353216FF31F5188
:101FD80010320023324804F0F1FADD46304B1B681A
:101FE80013F0040F00F084804846FEF705FA00223B
:101FF8000023FEF7A3F8C7E90201EB461C230C22D5
:1020080013F0070F3DD102F108039C461F3222F05E
:102018000702ADEB020D6A46002B53D002F1100EF9
:10202800032B4DD9BEF1000F07D0042B01DD234946
:102038005161082B01DD1E4991611C214FF00C0CE8
:10204800704611F0070F1FD18646C7F804C030B19B
:102058009C4504DA8444D7E90201CCE90001796897
:1020680008318B4214DB8C46BEF1000F2AD0C1F335
:102078008701397700237B77BB77FB77F869106195
:1020880020E004320433BBE70CF1040C0431D8E738
:102098006FF01B0CE8E700BFF0110020242C0208A9
:1020A8004C10002030350208002474498C36020890
:1020B800003702083C36020864360208AC360208CB
:1020C8006FF01B0C00216FF300016FF341016FF3F8
:1020D80082016FF3C501042363F388116CF3532164
:1020E8006FF31F5110320023734804F067FADD467E
:1020F800714B1B6813F0040F6ED05046FEF77CF945
:1021080000220023FEF71AF8C7E90201EB461C2358
:102118000C2213F0070F3DD102F108039C461F3231
:1021280022F00702ADEB020D6A46002B3ED002F109
:10213800100E032B38D9BEF1000F07D0042B01DD98
:102148005E495161082B01DD5D4991611C214FF009
:102158000C0C704611F0070F1FD18646C7F804C053
:1021680030B19C4504DA8444D7E90201CCE9000186
:10217800796808318B4214DB8C46BEF1000F15D00C
:10218800C1F38701397700237B77BB77FB77F86941
:1021980010610BE004320433BBE70CF1040C04318A
:1021A800D8E76FF01B0CE8E76FF01B0C00216FF30A
:1021B80000016FF341016FF382016FF3C50104233E
:1021C80063F388116CF353216FF31F51103200230E
:1021D800394804F0F3F9DD460EB1C6F800800DB1B8
:1021E800C5F800907B690BB1C3F800A0354950468B
:1021F800FEF72EFE064633494846FEF729FE0546F9
:1022080030494046FEF724FE32462946FFF714FDC2
:102218002D4B1D68284B1B6813F0040F3BD06E46EE
:1022280088B06B4613F1100240D010217AB10846ED
:10223800042903DDDFF894C0C3F814C0082803DDBF
:10224800DFF87CC0C3F818C00C2800DDDD610F2959
:102258002FDD4FF0100C3AB104213977002179773E
:10226800B977F977F869186100216FF300016FF306
:1022780041016FF382016FF3C501042363F38811F1
:10228800CCF30A0C6CF353216FF31F5100230A4857
:1022980004F094F9B5463B6903B11D600C4814F08D
:1022A8000BFF20463C37BD46BDE8F08F6FF000417C
:1022B800BCE76FF01B0CCEE74C100020CC360208B0
:1022C800003702080AE81C41C0210020EC36020849
:1022D800F011002010B5044602F03CFB054B98694C
:1022E800FEF78AF802460B46034920461AF06DF8B5
:1022F80010BD00BFF80D00207037020810B5044665
:1023080002F028FB054B5869FEF776F802460B46A3
:10231800034920461AF059F810BD00BFF80D0020F7
:102328009037020810B5044602F014FB054B1869F3
:10233800FEF762F802460B46034920461AF045F8B4
:1023480010BD00BFF80D0020B037020810B50446D4
:1023580002F000FB054BD868FEF74EF802460B4624
:10236800034920461AF031F810BD00BFF80D0020CF
:10237800CC37020810B5044602F0ECFA054B986811
:10238800FEF73AF802460B46034920461AF01DF8B4
:1023980010BD00BFF80D0020E437020810B5044650
:1023A80002F0D8FA034B1A68034920461AF00DF8D0
:1023B80010BD00BFF80D00200038020810B5044613
:1023C80002F0C8FA054B5868FEF716F802460B46A5
:1023D8000349204619F0F9FF10BD00BFF80D002091
:1023E8001838020870B50646144655681C49284630
:1023F800FEF706FF98B11B492846FEF701FFF8B122
:1024080019492846FEF7FCFE08B9022508E01749D5
:10241800304619F0F8FF30461AF01BF80FE0002597
:10242800A46813492046FEF7EBFE58B1114920462F
:10243800FEF7E6FE58B90021284601F067FE70BD98
:102448000125EDE70121284601F060FEF7E70A497A
:10245800304619F0D8FF304619F0FBFFEFE700BF10
:1024680030380208343802083C3802084438020878
:10247800545B02085C380208603802082DE9F04312
:1024880085B000AF06460D46AF481FF076F9002824
:102498006FD0AD488368DB68402198470446002820
:1024A80075D1A94883681B6907F108020D2198476F
:1024B800044600287CD1B868FEF7C2FB0446F868D9
:1024C800FEF7BEFBA149FEF7C3FC2146FEF704FB5D
:1024D80004469F4B1B6813F0040F00F09780FDF72C
:1024E8008BFF00220023FDF729FEE8461C220C235F
:1024F80012F0070F68D103F1080EF4461F3323F0DA
:102508000703ADEB030D6A46BEF1000F68D002F178
:102518001009BEF1030F61D9B9F1000F09D0BEF15E
:10252800040F01DD8B4B5361BEF1080F01DD8A4BAF
:1025380093611C234FF00C0C13F0070F47D163462F
:10254800B9F1000F04D0F44502DACC44CCE900011B
:1025580008339E453FDB9C46B9F1000F40D0C3F3DA
:1025680087033B7100237B71BB71FB717868106135
:1025780036E0774B1B6813F0070F02D16FF0120497
:102588000AE0764A0121724819F04FF9F6E7704BD4
:102598001B6813F0070F04D120461437BD46BDE869
:1025A800F08303466E4A0121694819F048F9F3E7B8
:1025B800674B1B6813F0070FEED00346694A0121E9
:1025C800634819F03CF9E7E70433043290E70CF16B
:1025D800040C0433B0E76FF01B0CBDE76FF01B0C65
:1025E80000216FF300016FF341016FF382016FF374
:1025F800C501042363F388116CF353216FF31F5152
:1026080010320023524803F0D9FFC54606B13460A2
:102618004D4883681B6907F1080210219847044652
:1026280000285DD1B868FEF70BFB0646F868FEF790
:1026380007FB4649FEF70CFC01463046FEF74CFA0C
:102648000646434B1B6813F0040F78D0FDF7D4FE01
:1026580000220023FDF772FDE8461C220C2312F02D
:10266800070F4AD103F1080EF4461F3323F007037E
:10267800ADEB030D6A46BEF1000F4AD002F1100916
:10268800BEF1030F43D9B9F1000F09D0BEF1040F11
:1026980001DD354B5361BEF1080F01DD2E4B93610F
:1026A8001C234FF00C0C13F0070F29D16346B9F126
:1026B800000F04D0F44502DACC44CCE90001083319
:1026C8009E4521DB9C46B9F1000F22D0C3F3870356
:1026D8003B7100237B71BB71FB717868106118E056
:1026E8001B4B1B6813F0070F3FF456AF03461D4AF8
:1026F8000121174819F0A3F84EE704330432AEE776
:102708000CF1040C0433CEE76FF01B0CDBE76FF021
:102718001B0C00216FF300016FF341016FF382017D
:102728006FF3C501042363F388116CF353216FF32E
:102738001F5110320023064803F040FFC546002D04
:102748003FF42AAF2E6027E70C2C020800247449B6
:1027580070100020B43A0208E43A02083035020842
:102768003C36020864360208CC3A020810B51E4806
:102778001FF003F888B11C4883689B681B49984779
:10278800041E18DB1A4B1C60174883681B6800215D
:1027980098470446D8B9204610BD164B1B6813F05D
:1027A800070F02D16FF01204F5E7134A012111480F
:1027B80019F03BF8F6E70F4B1B6813F0070FEAD048
:1027C80023460E4A01210B4819F039F8E3E7094B73
:1027D8001B6813F0070FDED00346094A012105489C
:1027E80019F02DF8D7E700BFC42B0208680D0020A8
:1027F800C42100207810002030350208003B020870
:10280800283B020810B514481EF0B7FF48B1134B17
:10281800196811488368DB689847044678B92046E8
:1028280010BD0F4B1B6813F0070F02D16FF0120495
:10283800F5E70C4A01210A4818F0F7FFF6E7084BBC
:102848001B6813F0070FEAD00346074A0121044822
:1028580018F0F5FFE3E700BFC42B0208C4210020ED
:102868007810002030350208443B020810B5794B37
:102878009C6821462046FEF7FDFBB0B9764B1B78D5
:10288800EBB176492046FEF7EBFB58B37449204676
:10289800FEF7C8FB30B3734B1B6803F00703022B2A
:1028A80007D86D4B00221A701CE06B4B00221A707F
:1028B80018E06D4A03216B4818F0B7FFF1E76B4940
:1028C8002046FEF7AFFB20B969492046FEF7C8FB52
:1028D80040B1644B1B6803F00703022B21D85E4B01
:1028E80001221A705B4B5C6921462046FEF7C2FB49
:1028F800E8B9604B1B7823B35F492046FEF7B0FB6D
:10290800002832D05D492046FEF78CFB68B3554B52
:102918001B6803F00703022B0DD8564B00221A70D0
:1029280023E0574A03214F4818F07FFFD7E7514B60
:1029380000221A7019E0534A03214A4818F075FF1B
:10294800EBE74FF07F512046FEF76CFB20B94E496C
:102958002046FEF785FB40B1424B1B6803F0070396
:10296800022B21D8434B01221A703A4B9C6921460D
:102978002046FEF77FFBE8B9444B1B7823B33E495A
:102988002046FEF76DFB002832D03C492046FEF772
:1029980049FB68B3334B1B6803F00703022B0DD8C0
:1029A8003A4B00221A7023E0394A03212D4818F0C7
:1029B8003CFFD7E7354B00221A7019E0354A03214E
:1029C800284818F032FFEBE74FF07F512046FEF71A
:1029D80029FB20B92C492046FEF742FB40B1214B88
:1029E8001B6803F00703022B23D8284B01221A7017
:1029F800184BDC6821462046FEF73CFBF8B9264B0D
:102A08001B78002B52D025492046FEF729FB0028C9
:102A18005FD023492046FEF705FB002859D0114B0B
:102A28001B6803F00703022B0DD81B4B00221A70FA
:102A38004FE01C4A03210B4818F0F7FED5E7164B68
:102A480000221A7045E0184A0321064818F0EDFEE6
:102A5800EBE700BFF80D0020C24000200000304125
:102A680000001C42501000206C3B0208000010417E
:102A780000002442C1400020000020400000F04037
:102A8800983B0208C43B020800000841C0400020EF
:102A9800F43B0208203C0208BF40002000000C4222
:102AA80000008C42503C02087C3C02083749204612
:102AB800FEF7B8FA20B936492046FEF7D1FA40B1F8
:102AC800344B1B6803F00703022B26D8324B012234
:102AD8001A70324B1C6A21462046FEF7CBFA10BB0F
:102AE8002F4B1B784BB32F492046FEF7B1F904460C
:102AF8002D49FEF7B5FA002836D02C492046FEF7B6
:102B080091FA002830D0234B1B6803F00703022BEF
:102B18000DD8234B00221A7026E0254A03211D48B0
:102B280018F083FED2E71E4B00221A701CE0214ADF
:102B38000321184818F079FEEBE71A492046FEF7FA
:102B480087F904461C49FEF76DFA20B91B4920464F
:102B5800FEF786FA40B10F4B1B6803F00703022B00
:102B68000DD80F4B01221A70154B18780A4B1B7899
:102B780003B118460A4B1B7803B1184610BD114A19
:102B88000321044818F051FEEBE700BF0000C841DC
:102B98000000A04250100020BF400020F80D002087
:102BA800BE4000200000C8420080314400408344F9
:102BB8009C3C0208BC3C020800802C4400C08544B0
:102BC800C2400020DC3C02082DE9F04F89B000AF7C
:102BD800804689461446AD4B1B78002B00F0B68121
:102BE8004FF40045A94B00221A704FF0FF324FF006
:102BF800FF33A74814F0E0F9A64B1E686FF00043B6
:102C08009E4200F0A58106F00F0645F48045A14BD1
:102C1800D3F804A051465046FEF72CFA002840F09D
:102C280099819D495046FEF75FF8FEF75FFAC3B2F7
:102C38007B6045F40055974BD3F808A051465046A1
:102C4800FEF718FA002840F0888194495046FEF7AC
:102C58004BF8FEF725FA0FFA80FB45F480558D4BAB
:102C6800D3F80CA051465046FEF704FA002840F06D
:102C7800778151465046FDF72FFFFEF737FAC3B26A
:102C88003B6045F40065834BD3F810A0514650468D
:102C9800FEF7F0F9002840F066814FF07C5150466D
:102CA800FEF722F8FEF722FA83B27B6145F48065CD
:102CB800784BD3F814A051465046FEF7DBF90028AC
:102CC80040F0558175495046FEF70EF8FEF7E8F9D1
:102CD80003B23B6145F400756E4BD3F818A051461A
:102CE8005046FEF7C7F9002840F045816B49504629
:102CF800FDF7FAFFFEF7D4F903B2FB6045F48075DF
:102D0800644BD3F81CA051465046FEF7B3F900288F
:102D180040F0358162495046FDF7E6FFFEF7C0F9FD
:102D280003B2BB6045F040055A4BD3F820A051468A
:102D38005046FEF79FF9002840F025815046FEF7DF
:102D4800D5F9824645F02005514814F0B5F92E43CF
:102D5800002121604A4640461FF0BCFB23684B45D2
:102D680080F014815A1C2260320A08F80320236874
:102D78004B4580F019815A1C226008F8036016F44C
:102D8800005F08D023684B4580F01C815A1C2260E4
:102D98007A6808F8032016F4805F11D023684B4541
:102DA80080F01E815A1C22604FEA2B2208F803206B
:102DB80023684B4580F022815A1C226008F803B032
:102DC80016F4006F08D023684B4580F025815A1C03
:102DD80022603A6808F8032016F4806F12D023683E
:102DE8004B4580F027815A1C22607A69120A08F83C
:102DF800032023684B4580F02B815A1C22607A6996
:102E080008F8032016F4007F12D023684B4580F0A1
:102E18002D815A1C22603A69121208F8032023688F
:102E28004B4580F031815A1C22603A6908F803202A
:102E380016F4807F12D023684B4580F033815A1CEA
:102E48002260FA68121208F8032023684B4580F0C4
:102E580037815A1C2260FA6808F8032016F0400FE0
:102E680020D023684B4580F039815A1C2260BA680B
:102E7800121208F8032023684B4580F03D815A1C44
:102E88002260BA6808F803200CE000BFDC0F0020BD
:102E9800B4110020F80D0020000048420000C8428C
:102EA8000000204116F0200F25D023684B4580F004
:102EB80031814FEA1A62591C216008F803202368FF
:102EC8004B4580F035814FEA1A42591C216008F8B9
:102ED800032023684B4580F039814FEA1A22591C98
:102EE800216008F8032023684B4580F03D815A1C77
:102EF800226008F803A0A04B1B6813F0040F00F031
:102F080087816D4601233B7703237B778AB06E4622
:102F180016F1100200F04081122042B10346042845
:102F280001DD96497161082B01DD954BB3610123E1
:102F38003B7603237B76002A00F03D810C2801DDD7
:102F4800904BF36106F12003002132E1002549E6A8
:102F5800FF265CE6FF237B606DE647F6FF7B7EE697
:102F6800FF233B608FE64FF6FF737B61A0E647F6D1
:102F7800FF733B61B0E647F6FF73FB60C0E647F6B8
:102F8800FF73BB60D0E64FF0FF3ADDE67A4B1B6873
:102F980013F0070F02D16FF01B0032E17A4A0121CA
:102FA800754818F042FCF6E7734B1B6813F0070FDF
:102FB80002D16FF01B0024E1734A01216E4818F01A
:102FC80034FCF6E76C4B1B6813F0070F02D16FF067
:102FD8001B0016E16C4A0121674818F026FCF6E749
:102FE800654B1B6813F0070F02D16FF01B0008E157
:102FF800654A0121604818F018FCF6E75E4B1B682B
:1030080013F0070F02D16FF01B00FAE05E4A0121AE
:10301800594818F00AFCF6E7574B1B6813F0070FDE
:1030280002D16FF01B00ECE0574A0121524818F01A
:10303800FCFBF6E7504B1B6813F0070F02D16FF04B
:103048001B00DEE0504A01214B4818F0EEFBF6E782
:10305800494B1B6813F0070F02D16FF01B00D0E03B
:10306800494A0121444818F0E0FBF6E7424B1B6847
:1030780013F0070F02D16FF01B00C2E0424A012192
:103088003D4818F0D2FBF6E73B4B1B6813F0070FDF
:1030980002D16FF01B00B4E03B4A0121364818F01A
:1030A800C4FBF6E7344B1B6813F0070F02D16FF02F
:1030B8001B00A6E0344A01212F4818F0B6FBF6E7BA
:1030C8002D4B1B6813F0070F02D16FF01B0098E01F
:1030D8002D4A0121284818F0A8FBF6E7264B1B6863
:1030E80013F0070F02D16FF01B008AE0264A012176
:1030F800214818F09AFBF6E71F4B1B6813F0070FDF
:1031080002D16FF01B007CE01F4A01211A4818F019
:103118008CFBF6E7184B1B6813F0070F02D16FF012
:103128001B006EE0184A0121134818F07EFBF6E7F1
:10313800114B1B6813F0070F02D16FF01B0060E002
:10314800114A01210C4818F070FBF6E70A4B1B687E
:1031580013F0070F02D16FF01B0052E00A4A012159
:10316800054818F062FBF6E7034B1B6813F0070FDE
:103178000CD16FF01B0044E0581000202C3D0208D1
:10318800483D0208343D0208083D0208214A012151
:10319800214818F04AFBECE76FF00040BDE601F16A
:1031A800080C07F1180EF4441CF808CC03F801CBFE
:1031B80001310129F3D9112827DD122342B1042155
:1031C800397700217977B9770121F977F869306182
:1031D80000216FF300016FF341016FF382016FF378
:1031E800C501042060F38811C3F30A0363F3532174
:1031F800236863F31F514346074803F0DFF9AD46E0
:1032080000202437BD46BDE8F08F6FF01B03D5E7DB
:103218000020F6E7083D02085810002038B504469B
:103228001B4D042229461B48A0470422A9181A4806
:10323800A0470822A9181948A047042205F110013F
:103248001748A047102205F114011648A04710227C
:1032580005F124011448A047042205F1340113485C
:10326800A047042205F138011148A047042205F1BE
:103278003C011048A047042205F140010E48A04730
:10328800012205F144010D48A047002038BD00BFC8
:10329800940D0020603D0208783D0208903D020828
:1032A800A43D0208B83D0208CC3D0208E03D0208F2
:1032B800F83D0208183E0208383E0208503E02084F
:1032C80010B504F0ABFA70B10446184B1B6813F044
:1032D800070F01D1204610BD0346154A01211348A6
:1032E80018F0ADFAF6E7134818F021FD044658B176
:1032F8000E4B1B6813F0070FECD003460E4A012152
:103308000A4818F09CFAE5E70C4804F02BF8044644
:103318000028DFD0054B1B6813F0070FDAD00346EF
:10332800074A0121014818F08AFAD3E75C10002007
:10333800683E0208780D0020903E0208A045020869
:10334800B43E0208B0B582B000AF244B1B6813F03E
:10335800040F34D06C4688B06B4613F1100237D096
:103368000C2142B10846042901DD1D4D5D61082884
:1033780001DD1C4898610B292DDD4FF00C0C3AB18A
:103388000321397100217971B971F971786818616F
:1033980000216FF300016FF341016FF382016FF3B6
:1033A800C501042363F38811CCF30A0C6CF3532191
:1033B8006FF31F510023094803F000F9A54648227E
:1033C80009490A481FF05EF800200837BD46B0BD1D
:1033D8006FF00041C5E76FF01B0CD0E75C100020D0
:1033E800DC3E02088C420208940D0020C82100200F
:1033F800F0B583B004460D4617461E4601AA9F49FC
:1034080018F09AFC10B1019B002B71D001AA9C49BD
:10341800204618F091FC18B1019B002B00F0818028
:1034280001AA9849204618F087FC18B1019B002B87
:1034380000F08E8001AA9449204618F07DFC18B14E
:10344800019B002B00F09B8001AA9049204618F0B0
:1034580073FC18B1019B002B00F0A88001AA8C49CD
:10346800204618F069FC18B1019B002B00F0B580CC
:1034780001AA8849204618F05FFC18B1019B002B6F
:1034880000F0C28001AA8449204618F055FC18B102
:10349800019B002B00F0D08001AA8049204618F03B
:1034A8004BFC18B1019B002B00F0DE8001AA7C497F
:1034B800204618F041FC18B1019B002B00F019813F
:1034C80001AA7849204618F037FC002800F05381FB
:1034D800019B002B40F05281012D40F052812A4679
:1034E80071493046B847041EC0F21A81002409E029
:1034F800042D40F022812A466C493046B847041E04
:1035080003DB0024204603B0F0BD694B1B6813F0B1
:10351800070FF7D02346674A0121654818F08FF94D
:10352800F0E7042D40F00C812A4663493046B8473D
:10353800041E01DB0024E5E75D4B1B6813F0070F51
:10354800E0D023465B4A0121594818F078F9D9E7B9
:10355800082D40F0F8802A4658493046B847041EDE
:1035680001DB0024CEE7524B1B6813F0070FC9D0CC
:103578002346504A01214E4818F061F9C2E7042D4C
:1035880040F0E4802A464E493046B847041E01DB25
:103598000024B7E7464B1B6813F0070FB2D0234649
:1035A800444A0121424818F04AF9ABE7102D40F08F
:1035B800D0802A4643493046B847041E01DB002420
:1035C800A0E73B4B1B6813F0070F9BD02346394AF3
:1035D8000121374818F033F994E7102D40F0BC80EA
:1035E8002A4639493046B847041E01DB002489E7DA
:1035F8002F4B1B6813F0070F84D023462D4A012157
:103608002B4818F01CF97DE7042D40F0A8802A46C5
:103618002E493046B847041E01DB002472E7244BCC
:103628001B6813F0070F3FF46DAF2346214A0121B1
:103638001F4818F004F965E7042D40F093802A46E6
:1036480023493046B847041E01DB00245AE7184BCB
:103658001B6813F0070F3FF455AF2346154A0121A5
:10366800134818F0ECF84DE7042D7ED12A46194985
:103678003046B847041E2FDB002443E7F83E020813
:10368800243F0208343F0208403F02084C3F02082A
:10369800583F0208643F0208783F0208903F02083A
:1036A800A83F0208B83F0208D80D0020940D00205A
:1036B8005C100020083F0208980D00209C0D002097
:1036C800A40D0020A80D0020B80D0020C80D002072
:1036D800CC0D0020D00D00202B4B1B6813F0070FDA
:1036E8003FF410AF2346294A0121274818F0A7F8CC
:1036F80008E7042D3CD12A4625493046B847041E20
:1037080001DB0024FEE6204B1B6813F0070F3FF493
:10371800F9AE23461D4A01211B4818F090F8F1E63E
:10372800194B1B6813F0070F3FF4ECAE2346174AFA
:103738000121154818F083F8E4E66FF01504E1E676
:103748006FF01504DEE66FF01504DBE66FF0150484
:10375800D8E66FF01504D5E66FF01504D2E66FF0E1
:103768001504CFE66FF01504CCE66FF01504C9E632
:103778006FF01504C6E66FF00104C3E66FF00104AC
:10378800C0E66FF01504BDE65C100020083F020893
:10379800D40D002010B50446012903D818F059FEAD
:1037A800002010BD5268044918F02DFE204618F07C
:1037B80050FE6FF01500F4E7C83F020808B5054B46
:1037C80093F8443023B1044A044918F0FEFD08BDBB
:1037D800034AF9E7940D0020E03F0208F03F020891
:1037E800E83F020838B5054601290CD002290ED158
:1037F800546812492046FDF703FD70B9104B0122A9
:1038080083F8442038BDFFF7D9FF0020FAE70D49B7
:1038180018F0F9FD6FF01500F4E70B492046FDF7A5
:10382800EFFC20B9064B002283F84420EAE7074959
:10383800284618F0E8FD6FF01500E3E7E03F0208BE
:10384800940D00200C400208E83F02082C400208B2
:1038580008B5034B1A6C034918F0B7FD08BD00BF43
:10386800940D00204040020810B50446054BD86B63
:10387800FCF7C2FD02460B460349204618F0A5FD99
:1038880010BD00BF940D00205C40020810B504462E
:10389800054B986BFCF7B0FD02460B4603492046E2
:1038A80018F093FD10BD00BF940D00208040020861
:1038B80010B50446054B586BFCF79EFD02460B46B7
:1038C8000349204618F081FD10BD00BF940D00206B
:1038D800A440020808B5034B5A68034918F075FD5F
:1038E80008BD00BF940D0020C440020808B5034B72
:1038F8001A68034918F069FD08BD00BF940D00203F
:10390800E040020838B50546012912D0022914D131
:1039180054682046FDF77EFC0A2814D10023834210
:103928001FD2E25C13498A5C12F0040F12D00133F3
:10393800F5E7FFF78DFF00201BE00F4918F063FD46
:103948006FF0150015E00D49284618F05CFD6FF082
:1039580015000EE00949284618F055FD6FF01500CE
:1039680007E00A220021204615F01AFA044B1864D1
:10397800002038BDD18402080C400208FC4002082F
:10398800940D002038B50546012914D0022916D116
:1039980050681EF0A7FDFDF749F804460E49FDF7EB
:1039A80041FB90B90D492046FDF75AFB68B90C4B0D
:1039B800DC63002038BDFFF757FF0020FAE709490C
:1039C80018F021FD6FF01500F4E70749284618F0B4
:1039D8001AFD6FF01500EDE70000A0C00000A04040
:1039E800940D00200C4002081841020838B505461D
:1039F800012914D0022916D150681EF073FDFDF775
:103A080015F804460E49FDF70DFB90B90D492046FF
:103A1800FDF726FB68B90C4B9C63002038BDFFF707
:103A280035FF0020FAE7094918F0EDFC6FF01500A2
:103A3800F4E70749284618F0E6FC6FF01500EDE7B3
:103A48000000A0C00000A040940D00200C40020817
:103A58001841020838B50546012914D0022916D1A3
:103A680050681EF03FFDFCF7E1FF04460E49FDF7E4
:103A7800D9FA90B90D492046FDF7F2FA68B90C4B0E
:103A88005C63002038BDFFF713FF0020FAE70949FF
:103A980018F0B9FC6FF01500F4E70749284618F04C
:103AA800B2FC6FF01500EDE70000A0C00000A040D8
:103AB800940D00200C4002081841020810B58AB085
:103AC8000446212301AA10210B4817F090F958B990
:103AD80003460A4A126812F0070F0AD0084A012161
:103AE800064817F0ACFE04E001AA0649204618F083
:103AF8006CFC0AB010BD00BFB80D00205C1000209F
:103B0800304102084C41020830B585B0044601290D
:103B180019D002291BD155682846FDF77BFB0146C1
:103B280020281AD110236A46284617F091F905462D
:103B3800D0B1164C04AB13E90F0084E80F00002540
:103B4800284605B030BDFFF7B9FF0025F8E7104952
:103B580018F059FC6FF01505F2E70E49204618F0E9
:103B680052FC6FF01505EBE70B4A126812F0070FCD
:103B780004D10A49204618F046FCE1E70346084A02
:103B88000121054817F05BFEF3E700BFB80D0020E0
:103B98000C400208644102085C1000209C410208A5
:103BA8008041020810B58AB00446212301AA1021D9
:103BB8000B4817F01CF958B903460A4A126812F064
:103BC800070F0AD0084A0121064817F038FE04E01A
:103BD80001AA0649204618F0F8FB0AB010BD00BF3C
:103BE800A80D00205C10002030410208AC410208FA
:103BF80030B585B00446012919D002291BD1556872
:103C08002846FDF707FB014620281AD110236A46EB
:103C1800284617F01DF90546D0B1164C04AB13E938
:103C28000F0084E80F000025284605B030BDFFF7D7
:103C3800B9FF0025F8E7104918F0E5FB6FF0150506
:103C4800F2E70E49204618F0DEFB6FF01505EBE7AA
:103C58000B4A126812F0070F04D10A49204618F0DF
:103C6800D2FBE1E70346084A0121054817F0E7FDC2
:103C7800F3E700BFA80D00200C40020864410208C9
:103C88005C1000209C4102088041020810B584B0F5
:103C98000446092301AA04210B4817F0A8F858B9CB
:103CA80003460A4A126812F0070F0AD0084A01218F
:103CB800064817F0C4FD04E001AA0649204618F09A
:103CC80084FB04B010BD00BFA40D00205C100020D0
:103CD80030410208C441020830B583B004460129C6
:103CE80017D0022919D155682846FDF793FA0146DD
:103CF800082818D104230DEB0302284617F0A8F86A
:103D08000546B8B1144B019A1A610025284603B03C
:103D180030BDFFF7BBFF0025F8E7104918F073FB2B
:103D28006FF01505F2E70E49204618F06CFB6FF0AE
:103D38001505EBE70B4A126812F0070F04D10A4980
:103D4800204618F060FBE1E70346084A01210548D0
:103D580017F075FDF3E700BF940D00200C40020832
:103D6800644102085C1000209C410208804102085E
:103D780010B586B00446112301AA08210B4817F094
:103D880036F858B903460A4A126812F0070F0AD0E3
:103D9800084A0121064817F052FD04E001AA064925
:103DA800204618F012FB06B010BD00BF9C0D002085
:103DB8005C10002030410208DC41020830B583B0B5
:103DC8000446012919D002291BD155682846FDF758
:103DD80021FA014610281AD108236A46284617F006
:103DE80037F80546D0B1164B02AA12E9030083E85A
:103DF80003000025284603B030BDFFF7B9FF0025B2
:103E0800F8E7104918F0FFFA6FF01505F2E70E49C8
:103E1800204618F0F8FA6FF01505EBE70B4A126820
:103E280012F0070F04D10A49204618F0ECFAE1E72E
:103E38000346084A0121054817F001FDF3E700BFD2
:103E48009C0D00200C400208644102085C10002010
:103E58009C4102088041020810B50446012910D08F
:103E68001346022911D10A220021586814F022FFB2
:103E7800A0F13C020B4B9A420DD80B4B5860002026
:103E880010BDFFF727FD0020FAE7084918F0BBFA34
:103E98006FF01500F4E70649204618F0B4FA6FF001
:103EA8001500EDE744510100940D00200C40020874
:103EB8001841020810B50446012912D013460229F8
:103EC80013D10A220021586814F0F4FE034620B1E9
:103ED800411F40F60B6291420DD80A4A1360002038
:103EE80010BDFFF703FD0020FAE7074918F08BFA29
:103EF8006FF01500F4E70549204618F084FA6FF0D2
:103F08001500EDE7940D00200C4002081841020846
:103F180070B582B0044601A9032003F0AFF9054645
:103F280070B1164B1B6813F0070F02D1284602B078
:103F380070BD0346124A0121104817F080FCF5E7CE
:103F48004FF400520021019817F073FE061E07DB9C
:103F5800019817F06DFE002CE8D0012001F006FC56
:103F6800064B1B6813F0070F01D13546DEE73346D1
:103F7800044A0121014817F062FCF6E75C100020B2
:103F8800F44102081842020838B504460120FFF738
:103F9800BFFF054608B9284638BD084B1B6813F013
:103FA800070F04D10649204618F02DFAF3E7034617
:103FB800044A0121014817F042FCF3E75C10002095
:103FC8009C4102083C42020838B5044617F0A0FE9E
:103FD800054610B96CB9284638BD074B1B6813F065
:103FE800070FF8D00346054A0121034817F027FCBC
:103FF800F1E7012001F0BAFB5C10002054420208EE
:1040080038B504460120FFF7DFFF054608B9284602
:1040180038BD084B1B6813F0070F04D1064920462A
:1040280018F0F1F9F3E70346044A0121014817F0B3
:1040380006FCF3E75C1000209C4102087442020869
:1040480010B52B481DF099FBA8B129481DF095FB28
:1040580088B127481DF091FB68B14FF4B01125488D
:1040680016F0EEF90446D8B1234B1B6813F0070F7E
:104078000FD1204610BD204B1B6813F0070F02D14B
:104088006FF01204F5E71D4A01211B4817F0CDFB1C
:10409800F6E703461A4A0121174817F0D0FBE8E76C
:1040A8004FF4B011174816F0CBF9044658B1124B2B
:1040B8001B6813F0070FDCD00346114A01210E4894
:1040C80017F0BDFBD5E74FF4B0110F4816F0B8F95B
:1040D80004460028CDD0084B1B6813F0070FC8D042
:1040E8000346074A0121044817F0A9FBC1E700BFAE
:1040F800342B0208584702086010002030350208A7
:10410800EC460208504702084847020808B50A4624
:1041180001280ED002280ED0A8B1114B1B6813F04D
:10412800070F0FD003460F4A01210D4817F087FBF0
:1041380008E00D4B00E00D4B1979186816F09BF953
:10414800034610B908BD0A4BF6E7054A126812F093
:10415800070FF7D0074A0121014817F070FBF1E774
:104168006010002014470208504702084847020818
:1041780058470208284702082DE9F04383B000AFEA
:10418800FC6A5B4D2D6805F0070CBCF1020F4AD99B
:1041980016466D468AB0EC461CF1100272D04FF0FC
:1041A8001808DAB1C646B8F1040F03DDDFF8449108
:1041B800CCF81490BEF1080F01DDCCF81800BEF160
:1041C8000C0F01DDCCF81C10BEF1100F01DDCCF88E
:1041D8002060BEF1140F01DDCCF82430B8F1170FC0
:1041E80053DD182342B10621397100217971B97163
:1041F800F9717868CCF8100000216FF300016FF3B3
:1042080041016FF382016FF3C501032060F3881148
:10421800C3F30A0363F353216FF31F510023344898
:1042280002F0CCF9AD46002C5BD0314B1B6803F093
:104238000703022B55D96E4600233B7102237B717D
:1042480088B06D4615F1100222D00E201AB104284C
:1042580001DD294B6B6100233B7002237B70D2B1D7
:10426800082801DD254BAB6105F11C03002101295C
:1042780011D801F1080CBC441CF808CC03F801CB98
:104288000131F4E76FF000488BE76FF01B03A9E7F3
:104298006FF00040DAE70D2827DD0E2342B1032135
:1042A800397100217971B9710121F9717868286132
:1042B80000216FF300016FF341016FF382016FF387
:1042C800C501032060F38811C3F30A0363F3532184
:1042D80097F8283063F31F512346054802F06EF91A
:1042E800B5460C37BD46BDE8F0836FF01B03D5E734
:1042F80064100020684702089C5C0208984702087E
:1043080010B582B004460DF106010DF1070018F052
:1043180035FD0E4B1A6802F00702022A07D80B4B2C
:104328001B6803F00703022B08D802B010BD234610
:10433800074A0321054817F082FAF0E79DF806308E
:10434800044A0321014817F07AFAEEE764100020C6
:10435800A4470208B847020810B51F481DF00DFA17
:10436800A0B1052006F03AF8041E1DDB06F0C4FAD9
:10437800044628B3194B1B6813F0070F29D00346CE
:10438800174A0121154817F05AFA22E0134B1B6807
:1043980013F0070F02D16FF012041AE0114A01213D
:1043A8000E4817F042FAF6E70C4B1B6813F0070F9C
:1043B8000FD023460C4A0121084817F040FA08E0BC
:1043C8000A4806F081FA0A4806F078FA094806F021
:1043D8008DFA204610BD00BFF42B0208641000209F
:1043E800FC47020830350208D4470208DC0D0020DB
:1043F80099A401080943000810B51348012303755F
:10440800124B03611A7A597A41EA02219C7ADA7AC4
:1044180042EA042242EA0142026003F10C0282608D
:104428001C33436005F0FEFF044608B9204610BD62
:10443800074B1B6813F0070FF8D00346054A012104
:10444800034817F0FCF9F1E710220020D0210020E2
:10445800641000201C48020810B50023CAB20146A7
:10446800012006F00DF9044608B9204610BD064B98
:104478001B6813F0070FF8D00346044A01210248CD
:1044880017F0DDF9F1E700BF641000203C4802088E
:104498002DE9F04784B000AF04460E469046A34885
:1044A8001DF06BF900286FD0A0488368DB684021B5
:1044B80098470546002875D19C4883681B6907F111
:1044C800080216219847054600287CD1B868FCF7F1
:1044D800B7FB0546F868FCF7B3FB9549FCF7B8FC51
:1044E8002946FCF7F9FA0546924B1B6813F0040FAE
:1044F80000F09780FBF780FF00220023FBF71EFEE9
:10450800E9461C220C2312F0070F68D103F1080EAC
:10451800F4461F3323F00703ADEB030D6A46BEF1E3
:10452800000F68D002F1100ABEF1030F61D9BAF189
:10453800000F09D0BEF1040F01DD7F4B5361BEF1BE
:10454800080F01DD7D4B93611C234FF00C0C13F019
:10455800070F47D16346BAF1000F04D0E64502DDE4
:10456800D444CCE9000108339E453FDB9C46BAF1B0
:10457800000F40D0C3F387033B7100237B71BB71ED
:10458800FB717868106136E06A4B1B6813F0070FFF
:1045980002D16FF012050AE0694A0121654817F057
:1045A80044F9F6E7634B1B6813F0070F04D128465C
:1045B8001037BD46BDE8F0870346624A01215D48D1
:1045C80017F03DF9F3E75B4B1B6813F0070FEED0CC
:1045D80003465D4A0121574817F031F9E7E70433EC
:1045E800043290E70CF1040C0433B0E76FF01B0CB5
:1045F800BDE76FF01B0C00216FF300016FF3410161
:104608006FF382016FF3C501042363F388116CF320
:1046180053216FF31F5110320023464801F0CEFF9B
:10462800CD4604B12560414883681B6907F108023B
:104638000E2198470546002861D1B868FCF700FBB1
:104648000446F868FCF7FCFA3949FCF701FC014616
:104658002046FCF741FA0446364B1B6813F0040F5A
:1046680000F090803949FCF7F3FBFBF7C5FE002208
:104678000023FBF763FD6D461C220C2312F0070F85
:104688004AD103F1080EF4461F3323F00703ADEBBC
:10469800030D6A46BEF1000F5ED002F11009BEF1AB
:1046A800030F57D9B9F1000F09D0BEF1040F01DD8E
:1046B800274B5361BEF1080F01DD204B93611C238A
:1046C8004FF00C0C13F0070F29D16346B9F1000F16
:1046D80004D0F44502DACC44CCE9000108339E4505
:1046E80021DB9C46B9F1000F36D0C3F387033B7139
:1046F80000237B71BB71FB71786810612CE00D4B56
:104708001B6813F0070F3FF452AF03460E4A01210E
:10471800084817F094F84AE704330432AEE70CF17E
:10472800040C0433CEE76FF01B0CDBE7DC2B02082C
:10473800002474496810002064480208944802085C
:10474800303502083C360208643602080000C842C8
:104758007C4802086FF01B0C00216FF300016FF317
:1047680041016FF382016FF3C501042363F38811DC
:104778006CF353216FF31F5110320023514801F09D
:104788001DFFAD4606B134604F4883681B6907F1C9
:1047980008020D219847054600285DD1B868FCF746
:1047A8004FFA0446F868FCF74BFA4849FCF750FB07
:1047B80001462046FCF790F90446424B1B6813F06B
:1047C800040F78D0FBF718FE00220023FBF7B6FC95
:1047D8006E461C220C2312F0070F4AD103F1080E73
:1047E800F4461F3323F00703ADEB030D6A46BEF111
:1047F800000F4AD002F11009BEF1030F43D9B9F1F5
:10480800000F09D0BEF1040F01DD314B5361BEF139
:10481800080F01DD2F4B93611C234FF00C0C13F094
:10482800070F29D16346B9F1000F04D0F44502DA25
:10483800CC44CCE9000108339E4521DB9C46B9F104
:10484800000F22D0C3F387033B7100237B71BB7138
:10485800FB717868106118E01A4B1B6813F0070F9A
:104868003FF4A5AE03461C4A0121164816F0E7FF9F
:104878009DE604330432AEE70CF1040C0433CEE7B2
:104888006FF01B0CDBE76FF01B0C00216FF30001CE
:104898006FF341016FF382016FF3C501042363F3E2
:1048A80088116CF353216FF31F5110320023054810
:1048B80001F084FEB546B8F1000F3FF478AEC8F8B1
:1048C800004074E668100020DC2B020800247449BC
:1048D800B43A0208944802086436020808B5024946
:1048E80002481DF0B0F808BDE80D00206012002055
:1048F80010B582B0134C20461DF0AFF8002300938A
:104908000E234FF480521049204612F0B1FD0F4B90
:104918001B6813B9002002B010BD4FF47A7202FB75
:1049280003F3990F9A00D31841F10002D81842EB0B
:1049380002010090019142F210720023044813F022
:10494800BBFEE7E76012002000410020C8210020DC
:1049580068110020F0B587B06FF0004305933E4B17
:104968000493039302930193009304A8FCF7F4FFC4
:1049780028B10346394A126812F0070F46D105AB31
:10498800002211461046FDF721FA034620B1334AAA
:10499800126812F0070F3FD102A903A8FDF76EFDB8
:1049A800034620B12D4A126812F0070F3AD12C4B5A
:1049B80093F84430002B3BD12A4F4FF0FF324FF091
:1049C800FF33384612F0F8FA274C059B2360049B06
:1049D8006360234D0399686BFCF77EF8A060029B27
:1049E800E3601D4E26613146A86BFCF775F86061DF
:1049F8003146E86BFCF770F8A061019BE361009B0E
:104A08002362384612F058FB07B0F0BD174A01215F
:104A1800124816F014FFB2E7154A01210F4816F0A4
:104A28000EFFB9E7134A01210C4816F008FFBEE74C
:104A38000022694601A8FFF72BFD03460028BBD0DA
:104A4800064A126812F0070FB6D00B4A0121034834
:104A580016F0F5FEB0E700BF0000C07F6C10002024
:104A6800C8210020B4110020F80D0020B848020821
:104A7800E0480208044902082849020808B5024922
:104A880002481CF0E0FF08BD1C0E0020481300205F
:104A980030B593B03B4D6C68042103A81AF055FD5E
:104AA80003996B68384A82FB0302DB17C3EBA20346
:104AB80091FBF3F203FB12110C44344B1B6803F017
:104AC8000703022B31D84FF47A7303FB04F18B0FE1
:104AD8008A00521843F1000392185B414FF0FF30EF
:104AE8004FF0FF31CDE90001294813F0E5FD254BD2
:104AF8001B680BB304AA332105A8FEF765F8034623
:104B0800E8B9224B1B6803F00703022B22D804994B
:104B180005A8FFF7A1FC034610BB1C4B1B6803F05C
:104B28000703022B27D813B030BD2346194A0321A7
:104B3800164816F084FEC6E7FFF70CFFDAE7134ABB
:104B4800126812F0070FEED0134A01210F4816F031
:104B580076FEE8E7114A03210C4816F066FED6E710
:104B68000A4A126812F0070FDDD00D4A01210748E2
:104B780016F065FED7E70B4A0321044816F055FEE8
:104B8800D1E700BFC821002067666666BC10002018
:104B9800301100205C49020884490208A44902082F
:104BA800B4490208D449020838B50446FFF724FC82
:104BB800054690B10B4B1B6813F0070F06D12A4628
:104BC8000949204617F001FC284638BD0346074A24
:104BD8000121044816F033FEF1E70549204617F095
:104BE800F4FBF1E7BC100020004A0208E049020883
:104BF800144A020810B582B004464FF0FF324FF055
:104C0800FF33CDE9002300220023054813F054FDAB
:104C18000449204617F0D9FB002002B010BD00BFA0
:104C280030110020144A020810B582B0474B1B68A7
:104C380003F00703022B16D8454B93F8443023B1F1
:104C4800444812F00DF9044698B915F027FCFFF70F
:104C5800D3FB044600B33D4B1B6813F0070F14D178
:104C6800204602B010BD3C4A0321384816F0DDFD4D
:104C7800E2E7364B1B6813F0070FF1D00346374ABB
:104C88000121324816F0DBFDEAE70346344A0121E8
:104C98002E4816F0D4FDE3E7324C20461CF0DDFE2A
:104CA800002300930E234FF480522F49204612F020
:104CB800DFFB4FF0FF324FF0FF33CDE900234CF21A
:104CC80050320023294813F0F7FC22E0284A032138
:104CD8001E4816F0AAFD22E01C4B1B6813F0070FB4
:104CE800BED00346234A0121184816F0A8FDB7E7AD
:104CF80001210846FFF70AFA3220002113F000F9D3
:104D080000210120FFF702FA47F23050002113F08A
:104D1800F7F80E4B1B6803F00703022BD6D8FDF7F4
:104D280071FD04460028D7D1FDF7A0FD0028DFD08B
:104D380001210020FFF7EAF93220002113F0E0F802
:104D480000210846FFF7E2F9DEE700BFBC100020AB
:104D5800C8210020DC2B0208284A02084C4A020815
:104D6800E04902084813002040510020301100207B
:104D7800784A0208804A02084FF0000C944515D280
:104D880010B511F80C3058400309094CE35C83EA6C
:104D980000135FFA83FEC3F30313E05C80EA0E108E
:104DA800C0B20CF1010C9445EBD310BD704700BFA5
:104DB8000C4B02082DE9F04F91B00592029313466F
:104DC80002F004020092C3F3C20210F0030301933D
:104DD80040F02B8280468A460132041D00284FD0BD
:104DE800B8F1000F05D0A4EB08030433534500F2D3
:104DF8001F82029B5D1E019B04930693039300266A
:104E08004FF0FF3B0427B946B8F1000F01D0029BD1
:104E18002360531E0793002A40F35D81059B13F01E
:104E2800020228D00120A4EB08018B081AB1B1F5C1
:104E3800007F80F0038203990F2900F20282B8F103
:104E4800000F00F06081DBB201F140026A4402F811
:104E5800103C02F820BC002800F0518163F07F0369
:104E680001F140026A4402F8103C049B01330493A8
:104E7800039B0133039304340022CC4640463DE0B3
:104E880001F0070A5444CAF1080AA9E7002634E0E9
:104E9800002632E0002630E00827BC462DE0252910
:104EA8002BD10BF1010B01260427BC4625E047292D
:104EB800EED82A2914D32A39C9B24FF0010E0EFAB6
:104EC80001F14FF6DA7E11EA0E0F16D111F0625F8A
:104ED80040F0C08011F0010F40F08C8000260CE0FB
:104EE800252903D10BF1FF3B002606E001D9002656
:104EF80003E0202901D02329CCD11D466B1C6978F9
:104F0800002900F01981002EC9D07A29BED84C2971
:104F1800CDD34C392E2961D80FF2040E5EF821F05A
:104F2800034F0008E54F0008E54F0008E54F00086B
:104F3800E54F0008E54F0008E54F0008E54F000879
:104F4800E54F0008E54F0008E54F0008E54F000869
:104F5800F54F0008E54F0008E54F0008E54F000849
:104F6800E54F0008E54F0008E54F0008E54F000849
:104F7800E54F00085D500008E54F0008F54F0008B0
:104F8800F54F00085D5000085D5000085D500008AE
:104F9800034F0008F54F0008A14E0008E54F000830
:104FA800034F0008E54F0008B9500008F54F000806
:104FB800B9500008E54F0008E54F0008C150000847
:104FC800EF4F0008F54F0008E54F0008E54F0008CF
:104FD800F54F0008E54F0008E94F000800268CE768
:104FE8000427BC4689E70427BC4686E729786C294C
:104FF80024D000263C44013CB4FBF7F407FB04F43E
:1050080020B1211A6144514500F21581002A58D176
:10501800BCF1040F00F08880BCF1080F40F0148147
:105028001A99073121F0070101F108051A95D1E90C
:10503800008908B1C4E9008908345EE713F8021C46
:105048006C2903D000260427BC46D3E7002608278E
:10505800BC46CFE729784C291AD01A99073121F094
:10506800070101F108061A96D1E90067073424F010
:10507800070440B1211A0831514513D829784C2921
:1050880013D0C4E90067083400260827BC4634E773
:105098001A99073121F0070101F108061A96D1E99A
:1050A8000067E3E76FF01B00BCE0C4E90067EAE7CC
:1050B80000260427BC469DE7324600260427BC4646
:1050C80098E7E14680461A9A111D1A9112680292D1
:1050D800079A1D4698E6624B029A9A4204D3614B9E
:1050E8009A420AD3002300E00023002B7FF496AEF7
:1050F800059B03F00202002095E60123F5E7069BD5
:1051080001330693B4E610B10AF1010AB0E6009B38
:1051180013B10AF1020AABE60298FCF77BF80AEB36
:10512800000303F1020AA3E61A990D1D1A950968EE
:1051380000B121600434E0E68046231AB3F5806F9D
:1051480080F0858090B1002202609B080370009B6C
:1051580083B1069BC370049B88F802301BBB019D7A
:10516800DDF80C90DDF810B0029F3DE05344A3F148
:10517800080057E0069B4370EDE701339842EED9EB
:1051880003F140026A4412F8101C12F9102C002A8C
:10519800F3DA01F07F01A4EB08020132524559D835
:1051A80004F8011BE9E7019B0398E7E7009B43B379
:1051B80005F140036B4413F8203C04F8013B019EC1
:1051C800A4EB080333440133534546D805F14003A3
:1051D8006B4413F8103C04F8013B3246394620462C
:1051E8001DF050F934440135A94519D9BBF1000F18
:1051F800DCD005F140036B4413F9103C002BD5DAE1
:10520800F1E705F140036B4413F8103C58F823709C
:10521800002248F823203846FBF7FCFF461CCFE75E
:10522800A4EB080011B0BDE8F08F6FF00D00F9E7AE
:105238006FF01B00F6E76FF01B00F3E76FF0150047
:10524800F0E76FF01500EDE76FF01500EAE76FF093
:105258001500E7E76FF01B00E4E76FF01B00E1E7DC
:10526800AC290208EC8502082DE9F04F97B000AF91
:105278008346BA613B61D7F88030C3F3C0033B6211
:10528800F96011B915F0F3F9F8609BF80260B146BE
:1052980036B1D7F8803013F0010F0DD1002300E0AC
:1052A80000239BF803207A6242B1D7F8802012F0DD
:1052B800020F22D1002202E00123F2E7002202B904
:1052C800EBB19BF80050AA00BA60DBF804207A61C1
:1052D8000BEB8505BA69F2B1002B40F00581B9F1F5
:1052E800000F00F01081D7F8803013F0040F40F061
:1052F8000E810020F8610646FAE00122DFE7BB696B
:105308001BB13A69F96858469847FC6820465C37EB
:10531800BD46BDE8F08FFC6853BB4D444FF0000814
:10532800D7F8803003F00503FB604FF0000AC7F898
:105338001080A046C7F81CB0D7F804B0BEE00444FB
:10534800013501364E45EBD22A7800235BF822203E
:105358001946B86915F0A0F9BAF1000FEFD0D7F8DF
:1053680088309845EBD22AF8180008F10108E6E7DA
:105378000026B046D7F884A0E4E700253B6A7BB94D
:10538800002D7DD0D7F8803013F0010F7DD1FB6858
:10539800002B73D10223A8EB03088CE00125EDE76D
:1053A8004946786915F0BEF90028E9D0BB4B1B685F
:1053B80013F0060F40D06C46002387F82C300223E8
:1053C80087F82D308AB0694611F1100237D01225BE
:1053D8001AB1042D01DDB24B4B61002387F8283048
:1053E800022387F829306ABB112D44DD122362B1EC
:1053F800042087F82C00002087F82D0087F82E005D
:10540800012087F82F00F86A08616FF3000B6FF32B
:10541800410B6FF3820B6FF3C50B022161F3881BFD
:10542800C3F30A0363F3532B6FF31F5B002359463F
:105438009A4801F0C3F8A546A8F102083BE06FF0CE
:105448000045C5E72B46082D01DD786988610C2BDE
:1054580001DDC1F81C9001F1200300200128C3D808
:1054680000F1300C07F1280EF4441CF830CC03F896
:1054780001CB0130F2E76FF01B03B8E701238AE79D
:10548800D7F8803013F0020F15D0002322461946B2
:10549800B86915F001F9D7F8843053B13B69D7F8EA
:1054A8008820934205D2D7F8842022F813000133CC
:1054B8003B61013880440AF1010A35467B6A9A4506
:1054C80010D22E4616F8029B6B78FA6952F82340E0
:1054D800744B9C42FFF451AF734B9C42FFF45EAF98
:1054E80000254BE7444611E707F144000023FB6120
:1054F80018B14A4629461CF0C5FF4D444FF0000834
:10550800C7F804901EE00020F8610646F0E7FE6147
:1055180007F134000026EBE700253B6A33BB002D7A
:105528003BD0D7F8803013F0010F26D0731C06F15A
:10553800300207F12801561806F8149CDEB208F16B
:10554800010825467B6A98454AD22C4614F802ABD6
:1055580095F801905BF82930524A9342DCD3524ABD
:10556800934201D30025D8E70125D6E7514678694B
:1055780015F0D8F80028D2D0E1E7D7F8803013F03A
:10558800040FDCD0FA69531C303207F128010A44B1
:1055980002F8249CDBB2FB61D1E7D7F8803013F026
:1055A800020F09D0731C06F1300207F128015618C2
:1055B80006F8149CDEB2C2E7F869431C00F130011A
:1055C80007F128028A1802F824AC02460232D2B245
:1055D800FA6107F1580252FA83F303F8249CAEE704
:1055E800D7F804909BF8003087F854309BF80130C6
:1055F800334487F85530D7F8803013F0020F0ED1B6
:10560800FB69C3F3470387F85730D7F8803013F0A6
:10561800010F06D113F0040F3ED1002302E000234E
:10562800F1E7002387F85630DBF800003863786D1F
:10563800CBF80000D7F810804246B9685846D7F82A
:1056480018A0D047041EFFF661AE386BCBF80000F7
:10565800C7F810804246F96907F13400D04700289E
:105668005EDB04EB0008B96849447B6A01EB43013F
:10567800D7F810904A46FB68591A2846D047041EA6
:10568800FFF644AE08EB04054FF00008C7F824B055
:10569800B3465446CA4621E0FB69C3E77C100020A4
:1056A8001C4B0208AC290208EC8502084FF00009DF
:1056B80001E04FF000095246012107F12C00A047F4
:1056C80000282FDB05444B4632465146204614F04D
:1056D800E3FF002828DB054408F10108D84518D263
:1056E80008F1300307F12802134413F8143C87F833
:1056F8002C307A6A52F82360D7F88430002BD5D042
:10570800D7F888309845D4D2D7F8843033F8189031
:10571800D1E73A6900210846BB6998472C46F5E568
:105728000446F3E50446F1E50446EFE5014B18604D
:10573800704700BF2C0E002080B505460E46174660
:10574800984612F033FC03461DF022F90446DFF8B0
:10575800189049F80030424639463046A84754F870
:10576800090004F0BDF800BF0800000008B50446B1
:10577800EFF31183102383F31288BFF36F8F1BF0AD
:10578800EDFE204617F0ADF9024814F0F8FF17F0C7
:10579800C8F9FCE7D44B020882B04FF0B0439A6CCA
:1057A80042F001029A649B6C03F001030193019B90
:1057B800034A536843F002035360002002B0704765
:1057C800002004E0084B1A6842F400721A601A6854
:1057D80042F480621A601A6842F480721A60034BBD
:1057E800034A1A60704700BF00400058C80F0020E5
:1057F80000093D002DE9F04387B0044600230393D8
:10580800C36A5F7900F114094FF0FF324FF0FF339C
:10581800484611F0D1FBE36A1E68012E06D9F31D34
:1058280076421E404FF00008454603E00826F9E797
:105838000135ADB2E389AB421CD9A189891B89B274
:1058480001EB0541039108233A46204615F05EFB1B
:105858000028EDD008F101081FFA88F803A92046AE
:1058680015F091FB08233A460399204615F04EFBA4
:105878000028DDD1E389434500F00381AB420DD018
:1058880003A9204615F0D2FB0546002840F0DE802B
:10589800039B63601B0C1B04A36010E008233A46BB
:1058A8000399891B204615F031FB0028E8D103A98C
:1058B800204615F068FBE3E763689B1B636061683B
:1058C800A36899422DD304AA204615F01AFB054671
:1058D800002840F0B480394604A815F048FB00B30E
:1058E80004A9204615F086FB0028E5D0BDF80E3047
:1058F8001A04A260BDF81230BDF814000344E16A2E
:105908000968012903D90B44013B49420B40134460
:10591800A36062689342CFD10028CDD06FF01C05F8
:1059280094E0E3881B04039303A9204615F02BFB9E
:10593800A3893A460399204615F0E8FA051EC0F2F5
:105948008580002D68D063683344039302E0039B8D
:105958003344039303998AB2A3899B1B9A4218D2B2
:1059680001AA204615F0CDFA0546002867D101A9FD
:10597800204615F03FFB0028E9D0BDF804204FF67B
:10598800FF739A42E3D1BDF80830002BDFD1012321
:1059980000E00023E3B93C4B1B6803F00703022B2C
:1059A8002FD86168204615F0FBFA054600284DD12E
:1059B800E3881B046360A289A2EB46021344636078
:1059C8001B0C1B04A360204615F091FC054636E02D
:1059D8002D4B1B6803F00703022B0CD8E3881B042C
:1059E800039303A9204615F0CEFA0399204615F033
:1059F800D7FA054623E0254A0321234815F015FF69
:105A0800ECE7234A0321204815F00FFFC9E7A368F4
:105A1800E26A12681344A3606368A1688B4208D9DC
:105A28005B1A3A46204615F071FA051E07DB002D71
:105A3800EDD1616801EB4602A3899A420DD02DB9D8
:105A4800A288A389A3EB46039A4215D0484611F0D1
:105A580033FB284607B0BDE8F083A2680B0C1B0493
:105A68009A42ECD0204615F09BFA05460028EDD165
:105A7800E3881B04A360E2E7204615F020FC0546F6
:105A8800E4E76FF02C05E1E78C100020044C0208D5
:105A98001C4C020830B587B0044614301BF0D0FE09
:105AA800A06A8368DB689847E062002837D0A06A5C
:105AB8008368DB6898470368013B1F2B3DD8A06AC1
:105AC800216803AA1AF0F4F8002844D1A389002B0E
