:020000040800F2
:1000000000710020553900087DF3000841390008CF
:10001000413900084139000841390008000000005A
:10002000000000000000000000000000113A00087D
:100030004139000800000000AD39000841390008CE
:10004000B93B0008B93B0008B93B0008B93B0008C0
:10005000B93B0008B93B0008B93B0008B93B0008B0
:10006000B93B0008B93B0008B93B0008B93B0008A0
:10007000B93B0008B93B0008B93B0008B93B000890
:10008000B93B0008B93B0008B93B0008B93B000880
:10009000B93B0008B93B0008B93B0008B93B000870
:1000A000B93B0008B93B0008B93B0008B93B000860
:1000B000B93B0008B93B0008B93B0008B93B000850
:1000C000B93B0008B93B0008B93B0008B93B000840
:1000D000B93B0008B93B0008B93B0008B93B000830
:1000E000B93B0008B93B0008B93B0008B93B000820
:1000F000B93B0008B93B0008B93B0008B93B000810
:10010000B93B0008B93B0008B93B0008B93B0008FF
:10011000B93B0008B93B0008B93B0008B93B0008EF
:10012000B93B0008B93B0008B93B0008B93B0008DF
:08013000B93B0008B93B0008CF
:1001380081F0004102E000BF83F0004330B54FEA90
:1001480041044FEA430594EA050F08BF90EA020FFD
:100158001FBF54EA000C55EA020C7FEA645C7FEA90
:10016800655C00F0E2804FEA5454D4EB5555B8BFB3
:100178006D420CDD2C4480EA020281EA030382EA24
:10018800000083EA010180EA020281EA0303362DB6
:1001980088BF30BD11F0004F4FEA01314FF4801C89
:1001A8004CEA113102D0404261EB410113F0004F9B
:1001B8004FEA03334CEA133302D0524263EB430352
:1001C80094EA050F00F0A780A4F10104D5F1200EF0
:1001D8000DDB02FA0EFC22FA05F2801841F100014B
:1001E80003FA0EF2801843FA05F359410EE0A5F11F
:1001F80020050EF1200E012A03FA0EFC28BF4CF050
:10020800020C43FA05F3C01851EBE37101F0004505
:1002180007D54FF0000EDCF1000C7EEB00006EEB12
:100228000101B1F5801F1BD3B1F5001F0CD349089C
:100238005FEA30004FEA3C0C04F101044FEA4452F3
:1002480012F5800F80F09A80BCF1004F08BF5FEA7A
:10025800500C50F1000041EB045141EA050130BD5A
:100268005FEA4C0C404141EB0101013C28BFB1F56C
:10027800801FE9D291F0000F04BF01460020B1FAB7
:1002880081F308BF2033A3F10B03B3F120020CDA8A
:100298000C3208DD02F1140CC2F10C0201FA0CF068
:1002A80021FA02F10CE002F11402D8BFC2F1200CCD
:1002B80001FA02F120FA0CFCDCBF41EA0C01904083
:1002C800E41AA2BF01EB0451294330BD6FEA0404CC
:1002D8001F3C1CDA0C340EDC04F11404C4F12002B7
:1002E80020FA04F001FA02F340EA030021FA04F3C9
:1002F80045EA030130BDC4F10C04C4F1200220FA20
:1003080002F001FA04F340EA0300294630BD21FA5D
:1003180004F0294630BD94F0000F83F4801306BF23
:1003280081F480110134013D4EE77FEA645C18BF17
:100338007FEA655C29D094EA050F08BF90EA020FAE
:1003480005D054EA000C04BF1946104630BD91EAA6
:10035800030F1EBF0021002030BD5FEA545C05D1A9
:100368004000494128BF41F0004130BD14F58004E8
:100378003CBF01F5801130BD01F0004545F0FE415C
:1003880041F470014FF0000030BD7FEA645C1ABF91
:10039800194610467FEA655C1CBF0B46024650EAC8
:1003A800013406BF52EA033591EA030F41F40021F4
:1003B80030BD00BF90F0000F04BF0021704730B57A
:1003C8004FF4806404F132044FF000054FF000014F
:1003D80050E700BF90F0000F04BF0021704730B510
:1003E8004FF4806404F1320410F0004548BF4042E5
:1003F8004FF000013EE700BF42004FEAE2014FEA3A
:1004080031014FEA02701FBF12F07F4393F07F4F14
:1004180081F06051704732F07F4208BF704793F017
:100428007F4F04BF41F40021704730B54FF460742A
:1004380001F0004521F000411CE700BF50EA01022D
:1004480008BF704730B54FF000050AE050EA0102D6
:1004580008BF704730B511F0004502D5404261EB46
:1004680041014FF4806404F132045FEA915C3FF487
:10047800D8AE4FF003025FEADC0C18BF03325FEA24
:10048800DC0C18BF033202EBDC02C2F1200300FAD5
:1004980003FC20FA02F001FA03FE40EA0E0021FAFA
:1004A80002F11444BDE600BF70B54FF0FF0C4CF4E8
:1004B800E06C1CEA11541DBF1CEA135594EA0C0F9A
:1004C80095EA0C0F00F0DEF82C4481EA030621EAD5
:1004D8004C5123EA4C5350EA013518BF52EA033510
:1004E80041F4801143F4801338D0A0FB02CE4FF0C2
:1004F8000005E1FB02E506F00042E0FB03E54FF0F2
:100508000006E1FB03569CF0000F18BF4EF0010EE9
:10051800A4F1FF04B6F5007F64F5407404D25FEAE5
:100528004E0E6D4146EB060642EAC62141EA555198
:100538004FEAC52040EA5E504FEACE2EB4F1FD0CDA
:1005480088BFBCF5E06F1ED8BEF1004F08BF5FEA58
:10055800500E50F1000041EB045170BD06F000460A
:1005680046EA010140EA020081EA0301B4EB5C04B7
:10057800C2BFD4EB0C0541EA045170BD41F48011AF
:100588004FF0000E013C00F3AB8014F1360FDEBFD4
:10059800002001F0004170BDC4F10004203C35DAB0
:1005A8000C341BDC04F11404C4F1200500FA05F333
:1005B80020FA04F001FA05F240EA020001F00042D4
:1005C80021F0004110EBD37021FA04F642EB06014A
:1005D8005EEA430E08BF20EAD37070BDC4F10C0474
:1005E800C4F1200500FA04F320FA05F001FA04F238
:1005F80040EA020001F0004110EBD37041F1000124
:100608005EEA430E08BF20EAD37070BDC4F120052E
:1006180000FA05F24EEA020E20FA04F301FA05F296
:1006280043EA020321FA04F001F0004121FA04F23E
:1006380020EA020000EBD3705EEA430E08BF20EA0E
:10064800D37070BD94F0000F0FD101F00046400048
:1006580041EB010111F4801F08BF013CF7D041EACA
:10066800060195F0000F18BF704703F000465200CE
:1006780043EB030313F4801F08BF013DF7D043EA9F
:100688000603704794EA0C0F0CEA135518BF95EA55
:100698000C0F0CD050EA410618BF52EA4306D1D1DC
:1006A80081EA030101F000414FF0000070BD50EAFB
:1006B800410606BF1046194652EA430619D094EA85
:1006C8000C0F02D150EA013613D195EA0C0F05D16F
:1006D80052EA03361CBF104619460AD181EA0301C3
:1006E80001F0004141F0FE4141F470014FF000007B
:1006F80070BD41F0FE4141F4780170BD70B54FF016
:10070800FF0C4CF4E06C1CEA11541DBF1CEA135595
:1007180094EA0C0F95EA0C0F00F0A7F8A4EB050477
:1007280081EA030E52EA03354FEA013100F088806E
:100738004FEA03334FF0805545EA131343EA126337
:100748004FEA022245EA111545EA10654FEA0026EC
:100758000EF000419D4208BF964244F1FD0404F5A5
:10076800407402D25B084FEA3202B61A65EB030501
:100778005B084FEA32024FF480104FF4002CB6EBBE
:10078800020E75EB030E22BFB61A754640EA0C003E
:100798005B084FEA3202B6EB020E75EB030E22BF7E
:1007A800B61A754640EA5C005B084FEA3202B6EBBF
:1007B800020E75EB030E22BFB61A754640EA9C007E
:1007C8005B084FEA3202B6EB020E75EB030E22BF4E
:1007D800B61A754640EADC0055EA060E18D04FEA0C
:1007E800051545EA16754FEA06164FEAC30343EAAC
:1007F80052734FEAC2025FEA1C1CC0D111F4801F79
:100808000BD141EA00014FF000004FF0004CB6E771
:1008180011F4801F04BF01430020B4F1FD0C88BF10
:10082800BCF5E06F3FF6AFAEB5EB030C04BFB6EB1B
:10083800020C5FEA500C50F1000041EB045170BD0E
:100848000EF0004E4EEA113114EB5C04C2BFD4EB3B
:100858000C0541EA045170BD41F480114FF0000EBF
:10086800013C90E645EA060E8DE60CEA135594EA3B
:100878000C0F08BF95EA0C0F3FF43BAF94EA0C0F3E
:100888000AD150EA01347FF434AF95EA0C0F7FF4B3
:1008980025AF104619462CE795EA0C0F06D152EA07
:1008A80003353FF4FDAE1046194622E750EA4106EB
:1008B80018BF52EA43067FF4C5AE50EA41047FF4FC
:1008C8000DAF52EA43057FF4EBAE12E74FF0FF3C61
:1008D80006E000BF4FF0010C02E000BF4FF0010C32
:1008E8004DF804CD4FEA410C7FEA6C5C4FEA430CAB
:1008F80018BF7FEA6C5C1BD001B050EA410C0CBFFA
:1009080052EA430C91EA030F02BF90EA020F00205B
:10091800704710F1000F91EA030F58BF994208BFC2
:1009280090422CBFD8176FEAE37040F0010070477F
:100938004FEA410C7FEA6C5C02D150EA013C07D1D6
:100948004FEA430C7FEA6C5CD6D152EA033CD3D021
:100958005DF8040B704700BF8446104662468C461B
:100968001946634600E000BF01B5FFF7B7FF00284E
:1009780048BF10F1000F01BD4DF808EDFFF7F4FF77
:100988000CBF012000205DF808FB00BF4DF808ED02
:10099800FFF7EAFF34BF012000205DF808FB00BF25
:1009A8004DF808EDFFF7E0FF94BF012000205DF847
:1009B80008FB00BF4DF808EDFFF7CEFF94BF0120FC
:1009C80000205DF808FB00BF4DF808EDFFF7C4FFF5
:1009D80034BF012000205DF808FB00BF4FEA410248
:1009E80012F5001215D211D56FF47873B3EB625279
:1009F80012D94FEAC12343F0004343EA505311F0A0
:100A0800004F23FA02F018BF404270474FF0000031
:100A1800704750EA013005D111F0004008BF6FF06F
:100A2800004070474FF00000704700BF80F0004062
:100A380002E000BF81F0004142001FBF5FEA4103AE
:100A480092EA030F7FEA226C7FEA236C6AD04FEAAE
:100A58001262D2EB1363C1BFD218414048404140F3
:100A6800B8BF5B42192B88BF704710F0004F40F4A5
:100A7800000020F07F4018BF404211F0004F41F4C1
:100A8800000121F07F4118BF494292EA030F3FD08D
:100A9800A2F1010241FA03FC10EB0C00C3F12003A0
:100AA80001FA03F100F0004302D5494260EB40002F
:100AB800B0F5000F13D3B0F1807F06D340084FEA9A
:100AC800310102F10102FE2A51D2B1F1004F40EB8F
:100AD800C25008BF20F0010040EA030070474900F7
:100AE80040EB0000013A28BFB0F5000FEDD2B0FA94
:100AF80080FCACF1080CB2EB0C0200FA0CF0AABFB7
:100B080000EBC25052421843BCBFD0401843704754
:100B180092F0000F81F4000106BF80F4000001325A
:100B2800013BB5E74FEA41037FEA226C18BF7FEA31
:100B3800236C21D092EA030F04D092F0000F08BF73
:100B48000846704790EA010F1CBF0020704712F05A
:100B58007F4F04D1400028BF40F00040704712F199
:100B680000723CBF00F50000704700F0004343F0FE
:100B7800FE4040F4000070477FEA226216BF084634
:100B88007FEA23630146420206BF5FEA412390EAF7
:100B9800010F40F4800070474FF0000304E000BFED
:100BA80010F0004348BF40425FEA000C08BF70479E
:100BB80043F0964301464FF000001CE050EA010262
:100BC80008BF70474FF000030AE000BF50EA010277
:100BD80008BF704711F0004302D5404261EB410164
:100BE8005FEA010C02BF84460146002043F0B64389
:100BF80008BFA3F18053A3F50003BCFA8CF2083AAE
:100C0800A3EBC25310DB01FA02FC634400FA02FCB6
:100C1800C2F12002BCF1004F20FA02F243EB0200BD
:100C280008BF20F00100704702F1200201FA02FC1F
:100C3800C2F1200250EA4C0021FA02F243EB020012
:100C480008BF20EADC7070474FF0FF0C1CEAD05256
:100C58001EBF1CEAD15392EA0C0F93EA0C0F6FD017
:100C68001A4480EA010C400218BF5FEA41211ED0F5
:100C78004FF0006343EA501043EA5111A0FB0131E1
:100C88000CF00040B1F5000F3EBF490041EAD371B6
:100C98005B0040EA010062F17F02FD2A1DD8B3F132
:100CA800004F40EBC25008BF20F00100704790F0A1
:100CB800000F0CF0004C08BF49024CEA502040EAF3
:100CC80051207F3AC2BFD2F1FF0340EAC2507047B9
:100CD80040F400004FF00003013A5DDC12F1190FF7
:100CE800DCBF00F000407047C2F10002410021FA69
:100CF80002F1C2F1200200FA02FC5FEA310040F181
:100D0800000053EA4C0308BF20EADC70704792F0F9
:100D1800000F00F0004C02BF400010F4000F013A31
:100D2800F9D040EA0C0093F0000F01F0004C02BF2C
:100D3800490011F4000F013BF9D041EA0C018FE79B
:100D48000CEAD15392EA0C0F18BF93EA0C0F0AD0A1
:100D580030F0004C18BF31F0004CD8D180EA0100C7
:100D680000F00040704790F0000F17BF90F0004F60
:100D7800084691F0000F91F0004F14D092EA0C0F42
:100D880001D142020FD193EA0C0F03D14B0218BFD5
:100D9800084608D180EA010000F0004040F0FE401B
:100DA80040F40000704740F0FE4040F440007047B7
:100DB8004FF0FF0C1CEAD0521EBF1CEAD15392EA36
:100DC8000C0F93EA0C0F69D0A2EB030280EA010C26
:100DD80049024FEA402037D04FF0805343EA1111BF
:100DE80043EA10130CF000408B4238BF5B0042F11D
:100DF8007D024FF4000C8B4224BF5B1A40EA0C00C2
:100E0800B3EB510F24BFA3EB510340EA5C00B3EBF3
:100E1800910F24BFA3EB910340EA9C00B3EBD10FE1
:100E280024BFA3EBD10340EADC001B0118BF5FEA33
:100E38001C1CE0D1FD2A3FF650AF8B4240EBC2505C
:100E480008BF20F0010070470CF0004C4CEA50201D
:100E58007F32C2BFD2F1FF0340EAC250704740F46C
:100E680000004FF00003013A37E792F0000F00F05E
:100E7800004C02BF400010F4000F013AF9D040EADC
:100E88000C0093F0000F01F0004C02BF490011F470
:100E9800000F013BF9D041EA0C0195E70CEAD15368
:100EA80092EA0C0F08D142027FF47DAF93EA0C0F4F
:100EB8007FF470AF084676E793EA0C0F04D14B0233
:100EC8003FF44CAF08466EE730F0004C18BF31F0E5
:100ED800004CCAD130F000427FF45CAF31F00043DF
:100EE8007FF43CAF5FE700BF4FF0FF3C06E000BF78
:100EF8004FF0010C02E000BF4FF0010C4DF804CD9B
:100F08004FEA40024FEA41037FEA226C18BF7FEAAA
:100F1800236C11D001B052EA530C18BF90EA010FAC
:100F280058BFB2EB030088BFC81738BF6FEAE1703B
:100F380018BF40F0010070477FEA226C02D15FEAD7
:100F4800402C05D17FEA236CE4D15FEA412CE1D043
:100F58005DF8040B704700BF844608466146FFE70A
:100F68000FB5FFF7C9FF002848BF10F1000F0FBDEC
:100F78004DF808EDFFF7F4FF0CBF012000205DF8E5
:100F880008FB00BF4DF808EDFFF7EAFF34BF01206A
:100F980000205DF808FB00BF4DF808EDFFF7E0FF03
:100FA80094BF012000205DF808FB00BF4DF808ED54
:100FB800FFF7D2FF94BF012000205DF808FB00BFB7
:100FC8004DF808EDFFF7C8FF34BF012000205DF899
:100FD80008FB00BF4FEA40024FEA41037FEA226C58
:100FE80002D15FEA402C08D17FEA236C02D15FEA84
:100FF800412C02D14FF0000070474FF001007047BC
:101008004FEA4002B2F1FE4F0FD34FF09E03B3EB0D
:1010180012620DD94FEA002343F0004310F0004F4D
:1010280023FA02F018BF404270474FF000007047A3
:1010380012F1610F01D1420205D110F0004008BF42
:101048006FF0004070474FF00000704742000ED22A
:10105800B2F1FE4F0BD34FF09E03B3EB126209D4EB
:101068004FEA002343F0004323FA02F070474FF0A1
:101078000000704712F1610F01D1420202D14FF016
:10108800FF3070474FF00000704700BF7BB972B95E
:101098000029BEBF00204FF0004106E008BF00282D
:1010A8001CBF6FF000414FF0FF3000F057B8ADF1B2
:1010B800080C6DE904CE002909DB002B1ADB00F0CF
:1010C80074F8DDF804E0DDE9022304B0704740421B
:1010D80061EB4101002B1BDB00F067F8DDF804E051
:1010E800DDE9022304B0404261EB4101524263EB67
:1010F80043037047524263EB430300F056F8DDF8B0
:1011080004E0DDE9022304B0404261EB410170478D
:10111800524263EB430300F048F8DDF804E0DDE9F0
:10112800022304B0524263EB4303704753B94AB9F0
:10113800002908BF00281CBF4FF0FF314FF0FF30D7
:1011480000F00CB8ADF1080C6DE904CE00F02DF8F4
:10115800DDF804E0DDE9022304B07047704700BF02
:1011680010F8012B11F8013B012A28BF9A42F7D049
:10117800D01A7047034613F8012B002AFBD1181A1E
:1011880001387047430803F05533C01A00F0333371
:10119800800800F03330184400EB10104FF0013392
:1011A80000F00F305843000E70472DE9F04786468F
:1011B8008C460846089E154674461946002B40F092
:1011C800C2808542B2FA82F245D94AB1C2F12003FF
:1011D80000FA02FC2EFA03F3954043EA0C0C944003
:1011E8004FEA154EA8B2BCFBFEF8230C0EFB18CC38
:1011F80008FB00F943EA0C43994528D9EB1808F194
:10120800FF3704D2994502D9A8F102072B44A3EB72
:101218000903A4B2B3FBFEFC0EFB1C330CFB00F06D
:1012280044EA0344A04214D92C190CF1FF3304D228
:10123800A04202D9ACF102032C44241A43EA074025
:101248001EB1D440002334607360BDE8F087474680
:10125800DDE76346F1E792BB431B01214FEA154ED8
:10126800AFB2B3FBFEFC200C0EFB1C330CFB07F8E3
:1012780040EA0343984562D9EB180CF1FF3004D2D9
:10128800984502D9ACF102002B44A3EB0803A4B2A1
:10129800B3FBFEFC0EFB1C330CFB07F744EA0344CC
:1012A800A7424ED92C190CF1FF3304D2A74202D918
:1012B800ACF102032C44E41B43EA0040C0E7C2F14E
:1012C800200320FA03F1954090402EFA03F30343DC
:1012D8004FEA154EAFB2B1FBFEFC0EFB1C10190C09
:1012E8000CFB07F841EA0041884504FA02F422D9C8
:1012F80069180CF1FF3004D2884502D9ACF102001C
:101308002944A1EB08019BB2B1FBFEFC0EFB1C11AA
:101318000CFB07F743EA01439F420ED9EB180CF187
:10132800FF3104D29F4202D9ACF102012B44DB1BEE
:1013380041EA004192E76046E3E76146F7E7604625
:10134800A3E76346B7E7834206D916B900210846E2
:101358007BE7C6E900E0F9E7B3FA83F78FB9834280
:1013680001D3724508D8BEEB020460EB03030120E9
:101378009C461EB9002168E73846FAE7C6E9004CE2
:10138800F8E7C7F1200CBB4022FA0CF41C432EFAF4
:101398000CF120FA0CF3B84001434FEA14490EFA55
:1013A80007F5B3FBF9F81FFA84FE09FB18300B0C9C
:1013B80008FB0EFA43EA00439A4502FA07F240D9BD
:1013C800E31808F1FF3004D29A4502D9A8F10200C7
:1013D8002344A3EB0A0389B2B3FBF9F809FB1833DA
:1013E80008FB0EFE41EA03418E452CD9611808F12D
:1013F800FF3304D28E4502D9A8F10203214443EAFF
:101408000040A0FB0298A1EB0E014145CE464346A1
:1014180002D306D14D4504D2B9EB020E68EB0403A2
:101428000138002EA6D0B5EB0E0261EB030101FADC
:101438000CFC22FA07F34CEA0303F940C6E9003131
:1014480098E74046C5E74346D9E70000000000009A
:10145800F8B514461D4606461F4B0022204629466D
:10146800FFF794FA70BB18A3D3E900232046294656
:10147800FFF7AAFA30BB29462046FFF7AFFA07461E
:10148800FEF7A8FF02460B4620462946FEF754FE03
:101498000FA3D3E90023FFF707F80F4B00220446F8
:1014A8000D46FFF773FA68B907A3D3E9002320466E
:1014B8002946FFF789FA28B9376020462946FFF7F9
:1014C8008DFA7060F8BD00BF0000C0FFFFFFDF416C
:1014D8000000000080842E410000E0C138B50D4DA9
:1014E800284611F038F988B1AB680B491B682846C3
:1014F8009847044640B90146284601F059FC18B1FE
:1015080010F1780F18BF0446204638BD6FF012045A
:10151800FAE700BF2C320108F03C0108F0B5054697
:1015280089B02948284E11F016F9002846D0012123
:10153800304601F03DFC044610B110F1780F3AD165
:101548001422002103A811F01CFD042304930DF1BB
:1015580006030593022306930C238DF81C30B66806
:101568001948736803A99847044620BBBDF906309B
:1015780032899DF81C70534302A90920029309F08F
:10158800E5FA0446B8B9029865B13841FFF708FB97
:101598000E49FFF70DFC0E49FFF70AFC0D49FFF74E
:1015A80053FB28600848002101F002FC48B110F103
:1015B800780F18BF0446204609B0F0BD6FF012043A
:1015C800F9E70446F7E700BF2C32010800007A4427
:1015D8000000C8420000254401480BF09FBC00BF32
:1015E800000900202DE9F04F89B083468A469146CC
:1015F80001934FF0FF324FF0FF3387480BF016FC92
:10160800864811F0A8F838B9FFF7E6FF6FF0120422
:10161800204609B0BDE8F08F804B9E6805257F48BD
:10162800F368402198473D28044608D12920002125
:1016380011F05AFA013DF2D1FFF7CEFFE8E7002892
:10164800FAD17648336902AA03219847044600284C
:10165800F2D10398FFF7A4FA7149FFF7A9FB0546F1
:101668000298FFF79DFA01462846FFF7E5F9054677
:101678000598FFF795FA6A49FFF79AFB064604981A
:10168800FFF78EFA01463046FFF7D6F90646079867
:10169800FFF786FA6249FFF78BFB07460698FFF7C4
:1016A8007FFA01463846FFF7C7F90746BBF1000F36
:1016B80001D0CBF80050BAF1000F01D0CAF8006091
:1016C800B9F1000F01D0C9F800705649DFF858A1E8
:1016D8002846FFF76DFB534905463046FFF768FB80
:1016E800504906463846FFF763FBDAF800304F49A1
:1016F8000C225343CA18CB58D2E901B9074653B94B
:101708004B492846FFF73EFC00283FD14949284667
:10171800FFF756FC05E0012B12D147492846FFF791
:1017280031FC002832D1BBF1000F0DD140493046C1
:10173800FFF728FC50BB3F493046FFF741FC0AE061
:101748000133F0D13D49E2E7BBF1010F11D13A492C
:101758003046FFF717FCC8B9B9F1000F0ED134496C
:101768003846FFF70FFC88B932493846FFF728FC9E
:101778000BE0BBF1FF3FEFD13049DDE7B9F1010FD5
:101788003CD12D493846FFF7FDFB70B3DFF89C804C
:10179800DFF8A4B04FF00109D8F80C00FFF700FA01
:1017A8002946FFF747F9594620F00040FFF7EAFBC2
:1017B80048B3D8F81000FFF7F3F93146FFF73AF9C4
:1017C800594620F00040FFF7DDFBE0B1D8F81400DF
:1017D800FFF7E6F93946FFF72DF9594620F00040A2
:1017E800FFF7D0FB78B1CAF80090019B002B3FF4BB
:1017F80023AF019ADAF8003013601DE7B9F1FF3F13
:10180800F3D10E49B1E709F10109B9F1070F08F160
:101818000C08C1D1E9E700BF00090020EC3201083B
:10182800002474490AE81C41500D00205436010870
:10183800CDCCCCBECDCCCC3E9A99193F9A9919BF44
:101848002DE9F34107460E46234D284610F083FF45
:1018580000283DD0D5F808804021D8F80C3028461B
:101868009847044600282FD10D21D8F810306A4631
:1018780028469847044638BB77B10198FFF790F996
:101888001649FFF795FA04460098FFF789F90146CB
:101898002046FFF7D1F83860AB680F481B696A46E5
:1018A80010219847044678B976B10198FFF778F97E
:1018B8000A49FFF77DFA05460098FFF771F90146D6
:1018C8002846FFF7B9F83060204602B0BDE8F0813D
:1018D8006FF01204F8E700BFD432010800247449FD
:1018E80070B50B4C204610F036FF70B1A568094959
:1018F800AB6820469847002809DB074B1860002191
:101908002B682046BDE8704018476FF0120070BD84
:101918008C320108A8040020540D002010B5084C92
:10192800204610F018FF38B1064B1968A368204606
:10193800DB68BDE8104018476FF0120010BD00BF0B
:101948008C320108540D0020F8B5614D614EAC6829
:1019580021462046FFF73EFB10B1002333700CE010
:101968003378A3B15C492046FFF72AFB28B15B49CD
:101978002046FFF707FB0028EFD16C69584F214636
:101988002046FFF727FB78B100233B7019E0554943
:101998002046FFF7F7FA28B953492046FFF710FB0E
:1019A8000028EAD00123D9E73B78A3B14F49204664
:1019B800FFF706FB28B14E492046FFF7E3FA002857
:1019C800E2D1AC694B4F21462046FFF703FB80B1BB
:1019D80000233B701AE04FF07F512046FFF7D2FA00
:1019E80028B945492046FFF7EBFA0028E9D001233A
:1019F800CBE73B78A3B13D492046FFF7E1FA28B190
:101A08003B492046FFF7BEFA0028E1D1EC683B4F7E
:101A180021462046FFF7DEFA80B100233B701AE02A
:101A28004FF07F512046FFF7ADFA28B932492046DA
:101A3800FFF7C6FA0028E9D00123CAE73B78A3B12B
:101A48002F492046FFF7BCFA28B12E492046FFF758
:101A580099FA0028E1D12D6A2B4C29462846FFF730
:101A6800B9FA78B1002323701DE028492046FFF712
:101A780089FA28B926492046FFF7A2FA0028EAD0B1
:101A88000123CBE728462349FFF792F92378054637
:101A98008BB12149FFF794FA28B120492846FFF76E
:101AA80071FA0028DED13B7803B933782078002812
:101AB80008BF1846F8BD1A49FFF764FA28B919494A
:101AC8002846FFF77DFA0028EDD00123CBE700BFB9
:101AD80038050020D01E00200000304100001C42C4
:101AE800CF1E0020000010410000244200002040CA
:101AF8000000F040CE1E002000000841CD1E00204E
:101B080000000C4200008C42CC1E00200000C8419E
:101B18000000A0420000C8420080314400408344D5
:101B280000802C4400C085442DE9F04FAA4B1D7855
:101B38001446ED03002287B006460F46ADB21A7070
:101B4800DFF89882A6484FF0FF324FF0FF330BF0D2
:101B58006DF9D8F80030D8F804906FF0004293423D
:101B680014BF03F00F03FF23494648461ABF0493E6
:101B780045F480450493FFF72DFA002840F09C8037
:101B880098494846FFF760F8FFF760FAC3B2039335
:101B980045F40055D8F8089049464846FFF71AFA20
:101BA800002840F08C8090494846FFF74DF8FFF731
:101BB80027FA45F480550FFA80FBD8F80C9049466F
:101BC8004846FFF707FA00287CD149464846FEF701
:101BD80033FFFFF73BFAC3B2029345F40065D8F828
:101BE800109049464846FFF7F5F900286DD14FF0A7
:101BF8007C514846FFF728F8FFF728FA83B201938B
:101C080045F48065D8F8149049464846FFF7E2F94C
:101C180000285ED174494846FFF716F8FFF7F0F937
:101C280045F400750FFA80FAD8F8189049464846E6
:101C3800FFF7D0F900284FD16B494846FFF704F861
:101C4800FFF7DEF945F480750FFA80F9D8F81C80A3
:101C580041464046FFF7BEF9002840D16349404657
:101C6800FEF7F2FFFFF7CCF945F040050FFA80F8D0
:101C78005A4B196A05910846FFF7ACF990BB0599CC
:101C88000846FFF7E3F945F0200503460593544855
:101C98000BF044F9049B00212B433A46216030465F
:101CA8001D4611F06EF92268059BBA421DD36FF0EC
:101CB8001B0007B0BDE8F08FFF2303936AE747F6E0
:101CC800FF7B7AE7FF23029389E74FF6FF730193BF
:101CD80098E747F6FF7AA7E747F6FF79B6E747F6AA
:101CE800FF78C5E74FF0FF33D0E7511C2160290A80
:101CF800B15422689742DAD9511C2160A904B5541D
:101D080006D522689742D2D9511C21600399B15453
:101D1800EA040ED522689742C9D9511C21604FEABE
:101D28002B21B15422689742C1D9511C216006F871
:101D380002B0280506D522689742B8D9511C2160FF
:101D48000299B15469050ED522689742AFD9511C42
:101D580021600199090AB15422689742A7D9511CF8
:101D680021600199B154AA050ED5226897429ED9DF
:101D7800511C21604FEA2A21B1542268974296D912
:101D8800511C216006F802A0E8050ED5226897428A
:101D98008DD9511C21604FEA2921B15422689742FC
:101DA80085D9511C216006F80290690610D5226871
:101DB80097427FF67CAF511C21604FEA2821B1542D
:101DC800226897427FF673AF511C216006F80280A3
:101DD800AA060DD400206CE7E40600203805002090
:101DE800C4080020000048420000C842000020410A
:101DF800226897427FF65BAF511C2160190EB154DF
:101E0800226897427FF653AF511C2160190CB154D8
:101E1800226897427FF64BAF511C2160190AB154D2
:101E2800226897427FF643AF511C2160B354D1E733
:101E380008B503490348482211F095F8002008BD69
:101E4800D4040020580D002038B51C4D04462946FE
:101E580004221B48A0470422A9181A48A0470822B0
:101E6800A9181948A04705F1100104221748A047EE
:101E780005F1140110221648A04705F1240110228B
:101E88001448A04705F1340104221348A04705F17E
:101E9800380104221148A04705F13C0104221048EA
:101EA800A04705F1400104220E48A047012205F190
:101EB80044010D48A047002038BD00BFD4040020CD
:101EC800FC3C0108133D01082A3D01083C3D01087E
:101ED8004F3D0108623D0108753D01088D3D01082F
:101EE800AB3D0108C93D0108DE3D0108F7B50C46C8
:101EF80015464E4901AA07461E460DF009F970B16C
:101F0800019B63B9042C03D06FF0150003B0F0BD3A
:101F1800474922463046A84700EAE070F6E74549B7
:101F280001AA38460DF0F4F830B1019B23B9042C0E
:101F3800EAD141492246EDE7404901AA38460DF069
:101F4800E7F830B1019B23B9082CDDD13C49224682
:101F5800E0E73C4901AA38460DF0DAF830B1019BB8
:101F680023B9042CD0D138492246D3E7374901AAEE
:101F780038460DF0CDF830B1019B23B9102CC3D1F0
:101F880033492246C6E7334901AA38460DF0C0F85E
:101F980030B1019B23B9102CB6D12F492246B9E79D
:101FA8002E4901AA38460DF0B3F830B1019B23B988
:101FB800042CA9D12A492246ACE72A4901AA384665
:101FC8000DF0A6F830B1019B23B9042C9CD1264909
:101FD80022469FE7254901AA38460DF099F830B105
:101FE800019B23B9042C8FD12149224692E721492C
:101FF80001AA38460DF08CF830B1019B23B9042CA6
:1020080082D11D49224685E71C4901AA38460DF0B0
:102018007FF838B1019B2BB9012C7FF475AF1849B3
:10202800224677E76FF0010070E700BF033D010823
:10203800D40400201A3D0108D8040020313D0108CD
:10204800DC040020433D0108E4040020563D01085B
:10205800E8040020693D0108F80400207C3D0108DF
:1020680008050020943D01080C050020B23D010838
:1020780010050020D03D010814050020E53D0108A9
:102088001805002008B501F027FA40B904480DF0FA
:102098003CF820B9BDE80840024801F0D9B808BDAD
:1020A800B8040020F33D010808B5104810F053FBB0
:1020B80010B96FF0120008BD0C4810F04CFB002856
:1020C800F7D00A4810F047FB0028F2D008480CF077
:1020D800FAFA0028EFD107480CF0F5FA0028EAD1FF
:1020E800BDE8084004480CF0EEBA00BFFC31010816
:1020F800C4360108BC360108B436010802280A466D
:1021080014D80B4B53F8203018681979012303FAB7
:1021180001F103691B68194203D022B183681B6966
:1021280003E0002AFAD08368DB681847704700BFCD
:10213800A836010810B50D4810F00DFB98B1052020
:1021480001F08CFF041E0CDB02F0C8F8044640B90D
:10215800074802F0ADF8074802F0A4F8064802F074
:10216800B7F8204610BD6FF01204FAE7BC32010838
:102178001C05002005E7000809E7000807480123B7
:102188000375074B03619A6812BA026003F10C02E7
:102198001C338260436001F071BF00BFA00D0020B6
:1021A800600D002010B403460A46034881680C6994
:1021B8001946234610BC1847A4320108F7B507464C
:1021C8000E4615462B4C204610F0C5FA00284DD077
:1021D800A3682046DB68402198470446002842D17E
:1021E80069461620FFF7DEFF044600283BD177B189
:1021F8000198FEF7D5FC2049FEF7DAFD0446009861
:10220800FEF7CEFC01462046FEF716FC386069460C
:102218000E20FFF7C7FF044628BB76B10198FEF7EA
:10222800BFFC1549FEF7C4FD04460098FEF7B8FC4C
:1022380001462046FEF700FC306069460D20FFF796
:10224800B1FF044678B975B10198FEF7A9FC0A49AF
:10225800FEF7AEFD06460098FEF7A2FC01463046A2
:10226800FEF7EAFB2860204603B0F0BD6FF01204C9
:10227800F9E700BFA4320108002474490149024863
:1022880010F055BB280500205809002073B51448E4
:10229800002510F05CFB0E231249114800954FF4FD
:1022A80080520AF0F1FF104B1C68B4B14FF47A73F6
:1022B8005C434FF48056294640F2E7304FF47A7277
:1022C8000023E4FB0601FEF731FF4FF48052CDE90D
:1022D8000001002305480BF019FE002002B070BD74
:1022E8005809002000200020580D00207808002000
:1022F80070B586B0224D01956FF0004301A8009398
:102308000295039504950595FFF708F900226B4699
:10231800114610461B4EFFF765F903A902A8FFF7FF
:102328008FFA96F8443023B1002205A904A8FFF7D4
:1023380045FF154C15484FF0FF324FF0FF330AF0B8
:1023480075FD009B2360019B02996360706BFEF72B
:1023580073FB039BE360A0600949B06B2561FEF73E
:102368006BFB07496061F06BFEF766FB049BE3615A
:10237800059BA061236205480AF0D0FD06B070BD38
:102388000000C07F580D002038050020C408002038
:102398000149024810F0CBBA5C050020080A002069
:1023A80070B51D4D90B06E68042103A808F0E6FAD8
:1023B800039C6B680A2293FBF2F394FBF3F203FB92
:1023C800124434444FF47A735C434FF4805640F21D
:1023D800E73000214FF47A720023E4FB0601FEF790
:1023E800A5FE02460B464FF0FF304FF0FF31CDE916
:1023F80000010A480BF08AFD2B680BB9FFF778FF3C
:1024080002AA332103A8FFF78FFB18B9029903A882
:102418000CF080F910B070BD580D00204008002065
:1024280037B53F4B93F84430002B66D1012100208B
:10243800FFF764FE4FF4006000210CF073F90021EF
:102448000846FFF75BFE4FF4806000210CF06AF944
:1024580001210220FFF752FE4FF4006000210CF02A
:1024680061F900210220FFF749FE4FF48060002146
:102478000CF058F901210846FFF740FE4FF4C05010
:1024880000210CF04FF900210120FFF737FEFFF77C
:1024980075FE0446002836D1224810F058FA224921
:1024A800204800940E234FF480520AF0EDFE4FF0BE
:1024B800FF324FF0FF33CDE900231C484FF4A04210
:1024C80000230BF023FDFFF729FA0446D8B9FFF7DC
:1024D8003BFA01210546C8B12046FFF70FFE15203B
:1024E80000210CF01FF921462046FFF707FE4FF4A4
:1024F800405000210CF016F9E5E70D480AF0BAFB48
:102508000446002892D0204603B030BD0846FFF7A5
:10251800F5FD152000210CF005F929460120E4E716
:10252800580D0020080A00204030002040080020F4
:10253800A432010810B5094C0A44914200D110BDDB
:1025480011F8013B584003090001E35CC0B2434065
:1025580018091B01205CDBB25840EEE7FA3D010880
:10256800014B1B68184700BF6C05002030B585B0CB
:1025780004460D4610220021684610F002FD022391
:102588008DF802302A46044B0193214668460BF029
:102598000DFE05B030BD00BF6925000880B50546B1
:1025A8000E46174698460BF0D1F9034610F064FD25
:1025B800DFF81890044649F800304246304639465C
:1025C800A84754F8090001F0D7F900BF0800000037
:1025D800034A536823F0020353600020704700BF8A
:1025E800002004E0084B1A6842F400721A601A6866
:1025F80042F480621A601A6842F480721A60034BCF
:10260800034A1A600CF03BB900400058D00600207D
:1026180000093D00022826D14FF0B04202299368F4
:1026280023F400439360104B4FF007029A610ED0D9
:10263800032912D0012916D11A6822F007021A605C
:102648000A4A136943F0040313610CF0A5BE1A6823
:1026580022F0070242F00102F1E71A6822F00702AD
:1026680042F00202EBE770470004005800ED00E07A
:10267800022808B50BD1094B1A6922F002021A6127
:102688001A6922F004021A61002008F07FFD002375
:1026980083F31188BFF36F8F08BD00BF00ED00E022
:1026A8002DE9F7430F4606460821C06ADFF8509027
:1026B8000CF04EF93C68241A80463C6004EA09058F
:1026C800AC4203D8002003B0BDE8F08308236A4673
:1026D800214630460CF0D4F80028F4D1694630463B
:1026E8000CF040F940B1BDF80230BDF804203C6060
:1026F80005EA090513441D44A4EB0804E0E700BFFC
:102708000000FFFF73B504460821C06A124E0CF0A2
:102718001FF94FF6FF726368ADF800208DF80620A8
:10272800A289191833401344181A002560606846B6
:10273800ADF80210ADF804500CF001F969462046D6
:102748000CF0D0F92046211D0CF0D3F86368284618
:102758003340A36002B070BD0000FFFF2DE9F047D1
:10276800044688B000F11407384610F03BF8A06A18
:102778008368DB689847E06228B96FF0150528463A
:1027880008B0BDE8F087A06A8368DB6898470368EB
:10279800013B1F2BF1D8A06A216805AA0EF04FFE55
:1027A8000028EAD1A589002DE7D0069BB5FBF3F2F6
:1027B80003FB1255002DE0D1E389012BDDD9E36A33
:1027C800009593F805904FF0FF334FF0FF323846ED
:1027D8000AF02CFBE06A08210CF0BAF8A846064675
:1027E800E3891FFA85FA534508D8E389434523D17D
:1027F80038460AF093FB6FF02C05C0E7A1892B043B
:10280800891B13FA81F14A460823204600910CF0EF
:1028180045F878B1694620460CF06BF808F10108D4
:10282800009908234A4620461FFA88F80CF036F823
:102838000028DAD00135D3E753450BD10099082396
:102848004A46891B20460CF029F818B969462046E3
:102858000CF04FF869462046FFF722FF054618B1ED
:1028680038460AF05BFB8AE7009B63604FEA13482F
:102878004FEA0848C4F80880D4E9011399420FD3F5
:10288800082301AA20460BF0FBFF05460028E7D1E4
:1028980001AB13F8012B914533D10135082DF8D13F
:1028A80063681B0C1B046946204600930CF021F852
:1028B800A38900994A4620460BF0F0FF051ECFDB9E
:1028C800636876D006EB03084FF6FF79A389CDF845
:1028D80000801FFA88F29B1B9A422ED3002361685E
:1028E800002B43D0090C09040091204669460CF0DE
:1028F80000F8009920460CF009F80546002D74D020
:10290800AEE701A920460CF02DF8626810B9921BB9
:102918006260B1E7BDF80850BDF80610E06AC4F877
:10292800088029440CF014F840449042A060EED18D
:10293800002DECD06FF01C0568E0082303AA41467F
:1029480020460BF09DFF0546002889D103A92046A3
:102958000CF008F830B1BDF80C304B4502D1BDF889
:1029680010300BB1B044B1E70123B8E720460BF0B3
:10297800CDFF054600287FF473AF6368264AA18916
:1029880013400B44A3EB460363601340A360204647
:102998000CF0D0F8B1E75B1A4A4620460BF07EFFF0
:1029A800051EFFF65DAF08D0E26AA36812681344FB
:1029B800A360D4E901318B42EDD86168A38901EBAA
:1029C80046029A429AD1DFF85080A26801EA0803C9
:1029D8009A4293D020460BF099FF054600287FF4D1
:1029E8003FAF636803EA0803A360A389A288A3EB47
:1029F80046039A4206D038460AF090FA0123237417
:102A08000025BCE620460CF07EF8054638460AF05C
:102A180085FA002DF2D0B2E60000FFFF014B0360FB
:102A280000207047CC3601082DE9F8430546EFF33E
:102A38001186102383F31288BFF36F8F0D4B0E4F4F
:102A48001C68DFF838804FF00C092CB986F3118820
:102A5800BFF36F8FBDE8F883D4E90123002D18BFB9
:102A680013462BB198F8102009FB02F2B85C98477E
:102A78002468EAE7D00D0020C40D0020881E00203D
:102A880070B5154B1C7CBFF35B8F04F01F0301224C
:102A98009A40124B610903EB8103D04353E8001FAE
:102AA80001EA000543E80056002EF7D1BFF35B8F1B
:102AB8000A4210D00C230A4E5C433519305D697800
:102AC800FFF7D6FD0020FFF7AFFF0FF09BFC0023B8
:102AD8003351C5E9013370BD881E0020D80D002090
:102AE800C40D00202DE9F041394B04461D7C00F04F
:102AF8008BF8611C064604D0721C5AD0A642A8BFA7
:102B08002646EFF31188102383F31288BFF36F8FE3
:102B18000C24304B304F6C431A19195D00294AD0E8
:102B280007CA07EB040C8CE8070000221A5588F343
:102B38001188BFF36F8F0C236B43FA18F85CB0B39E
:102B480094687CB1731C0DD02448254A4FF4805CEE
:102B580000210023E4FB0C01FEF7E8FA0121301AFA
:102B680009F016FE0AF0FAFD0120FFF75DFFBFF33A
:102B78005B8F1C4B6A0903EB8203012405F01F02DB
:102B880004FA02F253E8000F104343E80001002959
:102B9800F8D1BFF35B8F0C235D437B19785D5978BF
:102BA800FFF738FDFFF76CFF0AF0ECFD2046BDE8A3
:102BB800F0812646A5E73146284600F0A7F820B15F
:102BC80007C83C4484E80700B1E73855AFE700BFC1
:102BD800881E0020B80D0020C40D00203F420F00C1
:102BE80040420F00D80D002001289FBF044B53F826
:102BF80020300B60034B94BF185C0020704700BF67
:102C0800CC3601080A3E010870B5EFF3118610238F
:102C180083F31288BFF36F8F0A4B1B687BB1D3E92C
:102C2800024510F00CF8201A65EB0101002901DAC1
:102C38000020014686F31188BFF36F8F70BD4FF0F7
:102C4800FF30F6E7DC0D002030B50E4B002213F8FC
:102C5800044C844210D113F8034C8C4201D0FF2954
:102C68000AD1BFF35B8F53E8004F013443E80045B6
:102C7800002DF8D1BFF35B8F0132032A03F108035B
:102C8800E5D130BD7805002030B50E4B002213F891
:102C9800044C844210D113F8034C8C4201D0FF2914
:102CA8000AD1BFF35B8F53E8004F013C43E800456E
:102CB800002DF8D1BFF35B8F0132032A03F108031B
:102CC800E5D130BD7805002010B50E4A00231478F0
:102CD80084420FD154788C420AD10B4ABFF35B8FE0
:102CE80052F83300BFF35B8F003818BF012010BDC6
:102CF800FF29F2D00133032B02F10802E7D10020AB
:102D0800F5E700BF74050020780500202DE9F3479A
:102D18004B1C18BF244ADFF894A018BF00270D46A3
:102D28001FBF40F6FF733946C5FB02311B0B18BFA6
:102D380043EA015501A908BF2F46FFF755FF441E76
:102D480024B204EB44040646A4004FF0300926B927
:102D5800B046404602B0BDE8F087019B03EB04088B
:102D6800185D98F80110FFF7AFFFC0B9DAF8001046
:102D7800D8F80430D8F80820002909FB03F309FB28
:102D880002F201DB91420AD9B7F1FF3F08BFB5F162
:102D9800FF3FDED013449D4277F10003D9DA013EAC
:102DA800B6B20C3CD3E700BF006CDC027005002013
:102DB80070B544690D46002C3FD0244A2379565CEF
:102DC800B3423DD0224A525C9A423CD1A36898470C
:102DD800002814DA022D10D0032D0FD110F1860F20
:102DE8000BD0BFF35B8F54E8003F43F0020344E885
:102DF8000032002AF7D1BFF35B8F267170BD022D18
:102E0800267101D00020F9E7BFF35B8F54E8003F3B
:102E180023F0040344E80032002AF7D1BFF35B8FA4
:102E2800BFF35B8F54E8003F23F0020344E800320D
:102E3800002AF7D1BFF35B8FE4E76FF05700DDE7B7
:102E48006FF07700DAE76FF08500D7E7103E0108EA
:102E58000C3E01082DE9F8438846052105460CF08B
:102E680099F817461E46044638B3DFF87C9099F85F
:102E7800001029B30FF090FD4FF0FF33421E43F1CD
:102E8800000305F118000CF08EF8041E29DB4146FA
:102E9800EB681BB3013BEB6043B999B102232B717B
:102EA8003A46334605F140000AF056FA99F80030E0
:102EB8001BB105F118000CF078F82046BDE8F8833E
:102EC8000C46E5E7AB6868699847041EB7BFEB682E
:102ED80001230133EB60A8BF2B71E7E76FF077049C
:102EE800E4E76FF00F04E8E7DE1F00202DE9F34761
:102EF8004569064625B90024204602B0BDE8F0879A
:102F0800052128460CF046F80028F4D070690821FD
:102F18000CF040F8074660B3EFF31187102383F3F2
:102F28001288BFF36F8F7569EA682B68E2B95A0790
:102F38000AD4AB68012130469847041E0EDA87F39D
:102F48001188BFF36F8FD7E7286943691B68DB05D2
:102F58000CD5FFF7CBFF041EEBDAF0E700232B714B
:102F6800EB680133EB60EAE70024F9E76FF00A0445
:102F7800E5E73F4E347854B10FF00EFD421E67F17D
:102F8800000305F118000CF00EF8041E6DDB0FF0BD
:102F980003FD10B12B79022B0ED02F6917B33846D9
:102FA800FFF7A4FF044648B9012128460BF0F2FFB9
:102FB80060B138460BF0FBFF6FF00A043378002B42
:102FC8009AD005F118000BF0F0FF95E7BFF35B8F7F
:102FD80055E8003F43F0040345E80032002AF7D1E2
:102FE800BFF35B8FEB680133EB602B79022B08D1C1
:102FF80005F140000FF0BDFC10F0010001D128716F
:10300800DCE7337843B105F130074FF0FF384FF074
:10301800FF392B79022B10D0EB68012BCED8AB6887
:10302800686901219847041EB7BFEB68002303F1C4
:10303800FF33EB60A8BF2B71C0E70321384605F1C9
:10304800180A0FF081FF50460BF0AFFF0022CDE9C0
:103058000089032138460FF07BFF4FF0FF324FF015
:10306800FF3350460BF09FFFD3E76FF00A0443E7A6
:10307800DE1F0020F8B545690646002D61D0052100
:1030880028460BF087FF00285ED130460BF059FF29
:10309800044600285AD1706908210BF07BFFE0B183
:1030A8007569EFF31187102383F31288BFF36F8FCD
:1030B800297931B9AB6830469847041E07DB0123EC
:1030C8002B712B6843F020032B600023EB6087F300
:1030D8001188BFF36F8F2046F8BD1E4F3B783BB178
:1030E8004FF0FF324FF0FF3305F118000BF05BFF94
:1030F8006B692BB918496E6105F140000FF02DFC82
:103108002979E1B9AB6868699847041E0FDB012388
:103118002B710023EB60BFF35B8F55E8003F43F052
:10312800200345E80032002AF7D1BFF35B8F3B78D4
:10313800002BD0D005F118000BF037FFCBE70024A7
:10314800E7E76FF08504C6E70024C4E76FF00F04D3
:10315800C1E700BFDE1F002011F0000870B5104B5A
:103168001C680D46B4B10F4B196800238B4202DB73
:103178006FF0010070BD224612F8106B864202D033
:1031880001331446F2E7E0680FF0E5FA28B12C6045
:103198000020EFE76FF00C00ECE76FF01200E9E7B2
:1031A8008C050020F836010810B588B043680293F2
:1031B8008368C068CDE903320A680023CDE9062395
:1031C8000C4601AA044905930EF03DF9079808B981
:1031D800059B236008B010BD9DF000082DE9F04163
:1031E8000F4B1C6805460E461746ACB14FF0FF3230
:1031F8004FF0FF330B4809F019FE63683246D3F8E5
:10320800088029463B462046C0470446054809F041
:1032180085FE2046BDE8F0816FF00104F9E700BFA4
:10322800E00D00201409002000230360044B5A68B5
:1032380012B9C3E90000704710605860704700BFBA
:10324800E40D0020014B1860704700BFE00D00201E
:1032580030B585B000230546CDE9023301904FF023
:10326800FF330C484FF0FF3209F0E0FD0A4B1C68B1
:103278004CB9284600F0D0F80446064809F04EFE3E
:10328800204605B030BD636820461B6801A99847F1
:103298002468EDE714090020E40D00201FB5CDE9EE
:1032A800010103924FF0FF330A484FF0FF3209F053
:1032B800BDFD094B1C682CB9064809F02FFE2046B5
:1032C80004B010BD636820461B6801A998472468AC
:1032D800F1E700BF14090020E40D0020024B002292
:1032E800C3E90022704700BFE40D0020024B002212
:1032F800C3E90022FFF7F2BFEC0D0020F8B51C4C23
:103308001C4E05460F46B44212D31B4E1B484FF0C5
:10331800FF324FF0FF3309F089FD34687CB128682B
:1033280054F8181C183CFDF71BFFD0B1A469F5E749
:1033380021682868FDF714FFB0B11834E3E70022CC
:103348006F60AA61726805F118033AB9C6E90033DB
:1033580000240A4809F0E2FD2046F8BD13607360B6
:10336800F6E76FF01004F4E76FF01004F4E700BF1D
:10337800E0350108E0350108EC0D002014090020B3
:103388002DE9F74307460C4609B100230B601F4D92
:10339800DFF87C9000264D450FD31E4B1D6885B382
:1033A80055F8188C01AA41463846183D0BF0B0FE76
:1033B80010B3D6B914BB2E461EE0D5F8008001AA7A
:1033C800414638460BF0A4FE50B116B954B92E4602
:1033D80006E03168002240460BF09AFE0028F5D13D
:1033E8001835D8E7019B2360F1E731680022404691
:1033F8000BF08EFE0028DDD1AD69D0E7019B23607C
:10340800D9E7304603B0BDE8F08300BFE0350108D6
:10341800E0350108EC0D00202DE9F047DFF8AC900D
:10342800DFF8ACA080464FF000470026294C3D4607
:103438004C450DD3DAF80040002C42D0183CB8F1C6
:10344800000F25D122695ABBA469F5E72F46EDE79D
:10345800B8F1000F03D122694AB91834E8E72068A7
:10346800002241460BF054FE0028F4D1F5E76368CA
:10347800BB4205DDAF4209D09D42A8BF1D46ECE71F
:10348800EBD19047002E08BF0646E6E71D46E4E765
:103498002068002241460BF03BFE0028D2D1D3E73A
:1034A8006368BB4205DDBD4209D09D42A8BF1D46E9
:1034B800CAE7C9D19047002E08BF0646C4E71D4693
:1034C800C2E7AF42C2D13046BDE8F087E035010817
:1034D800EC0D0020E035010838B50C4D0C484FF0D4
:1034E800FF334FF0FF3209F0A1FC2B783BB9FFF70F
:1034F800FDFE00F06DF8044610B901232B7000247E
:10350800034809F00BFD204638BD00BFD11E00203E
:10351800140900202DE9F047048FDFF8B0A001342A
:1035280098B006468946A4B200F10807651EADB2F8
:10353800B5F5004F47D04A2305AA294638460BF06F
:10354800F9FC04F57F543F34A4B280462146012398
:103558000DF10B0238460BF0EDFCB8F1000F0146F7
:1035680010DC002810DC338FAB4209D132466B1EC9
:1035780022F8383F4FF40041022338460BF0A7FBEE
:103588002C46D3E7002808DC294638460BF06EFCA9
:10359800214638460BF06AFCE5E708F160030DEBBD
:1035A8000308002308F84C3C5246CDF8009003ABC2
:1035B80005A80397ADF810400BF0CEFD0028DFD02A
:1035C80018B0BDE8F0870020FAE700BFCFF1000887
:1035D8007FB50123694603200193FFF7BFFD044629
:1035E80060BB02AA01A903200BF076FD044610B1C6
:1035F80010F10C0F22D10399B1F5803F23D2009A24
:10360800002394681846084484421AD30133082BCF
:10361800F9D10E4DA982EB825368AB602846D36876
:10362800EB630BF068FE044640B9094E6E6028460D
:10363800FFF7FAFD28466E60FFF704FE204604B047
:1036480070BD9BB2E5E76FF02004F7E7F40D0020AA
:103658009005002030BFFFF7FDBF00BF2DE9F04106
:103668000B4EDFF8308006EB0807CC1B05463246C8
:10367800094920460FF077FCA01942460021083C72
:103688000FF07FFCC5F8844007F10800BDE8F08121
:103698000000000004000000E0350108054B9A69AD
:1036A8009B689A421FBF044A536843F08053536093
:1036B800704700BF881E002000ED00E070B5204B69
:1036C80015469A6A12F0100F9A6A14BF1124102432
:1036D80012F0080F9A6A18BF1224920706460AD5F4
:1036E800586B9A6A140628D519B19A6A22F0800292
:1036F8009A62132401E06FF01500114B9A6A12F0D8
:10370800010F9A6A18BF1424D10602D49B6A9A073B
:103718000AD50B4B5B681B0506D5314600F000FA4D
:1037280010B180F309880224054A936A43F0FF0325
:10373800936200232B70204670BD6FF01500D8E708
:1037480000ED00E0134B9A6A12F0007F9A6A14BFEA
:103758001E201D2012F0807F9A6A18BF1F2012F4C5
:10376800002F9A6A18BF212012F4802F9A6A18BF76
:10377800222012F4003F9A6A18BF232012F4803FD7
:103788009A6A6FEA02426FEA12429A6218BF2420CC
:10379800704700BF00ED00E010B5164B9A6A9C6AAE
:1037A80012F4805F14BF1722162214F4006F9C6A6B
:1037B80018BF1822A40509D59A6B9A6A120404D571
:1037C80018B19A6A22F400429A621922094B986A3F
:1037D80010F4806F986A18BF1A2210F4807F986AD4
:1037E80040F47F4098624FF000030B700CBF104606
:1037F8001B2010BD00ED00E0F0B5484B5B688BB0B6
:103808000446C3F30803002585F31188BFF36F8FBF
:1038180002F07F40B0F17F4F11D102F00C00082870
:103828000DD010074CBF0C4601250022033B8DF834
:103838000720032B05D8DFE803F0246367602C46D4
:10384800F3E700239DF80720CAB902AE04F1200768
:1038580020686168324603C20834BC421646F7D174
:10386800099A002D54D0C2F3080121B96FEA5222F7
:103878006FEA4222099202A918460BF071FD0BB0BB
:10388800F0BD264BDA6A9107DBD4DA6A002AD8DB66
:10389800DA6A5200D5D55A69A16942F480725A6130
:1038A800BFF34F8FBFF36F8F5A6931F8021C22F4B0
:1038B80080725A61BFF34F8FBFF36F8F4DF602725C
:1038C80091420AD09A6AD2B24AB10DF10702012197
:1038D8002046FFF7F3FE0346B4E72368B2E79A6A87
:1038E80012F47F4F05D00DF107010120FFF754FFB7
:1038F800F1E79B6AB3F5803FA3D3FFF723FFEAE71D
:103908000DF107020021E3E70DF107010020EDE7C3
:1039180022F4FF7222F00102ACE700BF00ED00E0E4
:10392800044B5A6942F010025A615A6922F008029F
:103938005A61704700ED00E0EFF30880EFF309816A
:1039480001B57246FFF758FF01BD00BF102080F394
:10395800118808484FF48251401880F30988EFF322
:1039680014800221084380F31488BFF36F8F00F09E
:10397800A5F8000080400020084B9B6883420BD1CB
:10398800EFF3058343B1064B5A6842F080525A6000
:103998005A6A22F400425A6209F0DEBF881E0020EB
:1039A80000ED00E015498A684FF030001044EFF34D
:1039B800098C80E8F01F102080F31288BFF36F8F06
:1039C8000F4F4FF000668A698A603E60D2F8840023
:1039D8000C4C2060D2F888000023C2F8883080F3AD
:1039E800118804B5104600F00BF9BDE8044002F157
:1039F800300090E8F01F8CF309887047881E00207B
:103A080004ED00E0340E00201EF0040F0CBFEFF3AD
:103A18000880EFF30980816911F8021C0229FFD0A0
:103A280001B572460BF0A2FC01BD00BF40B20028F0
:103A380007DB044A4109012300F01F00834042F8D4
:103A48002130704700E100E040B200280CDB430958
:103A5800064900F01F0020330122824041F823204C
:103A6800BFF34F8FBFF36F8F704700BF00E100E0D7
:103A7800054B420900F01F0053F82220012303FAE6
:103A880000F01040704700BF00E100E040B200289D
:103A9800A8BF00F1604001F10101B8BF064B4FEA31
:103AA8000111ACBF00F5614000F00F00C9B2B4BF0E
:103AB800195480F80013704714ED00E008B5084B5E
:103AC800084A23F07F039360BFF34F8FBFF36F8FD4
:103AD80009F0C4F80AF074F800F05EF809F020F96B
:103AE8000000000800ED00E042F8203C009B42F88E
:103AF8001C3C0A49019B42F8183C029B42F8143CC2
:103B080021F001014FF0807342F8043C42F8081C90
:103B18000023203A0265C0F888307047A5250008C0
:103B2800094A0346906870B113F1160F406F05D02B
:103B3800A0F140029A4205D8834203D2814228BFAD
:103B48000020704700207047881E002008B51546E1
:103B58000A4A0B4B9060D0F884201A600E4600F099
:103B68004FF82C4686F309880020064B98472046D4
:103B7800002100220023044C204700BF881E00209B
:103B8800340E002093F30008A5250008014B1022ED
:103B98001A61704700ED00E0044800231021C218A4
:103BA80001333E2B82F80013F9D1704700E100E0A1
:103BB80008B572B60A4B5A691AB100225A61FEF763
:103BC8005FFF62B6EFF30583064A103B02EBC301C1
:103BD80052F8330049688847BDE80840FFF75EBDE2
:103BE800881E002004330108024B034A03480121C0
:103BF80000F076B800000120000000203C370108E2
:103C0800426F054B403A1A60044A4021C3E9011249
:103C18001846012100F06EB8380E002000000B1580
:103C2800084AC2F898000B6823F01F03034343F0C7
:103C38001003C2F89C308B6843F00103C2F8A0302F
:103C4800704700BF00ED00E02DE9F043DFF8608029
:103C580085B00E461F4604464FF00009B14523DAE9
:103C68006068D8B13FB1411E08421BD11F2819D93D
:103C78002368194216D1236801930BF09AFBA368B5
:103C880003430393D8F89050C5F30725D0B2013DFC
:103C9800A84207D801A9FFF7C3FF421C09F101098F
:103CA8000C34DBE76FF01502104605B0BDE8F08371
:103CB80000ED00E0044B0522C3F89420BFF34F8FBA
:103CC800BFF36F8F704700BF00ED00E0BFF35F8F59
:103CD800024B0022C3F89420704700BF00ED00E0BB
:103CE80010B5034C01232278FFF7AEFF207010BDFA
:103CF800D21E002008B50B4A00231278FFF7A4FF54
:103D080010F1160F07D0084A0021D2F89030C3F3FB
:103D18000723984200DB08BDC2F89800C2F8A0103B
:103D28000130F2E7D21E002000ED00E02DE9F0435B
:103D3800534B544CD3F890302568C3F307239D4266
:103D480085B000F29A80FFF7C1FF00200C2685425B
:103D58001AD14D4C4D4F25706846FEF75FFEDFF8CF
:103D68002081DFF82C9106460025AE4213D1237836
:103D780043490020D1F89020C2F30722934276DB12
:103D8800FFF798FF002042E0616806FB0011FFF78B
:103D980047FF0130DBE7009800EB05114FEA051CEF
:103DA800CB683B40B3F5000F48D00AD8B3F5001FE5
:103DB80030D0B3F5800F36D0B3F5801F10D0013561
:103DC800D3E7B3F1807F42D0B3F1007FF7D150F849
:103DD8000C3088684A680BF0ECFA40F4802009E05F
:103DE80050F80C3088684A680BF0E3FA40F08850C5
:103DF80040F43020CDE901230390D8F890302078A2
:103E0800C3F30723013B98422AD96FF0150005B088
:103E1800BDE8F08350F80C3088684A680BF0C9FA9E
:103E280040EA0900E6E750F80C3088684A680BF069
:103E3800C0FA40F0007040F40030DBE750F80C3076
:103E480088684A680BF0B5FA40F08270D2E750F8FB
:103E58000C3088684A680BF0ACFA40F08870C9E703
:103E680001A9FFF7DDFE237801332370A7E7C1F826
:103E78009830C1F8A00001337CE74FF0FF30C6E767
:103E880000ED00E048370108D21E00200000F0FFD6
:103E98000000081108B50649064821F00701C1F1DC
:103EA800005202F580320AF09DFC002008BD00BFD8
:103EB80087910020440E0020024B1B6803B118476D
:103EC800FF207047540E00200A4B0B4A0020C3E91C
:103ED80000000A4B1A600A4A5A600A4A9A600A4A5B
:103EE800DA600A4B0A4AC3E900200A4A9A600A4A79
:103EF800DA607047780E002039400008680E00200C
:103F0800A53F00085D3F0008DBF30008580E0020BD
:103F1800C13E0008F9430008DDF3000810B58AB077
:103F28002D23044668468DF8003003F0D9FD074A72
:103F38009DF9043011788B4200D12CB1D8B2044BD2
:103F480010701B6803B198470AB010BDD51E002039
:103F5800500E002010B543788AB0044643B9037860
:103F6800012B05D1072368468DF8003003F0B8FD12
:103F7800034B62781A70034809F020F80AB010BDA4
:103F8800D31E002040090020034BBFF35B8F186845
:103F9800BFF35B8F704700BF800E00202DE9F3410F
:103FA80042780446002A3CD1FFF7EEFFC10702D54C
:103FB8001046FFF7B3FFFFF7E7FF83070ED4237F11
:103FC80063B1BFF35B8F184B53E8001F41F0020148
:103FD80043E80012002AF7D1BFF35B8F217F637992
:103FE8004900012B08BF41F00101104B1D68CFB2F9
:103FF800BDB1083D4FF6FF782B88E078434501D0E6
:1040080083420AD1A3680193237B00936E6894F9D5
:104018001030B4F90E203946B047AD680DB1083DEF
:10402800EAE702B0BDE8F081800E0020780E00209B
:1040380010B50446FFF7A8FFC30702D50020FFF715
:104048006DFF044B62781A700348BDE8104008F011
:10405800B5BF00BFD41E002028090020052801BFD5
:10406800044B1870044B012206BF00201A706FF031
:1040780085007047E6060020E506002070B5044676
:104088009AB04FF0FF324FF0FF33554808F0CEFE9C
:1040980000261D2306A88DF818308DF81C6003F043
:1040A80037FE257D002D45D101238DF804304D4B79
:1040B8001B788DF8093002238DF808308DF84030D0
:1040C80010A82369119303F023FE03238DF84030D1
:1040D80010A82368119303F01BFE09238DF84030C4
:1040E80010A86368119303F013FE08238DF840307D
:1040F80010A8A368119303F00BFE01A804F02CF993
:1041080050B100F021F90446002853D0344808F093
:1041180005FF20461AB070BD4FF0FF3332484FF00C
:10412800FF3208F085FF314B1878002842D000F0A4
:104138001DF9E8E7012D50D135238DF8403010A83E
:104148002B4B119303F0E4FD062310A88DF84030A3
:10415800119603F0DDFD07238DF8403010A8236881
:10416800119303F0D5FD0C238DF8403010A8A368F7
:10417800119303F0CDFD0D238DF8403010A8A368EE
:10418800119303F0C5FD0E238DF8403010A8A368E5
:10419800119303F0BDFD0F238DF8403010A863681C
:1041A800119303F0B5FD10A88DF840508DF84450D8
:1041B80003F0AEFDFFF7E8FEC30709D42D238DF801
:1041C8004030084B10A81B788DF8443003F0A0FD50
:1041D8000120FFF7A3FE002498E76FF0150495E788
:1041E800D8080020D61E002040090020D31E002039
:1041F80000030001F0B5074687B015461C460E4679
:1042080009B9002A43D123484FF0FF324FF0FF335A
:1042180008F00CFE6946284603F000FCA8B100230C
:104228008DF804300393ADF81030012501A88DF8FE
:10423800123004F073FFC0B100F086F80446154848
:1042480008F06CFE204607B0F0BD5CB1012C09D027
:10425800114BADF8105093F900308DF808700396A3
:104268000025E3E78DF80440F2E74FF0FF330B48F1
:104278004FF0FF3208F0DCFE094B187808B100F067
:1042880075F8002D044618BF6FF00A04D7E76FF0E1
:104298001504D7E7EC080020D51E002028090020C7
:1042A800D41E0020014B1860704700BF540E002038
:1042B80000238360054B596800F1080211B9C3E96E
:1042C800002270470A605A60704700BF780E0020CD
:1042D800014B1860704700BF500E002030B5154DD7
:1042E80015492A7815488FB003F0CEF918B16FF048
:1042F80015000FB030BD0BF07FF800F099F803F00F
:1043080083FB04460028F2D1062302A928788DF8F9
:1043180008300CF0B1FB0A4BC0B21870094B18708A
:1043280030238DF8103004A81423059303F0F0FC13
:104338002046DEE7E6060020580E0020680E002022
:10434800D61E0020D51E00201628034608D8064A87
:1043580052F8200030B9002B18BF6FF015007047D5
:104368006FF01500704700BFA83701080F280346F3
:1043780008D8064A52F8200030B9002B18BF6FF051
:10438800150070476FF01500704700BF68370108C7
:104398002DE9F84FDFF8549006460C461746984624
:1043A80000254FF0140B0BFB05F3314659F80300B9
:1043B80003EB090AFCF7D4FEA0B9DAF80C300A9925
:1043C8001944DAF808309C4203D06FF01500BDE8B4
:1043D800F88F0029F9D022464046B8478442F4D1E4
:1043E8000020F4E70135072DDDD1F9E7043801088D
:1043F800F0B506468BB0B8B1342368468DF8003066
:1044080003F06EFB044678B9019F084D2B8AB3432D
:1044180005D1D5E9022168683944FEF7DFFE013489
:10442800072C05F11405F1D10BB0F0BD04380108D3
:1044380030B58BB0342568468DF8005003F050FB3A
:1044480020B16FF0150420460BB030BD019A074922
:104458000748FEF723FF04460028F4D168468DF884
:10446800005003F055FC0028EDD0EAE79943000816
:10447800233E0108014808F001BF00BFA405002041
:10448800014B186059607047840E0020024B1A686F
:104498005B6802600B607047840E002008B50AF064
:1044A800AFFF024B1B68C01A08BD00BF8C0E00206E
:1044B80001480EF0C6BB00BF0808002007B501463A
:1044C80040F2E7304FF47A72002300EB0130090D17
:1044D800FCF72CFE02460B4600210020CDE9000126
:1044E800024809F013FD03B05DF804FB080800203A
:1044F80008B50AF085FF014B186008BD8C0E002036
:10450800014B1868704700BF8C0E002010B5124C84
:10451800BFF35B8F022354E8002F012A03D144E83C
:1045280000310029F7D1BFF35B8F0CBF01200020B9
:1045380010D10A4BDB6A9847002344F8403CBFF38C
:104548005B8F54E8002F44E800310029F9D1BFF30C
:104558005B8F012010BD00BFD40E002094390108E4
:1045680010B5064B5C68FFF7D1FF30B12CB10021C4
:104578002046BDE8104009F08BBD10BD900E00200C
:1045880013B50D4BD3E901433BB10C4B5B6B019366
:10459800002002B0BDE810401847FFF7B7FF40B150
:1045A8003CB16FF00401204602B0BDE8104009F0AC
:1045B8006FBD02B010BD00BF900E002094390108F5
:1045C8002DE9F347284C9A46D4E9019307460D464E
:1045D800164683B1254B00205B6B9847E368CDE90D
:1045E80000A32A46D4F80880206833463946C047D5
:1045F80002B0BDE8F08704F144020223BFF35B8FE9
:1046080052E8001F012903D142E800300028F7D101
:10461800BFF35B8F9046EBD1E36C1A78AA4288BF50
:104628001D70E36CA06C1A7839460EF09CFC236D63
:1046380003B11E80636D0BB183F800A00B4BDB6ADE
:10464800984700216160BFF35B8F58E8003F48E856
:104658000012002AF9D1BFF35B8F484602B0BDE8CB
:10466800F04709F015BD00BF900E002094390108ED
:1046780070B50D460F49BFF35B8F012051E8004F1D
:10468800002C03D141E80006002EF7D1BFF35B8F61
:104698000CD1094E41F8403CD4B2736D214698477D
:1046A8002846B36A21469847002070BD6FF00F0076
:1046B800FBE700BFD40E0020943901082DE9F0472C
:1046C8004FF000088EB005AC284F81468A46154643
:1046D8004146102209A80126CDE90544CDE90788FD
:1046E8000EF04FFC8DF831607B6B0D94002B3AD0A7
:1046F80023462A4651464846FFF7BAFF041E2EDBDA
:10470800EDB2CDE901850396BB8F194C009397F85C
:104718003A3097F8392097F83810646A3046A0473D
:10472800014640F2E7304FF47A72002300EB413043
:10473800C1F3CB41FCF7FAFC02460B46314609A807
:1047480009F04EFC041E0ADAFFF7E0FE38B94FF014
:10475800FF324FF0FF33314609A809F041FC2046EB
:104768000EB0BDE8F0876FF01504F8E7900E002052
:1047780094390108F0B58DB000248DF8072003AEF8
:104788000F461022214607A8CDE90366CDE9054466
:1047980001250EF0F6FB214B8DF829500B96BFF33F
:1047A8005B8F53E8002FA24203D143E80051002950
:1047B800F7D1BFF35B8F2DD10DF1070243E91064E8
:1047C8009A60174E149ADA60159A1A615F60FF2191
:1047D800736D28469847736B20469847DDE9122386
:1047E800294607A809F0FCFB041E0DDAFFF78EFE28
:1047F80068B94FF0FF324FF0FF33294607A809F098
:10480800EFFB9DF8074002E0069C002CF9DA2046F1
:104818000DB0F0BD6FF00F04F9E700BFD40E002013
:104828009439010810B529B9FFF770FED8B96FF0AF
:10483800150010BD0E4BBFF35B8F012053E8004FEE
:10484800002C04D143E8000CBCF1000FF6D1BFF3F3
:104858005B8F0AD1074C43E90F12636DFF2198471C
:10486800636B002098470020E3E76FF00F00E0E754
:10487800D40E002094390108F0B52C4DBFF35B8F9E
:104888008BB00C46012755E8003F002B03D145E8C3
:104898000072002AF7D1BFF35B8F43D1244E206802
:1048A800F3689847E37A4BB32346103D04F11007A9
:1048B800186859682A4603C20833BB421546F7D11F
:1048C8004FF47A63089300220120237B0793CDE9F4
:1048D8000522CDE9032023890293A3790193637903
:1048E8000093F569237994F90A10A847B36D607BA2
:1048F8009847FFF70BFE00200BB0F0BD0997227B0D
:10490800B569CDE90732CDE90533CDE903330A228C
:1049180002922289CDE900323846A3796279217959
:10492800A847E3E76FF00F00E6E700BFD40E0020CA
:104938009439010838B5084611461A460B4BBFF39F
:104948005B8F012453E8005F002D04D143E8004C3D
:10495800BCF1000FF6D1BFF35B8F04D1044BDB6BC6
:104968009847002038BD6FF00F00FBE7D40E0020F9
:104978009439010838B5114BBFF35B8F002453E815
:10498800002F43E800410029F9D1BFF35B8F0C49A0
:1049980043F8341C0B490C4D43F82C1C0B4943F8C5
:1049A800241C0B4943F8301C2A6843F8440CA3F133
:1049B80034009047EB6A9847204638BDD40E002053
:1049C80069450008C9450008943901088945000867
:1049D80097F4000810B5094CE3696BB100209847BB
:1049E800074B1B6E03B1984794F8203023B1BDE8FC
:1049F8001040024800F0ECB810BD00BFE80E0020DF
:104A08009439010838B54FF4B01145680446154883
:104A18000AF03FFD10B16FF0040038BD12484FF4A2
:104A2800B0110AF036FD0028F5D1104810490DF0F4
:104A380062FF204600F0D6F80028EED128680DF075
:104A48008AFE10B96FF01200E7E7E86828B9204637
:104A5800FFF790FF00EAE070DFE70DF07CFE00282A
:104A6800F5D1EFE7A8380108B0380108F40E0020A6
:104A7800DD490008014801210AF034BDA8380108C1
:104A8800014800210AF02EBDA8380108014B93F80F
:104A980020007047E80E002008B50346074880F854
:104AA80020303BB1042B07D10121BDE80840044860
:104AB8000AF018BD0AF0EAFD0021F6E7E80E00202A
:104AC800B0380108014BD861704700BFE80E0020DC
:104AD80010B5044C20460AF0BEFD012384F82030AE
:104AE80010BD00BFE80E002010B5054C204600F0B0
:104AF80067F800B910BD002105200DF0F5FFF5E7B6
:104B0800E80E002070B58CB00D46DDE91061CDE9E6
:104B1800063104ABCDE90402CDE90852009308AA96
:104B280002230446CDE90A61CDE9022301930AF084
:104B3800C7FE0B486DB966B983680A491D686A469D
:104B48003346A8472378842B01D0FFF7CDFF0CB05C
:104B580070BD836803491D68014802AB6A46F0E7E7
:104B6800743201089438010870B50F4C86B020469D
:104B780000F02EF8C023ADF8043001AB02930223F5
:104B88000393012502AB04930595084808498368F7
:104B980004AA1E680023B047002803DBFFF7A4FF20
:104BA80084F8205006B070BDE80E00207432010869
:104BB8009438010801480AF067BD00BFE80E0020DC
:104BC800024B5869C0F34000704700BF000400580A
:104BD800034B4FF48022C3F884213220FEF726BF0E
:104BE80000E100E0002208B511463220FEF74EFF32
:104BF800054AD2F8903043F48053C2F890303220FE
:104C0800FEF714FF002008BD00080058074B0849AC
:104C18001A6843F2390001FB020018606FF0004384
:104C2800B0FBF3F3C3EBC373C01A7047B40500209D
:104C38006D4EC641014B1860704700BFB405002097
:104C480030B530B10A4D01444FF0FF33814201D1F4
:104C5800D84330BD10F8012B5340082243F3000419
:104C6800013A2C4092B284EA5303002AF6D1EDE7C8
:104C78002083B8ED044A13680BB1002159724361CF
:104C880010600AF0D6BD00BF0C0F002037B50446EF
:104C980001A80AF0EDFB6CB1174D2A68134673B9E9
:104CA80063682360012323816AB9FFF721FC20464A
:104CB800FFF7E0FF01A80AF0E4FB03B030BD9C4217
:104CC800F8D05B69EBE7FFF7E9FB236818442B682A
:104CD80020601A689042EAD35A69596911B95C612F
:104CE8006161E7E71168884202D913465269F4E71F
:104CF8005C616261DEE700BF0C0F0020F8B5FFF7CA
:104D0800FFFB1C4C0546FFF7F3FB2368A3B1471BC9
:104D18001E462D1A716929B95A692260DA68197212
:104D280042B9FEE70A68BA428CBF521900220A60EB
:104D38007669EFE718699047002623682BB9206841
:104D480080B9F8BD18699047F7E71D68FFF7A6FB1B
:104D58008542F4D223685A692260DA681E72002AF2
:104D6800F0D1FEE7437A002BEBD1BDE8F8400AF01A
:104D780060BD00BF0C0F002037B5134D044601A8D5
:104D88000AF076FB2B686BB164B10022A342227251
:104D980011D1597A5C6961B15A7244B120462C60CC
:104DA8000AF047FD01A80AF06CFB03B030BDFFF71D
:104DB8007FFB2C60F6E71A465B69002BF2D09C4219
:104DC800F9D163695361EDE70C0F002007B5074B74
:104DD8001B7840BAADF804002BB9022201A940F2B1
:104DE800BC600AF0EDFB03B05DF804FBD91E00209F
:104DF80007B5074B1B7840BAADF804002BB902225F
:104E080001A940F2BE600AF0DBFB03B05DF804FBC9
:104E1800D91E002010B50C4B1B7804469BB94FF4E3
:104E2800D7600AF002FCC4F3002100F0FE00014341
:104E38004FF4D7600AF0D8FBE1B240F2B960BDE8A0
:104E480010400AF0D1BB10BDD91E002013B504468E
:104E5800FFF716FE04F0070314F004048DF807307A
:104E680008BF084B4FF001020DF107014FF0840015
:104E780008BF1C700AF084FB0020FFF70DFE02B08B
:104E880010BD00BFD71E002010B50446FFF720FE56
:104E98002046FFF717FEFFF767FE00200AF02FFDF8
:104EA8000AF038FB0AF042FB034B00221A70BDE8F7
:104EB80010400120FFF7F0BDD71E0020134B984289
:104EC80007B50BD94EF6E113ADF80430022201A95B
:104ED80098200AF055FB03B05DF804FB0C4B984290
:104EE80002D94DF6D733EFE70A4B984202D94CF274
:104EF800C153E9E7084B984202D948F27513E3E732
:104F0800064B9842E2D946F66B73DDE700E9A43513
:104F180080F8A9328044E52D000B6B1B40FC541926
:104F280037B5104D2B7804461BB9FFF7C7FF01238F
:104F38002B7043F6095241F68463B4FBF2F102FB8D
:104F4800114403EB8433B3FBF2F3042203EB813304
:104F58001BBA0DEB0201862001930AF011FB03B086
:104F680030BD00BFD71E002007B5064B8DF80700DF
:104F7800187001220DF107018A200AF001FB03B025
:104F88005DF804FBD91E0020014B1878704700BF5C
:104F9800D91E002013B5224A0446516810686B4692
:104FA80003C3204B20781B78834201D0FFF7DCFF36
:104FB80023781BB1012B2ED002B010BD62681A4BAA
:104FC800B3FBF2F31A0C8DF800201A0A8DF80120B1
:104FD8008DF80230A268237B8DF8033043F609511F
:104FE800637BB2FBF1F08DF8043001FB102241F62F
:104FF800846303EB8233B3FBF1F303EB80331A0CC6
:105008005BBA8DF80520ADF80630082269468B207A
:105018000AF0B6FAD0E7236900930422F6E700BF46
:1050280038360108D91E00200000093D1FB52B4A5B
:105038000446D1689068127C01AB03C31A70284BF0
:1050480020781B78834201D0FFF78EFF23781BB1AD
:10505800012B31D004B010BD637AF12B20D14FF66B
:10506800FF70FFF7B3FE48F20500FFF7C1FE022309
:105078006288A188ADF8061052BAE188ADF804201C
:105088008DF80B30227AA37A8DF80A20ADF8081033
:105098008DF80C30092201A98C200AF071FAD9E7A1
:1050A800F22BE5D141F60F50FFF790FE41F22100B7
:1050B800FFF79EFE0623DBE7A3890A4A5BBAADF831
:1050C8000430A37B13708DF80630E37B8DF807302E
:1050D800238AADF808300622DDE700BF383601081C
:1050E800D91E0020D81E002037B505460C460222DE
:1050F80001A913200AF052FA0A4B1B78012B0DD193
:10510800094B1B78012B09D140F202700AF08DFA85
:105118009DF805302870237003B030BD9DF8040059
:10512800F6E700BFD91E0020D81E002013B50322C1
:10513800044601A914200AF031FA184B1A78227093
:105148004AB1012A17D013220021601C0DF019FF63
:105158000F2323700DE09DF8043023719DF805306E
:10516800A2605B425B10A3719DF806305B425B1046
:10517800637102B010BD9DF804305B425B1023736D
:105188009DF9053002339B1063739DF806305B422E
:105198005B10A373024B1B682361EAE7D91E00204A
:1051A800100F0020034B1B6813B15B6803B118474D
:1051B800704700BF38100020034B1B6813B1DB6831
:1051C80003B11847704700BF38100020014B012277
:1051D8001A707047DC1E002008B5FFF757FC04382A
:1051E800C0B2032896BF024B0020185C08BD00BF60
:1051F800D53E010838B50C46002340F201211A4675
:10520800054608460AF0A5FCFFF7BEFE0C4B012830
:105218000C480CBF83F8C74083F8C040FFF706FF6F
:105228002146284600220AF092FB074B07481968D6
:105238000AF01DFBBDE838400448FFF727BD00BF52
:10524800440F0020FC0F0020541000202C0F0020D9
:1052580038B50D461446FFF763FE2846074D0AF099
:1052680068F90AF008FC4FF47A71284661430AF09D
:10527800FEFA2846BDE83840FFF708BD2C0F00208D
:1052880073B5574D01A80AF0F3F82C78002301A84C
:105298002B700AF0F6F8002C61D00AF06FFC044677
:1052A8000AF00FFD01A80AF0E3F8FFF783FC0128D4
:1052B80008BF287001A80AF0E4F8E5070BD54948AB
:1052C800FFF75AFD0120FFF7E7FB474B1B6813B1B7
:1052D8001B6803B19847A00711D54448424EFFF711
:1052E8004BFD14F0400F424B3BD01B7813B9012003
:1052F800FFF7D2FB336813B11B6903B19847210646
:105308000AD50120FFF7C8FB374B1B6823B19B69FF
:1053180013B1C4F300209847A2050FD5FFF7B6FBD9
:1053280004284CD12F48FFF727FD0120FFF7B4FBD5
:105338002D4B1B6813B15B6803B19847A3060ED5C4
:105348002A48FFF719FD2A4B1B7813B90120FFF7EC
:10535800A3FB254B1B6813B1DB6803B1984702B068
:1053680070BD1D7895B90120FFF796FB294640F6D8
:1053780002100AF039F940F644100AF056F940F0E4
:105388000201C9B240F644100AF02EF9194D1A4824
:10539800FF220DF103010AF07BFC2846FFF7C6FE49
:1053A8003368002BABD09E68002EA8D095F90D303D
:1053B80095F90C209DF803100F48B0479FE7FFF7B9
:1053C80065FB0528BAD10948FFF7D6FC0120FFF78D
:1053D80063FB054B1B68002BB0D0DB68ACE700BF54
:1053E800DC1E00202C0F002038100020140F002095
:1053F800DC1F00203C100020DD1E002010B590B1FD
:105408000A4B012219461C68A04206D39C68A04298
:1054180003D201EBC201087910BD0132162A03F14B
:105428000803F0D1FEE71F20F6E700BFE4380108C3
:105438000128094806D1094B80F8C7101970B830FF
:10544800FFF7F4BD90F8BF30012B04D1034B80F86F
:10545800C0101970F3E77047440F0020E7060020DA
:1054680000234FF6FF7110B51A46044608460AF0A5
:1054780070FB34B1094821460AF0F9F90748FFF7EB
:1054880005FC074B1B782BB16FF07F40BDE810403F
:105498000AF066BA034B18688001F7E7140F00207A
:1054A800DC1F00205010002000234FF6FF7110B5BC
:1054B8001A46044608460AF04CFB34B1094821460E
:1054C8000AF0D5F90748FFF7E1FB074B1B782BB12A
:1054D8006FF07F40BDE810400AF08FBA034B1868A0
:1054E8008001F7E7140F0020DC1F00205010002077
:1054F800F0B5BDF814409DF818C09DF81CE09DF863
:10550800205040B1012814D00122002398180138F6
:10551800B0FBF2F0F0BD8CF0010CE30003EBCC0320
:1055280018330EEB450503EBC5034FF47A714B4373
:10553800ECE7501F012803F1040304D80C2C38BFF2
:105548000C24002706E0C1B9A2F10B07012F8CBF7C
:10555800002701272801BCF1000F00EBCE000CBF8B
:1055680014250025A0EB8200062A4FEA820628446B
:10557800A2F1020C08D835460BE00129E1D1A2F1CD
:105588000C0047424741E5E70830002FF3D04FEAC7
:105598008C050028ACBF2E182E1C701E90FBF5F051
:1055A80003FB0044094B062A5A5C8CBF0C340E34AA
:1055B8000A2A0AD8A30001334FF47A7103FA0CF3CC
:1055C8004B43034951F82220A0E7FFDED93E0108EA
:1055D800B83801080D4B10B504461870587000F023
:1055E80017F85CB134214FF4E86009F0FDFF44215D
:1055F800BDE8104040F2417009F0F6BF14214FF4A5
:10560800E86009F0F1FF2421F2E700BFDA1E00206C
:1056180008B50120FFF7A8FC054B18785A78824294
:1056280004D05870BDE80840FFF7D4BF08BD00BFDC
:10563800DA1E0020012808B506D00020FFF794FCE8
:10564800034B00225A7008BDBDE80840FFF7E0BFD1
:10565800DA1E00202DE9F04F85B089469DF84C10E0
:1056680000919DF85C109DF844A0BDF84070694C0D
:10567800DFF8A4B1BDF83C602170002918BF0027ED
:10568800BAF1000F15469DF8482008BFFF228BF895
:105698000020804620B1012854D005B0BDE8F08F25
:1056A8005E4C0AF0F3F90B234FEA490084F8EC301A
:1056B80084F8E080C4F8E450FFF7A0FE41F6040344
:1056C800A4F8BC309BF8003084F8C030009B84F804
:1056D800ED00002B0CBF0123F22384F8C130F60043
:1056E80001238AF0010A84F8C23084F8B880A4F84B
:1056F800BA6084F8BE8084F8BFA00AF0F0FA94F883
:10570800E000003818BF0120FFF794FF04F1E00023
:10571800FFF740FC04F1B800FFF788FC404A106826
:10572800516802AB03C302A80AF0E0F840F2FF1088
:10573800FFF770FB4FF4FA537B43B3FBF5F3394A99
:105748001360AAE70020354C01930AF09FF9364907
:10575800019B11F8091084F8E080EAB284F8F0207F
:10576800B9F1000F45D10B3D012D8CBF0025012556
:10577800053A012A02D80C2E38BF0C2684F8F230DC
:10578800012384F8B8309BF8003084F8C730009BB8
:1057980084F8C8309DF8583084F8C93084F8F1107E
:1057A80084F8F350A4F8C46084F8C6A00AF097FA05
:1057B80094F8E000003818BF0120FFF73BFF1B48B2
:1057C800FFF7E8FB1A48FFF731FCF8B20AF06AF96C
:1057D80094F8C930012B40F2367014D109F025FF36
:1057E80000F0FB0140F2367009F0FEFE4FF6FF7341
:1057F800A5E7B9F1010F04D1A5F10C0045424541D7
:10580800B6E70025B4E709F010FF40F00401C9B27B
:10581800E8E700BFDC1F0020E7060020440F002057
:105828004936010850100020D93E010824100020F4
:10583800FC0F00202DE9F74F0C9DBDF838709DF83E
:105848003C909DF840A088469346064648B10128FA
:105858004DD040F6890009F0E8FE40F00401C9B2D5
:105868008DE0524C0B2284F8E000580084F8EC20BC
:10587800C4F8E450FFF7C2FD41F60403BAF1000F83
:10588800A4F8BC300CBF0123F22384F8C130FF0018
:10589800012389F0010984F8C23084F8ED00C4F8C6
:1058A800E8B084F8B860A4F8BA7084F8BE6084F8E8
:1058B800BF900AF014FA94F8E000003818BF0120ED
:1058C800FFF7B8FE04F1E000FFF764FB04F1B8004D
:1058D800FFF7ACFB364A106851686B4603C368464D
:1058E8000AF004F840F2FF10FFF794FAB1E72F4CE2
:1058F800304984F8E000EAB2C95C84F8F020002B53
:105908004AD10B3D012D8CBF00250125053A012AFE
:1059180002D80C2F38BF0C279DF8343084F8F230A9
:10592800012384F8B830244B84F8F1101B7884F8EC
:10593800C7309DF84C3084F8C93084F8F350A4F887
:10594800C47084F8C69084F8C8A00AF0C8F994F81E
:10595800E000003818BF0120FFF76CFE1748FFF77A
:1059680019FB1748FFF762FB94F8F130062B7FF418
:1059780070AF40F6890009F058FE00F0FB0140F6D0
:10598800890009F031FE404609F0D3FD149A0D4B09
:105998001A6003B0BDE8F08F012B04D1A5F10C0308
:1059A8005D425D41B2E70025B0E700BF440F00202B
:1059B80049360108D93E0108E706002024100020D6
:1059C800FC0F00205410002008B5174B186017482A
:1059D800FFF75AFA002009F092FF01200AF08DF82B
:1059E800002108460AF03AF9042100200AF0F3F8E9
:1059F80000234FF6FF711A4608460AF0AAF840F647
:105A0800AC000AF0E8F940F689000AF0E4F9084920
:105A1800084809F024FF0849084809F020FF084B06
:105A280000221A7008BD00BF38100020D5510008A8
:105A3800AD5100082C0F0020C1510008140F0020A0
:105A4800DC1E0020A1F11003DBB2102B2DE9F0477A
:105A5800044604D83A4820FA03F3DB0705D40023A8
:105A680082F8F030FF20BDE8F087561E254615F86D
:105A7800013B06F8013F631B0B4413F0FF00F6D10E
:105A880001F11C039B005FFA83FCC3F30313013B82
:105A9800DFF8B09082F8F030884653184FF0010EC6
:105AA800B8FBF1FA01FB1A8A1AF0FF0A13F8047C12
:105AB80013F8036C13F8025C13F8014C30D119F891
:105AC80006A019F8056019F8045019F807404FEABC
