:020000040800F2
:1000000000A5002065A10008B9DB010851A1000886
:1000100051A1000851A1000851A1000800000000F2
:10002000000000000000000000000000ADA2000879
:1000300051A100080000000079A20008456A0108EB
:1000400091A4000891A4000891A4000891A40008BC
:1000500091A4000891A4000891A4000891A40008AC
:1000600091A4000891A4000891A4000891A400089C
:1000700091A4000891A4000891A4000891A400088C
:1000800091A4000891A4000891A4000891A400087C
:1000900091A4000891A4000891A4000891A400086C
:1000A00091A4000891A4000891A4000891A400085C
:1000B00091A4000891A4000891A4000891A400084C
:1000C00091A4000891A4000891A4000891A400083C
:1000D00091A4000891A4000891A4000891A400082C
:1000E00091A4000891A4000891A4000891A400081C
:1000F00091A4000891A4000891A4000891A400080C
:1001000091A4000891A4000891A4000891A40008FB
:1001100091A4000891A4000891A4000891A40008EB
:1001200091A4000891A4000891A4000891A40008DB
:0801300091A4000891A400084D
:1001380081F0004102E000BF83F0004330B54FEA90
:1001480041044FEA430594EA050F08BF90EA020FFD
:100158001FBF54EA000C55EA020C7FEA645C7FEA90
:10016800655C00F0E2804FEA5454D4EB5555B8BFB3
:100178006D420CDD2C4480EA020281EA030382EA24
:10018800000083EA010180EA020281EA0303362DB6
:1001980088BF30BD11F0004F4FEA01314FF4801C89
:1001A8004CEA113102D0404261EB410113F0004F9B
:1001B8004FEA03334CEA133302D0524263EB430352
:1001C80094EA050F00F0A780A4F10104D5F1200EF0
:1001D8000DDB02FA0EFC22FA05F2801841F100014B
:1001E80003FA0EF2801843FA05F359410EE0A5F11F
:1001F80020050EF1200E012A03FA0EFC28BF4CF050
:10020800020C43FA05F3C01851EBE37101F0004505
:1002180007D54FF0000EDCF1000C7EEB00006EEB12
:100228000101B1F5801F1BD3B1F5001F0CD349089C
:100238005FEA30004FEA3C0C04F101044FEA4452F3
:1002480012F5800F80F09A80BCF1004F08BF5FEA7A
:10025800500C50F1000041EB045141EA050130BD5A
:100268005FEA4C0C404141EB0101013C28BFB1F56C
:10027800801FE9D291F0000F04BF01460020B1FAB7
:1002880081F308BF2033A3F10B03B3F120020CDA8A
:100298000C3208DD02F1140CC2F10C0201FA0CF068
:1002A80021FA02F10CE002F11402D8BFC2F1200CCD
:1002B80001FA02F120FA0CFCDCBF41EA0C01904083
:1002C800E41AA2BF01EB0451294330BD6FEA0404CC
:1002D8001F3C1CDA0C340EDC04F11404C4F12002B7
:1002E80020FA04F001FA02F340EA030021FA04F3C9
:1002F80045EA030130BDC4F10C04C4F1200220FA20
:1003080002F001FA04F340EA0300294630BD21FA5D
:1003180004F0294630BD94F0000F83F4801306BF23
:1003280081F480110134013D4EE77FEA645C18BF17
:100338007FEA655C29D094EA050F08BF90EA020FAE
:1003480005D054EA000C04BF1946104630BD91EAA6
:10035800030F1EBF0021002030BD5FEA545C05D1A9
:100368004000494128BF41F0004130BD14F58004E8
:100378003CBF01F5801130BD01F0004545F0FE415C
:1003880041F470014FF0000030BD7FEA645C1ABF91
:10039800194610467FEA655C1CBF0B46024650EAC8
:1003A800013406BF52EA033591EA030F41F40021F4
:1003B80030BD00BF90F0000F04BF0021704730B57A
:1003C8004FF4806404F132044FF000054FF000014F
:1003D80050E700BF90F0000F04BF0021704730B510
:1003E8004FF4806404F1320410F0004548BF4042E5
:1003F8004FF000013EE700BF42004FEAE2014FEA3A
:1004080031014FEA02701FBF12F07F4393F07F4F14
:1004180081F06051704732F07F4208BF704793F017
:100428007F4F04BF41F40021704730B54FF460742A
:1004380001F0004521F000411CE700BF50EA01022D
:1004480008BF704730B54FF000050AE050EA0102D6
:1004580008BF704730B511F0004502D5404261EB46
:1004680041014FF4806404F132045FEA915C3FF487
:10047800D8AE4FF003025FEADC0C18BF03325FEA24
:10048800DC0C18BF033202EBDC02C2F1200300FAD5
:1004980003FC20FA02F001FA03FE40EA0E0021FAFA
:1004A80002F11444BDE600BF4FEA4102B2F1E04355
:1004B80024BFB3F5001CDCF1FE5C0DD901F0004C43
:1004C8004FEAC0024CEA5070B2F1004F40EB830093
:1004D80008BF20F00100704711F0804F21D113F1BF
:1004E8003872BCBF01F00040704741F480114FEAF8
:1004F8005252C2F11802C2F1200C10FA0CF320FA81
:1005080002F018BF40F001004FEAC1234FEAD3239D
:1005180003FA0CFC40EA0C0023FA02F34FEA430307
:10052800CCE77FEA625307D150EA01331EBF4FF090
:10053800FE4040F44000704701F0004040F0FE40AB
:1005480040F40000704700BF80F0004002E000BFA8
:1005580081F0004142001FBF5FEA410392EA030FA6
:100568007FEA226C7FEA236C6AD04FEA1262D2EBF0
:100578001363C1BFD218414048404140B8BF5B42F5
:10058800192B88BF704710F0004F40F4000020F08E
:100598007F4018BF404211F0004F41F4000121F0A4
:1005A8007F4118BF494292EA030F3FD0A2F10102EE
:1005B80041FA03FC10EB0C00C3F1200301FA03F12C
:1005C80000F0004302D5494260EB4000B0F5000F4F
:1005D80013D3B0F1807F06D340084FEA310102F10E
:1005E8000102FE2A51D2B1F1004F40EBC25008BFC0
:1005F80020F0010040EA03007047490040EB00008A
:10060800013A28BFB0F5000FEDD2B0FA80FCACF18A
:10061800080CB2EB0C0200FA0CF0AABF00EBC250B7
:1006280052421843BCBFD0401843704792F0000FA5
:1006380081F4000106BF80F400000132013BB5E7F8
:100648004FEA41037FEA226C18BF7FEA236C21D06E
:1006580092EA030F04D092F0000F08BF08467047D3
:1006680090EA010F1CBF0020704712F07F4F04D1A1
:10067800400028BF40F00040704712F100723CBFB4
:1006880000F50000704700F0004343F0FE4040F4DE
:10069800000070477FEA226216BF08467FEA23639C
:1006A8000146420206BF5FEA412390EA010F40F487
:1006B800800070474FF0000304E000BF10F00043D3
:1006C80048BF40425FEA000C08BF704743F09643BA
:1006D80001464FF000001CE050EA010208BF7047D5
:1006E8004FF000030AE000BF50EA010208BF70475C
:1006F80011F0004302D5404261EB41015FEA010C71
:1007080002BF84460146002043F0B64308BFA3F168
:100718008053A3F50003BCFA8CF2083AA3EBC2534A
:1007280010DB01FA02FC634400FA02FCC2F1200269
:10073800BCF1004F20FA02F243EB020008BF20F0A0
:100748000100704702F1200201FA02FCC2F1200206
:1007580050EA4C0021FA02F243EB020008BF20EAFB
:10076800DC7070474FF0FF0C1CEAD0521EBF1CEA29
:10077800D15392EA0C0F93EA0C0F6FD01A4480EA17
:10078800010C400218BF5FEA41211ED04FF0006300
:1007980043EA501043EA5111A0FB01310CF000402C
:1007A800B1F5000F3EBF490041EAD3715B0040EA52
:1007B800010062F17F02FD2A1DD8B3F1004F40EB22
:1007C800C25008BF20F00100704790F0000F0CF0F5
:1007D800004C08BF49024CEA502040EA51207F3AB9
:1007E800C2BFD2F1FF0340EAC250704740F4000094
:1007F8004FF00003013A5DDC12F1190FDCBF00F085
:1008080000407047C2F10002410021FA02F1C2F132
:10081800200200FA02FC5FEA310040F1000053EACE
:100828004C0308BF20EADC70704792F0000F00F01C
:10083800004C02BF400010F4000F013AF9D040EA22
:100848000C0093F0000F01F0004C02BF490011F4B6
:10085800000F013BF9D041EA0C018FE70CEAD153B4
:1008680092EA0C0F18BF93EA0C0F0AD030F0004C34
:1008780018BF31F0004CD8D180EA010000F00040E8
:10088800704790F0000F17BF90F0004F084691F0A6
:10089800000F91F0004F14D092EA0C0F01D14202E0
:1008A8000FD193EA0C0F03D14B0218BF084608D1A9
:1008B80080EA010000F0004040F0FE4040F40000F3
:1008C800704740F0FE4040F4400070474FF0FF0C86
:1008D8001CEAD0521EBF1CEAD15392EA0C0F93EACD
:1008E8000C0F69D0A2EB030280EA010C49024FEA1F
:1008F800402037D04FF0805343EA111143EA1013D8
:100908000CF000408B4238BF5B0042F17D024FF48F
:10091800000C8B4224BF5B1A40EA0C00B3EB510F6A
:1009280024BFA3EB510340EA5C00B3EB910F24BF53
:10093800A3EB910340EA9C00B3EBD10F24BFA3EBD8
:10094800D10340EADC001B0118BF5FEA1C1CE0D1A0
:10095800FD2A3FF650AF8B4240EBC25008BF20F053
:10096800010070470CF0004C4CEA50207F32C2BFA7
:10097800D2F1FF0340EAC250704740F400004FF044
:100988000003013A37E792F0000F00F0004C02BF75
:10099800400010F4000F013AF9D040EA0C0093F03F
:1009A800000F01F0004C02BF490011F4000F013B99
:1009B800F9D041EA0C0195E70CEAD15392EA0C0F01
:1009C80008D142027FF47DAF93EA0C0F7FF470AF39
:1009D800084676E793EA0C0F04D14B023FF44CAF7C
:1009E80008466EE730F0004C18BF31F0004CCAD111
:1009F80030F000427FF45CAF31F000437FF43CAF4D
:100A08005FE700BF4FF0FF3C06E000BF4FF0010C6E
:100A180002E000BF4FF0010C4DF804CD4FEA400250
:100A28004FEA41037FEA226C18BF7FEA236C11D09A
:100A380001B052EA530C18BF90EA010F58BFB2EB4D
:100A4800030088BFC81738BF6FEAE17018BF40F0CD
:100A5800010070477FEA226C02D15FEA402C05D181
:100A68007FEA236CE4D15FEA412CE1D05DF8040B06
:100A7800704700BF844608466146FFE70FB5FFF799
:100A8800C9FF002848BF10F1000F0FBD4DF808ED51
:100A9800FFF7F4FF0CBF012000205DF808FB00BF42
:100AA8004DF808EDFFF7EAFF34BF012000205DF89C
:100AB80008FB00BF4DF808EDFFF7E0FF94BF0120E9
:100AC80000205DF808FB00BF4DF808EDFFF7D2FFE6
:100AD80094BF012000205DF808FB00BF4DF808ED29
:100AE800FFF7C8FF34BF012000205DF808FB00BFF6
:100AF8004FEA40024FEA41037FEA226C02D15FEAE3
:100B0800402C08D17FEA236C02D15FEA412C02D144
:100B18004FF0000070474FF0010070474FEA400265
:100B2800B2F1FE4F0FD34FF09E03B3EB12620DD913
:100B38004FEA002343F0004310F0004F23FA02F07D
:100B480018BF404270474FF00000704712F1610F24
:100B580001D1420205D110F0004008BF6FF00040FB
:100B680070474FF00000704742000ED2B2F1FE4FBE
:100B78000BD34FF09E03B3EB126209D44FEA002364
:100B880043F0004323FA02F070474FF0000070472B
:100B980012F1610F01D1420202D14FF0FF307047CC
:100BA8004FF00000704700BF7BB972B90029BEBF83
:100BB80000204FF0004106E008BF00281CBF6FF07E
:100BC80000414FF0FF3000F057B8ADF1080C6DE967
:100BD80004CE002909DB002B1ADB00F062F8DDF8EF
:100BE80004E0DDE9022304B07047404261EB4101B3
:100BF800002B1BDB00F055F8DDF804E0DDE90223EB
:100C080004B0404261EB4101524263EB4303704739
:100C1800524263EB430300F044F8DDF804E0DDE9F9
:100C2800022304B0404261EB41017047524263EB3A
:100C3800430300F036F8DDF804E0DDE9022304B0F0
:100C4800524263EB4303704753B94AB9002908BFBE
:100C580000281CBF4FF0FF314FF0FF3000F00CB8F8
:100C6800ADF1080C6DE904CE00F01BF8DDF804E0E6
:100C7800DDE9022304B07047704700BF430803F062
:100C88005533C01A00F03333800800F0333018446D
:100C980000EB10104FF0013300F00F305843000EF6
:100CA80070472DE9F04786468C460846089E15464B
:100CB80074461946002B40F0C2808542B2FA82F28F
:100CC80045D94AB1C2F1200300FA02FC2EFA03F317
:100CD800954043EA0C0C94404FEA154EA8B2BCFB71
:100CE800FEF8230C0EFB18CC08FB00F943EA0C4372
:100CF800994528D9EB1808F1FF3704D2994502D94C
:100D0800A8F102072B44A3EB0903A4B2B3FBFEFC32
:100D18000EFB1C330CFB00F044EA0344A04214D938
:100D28002C190CF1FF3304D2A04202D9ACF1020312
:100D38002C44241A43EA07401EB1D44000233460EF
:100D48007360BDE8F0874746DDE76346F1E792BB8D
:100D5800431B01214FEA154EAFB2B3FBFEFC200C3A
:100D68000EFB1C330CFB07F840EA0343984562D995
:100D7800EB180CF1FF3004D2984502D9ACF102000F
:100D88002B44A3EB0803A4B2B3FBFEFC0EFB1C33FD
:100D98000CFB07F744EA0344A7424ED92C190CF17F
:100DA800FF3304D2A74202D9ACF102032C44E41B5E
:100DB80043EA0040C0E7C2F1200320FA03F195405E
:100DC80090402EFA03F303434FEA154EAFB2B1FB3E
:100DD800FEFC0EFB1C10190C0CFB07F841EA004145
:100DE800884504FA02F422D969180CF1FF3004D2BC
:100DF800884502D9ACF102002944A1EB08019BB255
:100E0800B1FBFEFC0EFB1C110CFB07F743EA014388
:100E18009F420ED9EB180CF1FF3104D29F4202D940
:100E2800ACF102012B44DB1B41EA004192E760462A
:100E3800E3E76146F7E76046A3E76346B7E783421F
:100E480006D916B9002108467BE7C6E900E0F9E7AC
:100E5800B3FA83F78FB9834201D3724508D8BEEB42
:100E6800020460EB030301209C461EB9002168E7D9
:100E78003846FAE7C6E9004CF8E7C7F1200CBB4052
:100E880022FA0CF41C432EFA0CF120FA0CF3B840A9
:100E980001434FEA14490EFA07F5B3FBF9F81FFAB4
:100EA80084FE09FB18300B0C08FB0EFA43EA0043DA
:100EB8009A4502FA07F240D9E31808F1FF3004D244
:100EC8009A4502D9A8F102002344A3EB0A0389B288
:100ED800B3FBF9F809FB183308FB0EFE41EA03419E
:100EE8008E452CD9611808F1FF3304D28E4502D9FA
:100EF800A8F10203214443EA0040A0FB0298A1EBB9
:100F08000E014145CE46434602D306D14D4504D293
:100F1800B9EB020E68EB04030138002EA6D0B5EB3E
:100F28000E0261EB030101FA0CFC22FA07F34CEA0A
:100F38000303F940C6E9003198E74046C5E7434650
:100F4800D9E710F8012B11F8013B012A28BF9A4272
:100F5800F7D0D01A7047034611F8012B03F8012B7C
:100F6800002AF9D17047034613F8012B002AFBD158
:100F7800181A0138704700002DE9F04F8FB00B9018
:100F88000C46154622F0E3FB0022431880F08580CA
:100F980013444F4FA7FB032C2CF0030202EB9C02D7
:100FA8009B1AC01A61F100024FF0CC3100FB01F12D
:100FB80007FB0211A0FB07031944400840EAC1706F
:100FC8004F088046012C6AD06C6821464148FFF7DB
:100FD800B8FF28B121464048FFF7B3FF002867D182
:100FE80039A3D3E9002340463946FFF7DDFD0C90CD
:100FF8000E4635A3D3E9002340463946FFF7D4FD12
:1010080015461C46354A002328462146FFF7CCFDE5
:1010180007460D91314A002328462146FFF7C4FDB3
:1010280015461C464EF66022002328462146FFF747
:10103800BBFD814688464EF660220023284621469D
:10104800FFF7B2FD15461C464FF47A720023284676
:101058002146FFF7A9FD83468A464FF47A7200239A
:1010680028462146FFF7A0FDCDE90823CDF818B0A2
:10107800CDF81CA0CDF81090CDF8148002970D9BE8
:1010880003930C9B00930196154A08210B981BF0BB
:1010980036FF00200FB0BDE8F08F012278E70090FE
:1010A8000197104A08210B981BF029FF0020F1E74F
:1010B80023460D4A01210B981BF021FF6FF0040015
:1010C800E8E700BFAFF30080005C260500000000E1
:1010D800CDCCCCCC446602084866020880EE3600C7
:1010E8006C660208306602085466020838B5204863
:1010F80021F085FE68B11E4883681B681D49984722
:101108000446D8B11C4B1B6813F0070F0FD12046BB
:1011180038BD194B1B6813F0070F02D16FF012048A
:10112800F5E7164A012114481BF092F8F6E7034642
:10113800134A012110481BF095F8E8E700210C48F4
:1011480005F0E2FB054680B110F1780FDFD00A4BBD
:101158001B6813F0070F01D12C46D8E70346094A4C
:10116800012105481BF07EF8F6E70446CFE700BFEB
:1011780054450208A84E020854110020B04D020838
:10118800C44D0208E84D02082DE9F04188B000AFCF
:101198000546A94821F033FEA0B10121A64805F073
:1011A800B3FB0446E0B110F1780F19D0A34B1B68CC
:1011B80013F0070F30D00346A14A01219F481BF0C6
:1011C80051F829E09D4B1B6813F0070F02D16FF00F
:1011D800120421E09B4A012198481BF039F8F6E7F0
:1011E8000023BB60FB603B617B61BB610423FB6048
:1011F80007F11E033B6102237B610C233B768E487B
:1012080083685B6807F108019847044680B18B4BF7
:101218001B6813F0070F04D120462037BD46BDE8F0
:10122800F0810346884A012184481BF01BF8F3E744
:10123800B7F91E307B60804B98683B1D3A7E0821C9
:10124800008919F04EFB0646002840F0A5807B4B2C
:101258001B6813F0040F44D0D7F804C0B7F91E4038
:10126800E8468AB06B4613F1100200F0A3801421FF
:101278009AB10846042903DDDFF8D0E1C3F814E089
:10128800082803DDDFF8C8E1C3F818E00C2801DD01
:10129800C3F81CC0102800DD1C62132940F38D80A0
:1012A80014243AB10521397000217970B970F970A8
:1012B8003868186100216FF300016FF341016FF383
:1012C80082016FF3C501042363F38811C4F30A0490
:1012D80064F353216FF31F510023584804F0F2FEC2
:1012E800C5466DB17868FFF7E9F95A49FFF7EEFA94
:1012F80028605949FFF7EAFA5849FFF733FA286096
:101308004E4B1B6813F0040F7CD02868FFF774F865
:1013180000220023FEF712FF6C461C220C2312F059
:10132800070F4DD103F10805AC461F3323F007031F
:10133800ADEB030D6A46002D4ED002F1100E032DC1
:1013480048D9BEF1000F07D0042D01DD444B53618D
:10135800082D01DD3E4B93611C234FF00C0C13F05C
:10136800070F30D16346BEF1000F04D0AC4502DA56
:10137800F444CCE9000108339D4228DB9C46BEF1C9
:10138800000F29D0C3F387033B7000237B70BB7029
:10139800FB70386810611FE0284B1B6813F0070FBB
:1013A80001D1344638E703462E4A012123481AF072
:1013B80059FFF6E76FF000415AE76FF01B0470E73A
:1013C80004330432ABE70CF1040C0433C7E76FF0C5
:1013D8001B0CD4E76FF01B0C00216FF300016FF3B7
:1013E80041016FF382016FF3C501042363F3881190
:1013F8006CF353216FF31F51103200230F4804F090
:1014080061FEA54600210C4805F07EFA0446002836
:101418003FF402AF10F1780F0CD0084B1B6813F0A3
:10142800070F3FF4F9AE0346054A012103481AF0B5
:1014380019FFF1E63446EFE654450208541100203E
:10144800E84D0208B04D0208104E0208544E02083A
:10145800944E020800007A440000C8420000254467
:10146800784E02082C4E02082DE9F047804689463E
:1014780092465C4B1B685C4A03EB430102EB81001C
:1014880052F82140456886686CB958494046FFF7CC
:1014980007FB002840F0998055494046FFF71EFB9E
:1014A800002840F09480012C2AD0B4F1FF3F2ED0C0
:1014B8006DB94E494846FFF7F3FA002840F0898095
:1014C8004B494846FFF70AFB002840F08480012D6D
:1014D80025D0B5F1FF3F2AD05EB944495046FFF701
:1014E800DFFA002879D142495046FFF7F7FA002879
:1014F80075D1012E23D0B6F1FF3F28D0BDE8F08783
:101508003C494046FFF7CCFA0028CED028E03A49BB
:101518004046FFF7E3FA0028CAD0012420E0354905
:101528004846FFF7BDFA0028D3D02C4618E03249C8
:101538004846FFF7D3FA0028CED0012410E02D4901
:101548005046FFF7ADFA0028D5D0344608E02A49BE
:101558005046FFF7C3FA0028D0D0012400E0013438
:10156800062CCBDC204B04EB440203EB820753F838
:101578002200FFF7A3F84146FEF7EAFF20F00045F6
:101588007868FFF79BF84946FEF7E2FF20F000462F
:10159800B868FFF793F85146FEF7DAFF20F00047E6
:1015A80014492846FFF77CFA0028D8D0114930465C
:1015B800FFF776FA0028D2D00E493846FFF770FABE
:1015C8000028CCD0074B1C6098E70124C8E7012409
:1015D800C6E70124C4E70124C2E70124C0E70124C7
:1015E800BEE700BFC8220020904F0208CDCCCCBE79
:1015F800CDCCCC3E9A99193F9A9919BF2DE9F04F55
:101608008FB000AF06460D467A613B614FF0FF325E
:101618004FF0FF33AC4816F0F5F9AC4821F0EFFB7A
:1016280098B14FF00008B8F1040F1FDCA748836891
:10163800DB683B21984704463D2817D164200021E8
:1016480017F03EF808F10108EDE7A14B1B6813F00D
:10165800070F05D19C4816F055FA6FF0120438E2CE
:101668009C4A01219A481AF0F3FDF3E7002C40F058
:101678008B80964883681B6907F1200203219847ED
:101688000446002840F09080386AFFF717F8804633
:10169800786AFFF713F89049FFF718F901464046B2
:1016A800FEF758FF8046B86AFFF708F88146F86ADF
:1016B800FFF704F88849FFF709F901464846FEF79D
:1016C80049FF8146386BFEF7F9FF8246786BFEF7D3
:1016D800F5FF8149FFF7FAF801465046FEF73AFF51
:1016E80082467B4B1B6813F0040F00F08F80404646
:1016F800FEF782FE00220023FEF720FDC7E9020163
:10170800EB461C230C2213F0070F5DD102F10803EE
:101718009C461F3222F00702ADEB020D6A46002BF1
:101728005ED002F1100E032B58D9BEF1000F07D07E
:10173800042B01DD69495161082B01DD684991617C
:101748001C214FF00C0C704611F0070F3FD1864654
:10175800C7F804C030B1634504DD8444D7E9020109
:10176800CCE90001796808318B4234DB8C46BEF144
:10177800000F35D0C1F38701397700237B77BB771A
:10178800FB77F86910612BE0514B1B6813F0070FCA
:1017980003D14D4816F0B6F99BE12346514A012181
:1017A8004B481AF05FFDF4E7494B1B6813F0070F2D
:1017B80003D1454816F0A6F98BE103464A4A0121B0
:1017C80043481AF04FFDF4E7043204339BE70CF169
:1017D800040C0431B8E76FF01B0CC8E76FF01B0C62
:1017E80000216FF300016FF341016FF382016FF382
:1017F800C501042363F388116CF353216FF31F5160
:1018080010320023324804F05DFCDD46304B1B6883
:1018180013F0040F00F084804846FEF7EDFD002227
:101828000023FEF78BFCC7E90201EB461C230C22C0
:1018380013F0070F3DD102F108039C461F3222F036
:101848000702ADEB020D6A46002B53D002F1100ED1
:10185800032B4DD9BEF1000F07D0042B01DD23491E
:101868005161082B01DD1E4991611C214FF00C0CC0
:10187800704611F0070F1FD18646C7F804C030B173
:101888009C4504DA8444D7E90201CCE9000179686F
:1018980008318B4214DB8C46BEF1000F2AD0C1F30D
:1018A8008701397700237B77BB77FB77F86910616D
:1018B80020E004320433BBE70CF1040C0431D8E710
:1018C8006FF01B0CE8E700BFE8120020444602084E
:1018D8004C110020B04D0208002474490C4F020836
:1018E800804F0208BC4E0208E44E02082C4F020842
:1018F8006FF01B0C00216FF300016FF341016FF3D0
:1019080082016FF3C501042363F388116CF353213B
:101918006FF31F5110320023734804F0D3FBDD46E8
:10192800714B1B6813F0040F6ED05046FEF764FD30
:1019380000220023FEF702FCC7E90201EB461C2344
:101948000C2213F0070F3DD102F108039C461F3209
:1019580022F00702ADEB020D6A46002B3ED002F1E1
:10196800100E032B38D9BEF1000F07D0042B01DD70
:101978005E495161082B01DD5D4991611C214FF0E1
:101988000C0C704611F0070F1FD18646C7F804C02B
:1019980030B19C4504DA8444D7E90201CCE900015E
:1019A800796808318B4214DB8C46BEF1000F15D0E4
:1019B800C1F38701397700237B77BB77FB77F86919
:1019C80010610BE004320433BBE70CF1040C043162
:1019D800D8E76FF01B0CE8E76FF01B0C00216FF3E2
:1019E80000016FF341016FF382016FF3C501042316
:1019F80063F388116CF353216FF31F5110320023E6
:101A0800394804F05FFBDD460EB1C6F800800DB121
:101A1800C5F800907B690BB1C3F800A03549504662
:101A2800FEF754FF064633494846FEF74FFF054682
:101A380030494046FEF74AFF32462946FFF714FD73
:101A48002D4B1D68284B1B6813F0040F3BD06E46C6
:101A580088B06B4613F1100240D010217AB10846C5
:101A6800042903DDDFF894C0C3F814C0082803DD97
:101A7800DFF87CC0C3F818C00C2800DDDD610F2931
:101A88002FDD4FF0100C3AB1042139770021797716
:101A9800B977F977F869186100216FF300016FF3DE
:101AA80041016FF382016FF3C501042363F38811C9
:101AB800CCF30A0C6CF353216FF31F5100230A482F
:101AC80004F000FBB5463B6903B11D600C4816F0F5
:101AD80019F820463C37BD46BDE8F08F6FF000414D
:101AE800BCE76FF01B0CCEE74C1100204C4F0208EE
:101AF800804F02080AE81C41C82200206C4F0208E7
:101B0800E81200202DE9F04385B000AF06460D46E7
:101B1800AF4821F074F900286FD0AD488368DB68BE
:101B28003B2198470446002875D1A94883681B695A
:101B380007F108020D219847044600287CD1B868AF
:101B4800FEF7BCFD0446F868FEF7B8FDA149FEF7AC
:101B5800BDFE2146FEF7FEFC04469F4B1B6813F0B2
:101B6800040F00F09780FEF747FC00220023FEF7E1
:101B7800E5FAE8461C220C2312F0070F68D103F19E
:101B8800080EF4461F3323F00703ADEB030D6A4636
:101B9800BEF1000F68D002F11009BEF1030F61D940
:101BA800B9F1000F09D0BEF1040F01DD8B4B536171
:101BB800BEF1080F01DD8A4B93611C234FF00C0C1A
:101BC80013F0070F47D16346B9F1000F04D0E6457B
:101BD80002DDCC44CCE9000108339E453FDB9C463E
:101BE800B9F1000F40D0C3F387033B7100237B7129
:101BF800BB71FB717868106136E0774B1B6813F096
:101C0800070F02D16FF012040AE0764A01217248E8
:101C18001AF01EFBF6E7704B1B6813F0070F04D190
:101C280020461437BD46BDE8F08303466E4A0121BD
:101C380069481AF017FBF3E7674B1B6813F0070FA7
:101C4800EED00346694A012163481AF00BFBE7E727
:101C58000433043290E70CF1040C0433B0E76FF05E
:101C68001B0CBDE76FF01B0C00216FF300016FF335
:101C780041016FF382016FF3C501042363F38811F7
:101C88006CF353216FF31F5110320023524804F0B4
:101C980019FAC54606B134604D4883681B6907F1D7
:101CA800080210219847044600285DD1B868FEF75D
:101CB80005FD0646F868FEF701FD4649FEF706FEF3
:101CC80001463046FEF746FC0646434B1B6813F0B8
:101CD800040F78D0FEF790FB00220023FEF72EFABF
:101CE800E8461C220C2312F0070F4AD103F1080E14
:101CF800F4461F3323F00703ADEB030D6A46BEF12C
:101D0800000F4AD002F11009BEF1030F43D9B9F10F
:101D1800000F09D0BEF1040F01DD354B5361BEF150
:101D2800080F01DD2E4B93611C234FF00C0C13F0B0
:101D3800070F29D16346B9F1000F04D0F44502DA40
:101D4800CC44CCE9000108339E4521DB9C46B9F11F
:101D5800000F22D0C3F387033B7100237B71BB7153
:101D6800FB717868106118E01B4B1B6813F0070FB4
:101D78003FF456AF03461D4A012117481AF072FA7C
:101D88004EE704330432AEE70CF1040C0433CEE71B
:101D98006FF01B0CDBE76FF01B0C00216FF30001E9
:101DA8006FF341016FF382016FF3C501042363F3FD
:101DB80088116CF353216FF31F511032002306482A
:101DC80004F080F9C546002D3FF42AAF2E6027E7BE
:101DD8002C4602080024744970110020F04F0208B4
:101DE80020500208B04D0208BC4E0208E44E02081A
:101DF800085002082DE9F04186B000AFC7E900019C
:101E08003B78282B40F0ED80781C18F096FD0646AC
:101E18000D46774B1B68012B40D9764B1B6813F096
:101E2800060F33D0E84688B06B4613F110022FD066
:101E3800102142B10846042901DD6F4C5C61082875
:101E480001DD9E61DD610F2925DD10243AB10421F1
:101E5800397300217973B973F973F868186100212F
:101E68006FF300016FF341016FF382016FF3C50156
:101E7800022363F38811C4F30A0464F353216FF354
:101E88001F5100235B4804F01DF9C5460024A9E052
:101E98006FF00041CDE76FF01B04D7E7574A02EB1C
:101EA8000313986820F0ABFF00285DD007F11001FC
:101EB800384618F05EFD4E4B1B68504800EB031087
:101EC80007F1100310223B21806818F049FD0446F1
:101ED800002857D1464B1A68511C1960474B03EB31
:101EE80002131E605D60434B1B6813F0040F79D02A
:101EF800E8461C220C2312F007044FD103F1080115
:101F08008C461F3323F00703ADEB030D6A46002907
:101F180050D002F1100003294AD938B1042901DD53
:101F2800374B5361082901DD364B93611C234FF071
:101F38000C0C13F0070F34D1634630B18C4504DA2A
:101F48008444CCF80060CCF80450083399422CDB68
:101F58009C4678B3C3F387033B7300237B73BB733F
:101F6800FB73F868106125E0224B1B6813F0070F1C
:101F780002D16FF0120435E0234A01211D481AF0FE
:101F880067F9F6E71B4B1B6813F0070F2AD00346C7
:101F98001E4A012117481AF065F923E00433043278
:101FA800A9E70CF1040C0433C3E76FF01B0CD0E76E
:101FB8006FF01B0C00216FF300016FF341016FF309
:101FC80082016FF3C501042363F388116CF3532175
:101FD8006FF31F5110320023064804F073F8C5460A
:101FE80000E0002420461837BD46BDE8F08100BF58
:101FF800CC220020601100203C500208C0080020BC
:102008008C5002082C510208B04D02086850020892
:1020180038B521F09DF800285ED14FF0FF324FF01F
:10202800FF332F4815F0EEFC2E4820F0E8FE88B16B
:102038002C492D4800F010FA0446E0B12B4B1B68E0
:1020480013F0070F21D00346294A012127481AF027
:1020580009F91AE0254B1B6813F0070F05D1204832
:1020680015F050FD6FF012041FE0224A01211F48AD
:102078001AF0EEF8F3E700231F4A13601F4A1949C4
:10208800194800F0E7FA051E11DB1649164800F05A
:102098005DFA054630B1154B1B6813F0070F14D1D4
:1020A80004B92C460E4815F02DFD204638BD0F4BBF
:1020B8001B6813F0070F01D12C46E6E72B46104AA0
:1020C80001210A481AF0CEF8F6E703460D4A012125
:1020D80006481AF0C7F8E3E76FF00A04E5E700BF1F
:1020E800FC120020CC450208D022002060110020FC
:1020F800B0500208B04D0208CC220020FD1D000897
:10210800D4500208F450020838B521F021F870B90B
:10211800084C4FF0FF324FF0FF33204615F072FCA9
:10212800054B1D68204615F0EDFC284638BD6FF0BC
:102138000A05FAE7FC120020CC2200202DE9F04322
:1021480085B000AF04460D46164621F001F8002878
:1021580040F02F814FF0FF324FF0FF33964815F0D3
:1021680051FC002C34DB954B1B68A34230DD002B5F
:102178002ED0934820F043FE00282FD035B1914B44
:1021880003EB0413D3E90023C5E900238C498E48E7
:1021980000F062F90546002838D08C4B1B6813F014
:1021A800070F2CD18649884800F0D0F9044638B189
:1021B800864B1B6813F0070F40F0F48005B92546DD
:1021C8007D4815F09FFC28461437BD46BDE8F083CE
:1021D800794815F097FC6FF02105F4E77B4B1B68F5
:1021E80013F0070F05D1744815F08CFC6FF0120539
:1021F800E9E7774A012175481AF02AF8F3E7034618
:10220800744A012171481AF02DF8CBE76D4B03EBA6
:102218000413986820F0F3FD00287AD0694B03EB8B
:10222800041398688368DB683B21984705460028B3
:102238007DD1644B03EB0413986883681B6907F12D
:1022480008020D219847054620B1604B1B6813F022
:10225800060F79D1B868FEF731FA0446F868FEF738
:102268002DFA5D49FEF732FB01462046FEF772F96A
:102278000446564B1B6813F0040F00F08E80FEF7DF
:10228800BBF800220023FDF759FFE8461C220C2367
:1022980012F0070F5FD103F1080EF4461F3323F045
:1022A8000703ADEB030D6A46BEF1000F5FD002F1E4
:1022B8001009BEF1030F58D9B9F1000F09D0BEF1CA
:1022C800040F01DD454B5361BEF1080F01DD444B9E
:1022D80093611C234FF00C0C13F0070F3ED163469B
:1022E800B9F1000F04D0F44502DACC44CCE900017E
:1022F80008339E4536DB9C46B9F1000F37D0C3F34F
:1023080087033B7100237B71BB71FB717868106197
:102318002DE02E4B1B6813F0070F02D16FF012054A
:1023280040E72B4A0121294819F092FFF6E7274B8D
:102338001B6813F0060F3FF435AF0346294A022104
:10234800224819F08FFF2DE70346274A02211F482C
:1023580019F088FF7EE70433043299E70CF1040C86
:102368000433B9E76FF01B0CC6E76FF01B0C0021B4
:102378006FF300016FF341016FF382016FF3C50141
:10238800042363F388116CF353216FF31F51103248
:1023980000230E4803F096FEC546002E3FF402AF18
:1023A8003460FFE60346114A0121084819F05AFF34
:1023B80004E76FF00A0506E7FC120020CC22002093
:1023C800CC450208C0080020D0220020601100205F
:1023D800B04D0208B050020800247449F04F0208BA
:1023E80018510208BC4E0208E44E0208F4500208D4
:1023F80010B582B002AB03E9030014469DF8003023
:10240800192B13D00C2021F08EFC034688B102AAA8
:1024180012E9030083E8030003F108020021996030
:1024280063688BB11A60626002B010BD0123137239
:10243800E8E7074B1B6813F0070FF5D0054A0121A1
:10244800034819F005FFEFE762602260ECE700BF80
:10245800741100204851020870B50C46084620F057
:10246800CEFCD0B10121204618F08EFA054648B3BB
:10247800304B1B6813F0070F1DD10021204618F0C0
:1024880083FA044600283ED02A4B1B6813F0070F36
:1024980049D1002D37D1254635E0264B1B6813F06E
:1024A800070F02D16FF012052DE0234A01212148C0
:1024B80019F0CEFEF6E70346204A01211D4819F01F
:1024C800D1FEDAE70121204604F01EFA064680B163
:1024D80010F1780F0DD0174B1B6813F0070F01D1BF
:1024E8003546CAE70346164A0121124819F0BAFED2
:1024F800F6E71E20002116F0E3F8A3681B682046C3
:102508009847061E01DB284670BD0A4B1B6813F06E
:10251800070F01D13546B0E733460A4A012105487D
:1025280019F0A0FEF6E70346074A0121014819F011
:1025380099FEAEE774110020B04D02086051020800
:10254800E84D020880510208A051020830B585B054
:1025580005460C46084620F052FCE8B12B7A2BB110
:10256800A3681B6820469847012823D000212046ED
:1025780004F0CAF90546002848D010F1780F44D075
:102588002E4B1B6813F0070F40D003462C4A01213D
:102598002A4819F067FE39E0284B1B6813F0070F2B
:1025A80002D16FF012053EE0264A0121234819F0B6
:1025B8004FFEF6E7002301930293039301A92046F7
:1025C80020F04EFB034650B11C4A126812F0060F69
:1025D800CCD01D4A0221194819F044FEC6E71E2333
:1025E8008DF800300122694620461FF0D5FF0346CA
:1025F8000028BBD0114A126812F0060FB6D0134A51
:1026080002210E4819F02EFEB0E7002500212046D1
:1026180018F0BAF9044630B1084B1B6813F0070FDD
:1026280004D105B92546284605B030BD0346084AF9
:102638000121024819F016FEF3E700BF74110020CB
:10264800E84D0208B04D0208C0510208E0510208E6
:10265800A05102082DE9F04385B002AF05460846AF
:102668009046994600222A722A606A600095524B69
:10267800F02120F085FA061E46DB504B1B6813F04C
:10268800040F3AD06C4688B002AB13F1100247D061
:1026980010217AB10846042903DDDFF824C1C3F804
:1026A80014C0082803DDDFF81CC1C3F818C00C28C3
:1026B80000DDDE610F2936DD10263AB104213971BB
:1026C80000217971B971F9717868186100216FF387
:1026D80000016FF341016FF382016FF3C501042319
:1026E80063F38811C6F30A0666F353216FF31F518B
:1026F8000023324803F0E6FCA546296889B351F85F
:102708000849CCB1083C17E02C4B1B6813F0070FA5
:102718002CD033462C4A0121284819F0A3FD25E086
:102728006FF00041B5E76FF01B06C6E7DCB1A068A3
:1027380000B1083821460446B9B1B8F1000FF5D008
:102748004A4603C9C04703460028EFD01B4A12680F
:1027580012F0070FEAD01D4A0121184819F082FD2E
:10276800E4E70C46E8E72046E4E70026286830B1AD
:1027780050F8084944B1083C06E069600CE004469A
:1027880002E0234620461C4688B100F10803816810
:1027980029606A689342F0D00023836021F0BAFA76
:1027A800002CEED0A368002BECD0083BEAE73046BB
:1027B8000C37BD46BDE8F083F923000874110020EA
:1027C8002452020858520208045202083C520208D5
:1027D80010B51E4820F013FB88B11C4883689B681D
:1027E8001B499847041E18DB1A4B1C60174883685E
:1027F8001B68002198470446D8B9204610BD164BDF
:102808001B6813F0070F02D16FF01204F5E7134AA3
:102818000121114819F01CFDF6E70F4B1B6813F056
:10282800070FEAD023460E4A01210B4819F01AFD7A
:10283800E3E7094B1B6813F0070FDED00346094A8C
:102848000121054819F00EFDD7E700BFB44502087D
:10285800F80D0020DC22002078110020B04D02087D
:102868006C5202089452020810B5144820F0C7FAB6
:1028780048B1134B196811488368DB6898470446C8
:1028880078B9204610BD0F4B1B6813F0070F02D113
:102898006FF01204F5E70C4A01210A4819F0D8FC38
:1028A800F6E7084B1B6813F0070FEAD00346074A00
:1028B8000121044819F0D6FCE3E700BFB44502083B
:1028C800DC22002078110020B04D0208B052020826
:1028D80010B56C4B9C6821462046FEF709F9B0B943
:1028E800694B1B78EBB169492046FEF7F7F858B3F6
:1028F80067492046FEF7D4F830B3664B1B6803F0EF
:102908000703022B07D8604B00221A701CE05E4BAD
:1029180000221A7018E0604A03215E4819F098FCFA
:10292800F1E75E492046FEF7BBF820B95C4920462E
:10293800FEF7D4F840B1574B1B6803F00703022B8E
:1029480021D8514B01221A704E4B5C692146204612
:10295800FEF7CEF8E8B9534B1B7823B3524920460B
:10296800FEF7BCF8002832D050492046FEF798F808
:1029780068B3484B1B6803F00703022B0DD8494B7B
:1029880000221A7023E04A4A0321424819F060FCE9
:10299800D7E7444B00221A7019E0464A03213D4804
:1029A80019F056FCEBE74FF07F512046FEF778F818
:1029B80020B941492046FEF791F840B1354B1B68D4
:1029C80003F00703022B21D8364B01221A702D4B36
:1029D8009C6921462046FEF78BF8E8B9374B1B78EF
:1029E80023B331492046FEF779F8002832D02F4921
:1029F8002046FEF755F868B3264B1B6803F007031B
:102A0800022B0DD82D4B00221A7023E02C4A0321EB
:102A1800204819F01DFCD7E7284B00221A7019E04E
:102A2800284A03211B4819F013FCEBE74FF07F51AC
:102A38002046FEF735F820B91F492046FEF74EF824
:102A480040B1144B1B6803F00703022B0DD81B4B36
:102A580001221A700C4B1B786BB9124B1B7863B9A7
:102A6800164B1B785BB1012006E0174A0321094881
:102A780019F0EEFBEBE7012010BD0120FCE7002078
:102A8800FAE700BF800E0020284300200000944190
:102A980000000A4250110020D852020800008C4160
:102AA80000000E4227430020000020400000F040B4
:102AB800FC5202081C53020800000841264300206B
:102AC8004C53020878530208A85302082DE9F04F26
:102AD80087B000AF804689461446B44B1B78002B5C
:102AE80000F043814FF40045B04B00221A704FF0BC
:102AF800FF324FF0FF33AE4814F084FFAD4B1E6831
:102B08006FF000439E4200F0328106F00F0645F454
:102B18008045A84BD3F804A051465046FDF7E8FF7E
:102B2800002840F02681A4495046FDF71BFEFEF719
:102B38001BF8C3B27B6045F400559E4BD3F808A040
:102B480051465046FDF7D4FF002840F015819B49B7
:102B58005046FDF707FEFDF7E1FF0FFA80FB45F44D
:102B68008055944BD3F80CA051465046FDF7C0FF52
:102B7800002840F0048151465046FDF7EBFCFDF774
:102B8800F3FFC3B23B6045F400658A4BD3F810A04D
:102B980051465046FDF7ACFF002840F0F3805146FF
:102BA8005046FDF7D7FCFDF7DFFF83B2FB6045F425
:102BB8008065804BD3F814A051465046FDF798FF26
:102BC800002840F0E3807D495046FDF7CBFDFDF736
:102BD800A5FF03B2BB6045F40075764BD3F818A087
:102BE80051465046FDF784FF002840F0D3807349D2
:102BF8005046FDF7B7FDFDF791FF0FFA80FA45F44F
:102C080080756B4814F07EFF2E43002121604A46F0
:102C1800404621F0DBFA23684B4580F0BE805A1C01
:102C28002260320A08F8032023684B4580F0D680DA
:102C38005A1C226008F8036016F4005F08D0236865
:102C48004B4580F0D9805A1C22607A6808F8032026
:102C580016F4805F11D023684B4580F0DB805A1C46
:102C680022604FEA2B2208F8032023684B4580F0A6
:102C7800DF805A1C226008F803B016F4006F08D0F1
:102C880023684B4580F0E2805A1C22603A6808F8B5
:102C9800032016F4806F12D023684B4580F0E4803F
:102CA8005A1C2260FA68120A08F8032023684B4568
:102CB80080F0E8805A1C2260FA6808F8032016F4AD
:102CC800007F12D023684B4580F0EA805A1C2260AE
:102CD800BA68121208F8032023684B4580F0EE808A
:102CE8005A1C2260BA6808F8032016F4807F11D0B5
:102CF80023684B4580F0F0805A1C22604FEA2A2254
:102D080008F8032023684B4580F0F4805A1C2260A1
:102D180008F803A02A4B1B6813F0040F00F0348155
:102D28006D4601233B7503237B758AB06E4616F109
:102D3800100200F0ED80122042B10346042801DDA4
:102D480020497161082B01DD1F4BB36101233B74DE
:102D580003237B74002A00F0EA800C2801DD1B4B5A
:102D6800F36106F120030021DFE00025BCE6FF2621
:102D7800CFE6FF237B60E0E647F6FF7BF1E6FF2323
:102D88003B6002E74FF6FF73FB6012E747F6FF73FD
:102D9800BB6022E747F6FF7A33E7094B1B6813F05D
:102DA800070F15D16FF01B00E7E000BFD41000201B
:102DB800AC120020800E0020000048420000C842EB
:102DC8005811002004540208205402080C54020828
:102DD8006E4A01216E4819F03BFAE3E76C4B1B6819
:102DE80013F0070F02D16FF01B00C6E0674A0121FC
:102DF800674819F02DFAF6E7654B1B6813F0070FC3
:102E080002D16FF01B00B8E0604A0121604819F058
:102E18001FFAF6E75E4B1B6813F0070F02D16FF03D
:102E28001B00AAE0594A0121594819F011FAF6E79E
:102E3800574B1B6813F0070F02D16FF01B009CE083
:102E4800524A0121524819F003FAF6E7504B1B6821
:102E580013F0070F02D16FF01B008EE04B4A0121DF
:102E68004B4819F0F5F9F6E7494B1B6813F0070FC3
:102E780002D16FF01B0080E0444A0121444819F058
:102E8800E7F9F6E7424B1B6813F0070F02D16FF022
:102E98001B0072E03D4A01213D4819F0D9F9F6E7D7
:102EA8003B4B1B6813F0070F02D16FF01B0064E067
:102EB800364A0121364819F0CBF9F6E7344B1B683E
:102EC80013F0070F02D16FF01B0056E02F4A0121C3
:102ED8002F4819F0BDF9F6E72D4B1B6813F0070FC3
:102EE80002D16FF01B0048E0284A0121284819F058
:102EF800AFF9F6E7264B1B6813F0070F02D16FF006
:102F08001B003AE0214A0121214819F0A1F9F6E70E
:102F18006FF0004010E701F1080C07F1100EF444BF
:102F28001CF808CC03F801CB01310129F3D9112889
:102F380027DD122342B10421397500217975B9754D
:102F48000121F9757869306100216FF300016FF391
:102F580041016FF382016FF3C501042060F388110A
:102F6800C3F30A0363F35321236863F31F514346F2
:102F7800074803F0A7F8AD4600201C37BD46BDE85A
:102F8800F08F6FF01B03D5E70020F6E7E053020847
:102F98005811002038B50446184D0422294618480F
:102FA800A0470422A9181748A0470822A9181648BC
:102FB800A047042205F110011448A047102205F18A
:102FC80014011348A047102205F124011148A04715
:102FD800042205F134011048A047042205F1380104
:102FE8000E48A047042205F13C010D48A0470422E1
:102FF80005F140010B48A047002038BD200E0020F5
:103008003854020850540208685402087C540208D4
:1030180090540208A4540208B8540208D054020874
:10302800F05402081055020810B504F017F970B1F1
:103038000446184B1B6813F0070F01D1204610BD3A
:103048000346154A0121134819F00CF9F6E713480D
:1030580003F084FF044658B10E4B1B6813F0070FAA
:10306800ECD003460E4A01210A4819F0FBF8E5E7BF
:103078000C4803F0B7FE04460028DFD0054B1B6858
:1030880013F0070FDAD00346074A0121014819F067
:10309800E9F8D3E75C11002028550208080E002043
:1030A80050550208E45B020874550208B0B582B0B6
:1030B80000AF244B1B6813F0040F34D06C4688B063
:1030C8006B4613F1100237D00C2142B1084604298F
:1030D80001DD1D4D5D61082801DD1C4898610B2943
:1030E8002DDD4FF00C0C3AB10321397100217971B3
:1030F800B971F9717868186100216FF300016FF3F5
:1031080041016FF382016FF3C501042363F3881152
:10311800CCF30A0C6CF353216FF31F5100230948B9
:1031280002F0D0FFA546442209490A4821F026F8B2
:1031380000200837BD46B0BD6FF00041C5E76FF00D
:103148001B0CD0E75C1100209C550208FC580208B3
:10315800200E0020E0220020F0B583B004460D4682
:1031680017461E4601AA994919F021FB10B1019B87
:10317800002B66D001AA9649204619F018FB10B119
:10318800019B002B76D001AA9249204619F00FFB2B
:1031980018B1019B002B00F0848001AA8E492046BB
:1031A80019F005FB18B1019B002B00F0918001AAD2
:1031B8008A49204619F0FBFA18B1019B002B00F050
:1031C8009E8001AA8649204619F0F1FA18B1019BA0
:1031D800002B00F0AB8001AA8249204619F0E7FADB
:1031E80018B1019B002B00F0B88001AA7E49204647
:1031F80019F0DDFA18B1019B002B00F0C68001AA76
:103208007A49204619F0D3FA18B1019B002B00F037
:10321800D38001AA7649204619F0C9FA002800F09F
:103228003681019B002B40F03581042D40F035811B
:103238002A4670493046B847041EC0F2008100246F
:1032480009E0042D40F008812A466B493046B8470A
:10325800041E03DB0024204603B0F0BD674B1B6847
:1032680013F0070FF7D02346654A0121634818F089
:10327800F9FFF0E7042D40F0F2802A466149304614
:10328800B847041E01DB0024E5E75C4B1B6813F01C
:10329800070FE0D023465A4A0121584818F0E2FFA8
:1032A800D9E7082D40F0DE802A4657493046B8470E
:1032B800041E01DB0024CEE7504B1B6813F0070FF8
:1032C800C9D023464E4A01214C4818F0CBFFC2E72B
:1032D800042D40F0CA802A464C493046B847041E9F
:1032E80001DB0024B7E7454B1B6813F0070FB2D08A
:1032F8002346434A0121414818F0B4FFABE7102D9B
:1033080040F0B6802A4642493046B847041E01DBE1
:103318000024A0E7394B1B6813F0070F9BD0234606
:10332800374A0121354818F09DFF94E7102D40F0E9
:10333800A2802A4637493046B847041E01DB0024DC
:1033480089E72E4B1B6813F0070F84D023462C4ABD
:1033580001212A4818F086FF7DE7042D40F08E8071
:103368002A462D493046B847041E01DB002472E77F
:10337800224B1B6813F0070F3FF46DAF2346204A1A
:1033880001211E4818F06EFF65E7042D79D12A4601
:1033980022493046B847041E01DB00245BE7174B7F
:1033A8001B6813F0070F3FF456AF2346144A012158
:1033B800124818F057FF4EE7042D65D12A461849E0
:1033C8003046B847041E2DDB002444E7B8550208F0
:1033D800E4550208F4550208005602080C56020883
:1033E8001856020824560208385602085056020891
:1033F80068560208600E0020200E00205C11002094
:10340800C8550208240E0020280E0020300E002087
:10341800340E0020440E0020540E0020580E0020C8
:103428005C0E00201E4B1B6813F0070F3FF413AF10
:1034380023461C4A01211A4818F014FF0BE7184BC1
:103448001B6813F0070F3FF406AF2346154A012106
:10345800134818F007FFFEE66FF01504FBE66FF05F
:103468001504F8E66FF01504F5E66FF01504F2E6BA
:103478006FF01504EFE66FF01504ECE66FF0150435
:10348800E9E66FF01504E6E66FF01504E3E66FF081
:103498000104E0E66FF00104DDE66FF01504DAE6FA
:1034A8005C110020C855020808B5034B1B6C034A81
:1034B800082119F024FD08BD200E002078560208C6
:1034C80010B582B00446064BD86BFCF795FFCDE9E2
:1034D8000001044A0821204619F011FD02B010BD70
:1034E800200E00209456020810B582B00446064B00
:1034F800986BFCF781FFCDE90001044A08212046BA
:1035080019F0FDFC02B010BD200E0020B8560208CC
:1035180010B582B00446064B586BFCF76DFFCDE939
:103528000001044A0821204619F0E9FC02B010BD48
:10353800200E0020DC56020808B5034B5B68034ADE
:10354800082119F0DCFC08BD200E0020FC560208FA
:1035580008B5034B1B68034A082119F0D0FC08BDC5
:10356800200E00201857020810B50446012903D878
:1035780019F01BFD002010BD5368054A012119F000
:10358800BEFC204619F011FD6FF01500F3E700BFEF
:103598003457020838B50546012912D0022914D13A
:1035A80054682046FDF7DFFC0A2815D10023834222
:1035B80022D2E25C15498A5C12F0040F14D0013360
:1035C800F5E7FFF771FF00201EE0114A012119F00D
:1035D80096FC6FF0150017E00E4A0121284619F0F5
:1035E8008EFC6FF015000FE00A4A0121284619F0F9
:1035F80086FC6FF0150007E00A220021204615F02E
:10360800B3FE054B1864002038BD00BFC9A70208E7
:103618004C5702086C570208200E002038B50546A2
:10362800012914D0022916D1506820F0F5FBFCF7C7
:103638003BFF04460F49FDF733FA98B90E49204677
:10364800FDF74CFA70B90D4BDC63002038BDFFF76D
:1036580037FF0020FAE70A4A012119F050FC6FF001
:103668001500F3E7074A0121284619F048FC6FF0D6
:103678001500EBE70000A0C00000A040200E0020CD
:103688004C5702088857020838B50546012914D056
:10369800022916D1506820F0BFFBFCF705FF04464D
:1036A8000F49FDF7FDF998B90E492046FDF716FABE
:1036B80070B90D4B9C63002038BDFFF715FF002043
:1036C800FAE70A4A012119F01AFC6FF01500F3E72E
:1036D800074A0121284619F012FC6FF01500EBE7A4
:1036E8000000A0C00000A040200E00204C57020897
:1036F8008857020838B50546012914D0022916D181
:10370800506820F089FBFCF7CFFE04460F49FDF70F
:10371800C7F998B90E492046FDF7E0F970B90D4B85
:103728005C63002038BDFFF7F3FE0020FAE70A4A81
:10373800012119F0E4FB6FF01500F3E7074A0121B6
:10374800284619F0DCFB6FF01500EBE70000A0C07D
:103758000000A040200E00204C570208885702089D
:1037680010B58AB00446212301AA10210B4817F08E
:10377800C2FF58B903460A4A126812F0070F0BD065
:10378800084A0121064818F06DFD05E001AB064A1C
:103798000821204619F0B3FB0AB010BD440E0020E2
:1037A8005C110020A0570208BC57020830B585B04C
:1037B8000446012919D002291BD155682846FDF76E
:1037C800D2FB014620281BD110236A46284617F051
:1037D800C3FF0546E0B1174C04AB13E90F0084E8BA
:1037E8000F000025284605B030BDFFF7B9FF0025BA
:1037F800F8E7114A012119F082FB6FF01505F1E78E
:103808000E4A0121204619F07AFB6FF01505E9E709
:103818000B4A126812F0070F05D10A4A0121204607
:1038280019F06DFBDEE70346074A0121044818F04A
:1038380019FDF2E7440E00204C570208D45702083D
:103848005C1100200C580208F057020810B58AB025
:103858000446212301AA10210B4817F04CFF58B940
:1038680003460A4A126812F0070F0BD0084A0121D2
:10387800064818F0F7FC05E001AB064A0821204687
:1038880019F03DFB0AB010BD340E00205C11002079
:10389800A05702081C58020830B585B00446012913
:1038A80019D002291BD155682846FDF75CFB014653
:1038B80020281BD110236A46284617F04DFF0546DD
:1038C800E0B1174C04AB13E90F0084E80F000025A2
:1038D800284605B030BDFFF7B9FF0025F8E7114AC3
:1038E800012119F00CFB6FF01505F1E70E4A0121D3
:1038F800204619F004FB6FF01505E9E70B4A12683A
:1039080012F0070F05D10A4A0121204619F0F7FAEB
:10391800DEE70346074A0121044818F0A3FCF2E752
:10392800340E00204C570208D45702085C110020BE
:103938000C580208F057020810B584B00446092351
:1039480001AA04210B4817F0D6FE58B903460A4AC3
:10395800126812F0070F0BD0084A0121064818F028
:1039680081FC05E001AB064A0821204619F0C7FA98
:1039780004B010BD300E00205C110020A0570208D2
:103988003458020830B583B00446012917D00229FB
:1039980019D155682846FDF7E6FA0146082819D1D5
:1039A80004230DEB0302284617F0D6FE0546C8B1DE
:1039B800154B019A1A610025284603B030BDFFF760
:1039C800BBFF0025F8E7114A012119F098FA6FF0BA
:1039D8001505F1E70E4A0121204619F090FA6FF01B
:1039E8001505E9E70B4A126812F0070F05D10A4AD4
:1039F8000121204619F083FADEE70346074A012130
:103A0800044818F02FFCF2E7200E00204C5702085B
:103A1800D45702085C1100200C580208F05702081D
:103A280010B586B00446112301AA08210B4817F0E7
:103A380062FE58B903460A4A126812F0070F0BD003
:103A4800084A0121064818F00DFC05E001AB064ABA
:103A58000821204619F053FA06B010BD280E0020A0
:103A68005C110020A05702084C58020830B583B0FA
:103A78000446012919D002291BD155682846FDF7AB
:103A880072FA014610281BD108236A46284617F007
:103A980063FE0546E0B1174B02AA12E9030083E86A
:103AA80003000025284603B030BDFFF7B9FF002505
:103AB800F8E7114A012119F022FA6FF01505F1E72C
:103AC8000E4A0121204619F01AFA6FF01505E9E7A8
:103AD8000B4A126812F0070F05D10A4A0121204645
:103AE80019F00DFADEE70346074A0121044818F0E9
:103AF800B9FBF2E7280E00204C570208D4570208F9
:103B08005C1100200C580208F057020810B5044652
:103B1800012910D01346022911D10A220021586820
:103B280015F0ACFBA0F13C020C4B9A420ED80C4BA2
:103B38005860002010BDFFF7FFFC0020FAE7094A93
:103B4800012119F0DCF96FF01500F3E7064A0121AD
:103B5800204619F0D4F96FF01500EBE74451010045
:103B6800200E00204C5702088857020810B504465A
:103B7800012912D01346022913D10A2200215868BC
:103B880015F07CFB034620B1411F40F60B629142C1
:103B98000ED80B4A1360002010BDFFF7D9FC002097
:103BA800FAE7084A012119F0AAF96FF01500F3E7BE
:103BB800054A0121204619F0A2F96FF01500EBE73C
:103BC800200E00204C5702088857020870B582B0B2
:103BD800044601A9032003F079F8054670B1164B95
:103BE8001B6813F0070F02D1284602B070BD0346C8
:103BF800124A0121104818F035FBF5E74FF400523E
:103C08000021019818F07AFD061E07DB019818F0CC
:103C180074FD002CE8D0012001F020FB064B1B6846
:103C280013F0070F01D13546DEE73346044A012178
:103C3800014818F017FBF6E75C11002064580208E9
:103C48008858020838B504460120FFF7BFFF05462B
:103C580008B9284638BD094B1B6813F0070F05D172
:103C6800074A0121204619F04AF9F2E70346054AB6
:103C78000121024818F0F6FAF2E700BF5C110020B3
:103C88000C580208AC58020838B5044618F08AFDEA
:103C9800054610B96CB9284638BD074B1B6813F0A8
:103CA800070FF8D00346054A0121034818F0DAFA4D
:103CB800F1E7012001F0D2FA5C110020C458020893
:103CC80038B504460120FFF7DFFF054608B9284646
:103CD80038BD094B1B6813F0070F05D1074A0121AE
:103CE800204619F00CF9F2E70346054A012102487B
:103CF80018F0B8FAF2E700BF5C1100200C5802086F
:103D0800E458020810B52B481FF079F8A8B12948E3
:103D18001FF075F888B127481FF071F868B14FF4A3
:103D2800B011254816F08DFE0446D8B1234B1B6808
:103D380013F0070F0FD1204610BD204B1B6813F05E
:103D4800070F02D16FF01204F5E71D4A01211B4845
:103D580018F07EFAF6E703461A4A0121174818F0C8
:103D680081FAE8E74FF4B011174816F06AFE0446E6
:103D780058B1124B1B6813F0070FDCD00346114AE9
:103D880001210E4818F06EFAD5E74FF4B0110F482C
:103D980016F057FE04460028CDD0084B1B6813F0D8
:103DA800070FC8D00346074A0121044818F05AFAF9
:103DB800C1E700BF24450208885D0208641100209D
:103DC800B04D02081C5D0208805D0208785D02089B
:103DD80008B50A4601280ED002280ED0A8B1114B0A
:103DE8001B6813F0070F0FD003460F4A01210D4837
:103DF80018F038FA08E00D4B00E00D4B19791868F7
:103E080016F03AFE034610B908BD0A4BF6E7054A14
:103E1800126812F0070FF7D0074A0121014818F07D
:103E280021FAF1E764110020445D0208805D020870
:103E3800785D0208885D0208585D02082DE9F043A4
:103E480083B000AFFC6A5B4D2D6805F0070CBCF130
:103E5800020F4AD916466D468AB0EC461CF110028C
:103E680072D04FF01808DAB1C646B8F1040F03DD76
:103E7800DFF84491CCF81490BEF1080F01DDCCF8BE
:103E88001800BEF10C0F01DDCCF81C10BEF1100FAC
:103E980001DDCCF82060BEF1140F01DDCCF8243030
:103EA800B8F1170F53DD182342B1062139710021EB
:103EB8007971B971F9717868CCF8100000216FF345
:103EC80000016FF341016FF382016FF3C501032015
:103ED80060F38811C3F30A0363F353216FF31F518F
:103EE8000023344802F0EEF8AD46002C5BD0314B8D
:103EF8001B6803F00703022B55D96E4600233B715C
:103F080002237B7188B06D4615F1100222D00E2075
:103F18001AB1042801DD294B6B6100233B70022391
:103F28007B70D2B1082801DD254BAB6105F11C037C
:103F38000021012911D801F1080CBC441CF808CC57
:103F480003F801CB0131F4E76FF000488BE76FF01D
:103F58001B03A9E76FF00040DAE70D2827DD0E23E1
:103F680042B10321397100217971B9710121F971C7
:103F78007868286100216FF300016FF341016FF346
:103F880082016FF3C501032060F38811C3F30A03AC
:103F980063F3532197F8283063F31F5123460548EC
:103FA80002F090F8B5460C37BD46BDE8F0836FF0D7
:103FB8001B03D5E768110020985D0208F87F020806
:103FC800C45D020810B582B004460DF106010DF17A
:103FD800070019F094FE0E4B1A6802F00702022A35
:103FE80007D80B4B1B6803F00703022B08D802B055
:103FF80010BD2346074A0321054818F033F9F0E7B6
:104008009DF80630044A0321014818F02BF9EEE721
:1040180068110020D05D0208E45D020810B51F4851
:104028001EF0EDFEA0B1052007F004F9041E1DDB0B
:1040380007F088FB044628B3194B1B6813F0070FD9
:1040480029D00346174A0121154818F00BF922E038
:10405800134B1B6813F0070F02D16FF012041AE01C
:10406800114A01210E4818F0F3F8F6E70C4B1B68CB
:1040780013F0070F0FD023460C4A0121084818F007
:10408800F1F808E00A4807F045FB0A4807F03CFB4E
:10409800094807F051FB204610BD00BFE44502085F
:1040A80068110020285E0208B04D0208005E020870
:1040B800640E00209BAA0108CD3F000810B51348E4
:1040C80001230375124B03611A7A597A41EA0221D6
:1040D8009C7ADA7A42EA042242EA0142026003F157
:1040E8000C0282601C33436007F0C8F8044608B924
:1040F800204610BD074B1B6813F0070FF8D0034686
:10410800054A0121034818F0ADF8F1E724230020FF
:10411800E822002068110020485E020810B500233C
:10412800CAB20146012007F0D1F9044608B9204671
:1041380010BD064B1B6813F0070FF8D00346044A5E
:104148000121024818F08EF8F1E700BF681100203D
:10415800685E020808B5024902481EF0B5FF08BDAE
:10416800700E00208013002030B583B0FDF750FF9B
:10417800044670B11A4B1B6813F0070F02D1204692
:1041880003B030BD0346174A0121154818F06AF8F4
:10419800F5E7154D28461EF0A1FF002300930E23D6
:1041A8004FF480521149284613F046FE104B1B6805
:1041B8000BB91C46E3E74FF47A7202FB03F3990F3D
:1041C8009A00D31841F10002DB1852410093019282
:1041D80042F210720023074814F062FDCFE700BFD7
:1041E8006C110020905E020880130020804300209C
:1041F800E0220020601200202DE9F04F8DB000AFC2
:104208006FF00043FB62714BBB627B623B6207F15C
:104218002800FCF7B9FF28B103466D4A126812F06E
:10422800070F22D107F12C03002211461046FDF793
:10423800E5F9034620B1664A126812F0070F1AD151
:1042480007F1200107F12400FDF75CFC034620B1CB
:104258005F4A126812F0070F13D1FDF755FF0646A3
:1042680000245A4B7B609B4647E05A4A0121584834
:1042780017F0F8FFD6E7584A0121554817F0F2FF22
:10428800DEE7564A0121524817F0ECFFE5E7504AAD
:10429800126812F0070F2FD0514A01214C4817F02D
:1042A800E1FF29E06FF000414BE017295DDD18219F
:1042B8003AB10620387500207875B875F8757869B0
:1042C80018616FF300056FF341056FF382056FF313
:1042D800C505032363F38815C1F30A0161F3532568
:1042E8006FF31F5500232946394801F0EBFED546E8
:1042F800002C3DD0012C3ED00134B4423EDA07F107
:10430800100207F118012046FDF718FF03460028A0
:10431800BDD12F4B1B6803F00703022BE8D9D7E95F
:1043280006893869FCF768F800220023FBF706FFC6
:10433800C7E90201EA468AB06B4613F11002B1D010
:104348001821002AB1D00846042903DDDFF894C0FB
:10435800C3F814C0082801DDC3E906891028A4DDC4
:10436800D7E90289C3E908899FE76FF01B019FE736
:10437800D7F810B0C0E73B697B60BDE71A4E4FF035
:10438800FF324FF0FF33304613F03CFB174CFB6A0B
:104398002360BB6A6360164D796A686BFCF7DAF8CC
:1043A800A0603B6AE360094B2361A96B5846FCF7A0
:1043B800D1F86061E96B7868FCF7CCF8A061304609
:1043C80013F0A0FB3437BD46BDE8F08F0000C07F76
:1043D8006C110020B45E0208DC5E0208005F02086F
:1043E800245F0208485F0208AC120020800E0020FB
:1043F800E022002008B5024902481EF065FE08BD0B
:104408009C0E00206814002030B593B03B4D6C68BA
:10441800042103A81CF05AF803996B68384A82FBF8
:104428000302DB17C3EBA20391FBF3F203FB1211A8
:104438000C44344B1B6803F00703022B31D84FF4AC
:104448007A7303FB04F18B0F8A00521843F10003BF
:1044580092185B414FF0FF304FF0FF31CDE900017A
:10446800294814F01DFC254B1B680BB304AA332103
:1044780005A8FEF72BFB0346E8B9224B1B6803F09F
:104488000703022B22D8049905A8FFF747FE034625
:1044980010BB1C4B1B6803F00703022B27D813B073
:1044A80030BD2346194A0321164817F0DBFEC6E73C
:1044B800FFF7A2FEDAE7134A126812F0070FEED0F0
:1044C800134A01210F4817F0CDFEE8E7114A0321EE
:1044D8000C4817F0BDFED6E70A4A126812F0070F1B
:1044E800DDD00D4A0121074817F0BCFED7E70B4A7B
:1044F8000321044817F0ACFED1E700BFE0220020FA
:1045080067666666C011002028120020805F0208D6
:10451800A85F0208C85F0208D85F0208F85F0208AF
:1045280038B50446FFF7CAFD054698B10C4B1B6821
:1045380013F0070F07D12B460A4A0821204618F026
:10454800DEFC284638BD0346074A0121044817F017
:1045580089FEF0E7054A0821204618F0D0FCF0E76C
:10456800C0110020246002080460020838600208B4
:1045780010B582B004464FF0FF324FF0FF33CDE95B
:10458800002300220023054814F08AFB044A08216E
:10459800204618F0B4FC002002B010BD28120020FC
:1045A8003860020810B582B03C4B1B6803F0070363
:1045B800022B0DD816F073FAFFF780FD0446A0B160
:1045C800364B1B6813F0070F08D1204602B010BD08
:1045D800334A0321314817F03BFEEBE70346314AE3
:1045E80001212E4817F03EFEEFE72F4C20461EF023
:1045F80075FD002300930E234FF480522B4920466B
:1046080013F01AFC4FF0FF324FF0FF33CDE90023CF
:104618004CF250320023264814F042FB22E0254A8F
:1046280003211E4817F014FE22E01C4B1B6813F0F0
:10463800070FCAD00346204A0121184817F012FE76
:10464800C3E701210846FFF7C3FB3220002114F01D
:1046580037F800210120FFF7BBFB47F2305000215B
:1046680014F02EF80D4B1B6803F00703022BD6D865
:10467800FEF7FAF804460028D7D1FEF729F90028F2
:10468800DFD001210020FFF7A3FB3220002114F026
:1046980017F800210846FFF79BFBDEE7C011002052
:1046A8004C6002080460020868140020C05300200F
:1046B8002812002070600208786002084FF0000C91
:1046C800944515D210B511F80C3058400309094C1F
:1046D800E35C83EA00135FFA83FEC3F30313E05C31
:1046E80080EA0E10C0B20CF1010C9445EBD310BD5A
:1046F800704700BF0461020808B500F0D3F8012232
:104708000260426000238360C3600361064941611F
:1047180006490A6006490A60064A1360064A136099
:10472800064A136008BD00BF68670208C80E00206B
:10473800C40E002044230020402300203C230020F6
:104748002DE9F04106460F46154600F0ABF8044641
:10475800C3681BB943691A78002A54D10023E3605F
:10476800616857F821306361B14231DA5A1C6261DD
:104778001A782D2A2CD19A1C62615A78A2602D2AA7
:104788002ED04AB9394B63612D2128461FF057FBBB
:10479800002832D02D23A360D4F80880414628464B
:1047A8001FF04DFBB8F13A0F32D0002830D04378D3
:1047B8003A2B38D00023236163691B7813B96368E7
:1047C80001336360204600F053F8A068BDE8F0812B
:1047D800264B6361204600F04BF84FF0FF30F5E7B9
:1047E8009B78002BCDD101316160204B636120465D
:1047F80000F03EF84FF0FF30E8E7204600F038F8C8
:104808004FF0FF30E2E75A1C42611B788360C3E730
:1048180063691B7813B9636801336360204600F04D
:1048280027F83F20D2E763691A7832B123610F4B2A
:104838006361636801336360C4E76368013363607D
:10484800B34203DA57F823302361F0E7074B63617B
:104858002B783A2B04D0204600F00AF83F20B5E721
:10486800204600F005F83A20B0E700BF6867020864
:104878000268074B1A604268064B1A608268064B4A
:104888001A60C268054B1A600269054B1A607047C6
:10489800C80E0020C40E002044230020402300201E
:1048A8003C23002000487047AC0E00202DE9F04F53
:1048B80091B005920293134602F004020092C3F3EA
:1048C800C20210F00303019340F02D8280468A460D
:1048D8000132041D00284FD0B8F1000F05D0A4EB19
:1048E80008030433534500F22182029B5D1E019B9D
:1048F80004930693039300264FF0FF3B0427B94621
:10490800B8F1000F01D0029B2360531E0793002AC1
:1049180040F35F81059B13F0020228D00120A4EB2D
:1049280008018B081AB1B1F5007F80F00582039960
:104938000F2900F20482B8F1000F00F06281DBB2A7
:1049480001F140026A4402F8103C02F820BC002839
:1049580000F0538163F07F0301F140026A4402F8DA
:10496800103C049B01330493039B013303930434E9
:104978000022CC4640463DE001F0070A5444CAF103
:10498800080AA9E7002634E0002632E0002630E0D5
:104998000827BC462DE025292BD10BF1010B012658
:1049A8000427BC4625E04729EED82A2914D32A39FA
:1049B800C9B24FF0010E0EFA01F14FF6DA7E11EA94
:1049C8000E0F16D111F0625F40F0C18011F0010F97
:1049D80040F08C8000260CE0252903D10BF1FF3B29
:1049E800002606E001D9002603E0202901D023296A
:1049F800CCD11D466B1C6978002900F01B81002E64
:104A0800C9D07A29BED84C29CDD34C392E2961D8A2
:104A18000FF2040E5EF821F0FB490008DD4A000899
:104A2800DD4A0008DD4A0008DD4A0008DD4A0008C2
:104A3800DD4A0008DD4A0008DD4A0008DD4A0008B2
:104A4800DD4A0008DD4A0008ED4A0008DD4A000892
:104A5800DD4A0008DD4A0008DD4A0008DD4A000892
:104A6800DD4A0008DD4A0008DD4A0008574B000807
:104A7800DD4A0008ED4A0008ED4A0008574B0008D7
:104A8800574B0008574B0008FB490008ED4A00083F
:104A980099490008DD4A0008FB490008DD4A00087A
:104AA800B34B0008ED4A0008B34B0008DD4A000884
:104AB800DD4A0008BB4B0008E74A0008ED4A000839
:104AC800DD4A0008DD4A0008ED4A0008DD4A000812
:104AD800E14A000800268CE70427BC4689E704273A
:104AE800BC4686E729786C2925D000263C44013C41
:104AF800B4FBF7F407FB04F4254620B1211A6144FE
:104B0800514500F21681002A58D1BCF1040F00F07B
:104B18008980BCF1080F40F015811A99073121F0FE
:104B2800070101F108051A95D1E9008908B1C4E91E
:104B3800008908345DE713F8021C6C2903D00026AD
:104B48000427BC46D2E700260827BC46CEE72978CA
:104B58004C291AD01A99073121F0070101F10806EA
:104B68001A96D1E90067073424F0070440B1211AE6
:104B78000831514513D829784C2913D0C4E9006766
:104B8800083400260827BC4633E71A99073121F074
:104B9800070101F108061A96D1E90067E3E76FF00B
:104BA8001B00BDE0C4E90067EAE700260427BC460D
:104BB8009CE7324600260427BC4697E72C46E14688
:104BC80080461A9A111D1A9112680292079A1D4678
:104BD80096E6624B029A9A4204D3614B9A420AD3F0
:104BE800002300E00023002B7FF494AE059B03F024
:104BF8000202002093E60123F5E7069B01330693A2
:104C0800B2E610B10AF1010AAEE6009B13B10AF14F
:104C1800020AA9E60298FCF7A6F900EB0A0303F1D9
:104C2800020AA1E61A990D1D1A95096800B12160BA
:104C38000434DEE68046231AB3F5806F80F0858061
:104C480090B1002202609B080370009B83B1069B11
:104C5800C370049B88F802301BBB019DDDF80C90E3
:104C6800DDF810B0029F3DE05344A3F1080057E07F
:104C7800069B4370EDE701339842EED903F14002F9
:104C88006A4412F8101C12F9102C002AF3DA01F009
:104C98007F01A4EB08020132524559D804F8011BE0
:104CA800E9E7019B0398E7E7009B43B305F140035D
:104CB8006B4413F8203C04F8013B019EA4EB080365
:104CC80033440133534546D805F140036B4413F888
:104CD800103C04F8013B3246394620461FF04EFA94
:104CE80034440135A94519D9BBF1000FDCD005F1D1
:104CF80040036B4413F9103C002BD5DAF1E705F1BA
:104D080040036B4413F8103C58F82370002248F80D
:104D180023203846FCF727F9461CCFE7A4EB080008
:104D280011B0BDE8F08F6FF00D00F9E76FF01B00D0
:104D3800F6E76FF01B00F3E76FF01500F0E76FF090
:104D48001500EDE76FF01500EAE76FF01500E7E7EB
:104D58006FF01B00E4E76FF01B00E1E784430208F3
:104D6800E4A802082DE9F04F97B000AF8346BA6176
:104D78003B61D7F88030C3F3C0033B62F96011B9D7
:104D880016F007F9F8609BF80260B14636B1D7F81B
:104D9800803013F0010F0DD1002300E000239BF8B1
:104DA80003207A6242B1D7F8802012F0020F22D194
:104DB800002202E00123F2E7002202B9EBB19BF8DE
:104DC8000050AA00BA60DBF804207A610BEB850575
:104DD800BA69F2B1002B40F00581B9F1000F00F07B
:104DE8001081D7F8803013F0040F40F00E810020B6
:104DF800F8610646FAE00122DFE7BB691BB13A69B0
:104E0800F96858469847FC6820465C37BD46BDE8B7
:104E1800F08FFC6853BB4D444FF00008D7F8803042
:104E280003F00503FB604FF0000AC7F81080A046A6
:104E3800C7F81CB0D7F804B0BEE004440135013609
:104E48004E45EBD22A7800235BF822201946B86930
:104E580016F0B4F8BAF1000FEFD0D7F888309845BB
:104E6800EBD22AF8180008F10108E6E70026B04658
:104E7800D7F884A0E4E700253B6A7BB9002D7DD0F4
:104E8800D7F8803013F0010F7DD1FB68002B73D168
:104E98000223A8EB03088CE00125EDE74946786971
:104EA80016F0D2F80028E9D0BB4B1B6813F0060FA8
:104EB80040D06C46002387F82C30022387F82D3029
:104EC8008AB0694611F1100237D012251AB1042DA3
:104ED80001DDB24B4B61002387F82830022387F8A5
:104EE80029306ABB112D44DD122362B1042087F8F2
:104EF8002C00002087F82D0087F82E00012087F865
:104F08002F00F86A08616FF3000B6FF3410B6FF322
:104F1800820B6FF3C50B022161F3881BC3F30A03ED
:104F280063F3532B6FF31F5B002359469A4801F034
:104F3800C9F8A546A8F102083BE06FF00045C5E7AF
:104F48002B46082D01DD786988610C2B01DDC1F83D
:104F58001C9001F1200300200128C3D800F1300C77
:104F680007F1280EF4441CF830CC03F801CB0130CB
:104F7800F2E76FF01B03B8E701238AE7D7F8803020
:104F880013F0020F15D0002322461946B86916F00F
:104F980015F8D7F8843053B13B69D7F88820934285
:104FA80005D2D7F8842022F8130001333B61013879
:104FB80080440AF1010A35467B6A9A4510D22E468A
:104FC80016F8029B6B78FA6952F82340744B9C429E
:104FD800FFF451AF734B9C42FFF45EAF00254BE7E3
:104FE800444611E707F144000023FB6118B14A4623
:104FF80029461FF0C3F84D444FF00008C7F8049045
:105008001EE00020F8610646F0E7FE6107F1340073
:105018000026EBE700253B6A33BB002D3BD0D7F8D1
:10502800803013F0010F26D0731C06F1300207F10F
:105038002801561806F8149CDEB208F10108254626
:105048007B6A98454AD22C4614F802AB95F8019031
:105058005BF82930524A9342DCD3524A934201D337
:105068000025D8E70125D6E75146786915F0ECFF09
:105078000028D2D0E1E7D7F8803013F0040FDCD055
:10508800FA69531C303207F128010A4402F8249CBB
:10509800DBB2FB61D1E7D7F8803013F0020F09D0FB
:1050A800731C06F1300207F12801561806F8149C03
:1050B800DEB2C2E7F869431C00F1300107F12802AB
:1050C8008A1802F824AC02460232D2B2FA6107F119
:1050D800580252FA83F303F8249CAEE7D7F80490F9
:1050E8009BF8003087F854309BF80130334487F838
:1050F8005530D7F8803013F0020F0ED1FB69C3F397
:10510800470387F85730D7F8803013F0010F06D1DE
:1051180013F0040F48D1002302E00023F1E7002335
:1051280087F85630DBF800003863786DCBF800005C
:10513800D7F810804246B9685846D7F818A0D04723
:10514800041EFFF661AE386BCBF80000C7F810807C
:105158004246F96907F13400D047002857DB04EBD1
:105168000008B96849447B6A01EB4301D7F81090FD
:105178004A46FB68591A2846D047041EFFF644AE33
:1051880008EB04054FF000087E62C7F820B05646C9
:10519800D7F884B01FE000BF7C1100201C61020812
:1051A80084430208E4A80208FB69B9E74FF0000A43
:1051B8004A46012107F12C00B047002829DB0544A5
:1051C800534622464946304615F0F8FE002822DBB1
:1051D800054408F101087B6A984511D208F13003AB
:1051E80007F12802134413F8143C87F82C303A6A64
:1051F80052F82340BBF1000FD8D03BF818A0D7E7EE
:105208003A6900210846BB6998472C46FCE50446E4
:10521800FAE50446F8E50446F6E500BF014B1860D8
:10522800704700BFCC0E002080B505460E461746D5
:10523800984613F07DFA03461FF096F80446DFF807
:10524800189049F80030424639463046A84754F885
:10525800090004F0B1FF00BF0800000008B50446CB
:10526800EFF31183102383F31288BFF36F8F1DF0C0
:1052780071F9204618F0C9FC024815F012FF18F021
:10528800E4FCFCE7D461020882B04FF0B0439A6CAA
:1052980042F001029A649B6C03F001030193019BA5
:1052A800034A536843F002035360002002B070477A
:1052B800002004E0064B1A6842F400721A601A686B
:1052C80042F480621A60034B034A1A600020704758
:1052D80000400058C010002000093D002DE9F043AF
:1052E80087B0044600230393C36A1F7900F11409A9
:1052F8004FF0FF324FF0FF33484612F083FBE36A6A
:105308001B68DAB2012A08D9134607325B4203EA5E
:1053180002064FF00008454603E00826F9E7013584
:10532800ADB2E389AB421CD9A189891B89B201EBD3
:105338000541039108233A46204616F008FB002849
:10534800EDD008F101081FFA88F803A9204616F0E5
:1053580058FB08233A460399204616F0F8FA002825
:10536800DDD1E389434500F00481AB420DD003A9A8
:10537800204616F07DFB0546002840F0DF80039BA1
:1053880063601B0C1B04A36010E008233A460399D2
:10539800891B204616F0DBFA0028E8D103A920462D
:1053A80016F02FFBE3E763689B1B63606168A368E3
:1053B80099422ED304AA204616F0C4FA05460028BE
:1053C80040F0B580394604A816F00FFB08B304A9CD
:1053D800204616F031FB0028E5D0BDF80E30190440
:1053E800A160BDF81230BDF814000344E26A1268E7
:1053F800D5B2012D03D92B44013B6A4213400B441B
:10540800A36062689342CED10028CCD06FF01C050F
:1054180094E0E3881B04039303A9204616F0F1FAED
:10542800A3893A460399204616F091FA051EC0F260
:105438008580002D68D063683344039302E0039BA2
:105448003344039303998AB2A3899B1B9A4218D2C7
:1054580001AA204616F076FA0546002867D101A968
:10546800204616F0E9FA0028E9D0BDF804204FF6E6
:10547800FF739A42E3D1BDF80830002BDFD1012336
:1054880000E00023E3B93C4B1B6803F00703022B41
:105498002FD86168204616F08BFA054600284DD1B2
:1054A800E3881B046360A289A2EB4602134463608D
:1054B8001B0C1B04A360204616F042FC054636E090
:1054C8002D4B1B6803F00703022B0CD8E3881B0441
:1054D800039303A9204616F094FA0399204616F080
:1054E80067FA054623E0254A0321234816F0B0FE53
:1054F800ECE7234A0321204816F0AAFEC9E7A3686F
:10550800E26A12681344A3606368A1688B4208D9F1
:105518005B1A3A46204616F01AFA051E07DB002DDC
:10552800EDD1616801EB4602A3899A420DD02DB9ED
:10553800A288A389A3EB46039A4215D0484612F0E5
:10554800E1FA284607B0BDE8F083A2680B0C1B04FB
:105558009A42ECD0204616F02BFA05460028EDD1E9
:10556800E3881B04A360E2E7204616F0D1FB05465A
:10557800E4E76FF02C05E1E78C11002004620208D3
:105588001C62020830B587B0044614301DF099FC3F
:10559800A06A8368DB689847E062002837D0A06A71
:1055A8008368DB6898470368013B1F2B3DD8A06AD6
:1055B800216803AA1BF019FB002844D1A389002BFA
:1055C8004FD0049AB3FBF2F102FB1133002B48D100
:1055D800E389012B53D92046FFF780FE054698B989
:1055E800012323743B4B1B6803F00703022B54D899
:1055F800384B1B6803F00703022B57D8354B1B6841
:1056080003F00703022B5BD8284607B030BD314BA7
:105618001B6813F0070F02D16FF01505F4E72E4A47
:1056280001212C4816F014FEF6E72A4B1B6813F0EC
:10563800070F02D16FF01505E6E7284A0121254832
:1056480016F006FEF6E7234B1B6813F0070F02D18E
:105658006FF01505D8E7224A01211E4816F0F8FD1B
:10566800F6E71C4B1B6813F0070F02D16FF0150506
:10567800CAE71C4A0121174816F0EAFDF6E7154B60
:105688001B6813F0070F02D16FF01505BCE7164A27
:105698000121104816F0DCFDF6E7E389A2890092A3
:1056A800124A03210B4816F0E8FDA1E76268130CC3
:1056B80092B200920E4A0321064816F0DEFD9DE7DD
:1056C800A268130C92B200920A4A0321014816F00C
:1056D800D4FD99E78C110020586202087C62020808
:1056E8009C620208B4620208C8620208EC620208FE
:1056F80004630208186302082DE9F04F87B001928D
:1057080090F810B0BBF1000F26D004460E4699461B
:10571800C36A1B68D9B201292CD901F1070A4A4288
:105728000AEA020A012928D9DBB209EB030808F1C1
:10573800FF385B4208EA0308A389A3EB8A034B45B9
:10574800C0F09080B9F1000F03D0019B002B00F04E
:105758008C806368039316E0454B1B6813F0070FB2
:1057680002D16FF00C0575E0424A0121404816F05D
:105778006FFDF6E74FF0080AD4E7C846DCE7626831
:10578800039B9A4213D0039F04AA03A9204616F04C
:10579800CFF9054600285DD1BDF81030B342EED1EF
:1057A80004A9204616F048F90028E8D001E04FF097
:1057B800000BBBF1000F18D03F0C3F04BDF81210CE
:1057C8003944B9F1000F03D1BDF8143083B941E071
:1057D800BDF814304B450BD14B46019A204616F0C4
:1057E800A1FB002804DC054634E0B9F1000F31D0F4
:1057F800B8F1000F1DD01AFA88F7BFB204F11408E7
:105808004FF0FF324FF0FF33404612F0FBF8E389C8
:105818009D421AD06268A3683B449A420BD2204644
:1058280016F04DFBD0B9204616F08AFAC0B90135FA
:10583800EDE70027E2E74B46019A3146204616F08D
:105848001FFB054618B94D4601E06FF01B054046A1
:1058580012F058F9284607B0BDE8F08F0546F6E77C
:105868000546F4E76FF01505F4E76FF01505F1E765
:105878008C110020446202082DE9F04784B0994653
:10588800BDF83080037CA3B104460F469246C36A34
:105898001B68DAB2012A1AD9134607325B421A404A
:1058A800A389A3EB42034B4552D3666803960025B0
:1058B80013E02C4B1B6813F0070F02D16FF00C0399
:1058C8003BE0294A0121274816F0C2FCF6E70822E6
:1058D800E6E76268039B9A4216D0454514D8039EB2
:1058E80001AA03A9204616F023F9034628BBBDF8F0
:1058F8000430BB42EDD101A9204616F09DF80028DE
:10590800E7D00135ADB2E4E76268039B9A4218D04C
:10591800BDF80830FBB1454520D3360C3604BDF838
:1059280006104B4528BF4B4652463144204615F0D9
:10593800FAFF034608B9BDF80830184604B0BDE8B8
:10594800F087BDF80430BB42E2D06FF00103F4E702
:105958006FF01503F1E76FF00103EEE76FF0010355
:10596800EBE700BF8C1100204462020870B50646C0
:105978000D46084C04E02A46314620469847103424
:10598800054B9C4204D223689B69002BF3D1F6E7B0
:1059980070BD00BFAC490208BC49020808B51DF03B
:1059A800D6FE0022431819D213440D4AA2FB03CE97
:1059B8002EF0030C0CEB9E0CA3EB0C03C01A61F148
:1059C80000014FF0CC3300FB03F302FB0133A0FBD3
:1059D80002021344400840EAC37008BD0122E3E70D
:1059E800CDCCCCCC2DE9F041074605460AE007EAC4
:1059F8000807144B03EB06135B680422196820465A
:105A080000F030FBD5B195FAA5F6B6FA86F60D4C3E
:105A180004EB06140123B3406FEA030825EA0305E3
:105A2800237B002BEED03301064AD3581B69002B89
:105A3800DDD0204698470028E4D1D8E73846BDE8AD
:105A4800F08100BFAC4902082DE9F04180460F46BD
:105A5800204BBFF35B8F53E8005F6A1C43E80021CB
:105A68000029F8D1BFF35B8F002D2FD11A4C0026E7
:105A780007E0636804221968204600F0F3FA01364B
:105A88001034164B9C4213D2237B002BF7D023688B
:105A9800DB680BB12046984723681B69002BE8D0C8
:105AA800204698470028E4D00123B3401D43E6E789
:105AB800B8F1000F0BD055B12846FFF793FF054604
:105AC800002FF8D00A2016F079FAF4E700252846C6
